:020000040001F9
:10B0000058290020AD13020033C7010037CC0100DE
:10B010000000000000000000000000000000000030
:10B02000000000000000000000000000B7FD01006B
:10B03000000000000000000007FE0100E7FE010024
:10B04000890C02000B120200010C0200BF1002006A
:10B050006B1402000000000049FA0100771402009E
:10B06000AD140200AF140200B1140200B3140200C8
:10B07000B5140200B7140200B9140200BB14020098
:10B08000BD140200AFED0100BF140200C1140200A4
:10B09000C7ED0100C314020049F20100C51402000B
:10B0A000C7140200C91402000000000000000000E4
:10B0B0000000000000000000000000000000000090
:10B0C000F1B5A4B00E0014001D004A487844FF30CA
:10B0D000253003C822AA03C2049600200D9001E087
:10B0E0000098241800206946C88022AB0022D24371
:10B0F000210001A8801C01F03CF90090012805DA2C
:10B100002078411E8941C943C90F00916846C08813
:10B110002528009F00D17F1E012F0EDB26003178ED
:10B120000498249A90470490002800D107E10D98D4
:10B13000401C0D90761C7F1EF1D16846C0882528E2
:10B1400007D100200790089009900A900B900C906E
:10B1500008E06846C0880028C2D10D98F1E00100DF
:10B1600001200843641C21782029F8D023290ED01F
:10B170002B2904D02D2907D030290BD00DE0010058
:10B180000220084380B2EDE701000420F9E7010046
:10B190000820F6E701001020F3E72A290FD12968DB
:10B1A00029600A68091D29600F92002A05D55142BD
:10B1B0000F9101000420084380B2641C12E00021BA
:10B1C0000F910AE00F9A7F4B9A4205D093009A188C
:10B1D0005200511830390F91641C21780A00303A1E
:10B1E0000A2AEFD321782E2906D00021C9430E91D7
:10B1F00021E000BFE4610000641C21782A2907D106
:10B20000296829600A68091D29600E92641C12E0F1
:10B2100000210E910AE00E9A6A4B9A4205D09300E3
:10B220009A185200511830390E91641C21780A0086
:10B23000303A0A2AEFD302A9088726783100044859
:10B2400078440C3001F0A3F8002803D0641C02E01D
:10B2500090610000002602A83A214654405C68280C
:10B2600004D12178682901D1622005E06C2807D13A
:10B2700020786C2804D1712002A93A228854641CD9
:10B2800012A806902678641C300025382AD01C3875
:10B2900000D1E0E0001F022800D8DCE0133800D124
:10B2A000FFE0093800D1D6E0801E00D168E1401EE1
:10B2B00000D140E1401E022800D8CCE0001F00D1A0
:10B2C00039E1401F00D197E0401E00D1E9E0401E67
:10B2D00039D0C01E0BD0801E00D1E2E0C01E00D1CC
:10B2E000DFE070E1252012A90870012075E102A8B5
:10B2F0003A21405C6C282868286016D00668001D3A
:10B30000286005960E9F002F03D5300001F049F804
:10B3100009E03A000021300001F04BF8002801D08C
:10B32000801B00E03800089058E10268001D28608A
:10B3300002A9249800F032FA002800D44EE100203F
:10B34000C04325B0F0BD286828600268001D286051
:10B350000020C0430021104002AA03C212A8059099
:10B36000069B3C2602A803C8002904D1002802D16C
:10B370000E9A002A14D0761E00960207120F303261
:10B38000D2B23A2A00DB27329A5500090A07104345
:10B39000090901D1002803D0059A9F19BA42EAD3BE
:10B3A0003C20801B0890991905910E9988420DDA6E
:10B3B000081A0A9002A8008F0349014002A80187D9
:10B3C0000CE100BFFFFFFF7FEFFF0000002900D46A
:10B3D00004E102A93822895C14220A40102A00D014
:10B3E000FCE00F99079A891A0A9A891A0E1A012EF7
:10B3F00000DAF3E00A96F1E002A83A21405C622804
:10B4000019D0682806D06A280CD06C281BD0712867
:10B4100008D018E0286828600168001D28600D9891
:10B420000880DBE0286828600268001D28600D980D
:10B43000C11703C2D2E0286828600168001D286097
:10B440000D980870CAE0286828600168001D28600F
:10B450000D980860C2E02A68D21D072082432A6046
:10B4600003CA2A6002AA03C2002902D507982D2127
:10B470000AE002A8008F810702D507982B2103E07C
:10B48000C00705D50798202112AA1154401C079027
:10B4900012A8079940180590310002A800F0A8FBF7
:10B4A0009CE002A83A21405C6C280BD0712801D0A6
:10B4B0006A2807D12A68D21D072082432A6003CA5E
:10B4C0002A6005E0296829600868091D29600021B3
:10B4D00002AA03C202A83A21405C682803D102A84C
:10B4E00003C880B20BE0622803D102A803C8C0B22F
:10B4F00005E0742801D07A2804D102A803C80021ED
:10B5000002AA03C202A83821405C00072FD502A876
:10B5100003C8002901D1002829D0202030437828F1
:10B5200025D10798302112AA1154401C411C0791C3
:10B5300012A90E541BE0290002A83A22805C00F0F8
:10B54000F8F802AA03C202A8002902DA07982D21FE
:10B5500009E0008F810702D507982B2103E0C0077F
:10B5600005D50798202112AA1154401C079012A853
:10B57000079940180590310002A800F0A1FA2DE0CB
:10B5800002A83A21405C6C2809D001200790286865
:10B5900028600168001D286012A801701EE028685C
:10B5A00028600168001D2860684601800020694607
:10B5B0004880C0430E906A4602A9249800F0EEF835
:10B5C00000280BD5BBE6252012A9087001200790A2
:10B5D000300003D012A84670022007900F980799F8
:10B5E000401A0A99401A0899401A0B99401A099969
:10B5F000401A0C99401A009002A83821405C40077C
:10B6000011D4202069460871009801280BDB009EA8
:10B61000012301AA02A9249800F093FE002800D07B
:10B620008DE6761EF4D1079F12AE002F0DD0317833
:10B630000498249A90470490002800D17FE60D9842
:10B64000401C0D90761C7F1EF1D130206946087198
:10B650000A9E012E0ADB012301AA02A9249800F008
:10B6600070FE002800D06AE6761EF4D1059E089F81
:10B67000002F0DD031780498249A90470490002828
:10B6800000D15CE60D98401C0D90761C7F1EF1D118
:10B690003020694608710B9E012E0ADB012301AAA6
:10B6A00002A9249800F04DFE002800D047E6761E3F
:10B6B000F4D1059808994618099F002F0DD03178CC
:10B6C0000498249A90470490002800D137E60D98FA
:10B6D000401C0D90761C7F1EF1D130206946087108
:10B6E0000C9E012E0ADB012301AA02A9249800F076
:10B6F00028FE002800D022E6761EF4D102A83821C8
:10B70000405C400700D4EDE42020694608710098B1
:10B71000012800DAE6E4009E012301AA02A9249888
:10B7200000F00FFE002800D009E6761E00D1D9E413
:10B73000F2E70A00622822D0682819D06A2808D0C7
:10B740006C2823D0712804D074281FD07A2808D000
:10B750001CE01368DB1D07208343136003CB1360D9
:10B760007047116811600868091D11600021704759
:10B77000116811600868091D116000B20BE01168C2
:10B7800011600868091D116040B204E01168116081
:10B790000868091D1160C11770470000F4B59AB020
:10B7A00007000C00206B002800D50E48039000F025
:10B7B0000CFE616B0818069009487844223003C8D3
:10B7C00007AA03C23820205C400702D4069841280B
:10B7D0000AD209A80290402006900020059012E0AD
:10B7E000085C0000FFFFFF7F00F0F4FD02900028DE
:10B7F000F3D10020C04361E11A98801C1A9003988D
:10B800000199401A03900398012800DAD0E007AAB2
:10B810001A98018800A8401C00F038FE019000280A
:10B8200000D5E2E01A980088002804D10198401E53
:10B83000019000D5D9E003980199884200DAB7E079
:10B8400060690699019A8218914200D39FE0002115
:10B8500061634142206A081AA169401A616A401A6C
:10B86000E169401AA16A401A04903820205C400720
:10B8700011D4202069460870049801280BDB049D30
:10B8800001236A462100380000F05BFD002800D04B
:10B89000ABE06D1EF4D16669029D002E0CD02978B4
:10B8A000A068B847A060002800D19EE0E06A401C74
:10B8B000E0626D1C761EF2D1302069460870256A60
:10B8C000012D0ADB01236A462100380000F039FD12
:10B8D000002800D089E06D1EF4D1E568A669002E2D
:10B8E0000BD02978A068B847A06000287DD0E06A16
:10B8F000401CE0626D1C761EF3D130206946087052
:10B90000656A012D09DB01236A462100380000F039
:10B9100018FD002869D16D1EF5D1E068A1694518B0
:10B92000E669002E0BD02978A068B847A0600028EF
:10B930005BD0E06A401CE0626D1C761EF3D13020C3
:10B9400069460870A56A012D09DB01236A462100BA
:10B95000380000F0F6FC002847D16D1EF5D13820E4
:10B96000205C400710D52020694608700498012803
:10B970000ADB049D01236A462100380000F0E1FC47
:10B98000002832D16D1EF5D1002005906061019A2A
:10B9900000A9491C02986369C01800F083FD606922
:10B9A0000199401860611A980088002800D023E7A8
:10B9B000059800287BD1606B6169401A216A401AA2
:10B9C000A169401A616A401AE169401AA16A461ADF
:10B9D0003820205C400711D4012E0FDB35002021D8
:10B9E000A068B847A060002803D10020C04305909C
:10B9F0005DE0E06A401CE0626D1EF0D16369029A6E
:10BA00002100380000F09DFC0028EED1256A012DB0
:10BA10000ADB3021A068B847A0600028E5D0E06AC2
:10BA2000401CE0626D1EF4D1A369E2682100380079
:10BA300000F087FC0028D8D1656A012D0ADB30218F
:10BA4000A068B847A0600028CFD0E06A401CE06240
:10BA50006D1EF4D1E369E068A16942182100380045
:10BA600000F06FFC0028C0D1A56A012D0ADB30214F
:10BA7000A068B847A0600028B7D0E06A401CE06228
:10BA80006D1EF4D13820205C40070DD5012E0BDB54
:10BA900035002021A068B847A0600028A5D0E06A42
:10BAA000401CE0626D1EF4D100206061606302986A
:10BAB00009A9884201D000F023FD05981BB0F0BD14
:10BAC000F3B583B0006900906846027C6F2A01D10B
:10BAD000082406E020211143782901D00A2400E03F
:10BAE00010243C25039803C806000F00642A01D0E7
:10BAF000692A07D1002905DA00200021801BB941FD
:10BB000006000F00002F10D1002E0ED10398006BFD
:10BB100000280AD1082C3AD103983821405C00074C
:10BB200035D53B253020009930E06D1E0195300061
:10BB300039002200E31700F027FD3032D2B23A2A52
:10BB400003DB6846007C51381218009842553000DB
:10BB500039002200E31700F017FD06000F0001D1A5
:10BB6000002E05D00398C068009949198842DCD39B
:10BB7000082C0CD103983821405C000707D50098A9
:10BB8000405D302803D06D1E3020009948553C2080
:10BB9000401B0399886100994919039AD160039960
:10BBA000096B884209DA081A039908620398008F22
:10BBB0000E4901400398018715E0002913D5039928
:10BBC0003822895C14220A40102A0CD10399496B4F
:10BBD000039A5269891A039A126A891A0D1A012D59
:10BBE00001DB0398056205B0F0BD0000EFFF000027
:10BBF000F3B591B006AA03C802AB03C312A800783C
:10BC000020210143009161290BD01198006B00287D
:10BC100001D5062003E004D1672902D10120119942
:10BC20000863119840684100490DA64B994225D1FF
:10BC3000000310D11198006800280CD1032011993D
:10BC4000886112A8007861381A283AD31F487844CE
:10BC50007A3000900BE003201199886112A80078D7
:10BC600061381A2829D31A48784464300090032296
:10BC700000991198C06800F015FCE9E1012919DB71
:10BC8000914B034091481843119B586090480D1AFE
:10BC90000026F6430098612827D11198C06830210A
:10BCA0000170811C119BD96012A90978612915D1F5
:10BCB000782114E000260025ECE70648784414308B
:10BCC000D4E7054878441030C3E700BF3057000080
:10BCD000245700001C5700002057000058214170D5
:10BCE00011984069801C11994861002E03D10024ED
:10BCF00068468680A3E10098612800D09EE01198F4
:10BD0000046B002C01D5212400E0641C24B2601CCB
:10BD100000901198C0C802A803C80022002300F0B8
:10BD200068FC02D280200006474002A8C0C0281F3D
:10BD30006946888000260E7606A8471C00980128D0
:10BD400035DB02A803C8002280235B0300F06AFCF5
:10BD50002DD81C2102A800F083FC02A803C800F023
:10BD6000BFFC05000098C01F009001280ADB2800D6
:10BD700000F0E0FC02000B0002A803C800F051FD37
:10BD800002AA03C2F81D072104E0401E2A07120F71
:10BD900002702D11012D01DB491EF6D5491E02D47A
:10BDA000401E0670FAE7C71D00980128C9DA06A8E8
:10BDB000401C391A06A8421CA14200DA0C0024B229
:10BDC000200032D4884205DA06A9091849780829E2
:10BDD00000DB0F2606A9091801E0641E491E401E5B
:10BDE0000B78B342F9D00F2E04D106A909184B786D
:10BDF0005B1C4B70002806D506AA641C019800B293
:10BE0000001D6946888024B2601E0ED411180B787C
:10BE10003033DBB23A2B03DB12AD2D783A3D5B19A0
:10BE20000B70401E491E0028F1D51198006B0028A8
:10BE300000D404E1601E1199086300E102A803C860
:10BE40000022002300F0D5FB06D202A803C88022FE
:10BE50001206514002AA03C22DB27E4868437E49B1
:10BE600000F06CFD694688800720019909B2421AEA
:10BE700000207A49012A20DB049202AA30CA002657
:10BE80000F000498C00707D532003B0020002900AE
:10BE900000F0AEFD04000D00049840100490300046
:10BEA000390032003B0000F0A3FD06000F000498AB
:10BEB0000028E6D102A830C029E054420026684F8D
:10BEC00019E000BFFF070000FFFF0F800000E03F08
:10BED000FE030000E00707D504A803C832003B00BA
:10BEE00000F086FD06000F00641004A803C804AA31
:10BEF0000CCA00F07DFD04AA03C2002CEAD102A8FE
:10BF000003C832003B0000F035FE02AA03C20098CD
:10BF1000662803D1019800B20A3000E0062011998A
:10BF2000096B08180490142801DB132004903020BA
:10BF30006946087606A8441C049801283BDB02A841
:10BF400003C800F0DFFB06000834042530000A2196
:10BF500000F0F7FC0F0030000A2100F0F2FC0600B0
:10BF60003037601E077030000A2100F0EAFC0F0035
:10BF700030000A2100F0E5FC0600A41E30372770CF
:10BF80006D1EE3D108340498083804900128D3DBEF
:10BF900002A803C800F0B6FB00F0D6FB02000B00BD
:10BFA00002A803C800F03DFC00222E4B00F020FD4B
:10BFB00002AA03C2C3E706A8401C201A06A94A1C0D
:10BFC0006B4605E0401E019909B2491E9980521C3A
:10BFD00011783029F6D00099662903D1019909B268
:10BFE000491C04E0652901D1012100E00021119BD9
:10BFF0001B6B5C1824B2A04200DA040024B22100BA
:10C000001DD4814204DA505C352801DB392000E080
:10C010003020531800E0641E5B1E491E1D788542C7
:10C02000F9D0392802D1505C401C5054002906D563
:10C03000521E641C019800B2401C69468880019819
:10C0400000B2009023B212A80178119800F00CF809
:10C0500013B0F0BD97750000A086010000002440D9
:10C060000000F03F84D79741F3B587B015001C005E
:10C0700000F0FBFD0090406A00786946087107985F
:10C08000076B012C01DA0124ADA508A80178202056
:10C0900008430E9E662801D1761C17E0672800D061
:10C0A0009EE00321C9438E4200DA9DE0BE4200DBE0
:10C0B0009AE0761C07983821405C000702D4BC4205
:10C0C00000DA270036B2BF1B00D500270798806929
:10C0D0000799C9680918009136B2012E2EDA401C62
:10C0E0003021009A1170012F04DA07993822895CF7
:10C0F000090705D569460979079AD2681154401C89
:10C10000079988617042874200DA7E4236B27042F7
:10C1100007994862BF19A74200DA3C0024B2079889
:10C12000C461220029000798C068079B9B69C0185A
:10C1300000F0B8F9381B07998862E2E0B44220DACF
:10C1400022002900009800F0ADF9079989690919C2
:10C15000079A9161301B079A5062012F04DA079801
:10C160003822805C000709D568460079079AD268B2
:10C1700050540798C069401C0799C86107988762A6
:10C18000BFE032002900009800F08CF90798806920
:10C190008019A41B012F04DA07993822895C09074A
:10C1A00005D569460979079AD2681154401C079948
:10C1B000886124B2A74200DA3C0024B22200A91907
:10C1C0000798C068079B9B69C01800F06BF9079837
:10C1D0008069001907998861381B0799486290E0C7
:10C1E000612914D1702015E0BC4205DA0799382284
:10C1F000895C090700D427007F1E00D5002708A806
:10C200000078672801D1652004E0452002E041293B
:10C2100002D1502008A9087007988069411C079A2C
:10C2200091612978079AD2681154681C0090012FF7
:10C2300004DA07983821405C000720D50798816907
:10C24000481C079A90616A461279079BDB685A542A
:10C25000012F14DB641E24B2A74200DA3C0024B292
:10C2600022000099079BDB68181800F01BF907985B
:10C270008069001907998861381B079948620798F7
:10C28000C06807998969411808A8007808703000CB
:10C2900003D42B2048708D1C03E02D224A708D1C86
:10C2A0004642002404AF08E00A2202A800F0F8FC8D
:10C2B00003983870029E641C7F1C31B20129F3DAA6
:10C2C000022C08DA08A8007820210143652902D150
:10C2D000302028706D1C002C09D1302028706D1C76
:10C2E00007E0641E04A8005D303028706D1C012C2E
:10C2F000F7DA0798C068079989694018281A0799DA
:10C30000C86107983821405C14210140102914D1DC
:10C31000079840690799896940180799496A401840
:10C320000799C96940180799896A40180799496BA4
:10C33000884202DA081A0799086209B0F0BD0000C5
:10C340003000F1B50E0014000027002B0FD01D00A7
:10C350002178B068009A9047B060002806D0F06A53
:10C36000401CF062641C6D1E01D0F1E7FF433800F1
:10C37000F2BDF8B504000F0015001E0000F0A0FC8F
:10C3800033002A003900200000F0ACFCF2BDC9B235
:10C3900000E0401C02788A4202D0002AF9D1002035
:10C3A0007047010000E0491C0A78002AFBD1081AF6
:10C3B0007047C9B201E0401C521E002A03D0037826
:10C3C0008B42F8D170470020704780B500F078FCB0
:10C3D000012002BD70B505002C000F3407208443F6
:10C3E000C046C046A54233D2082C04D2082402E03D
:10C3F000083000F085F82448026811000CD1011DB6
:10C400000A68002A20D01368A34212D2111DF7E750
:10C410001D68A5420DD2191D0B68002BF8D11268BA
:10C42000011D00E0191D0B6893420DD01D68A54247
:10C43000F8D300290CD00D682A681300083BA342EA
:10C440000AD26A680A600FE000F06AFC0028CFD1C7
:10C45000C046C046002070BD2B190B606E685E6040
:10C46000121B0B681A602C600968002904D04A6806
:10C47000002A01D0091D00E000210160C046C0462D
:10C480002800083070BD0000F039002070B50400AD
:10C490000D00160000F014FC32002900200000F00E
:10C4A00017FC70BD124207D08B0706D00B78491CD1
:10C4B0000370401C521EF7D87047830706D00B78D4
:10C4C000491C0370401C521EF9D1704770B4103AD9
:10C4D00003D378C9103A78C0FBD2530701D318C9E7
:10C4E00018C001D508C908C0D20704D30B8803803F
:10C4F000891C801C002A01D50B78037070BC704722
:10C50000002800D1704738B5083804002068082892
:10C5100036D3400734D1C046C0461A484168002986
:10C5200001D08C4203D26160446019E019004B686D
:10C53000002B01D0A342F9D30B68CD18AC421DD318
:10C54000A54204D122689A180A600C0008E04A68E3
:10C55000002A03D02368E3189A420FD362604C602C
:10C56000616800290AD02268A3188B4206D10023F3
:10C57000036008681018206048686060C046C046C4
:10C5800031BD0000F0390020124224D0994228D950
:10C5900070B500251B4202D00C00002109E00024E8
:10C5A000012649186441944200D3A41A7641F8D375
:10C5B0003100012601E0764109D2001864416D4145
:10C5C000A41A9D41F7D2A4185D41B619F5D33000E5
:10C5D00022002B0070BD1B42D8D108B5C046C04612
:10C5E00008BD01D19042D3D202000B0000210020EF
:10C5F000704730B4012464054D00EC420BD85D0057
:10C60000EC4208D80C001C4364000443144304D2D9
:10C61000994200D1904230BC7047FCD08B42FAD195
:10C620008242F8E730B4012464054D00EC420BD897
:10C630005D00EC4208D80C001C4364000443144322
:10C6400004D28B4200D1824230BC7047FCD0994268
:10C65000FAD19042F8E70268531C036011707047EA
:10C6600010B4020050684000400D194B984207D1A9
:10C670005068000302D11068002811D0022025E084
:10C68000002823D001290DDB1B1A99420AD35068D8
:10C69000002802D500200F4901E000200E4903C206
:10C6A000012013E043428B4209DA53680B4C1C40D3
:10C6B00008180005204350600020C04306E0506881
:10C6C00080210906084050600020106010BC7047AF
:10C6D000FF0700000000F0FF0000F07FFFFF0F8069
:10C6E000F4464A1805D200F00FF801D5801740082B
:10C6F000604700F009F80121C907884200D9080005
:10C70000404260474A1812D2400DC9020843012135
:10C71000C9070843520D40210901521A521C06D480
:10C7200052421F3201D4D0407047C01770470020DA
:10C730007047FEE7010009D5F446404200F006F8D4
:10C740000122D20711436047010000BF42221201BB
:10C75000D21E004207D002D4521E0018FCD5C10AD6
:10C7600040051205891870478B4200D1824205D9D5
:10C770008446100062468C4619006346DF184C1848
:10C78000640D7F0D3AD0661C760537D0E61B352E3A
:10C7900034DCDB022B43DB0A0C0DC9022943C9122E
:10C7A000202E0DDB1700203E06D01F00F741F3407E
:10C7B0005F400026012A7741C01871410DD217E071
:10C7C0001700F741F2405740F3415A40B340F3405D
:10C7D0005A400026801859410AD3A21C52050FD096
:10C7E000C207012F724117004008CB0718434908C0
:10C7F000641C24054208AF4170416141F0BC7047A0
:10C80000641C21050020F9E76B4010E06B40ABE7AA
:10C81000F742F3D1E943F1E72442EFD100200021B0
:10C82000ECE7F0B40125ED070F005F40EED40C00FB
:10C83000871A9C4105D2C01BA141D21963416940AE
:10C840006B40AE0ADF184C18F442E1D2640D7F0D44
:10C85000E2D0E61B362ED1DCDB022B43DB0AA446FA
:10C860000C0DC9022943C90A012E28DC04D1D607C0
:10C870005208DF073A435B08EF0A7642904199413C
:10C8800014D039423BD1B61940414941761C394256
:10C8900004D1761C001849413942FAD0B9436746A1
:10C8A000B74208D9A41B24052143A7E70042EAD1D7
:10C8B0003642E8D1A2E7E40AE10700209EE7202EF5
:10C8C0000BDD203E1F00F340F7415F40012A0022AC
:10C8D00057417E42984191410BE01700F741F240E9
:10C8E0005740F3415A40B340F3405A407E42904192
:10C8F00099410A0303D2641EB619404149410027F9
:10C90000641E24054208AE4178416141F0BC704785
:10C91000F446002804D4494200F013F8404260472E
:10C920004042002905D45FD000F00BF84042494254
:10C930006047494200F005F84942604703460B430F
:10C94000E6D40022030A8B420BD203098B4219D290
:10C9500043088B422ED2411A00D201465241104662
:10C960007047FF2209023FD012068B4205D31212F4
:10C9700009028B4201D31212090203098B4219D317
:10C9800000E0090AC3098B4201D3CB01C01A52410E
:10C9900083098B4201D38B01C01A524143098B4258
:10C9A00001D34B01C01A524103098B4201D30B0141
:10C9B000C01A5241C3088B4201D3CB00C01A524166
:10C9C00083088B4201D38B00C01A524143088B422B
:10C9D00001D34B00C01A5241884200D3401A524141
:10C9E000CFD201461046704708B5C046C04608BDC4
:10C9F000F0B50E005E400125ED072E40B446AE0AAC
:10CA0000DF184C18F44208D2F7420ED2640D01D060
:10CA10007F0D12D100206146F0BD05D1F74201D84B
:10CA20007F0D05D10020C143F0BDFBD1640DF9D0CD
:10CA30000020C143490549088FE0E419C902DB021F
:10CA400029432B43DB0A460DC00231438E4630B4E6
:10CA500087B295B27D432E0CADB2140C7C43A41961
:10CA6000260C240425439CB27C43A419190C794359
:10CA7000270CC919A4B20F043C43090C000C97B24F
:10CA800047432E0CBE193543ADB2170C4743360C45
:10CA9000BF19A6B2BF193E043543240C3E0C36190B
:10CAA0009FB24743BF19BCB23E0C89191F0C4743C4
:10CAB0007F183E043443390C704680B297B2474326
:10CAC0002E0CBE193543ADB2170C4743360CBF19B7
:10CAD000A6B2BF193E043543240C3E0C36199FB252
:10CAE0004743BF19BCB23E0C89191F0C47437F183E
:10CAF0003E043443390C77463F0C90B278432E0CF9
:10CB000080190604ADB22E43050CA0B22D18120CEC
:10CB10007A435019020C80B2240CA4189AB27A43BA
:10CB2000121914042043120C89181B0C7B43C918DA
:10CB300030BCEF0A394203D1B61940414941641E65
:10CB40006F12BF0DE41B0BDBFF19BC4211DA240589
:10CB500000274208AE417841614166463143F0BD4D
:10CB6000641C05D1401C6141CF0201D34908F4E7A0
:10CB700050E75DE7F0B40E005E400125ED072E4062
:10CB8000B446AE0ADF184C18F4423BD2F74241D209
:10CB9000640D43D07F0D38D0E41BC902DB0229436A
:10CBA0002B43CF0ADB0A0600B61A9F4104D2641E4B
:10CBB000B6197F41B6185F416812800D241800181D
:10CBC000844222DAE80C0021B6197F41B61A9F414F
:10CBD00002D2B6185F413F1C40414941F4D3241CA6
:10CBE00021DD2405B6197F41B61A9F4105D337438D
:10CBF000C60737430026012F704161416646314325
:10CC0000F0BC7047FCD1F74205D20020C143490572
:10CC10004908F3E704D00020C143F1E77F0DFAD0C3
:10CC200000206146ECE72442FAD1401C61410F0329
:10CC3000F6D30020E2E7FEE780B51248C046C046C2
:10CC400011A1016041608160C16001614161816148
:10CC50000EA242628162C162016341630CA28263DF
:10CC60000DA2C2630164416401BD10B50548C04610
:10CC7000C04604002068002801D1FFF7DDFF200036
:10CC800010BD000054200020000000002E00000015
:10CC900066616C73650000007472756500000000C9
:10CCA0007CB504000E00150030002900FFF746FE99
:10CCB00000904543701B0190684603C803C476BDCD
:10CCC00080B50248C046C046806902BDE42000200D
:10CCD000002804D10EA003C803C2002070470170D1
:10CCE00001207047002904D10BA003C803C3002012
:10CCF0007047002A02D10120C0437047002801D0AC
:10CD00000A7802800978481E8041C043C00F7047EE
:10CD10000000000000000000000000000000000013
:10CD200007490868002801D00020704705480722FD
:10CD30009043086004499143091A0160704700BF9D
:10CD4000FC3900205F290020582B0020FA2189009F
:10CD500048430FD0A7490968A74A00BF00BF00BFDA
:10CD600000BF00BF00BF00BF00BF914200D000BFA6
:10CD70000138F2D1704770B586B016001C0000294A
:10CD800008D0012902D0042952D063E0807F00F04E
:10CD90006DFC5FE01421684600F022FD22003100A6
:10CDA0006846FFF77FFB6C46207804280ED9F738D9
:10CDB0001CD0801E2ED0401E32D0401E0AD0401EF5
:10CDC0000ED0401E18D0401E1CD043E0611C00F065
:10CDD0008CFC3FE00120FFF7B9FF611C1F2024E01D
:10CDE0000120FFF7B3FF611C03201EE00120FFF7C5
:10CDF000ADFF611C052018E00120FFF7A7FF611CB3
:10CE0000012004E00120FFF7A1FF611C002000F0D9
:10CE100041FC1FE00120FFF799FF611C002004E0A6
:10CE20000120FFF793FF611C012000F06EFC11E070
:10CE3000A94D152C04DB2A00DB21002000F0D2FCD8
:10CE40002100300000F0C2FE002803D02A00DE21BD
:10CE500000F0C8FC06B070BD012900D0704780B555
:10CE6000417F007F00F029FC01BD80B500280CD077
:10CE700003280DD1022001F077F8002808D0964A47
:10CE8000FF216E3100F0AEFC01BD032001F09CF9E2
:10CE900001BDF0B589B00500904F38888E4E2988C5
:10CEA00002295ED010290CD0112916D0132933D0B5
:10CEB0003A2944D051295DD0522936D0552947D03E
:10CEC0007DE0072001F050F8040004D03200C621B4
:10CED000490000F087FCA8881CE0002001F044F81D
:10CEE00004007F4DA87F002802D0002000F0BEFB88
:10CEF000280040300178002903D04178002000F05C
:10CF0000DCFB002C05D03200FF21A631200000F010
:10CF100069FC7448388052E00023002285217FDFBD
:10CF200004004CD03200D62107E00023002200216B
:10CF3000A9DF040043D03200D92149003DE013218C
:10CF4000A88876DF04003AD03200FF21BA3134E0FD
:10CF50001321A88876DF040031D03200FF21C431CC
:10CF60002BE00021A88867DF040028D03200FF21D1
:10CF7000CC3122E06846A91D1022FFF793FA6846DB
:10CF8000007800281BD06846007A042803D00628C1
:10CF900001D0052813D104A869460978022900D0D8
:10CFA00001210170C1214900818004A9A888A8DF5E
:10CFB000040004D03200FF21EA3100F013FC09B074
:10CFC000F0BD38B5040001F06AFA2000FFF761FFF8
:10CFD000200001F0E1F9200001F0D5FA404D2100D8
:10CFE000280000F0A8FD21002800243001F051FCA9
:10CFF00031BD0000502000200024F40010B5374956
:10D000000A88354C04281DD0072826D00A2831D19B
:10D01000002000F0A9FF002804D02200FF21563193
:10D0200000F0E0FB01F09EFA002804D02200AC21C1
:10D03000490000F0D7FB3CDF00281BD02200FF2175
:10D040005C3115E01321100076DF082812D000288B
:10D0500010D02200992189000AE02248824209D199
:10D0600001F0C8F9082805D0002803D02200A549FE
:10D0700000F0B8FB10BD704710B5A8B03C2118A84F
:10D0800000F0AEFB18A8022101700021817005217B
:10D09000C1703C2109A800F0A3FB012409A8048267
:10D0A00099480E90202101A800F09AFB01A8C470B5
:10D0B00040200590B420069000200090934B01AAD8
:10D0C00009A918A800F0DFFF002803D0A1A2904909
:10D0D00000F088FB28B010BD54D30100502100207F
:10D0E000582B0020FFFF0000F0B597B000208949C1
:10D0F0000860C8204000FFF729FE874D0023D1209B
:10D1000080002A180521002001F061FE91A400286A
:10D1100003D02200814900F065FB10A8A8A11822C5
:10D12000FFF7D4F9A22040002818059080277F003F
:10D130000697912080002818079008970323784AC3
:10D1400005A910A801F03CFF002804D02200A4216A
:10D15000890000F047FB734A7349032000F010FF79
:10D16000002804D02200AF21890000F03BFB04A975
:10D17000002001F043FA002803D022006B4900F0A0
:10D1800031FB00BF94A000680090002348222900D2
:10D19000FC31684602F02DF8002804D022008821D6
:10D1A000890000F01FFB0BAA0121002002F05EF8AD
:10D1B000002803D022005E4900F014FB87A003C8BA
:10D1C00009AA03C209A80C900BA802F069F800286C
:10D1D00003D02200574900F005FB01A881A10322DA
:10D1E000FFF760F901A9012068DF534802F024F835
:10D1F000002804D022009421890000F0F3FA1126BF
:10D20000684606700F2200BF66A17CDF002803D0AD
:10D2100022007D2100F0E6FA01A80021002206C0CC
:10D22000062101A8018041808280C8214900C18077
:10D230007ADF002803D02200872100F0D3FA2800EB
:10D24000243000905BA0009948620A20009908846D
:10D250002800643039A141600321018006773848F5
:10D2600003900220009A107001A9002200230CC133
:10D270002870344802902800443002F0B3F80028A7
:10D2800004D022008621490000F0ACFA01A9280050
:10D2900000F0B0FC002804D022008721490000F0F3
:10D2A000A1FA03A9009801F0F9FA002803D022009E
:10D2B000310100F097FAFFF7DFFE280000F076F961
:10D2C0002148076000232A0084320521002001F054
:10D2D0007EFD002803D02200592100F083FA1B486C
:10D2E000FFF734FD032000F06FFF002804D0220078
:10D2F000C121890000F076FA48DF0028FCD0220026
:10D300001349F7E76D0200004C2000206BCE0100AE
:10D31000AD02000010070050582B0020E202000070
:10D3200077D00100FDCF0100CD0C0000BF0200004E
:10D33000260200003B020000C3CF0100352E300062
:10D3400059CE010077CD01000C05005010270000D8
:10D35000C9020000633A5C73656E73696D6C5C7141
:10D360007569636B61695F626C655C6578616D703E
:10D370006C65735C626C655F70657269706865721C
:10D38000616C5C517569636B41495F4461746143D1
:10D390006F6C6C656374696F6E5C6D61696E2E6332
:10D3A00000000000517569636B4149204368696C56
:10D3B0006B617400517569636B4C6F676963000042
:10D3C000150000001700000003000000020000002C
:10D3D0000000000000E0D701020000000100000191
:10D3E0000000000001030300FA21890048430FD028
:10D3F00088490968884A00BF00BF00BF00BF00BF5E
:10D4000000BF00BF00BF914200D000BF0138F2D181
:10D4100070470120814988627047F0B585B00400EB
:10D4200027781421684600F0DBF9022F01DA00208A
:10D4300056E07A4E356B6078042817D00C2806D059
:10D440002A2841D02D2845D0322809D047E002258E
:10D45000BD4244DA6119306B00F004FC0D35F7E78A
:10D460001322611C6846FFF71DF80FE0A078002822
:10D4700011D0012819D0032831D16846FC21017050
:10D480002278921EE11C401CFFF70CF86946280028
:10D4900000F00DFC23E0F92030702278D21EE11C50
:10D4A000701CFEF7FFFF31000AE0FA203075227889
:10D4B000D21EE11C30001530FEF7F4FF31001431AC
:10D4C000280000F0F4FB0AE0A11C2800243001F041
:10D4D00031F904E0A11C2800243001F0FFF83800E5
:10D4E00005B0F0BDF2B54D4CE16A6A4612888A1863
:10D4F000FF2A03DBFF22521A6B461A800025002206
:10D50000474E04E003788F18F355401C521C6B46BD
:10D510001B889A42F6D3C818411E3170810700D08B
:10D52000001D40490140E16202E00120FFF75CFF7D
:10D53000A06B0028F9D101266663E26A38493A48AF
:10D5400002F06CF8E66202F076F86563A562F1BD60
:10D5500038B5324C02E00120FFF746FF606B00282F
:10D56000F9D10120A06302F0A1F8304D5422290026
:10D570002F4802F045F800280DD1287854280AD306
:10D580005338810700D0001D264A0240290053313C
:10D59000284802F035F80020A06302F06BF802F092
:10D5A000C1F82800FFF739FF31BD000038B51B4C2A
:10D5B000206300BF77A00068009000BF5DA502F067
:10D5C0008DF9002808D102F062F9002804D02A0061
:10D5D000FF21403100F006F9032069464870164AE1
:10D5E000112002F089F9002804D02A00A221490064
:10D5F00000F0F8F80121112002F0D4F9012002F026
:10D60000EBFA0120A062E0620C4A002160A001F068
:10D6100008FC32BD502000200024F40018380020FF
:10D620002C350020FC0F0000003C06202834002090
:10D63000003806205438062051D5010013D40100CB
:10D6400070B586B004000D006E461E2030701421A7
:10D65000701C00F0C3F82A002100701CFEF722FFA6
:10D6600015216846FFF73EFF06B070BD10B582B0C9
:10D670000400210040A002F08FFB200001D00A200E
:10D6800000E00B20694608704C7002216846FFF7E5
:10D6900029FF13BD00B585B0002801D0202000E08F
:10D6A00021206B4618701322581CFEF7FBFE142134
:10D6B0006846FFF717FF05B000BD80B529236A460D
:10D6C000002908D0012906D1010001D02B2100E05A
:10D6D0002C21117003E0010000D02823137050703A
:10D6E00002216846FFF7FEFE01BD30B587B0040099
:10D6F0000D001521684600F073F86846322101706C
:10D70000447013222900801C0CE030B587B004005F
:10D710000D001521684600F063F868460470132276
:10D720002900401CFEF7BEFE15216846FFF7DAFE11
:10D7300007B030BD633A5C73656E73696D6C5C7184
:10D740007569636B61695F626C655C736F75726349
:10D75000655C636F6C6C656374696F6E5F73657233
:10D76000766963655C7372635C696F705F6D657326
:10D7700073616765732E63004D6F74696F6E20541B
:10D780006F67676C652053656E64202000000000A1
:10D790002839002001000001094205D0830705D087
:10D7A0000270401C491EF9D170470000130030B4CC
:10D7B00014001500103902D310393CC0FCD24907BF
:10D7C00000D30CC000D504C0890002D30280801CA5
:10D7D000002900D5027030BC704700000022DBE752
:10D7E0000022E3E7E0B56B461980019202906A4699
:10D7F0000021194802F0DBFA07BD10B58AB013000A
:10D8000001226C4622706A461278144A10605160F8
:10D8100093601149401A07D0401E0FD1D360D068E1
:10D8200000889061D06807E01361106980685061DA
:10D8300010690088906110694068D06101A81100EA
:10D840002022FEF743FE72B6684600780028FBD11E
:10D8500062B60AB010BD0000014000008838002008
:10D86000F1B586B00D00A879022862D101AC02267C
:10D87000288906998989884222D12670A0790121B8
:10D880000143A1710020A080280014300490688A10
:10D890006081288A208101A9A888A8DF002803D0F8
:10D8A00025A28721FFF79EFF0698006A00900028B6
:10D8B00006D06B8A2A00143200210698009FB847D0
:10D8C000288906998988884233D1688A15280ADB15
:10D8D000002000902670A079FE210140A171FF2058
:10D8E000001DA0800FE0012000902670A07901218A
:10D8F0000143A1710020A080280014300490688AA0
:10D900006081288A208101A9A888A8DF002803D087
:10D9100009A2AF21FFF766FF0098002809D00698FA
:10D92000046A200005D06B8A2A001432042106986C
:10D93000A04707B0F0BD0000633A5C73656E736981
:10D940006D6C5C717569636B61695F626C655C735A
:10D950006F757263655C636F6C6C656374696F6E21
:10D960005F736572766963655C7372635C626C6534
:10D970005F636F6C6C656374696F6E2E630000008B
:10D9800030B593B0040003A80021002200230EC08C
:10D99000032101A8FFF724FF112001A90870487096
:10D9A0008878F92202400220104388701C210BA8BD
:10D9B000FFF716FF0BA80078102101430BA8017098
:10D9C00000250C950E950F9501A81090119502A8B1
:10D9D0002178817081214900018003216846FFF789
:10D9E000FFFE684605808178E3220A400321114347
:10D9F0008170142106A8FFF7F3FE02A8069068467E
:10DA000007900C2006A908814D8103AA0A928881FB
:10DA10002300143306AA0BA96088A2DF13B030BD1F
:10DA2000F0B58FB007001C2107A8FFF7D9FE6846A4
:10DA3000007F0E2101436846017700BFB0A0089027
:10DA400000240A940B940C940D9401A839788170E9
:10DA5000FF21091D018003216846FFF7C1FE112047
:10DA60006946087048708878F122024015201043FA
:10DA70008870142102A8FFF7B3FE9F4D14212800DF
:10DA8000FFF7AEFEA5A1280002F096F901A80290CA
:10DA90006846039002AE2800FEF783FC3081748153
:10DAA00006951420B0813B1D02AA07A97888A2DF41
:10DAB0000FB0F0BD70B58EB004000D001C2107A89A
:10DAC000FFF78EFE6846007FFB2101401A200843C5
:10DAD00069460877002608960A960B960C960D96CE
:10DAE00001A821788170FF21891C018003216846EB
:10DAF000FFF776FE11206946087048708878F12299
:10DB00000240132010438870142102A8FFF768FE1A
:10DB100001A8029068460390142002A908814E8152
:10DB20002A680692888123000C3302AA07A960881C
:10DB3000A2DF0EB070BD70B504000D00002C44D003
:10DB4000002D42D02888102806D0112806D0502851
:10DB500007D0512836D070BDA88800E06748A08360
:10DB600070BDE888218B884213D1288A022810D101
:10DB70002800123002F041F9A17F814209D0A0773C
:10DB8000266A300005D02B8A2A001232012120009B
:10DB9000B047E888218A884217D1288A022814D100
:10DBA0002800123002F029F9E17F81420DD0E077A0
:10DBB000266A300009D02B8A2A0012320221200066
:10DBC000B04770BD2000FFF74BFE70BD70B504007C
:10DBD0000D00494E14213000FFF702FE2A002100FB
:10DBE0003000FEF75FFC29003000FFF729FD002020
:10DBF00070BD000030B585B004000D0001A800BF65
:10DC00004AA11022FEF762FC002C01D0002D01D1A8
:10DC10000E2025E03948A083686820620020A077A4
:10DC2000210001A863DF00281AD16846217881709D
:10DC3000802149000180A21C69460120A0DF002844
:10DC40000ED129002000FFF735FF002808D1290058
:10DC50002000FFF795FE002802D12000FFF7E0FE2C
:10DC600005B030BD70B586B00C226B461A80002816
:10DC700001D10E2019E0828B204B9A4202D0827F84
:10DC8000002A01D1082010E001AA00230024002569
:10DC9000002678C201AA838A138004916946039101
:10DCA0000121917001A9808BA6DF06B070BD70B50F
:10DCB00086B014226B461A80002801D10E2019E08C
:10DCC000828B0E4B9A4202D0C27F002A01D10820DB
:10DCD00010E001AA002300240025002678C201AA32
:10DCE000838913800491694603910121917001A9F0
:10DCF000808BA6DF06B070BD84390020FFFF0000D6
:10DD000046696C65204E616D652043686172616390
:10DD1000746572697374696300000000626C655F0A
:10DD20006D6F74696F6E5F66696C65005931726FF3
:10DD3000F27AF790DD46225A00004242A022D20534
:10DD400080001018E022D20080180268AD4B13400A
:10DD500003600268090411430160704780B502F056
:10DD6000A5F802BDF8B506000F00002402F0ADF8DA
:10DD7000002828D1B14D6878002F13D0022F1AD077
:10DD80001AD22C7800280AD0AA1DA9680A2041437B
:10DD90002800543001F05CF8002800D1AE71A8785A
:10DDA000E87109E02800543001F09AF8AC78E8797D
:10DDB000A04208D100E00400200004D02969080036
:10DDC00001D020008847F1BD80B502210078FFF71F
:10DDD000C9FF01BDF8B5050000200026974C617908
:10DDE000002902D0607102F036F8022701202900D4
:10DDF000172966D801A2525C52009744850B0B1C70
:10DE00002634454B50565056A1636363636385883F
:10DE10008F96A1A1002002F00FF8002806D0002064
:10DE200002F012F8022D18D1122728E002F008F8AB
:10DE3000022D24D015E0002001F0FEFF00281BD0A9
:10DE4000002002F001F8082719E0002001F0F4FF9B
:10DE5000002804D0002001F0F7FF28270FE001F090
:10DE6000EFFF04270BE0002001F0E6FF002803D0BD
:10DE7000002001F0E9FF02E0002001F0E1FF257140
:10DE80000022A168794317E0002001F0EFFF06208F
:10DE9000207107E0002001F0D3FF07204EE0607101
:10DEA00001F0E4FF0022A16806E0607101F0DEFFEE
:10DEB0000022A068810009182000143000F0C8FF7B
:10DEC000060040E02000343001F00AF8060011207E
:10DED000401B15D0002E13D102280DD3A568C821F0
:10DEE00048436421FEF72DFD290041430022200014
:10DEF000343000F0ADFF0600022001F0A1FF22E067
:10DF0000022001F0A1FF1EE001F0A5FF1AE001F0E0
:10DF1000A2FF002001F094FF13200FE001F09BFF0F
:10DF2000012001F08DFF142008E001F094FF002093
:10DF300001F086FF012001F083FF1520207102E02F
:10DF400001F08EFF25713000F2BD3C48017BC9070E
:10DF500000D4704780B50079FFF73CFF01BD80B564
:10DF6000022001F083FF01BD80B50021334A127BFE
:10DF7000D20702D5FFF72EFF0100080002BD000006
:10DF8000F8B505000F00002400262C488760C56006
:10DF90000261A80720D506E001220121200000F03F
:10DFA00033F80600641C30002043F5D0002E05D164
:10DFB0007A0801212DA001F0EFFF0600002E02D10A
:10DFC00002F01EF80600002E06D11D4A002100BFF7
:10DFD00025A000F026FF0600E80701D501F058FF54
:10DFE000002E05D1174A00211DA000F01AFF0600DF
:10DFF000002E05D1144A01211AA000F012FF0600DC
:10E000003000F2BDFFFFFCFF03000020002B12D107
:10E01000012A04D1012901D10E2200E00022074B80
:10E02000002906D0022902D005D21A7070475A7012
:10E0300070479A7070470720704700002C36002008
:10E04000C9DD01004BDF01005FDF010080B501F099
:10E0500043FF0321FFE7FFF771FE002002BD000030
:10E060004036002060360020803600200400030087
:10E0700065DD010052480179002902D1007B0028AA
:10E0800000D001207047F2B5040011001D00002CE3
:10E0900001D0002901D10E20F2BD0120484A10769E
:10E0A0000020D07647482022FEF710FA4448456207
:10E0B000069843498862B44808840721B348FFF7AB
:10E0C0008FFBB34D3C212800FFF78AFB2078287096
:10E0D000A078A870E078E870607868702000103050
:10E0E00003C82A00103203C22000083003C82A00E7
:10E0F000083203C22000183003C82A00183203C2B5
:10E10000A44801004031626A002A0FD06962886029
:10E11000626A13880B8092888A80002304E0666A12
:10E12000B668F65CC6545B1C9342F8D3A26A002A18
:10E130001AD0020020324A6102004C32AA62A26A5E
:10E1400093880B8212888A810022202705E0A36A27
:10E150009B689B5C8618F355521C0B8A9A42F6D337
:10E160002C22A25C2C23EA54226A002A07D0020047
:10E1700058322A62226A53884B8312880A83616864
:10E18000002900D069600021CA00521A82185C324E
:10E190000B4B1B688C001A51491C0829F4DB002129
:10E1A0000A0182189432064B9B688C001A51491C54
:10E1B0000829F5DB0099280002F0C6F9F2BD00003D
:10E1C0001C200020C8380020F0B587B00600874C1E
:10E1D000207E002801D10820D3E0E676684602F0D0
:10E1E000E7F901250098002801D06576C8E00721ED
:10E1F00020001030FFF7F4FAE07E7D4F7978002997
:10E2000001D0012806D0B97800290CD0012801D00E
:10E21000022808D1616A080003D0257708208847C2
:10E2200001E00020207700202118497C002911D12D
:10E23000401C0628F8D30020012E06D01BD3032E45
:10E240000FD009D3042E11D015E07978014203D004
:10E25000012011E00120EFE7B978014201D002204E
:10E260000AE0F878002801D0032005E0387900287A
:10E2700001D0042000E00020E076616A08000ED0A2
:10E28000E07E032801D0042809D13878627F012379
:10E290005340184203D0A5770720884701E00020AB
:10E2A000A077182101A8FFF79BFA01AE002030707B
:10E2B0003072E07E00285DD002280CD003D3042801
:10E2C00039D012D32FE0A57620001030029035709F
:10E2D000002030612AE0A0762000103002903570D6
:10E2E000F8687082B868308220E0386930827869D6
:10E2F00070823878617F01224A40104201D10320A8
:10E3000024E0FFF7B7FE0028F9D004940220307211
:10E3100004201F49C87000211D4802F015F900288B
:10E3200001D10520A076E07E002824D001A873DF6B
:10E33000002820D025E0B8693082F86970823878EA
:10E34000617F01224A40104202D10420A076EDE70D
:10E35000FFF790FE0028F8D00494022030720420C9
:10E360000B49C87000210A4802F0EEF80028DAD103
:10E370000620D7E7A076616A080001D0A07E884712
:10E38000002007B0F0BD0000FFFF00002C2000209F
:10E39000DC3700201433002010B5224C01881029EE
:10E3A00004D0112908D01B290ED010BD817D012970
:10E3B0001BD18088208410BD002161778088218C4A
:10E3C000884212D1012008E0007A00280DD1E07EB9
:10E3D000401C0521FEF7B2FAC8B2FFF7F5FE00288F
:10E3E00003D0A16A0A0000D0884710BD1C2000207D
:10E3F000C838002010B574DF0A4C012060770A4845
:10E400000621C170002102F09FF8002809D1E07EAA
:10E41000FFF7DAFE002803D0A16A0A0000D088477F
:10E42000002010BD1C200020DC37002040883A4925
:10E430000B88984204D34988814201D30120704758
:10E440000020704738B50025344C3648FFF7EEFF02
:10E4500000281AD1607F002805D0616908001CD00F
:10E460006A46157017E0207F002801D1616800E03E
:10E47000A16800222000203000F0EAFC00280CD027
:10E48000A1690A0009D0884707E06169080004D043
:10E4900001206A46107068468847657731BD38B5F7
:10E4A000010000251D4C1F480A88102A06D0112A99
:10E4B0000FD0122A29D0502A0FD031BD8A88E2838A
:10E4C00018310822FDF7EEFF2577E089002822D1D8
:10E4D0001FE01348E08325770CE0C888E28990426A
:10E4E00019D1088A022816D10800123001F085FCE3
:10E4F00000280ED12000203000F0F2FC00280AD0C5
:10E50000A1690A0007D0884731BD08310822FDF70C
:10E51000C9FFFFF797FF31BDC83900209C370020A5
:10E52000FFFF0000D039002080B501220221002029
:10E53000FFF76AFD002801D0072812D10722022127
:10E540000120FFF761FD002801D0072809D10A2228
:10E5500000210020FFF758FD002801D0072800D136
:10E56000002002BD80B50020FFF770FD002801D01B
:10E57000062807D10120FFF769FD002801D00628F1
:10E5800000D1002002BD10B52C4C61680088102815
:10E5900002D0112826D010BD00291FD10122002051
:10E5A000FFF732FD002801D0072811D107220221F0
:10E5B0000120FFF729FD002801D0072808D10422F7
:10E5C00002210020FFF720FD002807D0072805D0F2
:10E5D000002803D021680A0000D088476068401CEA
:10E5E000606010BD491E616007D1FFF79DFF0028E4
:10E5F00003D021680A0000D0884710BDF8B50F008D
:10E60000002400250D4E3060002F0ED00120FFF7B2
:10E61000A5FB002801D0022004E0FFF79FFB0028A3
:10E6200002D00B20387000E03C707068002802D1E6
:10E63000FFF77AFF05002800F2BD0000D83900205E
:10E6400070B5B2B00400032101A8FFF7C9F8852115
:10E650000FA8FFF7C5F8112001A90870487002251E
:10E660008878F92202400220104388701C2108A8F3
:10E67000FFF7B6F808A800781021014308A8017038
:10E68000002609960B960C9601A80D900E9602A8EE
:10E69000217881709949018003216846FFF7A0F82D
:10E6A000684606808178E2220A401543857014216D
:10E6B00003A8FFF795F802A8039068460490852008
:10E6C00003A908814E810FAA0792888123000C3389
:10E6D00003AA08A96088A2DF32B070BD70B586B009
:10E6E0000A79521D6B461A80002801D10E201FE0C6
:10E6F000828A834B9A4202D0027F002A01D10820ED
:10E7000016E06A461288862A01DB072010E001AA7B
:10E71000002300240025002678C201AA83891380E3
:10E720000491694603910121917001A9808AA6DFB5
:10E7300006B070BD70B586B004226B461A80002802
:10E7400001D10E2019E0828A6D4B9A4202D0027FDD
:10E75000002A01D1082010E001AA0023002400258E
:10E76000002678C201AA8388138004916946039128
:10E770000121917001A9808AA6DF06B070BD30B575
:10E7800091B00400032101A8FFF72AF802A8002194
:10E790000160112001A9087048708878F9220240B0
:10E7A0000220104388701C2109A8FFF719F809A856
:10E7B00000781021014309A80170524800680A90AE
:10E7C00000250C950D9501A80E900F9503A82178B2
:10E7D00081704D49018003216846FFF701F86846C2
:10E7E00005808178E3220A400321114381701421BE
:10E7F00004A8FEF7F5FF03A804906846059004A856
:10E8000004210181458102A9089108218181231DEC
:10E8100004AA09A96088A2DF11B030BD70B5040058
:10E820000D00002C34D0002D32D02888102804D0C0
:10E83000112804D0502805D070BDA88800E03048C9
:10E84000A08270BDE8882289904202D1298A0229DB
:10E8500005D0218A88421BD1288A022818D1280095
:10E86000123001F0CAFA00216177E988228A9142C8
:10E8700001D101216177217F814209D02077A669EA
:10E88000300005D02B8A2A00123201212000B04727
:10E8900070BD80B5FFF7C2FF01BD000030B585B087
:10E8A00004000D0001A800BF18A11022FDF70EFE04
:10E8B000002C01D0002D01D10E201DE01048A082B7
:10E8C0002868A061210001A863DF002814D16846F0
:10E8D00021788170882149010180A21C69460120AC
:10E8E000A0DF002808D129002000FFF748FF0028FA
:10E8F00002D12000FFF7A4FE05B030BD02110000D8
:10E90000FFFF000048200020011100005931726F04
:10E91000F27AF790DD46225A0000424210B5C2005A
:10E9200018231340FF249C40E2438907090E9940B5
:10E93000002804D5A64B0007000F083800E0A54BBF
:10E9400080088000181803681A401143016010BD48
:10E9500000280FD0A0490968A04A00BF00BF00BF2F
:10E9600000BF00BF00BF00BF00BF914200D000BF8A
:10E970000138F2D1704738B580208002984908608C
:10E9800098488021490201640160974C0125256067
:10E990002F20FFF7DDFF6560B74C002525612F2094
:10E9A000FFF7D6FFA57231BDF8B5B34EF568002D5F
:10E9B00039D00024B14800683169401A07023F0A83
:10E9C000286887421CD33F1A24182800ED69017C6F
:10E9D000002913D00021017442698169F36918008C
:10E9E0000AD010009847002808D000BF0EA2FF21CF
:10E9F0006A31FEF7F7FE01E008009047002DDFD1F5
:10EA0000707A317A814206D1401C7072C0B20228FD
:10EA100001D100207072707A80003018446180202B
:10EA20004003C2490860F1BD633A5C73656E736967
:10EA30006D6C5C717569636B61695F626C655C6369
:10EA40006F6D706F6E656E74735C6C69627261720B
:10EA50006965735C74696D65725C6170705F74691F
:10EA60006D65722E63000000F8B5834A1378D06894
:10EA70000090002117E02500E469002C13D0B44277
:10EA8000F9D1A54207D1FE69D660002E03D1B44E5C
:10EA900030601161D0722068E469EC61002C02D012
:10EAA00025682818206001205578DCB2AC421CD0C3
:10EAB0005468DBB218255D4364195B1C9678DDB29F
:10EAC000B54200D100232578022D02D0032D05D0B8
:10EAD000E9E76668D7683D002C00CEE7D0680028DB
:10EAE000E1D00174C069D060F8E7D268009B9A4217
:10EAF00000D10020F2BDFCB55F4BD9680191002127
:10EB000000E0DC60012200282DD11C785D78AC4249
:10EB100056D05D6818266643AD19641C9F78E6B22E
:10EB2000BE4200D100241C706C682E78012EECD1FE
:10EB3000267C002EE9D1AE686660EE68A6602E697C
:10EB4000E6606D69A561DD7A002D00D061601D6908
:10EB500066680096761B3602360ABC4FBE4205D266
:10EB6000A56875190AE00400E069F0E7009EAD1B96
:10EB70002D022D0AA668B54202D2751B256000E061
:10EB800021606160A1602274E161DA68002AB8D076
:10EB900016682568AE4203D3751B1560E261B0E7C5
:10EBA00016003768AF4205D2ED1B3200F669002E21
:10EBB00002D0F6E77F1B37602560E661D461A1E7EC
:10EBC000D868019B984201D00120F6BD0020F6BD17
:10EBD0001CED00E000E400E0502000200024F400E0
:10EBE00080E100E00813014004100140FEB5224816
:10EBF000C06800283DD000680290204C206800903A
:10EC00001D4800690190B34D00980199461A2E40A5
:10EC1000F61C8027BF021848807A002810D1AE4821
:10EC2000790801640160AD480760B64807600120BB
:10EC3000B54908602F20FFF78BFE01200E4988722E
:10EC40000298864200D20600019880192840E063AD
:10EC50002168009A801A2840891A0D40ED1CA842AC
:10EC600009D22068E0632F20FFF772FE2F4807606B
:10EC7000F7BDFFF780FEF7BDA8380020041501405E
:10EC8000F0B585B00024A14D28690390E968029190
:10EC90002A7A11006B7A9A420FD0491CC9B2022914
:10ECA00000D100218A00AA1852690192801800023E
:10ECB000000A28610120009001E00194009429726B
:10ECC000FFF7D2FE0600E868009900291FD00199DD
:10ECD000009413E0C91A009EF318009300231360F8
:10ECE0000190D069D368002B08D0039E009FF619CD
:10ECF0003602360A56609360D461019C002805D024
:10ED0000020013689942E5D2591A11600126E860A1
:10ED10002000FFF7F0FE002801D1002E02D002985B
:10ED2000FFF764FF0020E87205B0F0BD00E200E0EC
:10ED300076494870704730B5744A51784B1C9578C5
:10ED4000DCB2AC4200D100231578DCB2AC4201D178
:10ED5000002030BD0370506818225143401830BD68
:10ED60000810014070B582B005000C00002000269C
:10ED700069460870684601F027FC00A8401CFFF7B0
:10ED8000DAFF002801D1042605E0047045606846DA
:10ED90004078FFF7CDFF6846007801F02BFC002E8D
:10EDA00003D1802040035A490860300076BD80B509
:10EDB00058480021016441648164C164016041607C
:10EDC000FFF7F2FD01BD80B5FFF75AFF01BDF2B5B7
:10EDD000070014001E00A00701D1002C01D107205C
:10EDE000F2BDFFF7C8FD494DEE610020288069465D
:10EDF0000978A9706C60E860288180246403374832
:10EE0000046003211420FFF789FD3E480460424C52
:10EE1000676003211120FFF781FD20682861002031
:10EE2000F2BD3A4B5B68002B09D0130001D00028DB
:10EE300001D1072070470068037C002B01D0082017
:10EE4000704703744174426100207047FFFF7F00E8
:10EE5000F4B582B005000C002C484068002808D0AA
:10EE6000002D06D0052C01D20720FEBD68690028C0
:10EE700001D10820FEBD0020697C012901D12700B5
:10EE800000E00027002669460870684601F09CFBF8
:10EE900000A8401CFFF74FFF002801D104260DE019
:10EEA0000121017045601C4909688160C4600761E7
:10EEB0000299416168464078FFF73AFF684600785A
:10EEC00001F098FB002E03D1802040031049086018
:10EED0003000FEBDFFFFFF000413014080E200E0B0
:10EEE00080B50A494968002904D0002802D0416948
:10EEF000002901D1082002BD002101740221FFF781
:10EF000031FF02BD00E100E000100140A838002000
:10EF100000E200E0001101400415014030B583B06B
:10EF2000624C0178002934D0022926D047D24068AB
:10EF30000178201D01F0ACFB61690125002803D098
:10EF40006A461570019006E0E0682269101A04D044
:10EF500000206A46107068468847E0682189226967
:10EF6000101A814207D301222100193120001C30E0
:10EF700001F04EFD37BD257037BD6A461170C0687F
:10EF8000019001222100193120001C3001F040FDC8
:10EF900012E0210018312000243001F086FB002807
:10EFA00007D101222100183120001C3001F08CFC17
:10EFB00037BD03206946087068466169884737BDD8
:10EFC000F0B589B006000D001F00384C6261002DBD
:10EFD00001D1072047E06A6892B22968201D01F03C
:10EFE00042FB00283FD1EA6892B2A9682000243091
:10EFF00001F039FB002836D1684600BF2DA1202240
:10F00000FDF764FA70690690307C002800D001207A
:10F01000694608750F770025707C002800D00E2007
:10F020004875F0680290B06803903068019070688D
:10F0300000901F4A20001C3001F0CDFB002812D1A7
:10F04000257030680021C94388420BD020001C3055
:10F0500001F00CFD01222100193120001C3001F0CB
:10F06000D7FC00E0002009B0F0BD38B50F4C01001E
:10F070002000243001F00CFB050015D120001C30CD
:10F0800001F039FC00280FD1210018312000243074
:10F0900001F00BFB002807D10122210018312000CC
:10F0A0001C3001F011FC0500280032BDE81F0020D3
:10F0B0001DEF0100FFFFFFFFFFFFFFFFFFFFFFFF4F
:10F0C000FFFFFFFF000000000000000000E0D7018C
:10F0D00003000000202804DA7649C140C807C00FA9
:10F0E00070470120704738B50400FFF7F3FF002890
:10F0F00001D16A4832BDE0001821014020000322FE
:10F10000002805D56C4B25072D0F083DAD0801E003
:10F110006A4B8508AD005B59CB4099090A40042A27
:10F120000FD2002A0DD0022A0BD0E206D20E012106
:10F13000634B5C68002C06D191406248016000205E
:10F1400032BD614832BD4009800018180368914003
:10F150001943F3E780B500F02AFE01BDFEB55B4C14
:10F160002078002841D0002601960127E068002879
:10F1700004D1012602E00198002819D16078002806
:10F1800033D1684652DF00BF54A5052801D101974D
:10F190000EE0002804D02A00A521FEF723FB07E09B
:10F1A000009801F091FD2169080001D0009888477E
:10F1B000002E16D16078002817D160886946088132
:10F1C00002A9A06861DF052801D1012609E0002815
:10F1D00004D02A00CA21FEF705FB02E0A068E1681E
:10F1E00088470198C0B23042C5D0F7BD3748007893
:10F1F000704738B5002916D08C0714D1334CA16064
:10F20000628063602F4A1168CB07DB0F0125002B5A
:10F2100001D02F490D602F4910DF002805D0002BA9
:10F2200009D0156032BD072032BD257001F053FDB5
:10F230001620FFF758FF32BD010001D10E207047A4
:10F240002249C8600020704780B52048406801000E
:10F2500008D08047002807D020A2FF21AC31FEF75C
:10F26000C1FA01BDFFF77AFF01BD000070B50400CF
:10F270000D00160014213000FEF7B2FA0120308094
:10F2800000213161317BFE220A4032733572747283
:10F29000002C00D0B072002070BD000001200000E2
:10F2A00082B00D4900910099019101A960DF009998
:10F2B00002B07047FC06FFBC1CED00E000E400E07B
:10F2C000C039002000E100E002200000AC3900203D
:10F2D00080E100E055F10100E81F0020633A5C7313
:10F2E000656E73696D6C5C717569636B61695F6292
:10F2F0006C655C636F6D706F6E656E74735C736F5D
:10F3000066746465766963655C636F6D6D6F6E5C72
:10F31000736F66746465766963655F68616E646C5B
:10F3200065725C736F66746465766963655F686156
:10F330006E646C65722E63000870000A48700220CB
:10F3400070470000F3B58FB014001D009AA6084660
:10F35000002803D132008821FEF744FA200004D1AE
:10F36000320089210020FEF73DFA1C2107A8FEF794
:10F3700037FA02266846007F02210143684601777A
:10F38000002708970A970B970C970D9701A8012162
:10F3900081706946898F018003216846FEF720FA53
:10F3A0002878694608706878487068468178E22253
:10F3B0000A4016438670142102A8FEF711FA01A82C
:10F3C00002906846039002A80481478184811098C6
:10F3D0000690169B02AA07A96C480088A2DF11B00C
:10F3E000F0BD0000F0B585B0040001A801218170D6
:10F3F00067490180654F3A0001A90120A0DF00287C
:10F4000051D12288100009D0381D009023003C33D0
:10F4100061686048FFF796FF002844D122891000F8
:10F420000AD038000C30009023003C33E1685A4881
:10F43000FFF788FF002836D1228A10000AD0380052
:10F440001430009023003C3361695448FFF77AFF81
:10F45000002828D1228B10000AD038001C300090E0
:10F4600023003C33E1694E48FFF76CFF00281AD1B6
:10F47000228C10000AD038002430009023003C3346
:10F48000616A4848FFF75EFF00280CD1228D10000A
:10F490000AD038002C30009023003C33E16A424807
:10F4A000FFF750FF00286FD1226B002A27D002AB54
:10F4B00003CA083A187003CA083A0004000E5870CC
:10F4C00003CA083A000C987003CA083A000ED870B4
:10F4D00003CA083A1971906858719068000A9871C7
:10F4E0009068000CD87138003430009023003C3311
:10F4F000082202A92D48FFF725FF002844D1606BA0
:10F5000000280BD039003C31009123003C330279B4
:10F5100001682748FFF716FF002835D1A66B002E9B
:10F5200031D004D124A266210020FEF75BF902ADA0
:10F5300030782870691C7088FFF7FEFE401CC0B24E
:10F5400000902918B088FFF7F7FE00990818C0B29C
:10F5500000902918F088FFF7EFFE00994018C0B21C
:10F56000072804D014A26F210020FEF73BF93800D1
:10F570004430009023003C33072202A90D48FFF7D6
:10F58000E1FE002800D1002005B0F0BD08370020C2
:10F590000A180000292A0000242A0000252A000059
:10F5A000272A0000262A0000282A0000232A00001B
:10F5B0002A2A0000502A0000633A5C73656E736962
:10F5C0006D6C5C717569636B61695F626C655C63CE
:10F5D0006F6D706F6E656E74735C626C655C626C8F
:10F5E000655F73657276696365735C626C655F64A1
:10F5F00069735C626C655F6469732E630000000070
:10F6000080B5002A04D0194B9A4201D2002901D1B9
:10F61000022002BD01F082FBC0B202BD80B5002A0B
:10F6200003D0812A01D2002901D1022002BD01F0BC
:10F6300079FBC0B202BD30B583B00120019000F06B
:10F6400049F8002000900A4C042201A9200001F092
:10F6500069FB04226946200001F060FB0500009868
:10F660000028F1D000F04AF8E8B23EBD01000100E8
:10F670004048004030B583B0002001900120009048
:10F68000364C2068401C2060354D042201A928001A
:10F6900001F048FB04226946280001F03FFB606846
:10F6A000401C606000980028EFD137BD10B582B0D3
:10F6B000002000902B480168491C01602A4C04225C
:10F6C0006946200001F02EFB04226946200001F06B
:10F6D00025FB13BD1CB50020019001200090234C98
:10F6E000042201A9200001F01DFB0422694620002C
:10F6F00001F014FB00980028F2D113BD1CB50120C5
:10F70000019000200090194C042201A9200001F072
:10F7100009FB04226946200001F000FB0098002844
:10F72000F2D013BD30B583B00120019000200090CD
:10F730000F4C2068401C20600B4D042201A92800BA
:10F7400001F0F0FA04226946280001F0E7FA606847
:10F75000401C606000980028EFD037BDE0390020E1
:10F7600050480040F83900205448004048480040C4
:10F77000E83900205C4940180068012800D00020CA
:10F78000704752000A4399001143009A12020A433B
:10F79000019909041143554A800011507047A02275
:10F7A000D20580001018E022D20080180268504B69
:10F7B00013400360026809041143016070470000B0
:10F7C00038B56B4608A425681D60030008E06C4648
:10F7D0009D006459A225ED0064591460121D5B1C44
:10F7E0004418A342F3D331BD000000500122430767
:10F7F0005B0F9A40C008085C104070473D490818EC
:10F800002021405604288041C00F7047394908180C
:10F8100020214056042801DB01207047002070475A
:10F820003449081820214056C043C00F704771B5B5
:10F8300081B00020C0430423140002D10425082312
:10F8400000E000252B4C00E06D1C9D4212D2AE0062
:10F85000A619009636688642F6D1019BE318202649
:10F860009D5500980160002A03D1019861193C223E
:10F870008854280040B276BD1E490022D24383003E
:10F88000CA50042802DB08183C214254704770B566
:10F89000184C4420205C002801D0082070BD0025B1
:10F8A0000021C94320232218D154401C2028FADB10
:10F8B00000263000FFF7E0FF761C082EF9DB03215D
:10F8C000062001F043FA35480560802000063449DF
:10F8D0000860012044216054002070BD5248007827
:10F8E000002800D001207047006000400007005051
:10F8F000FFFFFCFF54370020F0B583B007000E0077
:10F9000015000024FFF78CFF002801D0082442E0F6
:10F91000F27829003800FFF78AFF05000020C04375
:10F92000854237D0B07800280BD0A020C005B900A0
:10F930004018E021C900401801680222914301608B
:10F9400007E0019000907378002200213800FFF753
:10F9500018FF3078F178002913D03449AA008918AB
:10F960000A68384B13400B600A683B02F8256D01AA
:10F970001D400004C0239B0203402B4313430B6034
:10F9800009E08C494A193C23D25C80011043491993
:10F99000C85400E004242000FEBD00007C6100404B
:10F9A00004630040F2B50700824CE5190126FFF719
:10F9B0002DFF002815D02020285620183C21405625
:10F9C0000006800F0221032804D17B480068F8401C
:10F9D000064000E0012800D003213800FFF7DFFED9
:10F9E000F1BD3800FFF70AFF00281CD02020285660
:10F9F0000E49820089180A6832430A600021820099
:10FA00003302D21812B20E4BD2181160694609782F
:10FA1000002908D02021695689006158002902D0A8
:10FA2000864066480660F1BD9837002010650040AA
:10FA300061490968C140C807C00F70470000000055
:10FA400000600040FFE0FCFFF0B587B0002602A890
:10FA50000660802464000125042720B2FFF78AFE97
:10FA6000002809D055480068284005D0002024B25D
:10FA70005549611808602E436D00241D7F1EECD18E
:10FA800080273F06BE204000FFF774FE002807D005
:10FA900000204C4908603E4302AA0121FFF790FE76
:10FAA000300715D00125002435420DD0A10044486F
:10FAB0004218106813683F4A5258110004D0990345
:10FAC000890FC004C00E90476D00641C042CEBD35A
:10FAD00037406CD005A8002101600020C04301E040
:10FAE0000290059804900026002432480019402115
:10FAF0004056C5B22900C022914300910021C9435C
:10FB0000884246D004A90098FFF770FE002840D034
:10FB10002806800F01902748009A811820228956D4
:10FB2000890047583800019802D1032831D101E0FB
:10FB300003280BD10098C00805A9081801780122F4
:10FB4000009B5B075B0F9A400A4302701F480099B5
:10FB5000890040588003850F02A90098FFF746FEF0
:10FB6000002802D0022D14D101E0032D11D10198FB
:10FB7000032808D1022D01D1032100E002210098C1
:10FB8000FFF70DFE761C380003D00199C9B200982A
:10FB9000B847641C042CA8D3360608D003AA012158
:10FBA0000020FFF70DFE03980299884298D107B014
:10FBB000F0BD0000543700201005005004630040E1
:10FBC000106500407C61004000600040000700506C
:10FBD00001202549087070471FB500BF3AA40028CE
:10FBE0001FD068463AA11022FCF770FC684600213D
:10FBF00001738021C90502910821C1700A21817019
:10FC00000B21417009210170184A6946200001F05A
:10FC1000E4F8002808D000BF15A24121FDF7E2FD5D
:10FC200002E0200001F072F9002004B010BD0000D5
:10FC300010B582B00B000C4C21780029FCD00021BB
:10FC40002170D1B20091D2B2010000BF1EA001F01C
:10FC500077F9002804D000BF05A25B21FDF7C2FDA3
:10FC600020780028FCD013BD52210020D1FB0100D8
:10FC7000633A5C73656E73696D6C5C717569636B17
:10FC800061695F626C655C6578616D706C65735C01
:10FC9000626C655F7065726970686572616C5C51F9
:10FCA0007569636B41495F44617461436F6C6C6556
:10FCB0006374696F6E5C514C5350495C7372635C42
:10FCC0007370696D2E630000003000400300000077
:10FCD000FFFFFFFF01FF00000000004000000000E8
:10FCE00010B504000A2C02D10D20FFF7BEF9E0B2D6
:10FCF000FFF7BBF910BD10B5040002E0FFF7F0FFFD
:10FD0000641C20780100F9D110BD80B50007000FF8
:10FD100030303A2800DB2730FFF7E2FF01BD38B56D
:10FD200004000F4DAC4209DB2900FCF707FEFFF78A
:10FD3000F6FF20002900FCF701FE0C000A2C05DB71
:10FD400020000A21FCF7FAFDFFF7E9FF20000A2155
:10FD5000FCF7F4FD0800FFF7D8FF31BD00000000FC
:10FD6000A086010010B5040004D52D20FFF7B8FFD0
:10FD700060420400002C01D1302015E02000FFF784
:10FD8000CEFF10BD80B5FFF7B6FF3A20FFF7A8FF02
:10FD90002020FFF7A5FF01BD10B50C00FFF7F2FF13
:10FDA0002000FFF7DFFF0A20FFF79AFF10BD80B5A4
:10FDB000FDF723FD01BDFEE70CB41CB5040004A84B
:10FDC0000190009401AB0A006946084878441C3051
:10FDD000FBF776F90021009A1170002801D40098F1
:10FDE000001B02B0019910BC03B008476BC8FFFFAD
:10FDF0000178407800020843704780B5FFF7F8FFAC
:10FE0000C007C00F02BDFEE752000A43990011432C
:10FE1000009A12020A43019909041143194A800009
:10FE200011507047012282401748002901D14260D9
:10FE300070470260704700001449096828A23CE03E
:10FE400080B5002102E0000080B5012124A2105CF1
:10FE5000FFF7E8FF01BD80B50020FFF7F5FF01BD0A
:10FE600080B50020FFF7ECFF01BD00001CA1085C7D
:10FE700006490A68012383401800904348601340F4
:10FE80008B607047000700500805005004050050C3
:10FE900000B583B0002001900090002301220121D1
:10FEA0001220FFF7B1FFFFF7D6FF07BD004901E0C1
:10FEB00010050050096800BF0AA2105CC140C807C5
:10FEC000C00F401E8041C00F704701000020C0439A
:10FED000042900D10020704702A1085C704700008F
:10FEE000120000000400FEE7D0B500244C4F09E0EA
:10FEF00000204840012141407368180001D01000E3
:10FF00009847641C3978E0B288421CD27868E4B221
:10FF1000E100461831780120884039690842F0D064
:10FF2000814339613078FFF783FD01003278F8684A
:10FF3000012393400340080090408342E1D1707850
:10FF40000128D5D1D5E7D0BDF8B507000125BD40C2
:10FF5000334C20001430FEF7C3FF00281AD120696B
:10FF6000EE43284214D13800FFF762FDE168002813
:10FF700001D0294301E00E403100E16020690543D2
:10FF800025610022A16820001430FEF761FFF1BD59
:10FF900006402661F1BD0000F8B506000C00150012
:10FFA000052D01D20720F2BDFFF798FC002803D1F0
:10FFB000FFF76DFC002822D1194846600470856067
:10FFC0000021C1600161174D19A72000441E0028BF
:10FFD0000FD038680090E4B2E000301881786A46AB
:10FFE00051702A0069460078FFF786FC0028ECD0A3
:10FFF000F2BD0D4A002100BF0CA0FEF712FFF2BDBA
:020000040002F8
:1000000038B50024064D06E001216868E200805CF6
:10001000FFF7C8FC641C28788442F5D3002032BD69
:100020005438002049FF0100E9FE01006838002033
:10003000030000000870000A4870022070477CB579
:1000400004000D0028880930824201D20C2076BDC0
:10005000684671DF00281FD108202988605428884D
:10006000401C28801B2180B221542888401C2880F5
:100070006E460622711C80B22018FCF713FA2888FD
:10008000801D28803278002A00D0012280B22254BC
:100090002888401C2880002076BD39B581B00C002E
:1000A0000178012904D14078002801D107203EBD04
:1000B0001588A81C834222D3012905D101984078D4
:1000C0002818801C83421AD3581B831E684603805D
:1000D000694610882018801C7DDF002830D10198E7
:1000E0000178082002290ED16D462D8899B2A942C7
:1000F00007D269460B8069460988FF290ED30C2078
:100100003EBD0920F7E70129F3D1019D6D7899B231
:10011000A94200D929006B461980ECE76946098895
:10012000491C1388E1541188491C118089B260541C
:100130001088401C108069460988401810800020F3
:100140003EBDF7B584B000240C9D2888029000269F
:1001500004E02888097840182880761C04980088D4
:10016000864234DA01A804994968B20089180A88DD
:1001700002804A8842800022694665DF002833D128
:1001800068460078097E8842E7D1002C01D0002023
:1001900000E0022029886A46928E6F463F78CF1988
:1001A000381882421CDB002C09D1491C2980684682
:1001B000007D89B258542888401C28800124288852
:1001C0001A18694601A865DF0028C2D00CE0002C8F
:1001D00009D028880299401A401E80B2FF2801DD0C
:1001E0000C2001E05854002007B0F0BDFEB5060019
:1001F0001700089D099C019400950222FFF7A1FFBA
:10020000002807D101940095029B1022390030008C
:10021000FFF797FFFEBD7CB582B005000C0011888A
:10022000881D834201D20C2014E028886A46108081
:1002300068460288062A0CDB1D4B1E4EB24201DBCB
:100240009A4206D16888062803DBB04204DB984254
:1002500008D0072004B070BD9A4203D06A461288C5
:100260009042F6D30520605402980088401C029901
:100270000880122180B2215402980088401C029903
:10028000088080B221182888FFF7D4FE02990988D7
:1002900008180299088080B221186888FFF7CAFE02
:1002A000029909880818029908800020D2E7000006
:1002B000FFFF0000810C000070B504000E00150067
:1002C000A088801C29880A18921C934201D3FF2819
:1002D00001D30C2070BD401C70542888401C28801D
:1002E000FF2180B231542888401C288080B2311808
:1002F0002088FFF79FFE298808182880A28811000F
:100300000CD0A168002901D1072070BD80B230183F
:10031000FCF7C8F82888A18840182880002070BD04
:10032000F1B50F001600806A002836D0002408E0DE
:1003300080B23818FCF7B6F83088A98840183080A9
:10034000641C009928310979E0B2884227D20098CC
:10035000806AE4B20C2161434518A888801CFF28FC
:1003600001D30C20F2BD401C318878543088401CE9
:100370003080162180B239543088401C308080B2E1
:1003800039182888FFF756FE318808183080AA8867
:100390001100D5D0A9680029CAD10720F2BD0020DC
:1003A000F2BDFEB506000D001400002700202188D4
:1003B0006A461181278031002C314978002907D005
:1003C0006846028921002800FFF739FE002849D13C
:1003D000B17800291FD0684600892188091D88420C
:1003E0003FD3684679DF00283CD103202188685438
:1003F0002088401C2080192180B229542088401C6C
:10040000208080B2291868460088FFF713FE2188F3
:10041000081820800020F1780A0017D049B22288FD
:1004200068460389D01C83421BD30220A85420882D
:10043000401C2080012280B22A542088401C208049
:1004400080B229542088401C208000207168002937
:100450001AD000200956228868460389D01C83429E
:1004600001D20C20FEBD0220A8542088401C208010
:100470000A2280B22A542088401C208080B229544D
:100480002088401C20800020318900290CD068463B
:100490000089019000942B000622022130000830D0
:1004A000FFF7A4FE00284ED1318A00290CD06846FF
:1004B0000089019000942B000722032130001030A6
:1004C000FFF794FE00283ED1318B00290CD06846FE
:1004D0000089019000942B0015221421300018305F
:1004E000FFF784FE00282ED1376A002F08D0684617
:1004F0000389220029003800FFF78DFE002822D151
:10050000776A002F08D06846038922002900380046
:10051000FFF7D2FE002816D12C21715C002908D0EB
:1005200068460389220029003000FFF7F9FE002801
:1005300009D13178002906D06846038922002900B4
:100540003000FFF7AAFDFEBD70B592B00D001F216F
:100550006A4651801180002400280AD0C1784907DA
:100560000FD5921C09A9FFF71CFF00281ED109AE68
:1005700002E0002669464C80002D0DD0E878002866
:1005800001D0072012E06A4601A92800FFF709FF01
:1005900000280BD101AA02E00022684604806846C8
:1005A0000388DBB24188C9B2300072DF12B070BD7F
:1005B000002801D1032070470249496E01600020E4
:1005C00070470000A036002030B5EFF3108172B6FE
:1005D0000122124B5C68002C07D15A60104A114C62
:1005E000256815401D60226000220270002900D19C
:1005F00062B630BD09494A68002A0CD000280AD1E9
:10060000EFF3108072B60A68074B1A6000224A6046
:10061000002800D162B6704700000000C0390020F9
:10062000FC06FFBC80E100E000E100E010B50268DC
:10063000C36884882340D154C168491CC16010BD7F
:1006400010B503688468611880880140585C107098
:1006500010BD10B504000A000021FFF7F1FFA068EB
:10066000401CA06010BD10B5002901D10E2010BDA6
:10067000130003D0531E14001C4001D0092010BDEC
:100680000160511E818000218160C160002010BD89
:1006900080B58268C3689A1A8388934203D3FFF7B0
:1006A000C5FF002002BD042002BD80B58268C3687A
:1006B0009A1A03D0FFF7CDFF002002BD052002BD2E
:1006C0004058002804E0C1229200805801400800F0
:1006D00000D00120C0B270478C4BC018826001600E
:1006E0007047A123DB00C018016082607047520090
:1006F0000A4399001143009A12020A43019909041E
:100700001143834A80001150704700B583B0002127
:1007100001910091002301220121FFF7E8FF07BDAD
:1007200000B583B00022019200920B000021FFF778
:10073000DEFF07BDF8B507000C0020680125002684
:10074000F643B04206D00121814072480160206822
:10075000FFF7DBFF6068B04202D00021FFF7E0FF47
:10076000A06939686C4A8850607D217D01433868F2
:1007700048328150626821683868FFF7ADFF207DFC
:10078000012813D1A068B04202D00021FFF7C8FFB2
:10079000E068B04205D085405E480560E068FFF73C
:1007A000B4FFA268E1683868FFF79BFFF1BD10B5A0
:1007B000002203688E2464001A51036828341A51F9
:1007C000924A0368C124A4001A510068000300166D
:1007D00000F0BCFA10BDF8B506000C001700AD48DB
:1007E00031791C2251434518E87E002801D00820A9
:1007F000F2BD21003000FFF79DFF6F602069286087
:100800006868002803D0217F3000FFF7D0FF042064
:100810003168A022D20088500020E8752876A8759B
:100820000121E976A876F2BD00228E235B00C2503A
:100830008A688B8AD25C8B8A5B1C8B82A44942506B
:100840007047F8B50600934831791C22514344188B
:100850000020009031688E225200885001203168BB
:10086000886021003068FFF7DFFF6068002829D129
:1008700080256D008E277F000FE039003068FFF77C
:100880001FFF002802D1A08AA842F6D1A08AA84260
:1008900003D021003068FFF7C7FFA08AA17D8842FE
:1008A000EBD3A08AA84202D10F20009008E03900C3
:1008B0003068FFF705FF0028F9D001203168C860D3
:1008C0000020A0750098F2BDF8B504000F001500D7
:1008D000704821791C2251434618200000F00BF883
:1008E000002801D01120F2BDB575B760B08220009C
:1008F000FFF7A7FFF2BD674900791C225043081893
:10090000807D002800D00120704700000C05000009
:10091000000700500805005024050000002102686F
:1009200092235B00D15002681C3BD150012100682A
:100930000160704710B5A322D200821884235B00A7
:10094000C0180023CC7D002C036001D1106810BDBD
:10095000487E1268CB681A54487E401C487610BD09
:10096000F1B5AA48009909791C2251434718B87E6D
:10097000034302D10098FFF7D1FF0098006879681F
:1009800000293BD1A22252008150922149000098B7
:100990000068FFF795FE0600842149000098006872
:1009A000FFF78EFE0400A221490000980068FFF7BF
:1009B00087FE0500204331000143E6D02900314382
:1009C00008D1390000980068FFF7B4FF787EF97D00
:1009D0008842DAD30020F875002E01D00320F2BD42
:1009E000002D01D00F20F2BD009800680121BA7ED1
:1009F000002A01D0016006E0416004E08121890005
:100A0000C122920081500020F2BD0000800002004F
:100A1000F2B57E4903791C246343C91800240023DE
:100A20008125AD004E68002E03D00668C227BF00A6
:100A3000F551CE7D002E10D00B7E002B08D04968DA
:100A4000002903D00068C121890045501120F2BD62
:100A50000123009C0C610A7604E0CA75009DCD60FC
:100A60004C760C760099FFF77BFFF2BD38B5040099
:100A7000664D20791C2148432818807E002808D123
:100A80002000FFF74BFF20791C2148432818012143
:100A9000817631BD683900201FB503006846012406
:100AA00004700172019219685A6890471FBD00B521
:100AB00085B0020000206B46187019729168019190
:100AC0009075116868465268904705B000BD0000F7
