:100000000C94A3000C94A9280C9488280C94A9287B
:100010000C94A9280C94A9280C94A9280C94EC22DF
:100020000C94A9280C945C220C948C220C94BC2275
:100030000C94A9280C94A9280C94A9280C94A928FC
:100040000C94A9280C94A9280C94A9280C94A928EC
:100050000C94A9280C94A9280C944C230C94A9283E
:100060000C94A9280C94A9280C94A9280C94A928CC
:100070000C94A9280C94141C0C94A9280C94451FCA
:100080000C94A9280C94A9280C9493280C94A928C2
:100090000C94A9280C94A9280C94A9280C94A9289C
:1000A0000C94A9280C94A9280C94A9280C94A9288C
:1000B0000C94A9280C94A9280C94A9280C94A9287C
:1000C0000C94A9280C94A9280C94A9280C94A9286C
:1000D0000C94A9280C94A9280C94A9280C94A9285C
:1000E0000C94A9280C94A928570202039F030F041B
:1000F0000F04DC045C05D9057C062407E307290806
:100100000D02540240004827804827484B00519474
:10011000484B486F80486F48950051B8489548C093
:100120008048C048CD0051DE48CD48E38048E348D0
:10013000EB0051EB48EB48EF8048EF48F10051F3FA
:1001400048F148F58000809101108F7C80608068C4
:100150008093011011241FBECFEFCDBFDFE7DEBFBC
:10016000E4E0F1E041E019C0B791A7913791279100
:10017000079107FD0EC097918791EF01F92FE82FA6
:100180000BBF07900D92A217B307D9F7FE011BBE54
:1001900004C01D92A217B307E1F7E534F40721F775
:0C01A0000E94E50C0C94D827F894FFCFC7
:1001AC007B2276657273696F6E223A25642C2273FA
:1001BC00616D706C655F72617465223A25642C22E6
:1001CC0073616D706C65735F7065725F7061636B8A
:1001DC006574223A25642C22636F6C756D6E5F6CAE
:1001EC006F636174696F6E223A7B002241636365B1
:1001FC006C65726F6D6574657258223A25642C00BB
:10020C0022416363656C65726F6D6574657259220A
:10021C003A25642C0022416363656C65726F6D65D1
:10022C007465725A223A25642C00224779726F73D6
:10023C00636F706558223A25642C00224779726FDF
:10024C0073636F706559223A25642C0022477972CA
:10025C006F73636F70655A223A2564007D7D0A00C6
:10026C004552524F523A2073656E736F7220696E0D
:10027C00697420726573756C74203D2025640A00C6
:10028C004552524F523A2073656E736F7220636FF2
:10029C006E66696775726174696F6E2072657375CD
:1002AC006C74203D2025640A00626D693136300083
:1002BC0073656E736F722074797065206973202575
:1002CC00730A0073656E736F722073616D706C6569
:1002DC0020726174652073657420617420256448F4
:1002EC007A0A00616363656C65726F6D6574657223
:1002FC0020656E61626C6564207769746820726138
:10030C006E676520736574206174202B2F2D256416
:10031C0047730A006779726F6D6574657220656E3C
:10032C0061626C656420776974682072616E6765C0
:10033C00207365742061742025644450530A004571
:10034C0052524F523A20476F7420612062616420F0
:10035C0073656E736F72207374617475733A2025B4
:10036C00640A000A0A0A4F76657272756E210A0ACF
:01037C000080
:10037D00636F6E6E65637400646973636F6E6E6533
:03038D0063740096
:0D039000040401102040800201080802044E
:10039E002F923F924F925F926F927F928F929F9287
:1003AE00AF92BF92CF92DF92EF92FF920F931F9375
:1003BE00CF93DF93CDB7DEB76E97CDBFDEBFDC0137
:1003CE001196EC914E2E512CBEE04B165104B8F006
:1003DE0080E06E96CDBFDEBFDF91CF911F910F9162
:1003EE00FF90EF90DF90CF90BF90AF909F908F9047
:1003FE007F906F905F904F903F902F9008958B015C
:10040E007C01F201EC58FF4F0C9400286115710528
:10041E0009F401C7FB01868D978D892B09F4E0C67F
:10042E0019829B0141E050E0BE016F5F7F4F81E575
:10043E000E94FD1A8111CDCFD70117968C9181FBA9
:10044E00AA24A0F8B12CC50100249695879507948F
:10045E00969587950794982F802D982F9074898163
:10046E008F7BA92EA82AA982980141E050E0BE01F7
:10047E006F5F7F4F81E50E944C188111AACFB801A2
:10048E00C7010E94CE0F8111A4CFB7016F5F7F4FBE
:10049E00A801C7010E945D1E9CCF0E94CE0F99CF6E
:1004AE006115710509F45BC6FB01828D938D892B55
:1004BE0009F465C6848D958D892B09F40FC6868D3A
:1004CE00978D892B09F471C6E114F10409F49AC6CB
:1004DE001982980141E050E0CE0101965C01BC0109
:1004EE0080E50E94FD1A811174CFD70114962C91CC
:1004FE00898120FF09C621FB992790F98C7F22FB69
:10050E00BB27B0F9BD871E864D855E85440F551FEE
:10051E004270892B842B23FB222720F92F87188AE0
:10052E002F853889220F331F220F331F24708B7FA4
:10053E00822B8983F8011382980141E050E0B501C6
:10054E0080E50E944C18811144CFB801C7010E946A
:10055E00CE0F81113ECF1982980141E050E0B501D6
:10056E0082E60E94FD1A811134CF898181FD27C652
:10057E00A801B7016F5F7F4FC7010E94C31C811195
:10058E0028CF1982980141E050E0B50189E50E941B
:10059E00FD1A81111ECFF701948196FB992790F9D0
:1005AE00898190FB87F98983980141E050E0B5017C
:1005BE0089E50E944C1881110CCF1C8219821A8277
:1005CE00980141E050E0BE016C5F7F4F8FE50E94C5
:1005DE00FD1A8111FECE8C818C7F8C838983D7018D
:1005EE0015968C918A83980142E050E0B5018FE513
:1005FE000E944C18EECE6115710509F4A4C5FB01DD
:10060E00828D938D892B09F4B2C5848D958D892B9E
:10061E0009F462C5868D978D892B09F4CEC5E11438
:10062E00F10409F4E7C51982980141E050E0CE01CA
:10063E0001965C01BC0180E50E94FD1A8111C9CEB4
:10064E00D70114968C9185FF57C589818760898360
:10065E0081E0F8018383980141E050E0B50180E527
:10066E000E944C188111B5CEB801C7010E94CE0F61
:10067E008111AFCEA801B7016F5F7F4FC7010E94F6
:10068E00C31C8111A6CE1982980141E050E0B5013C
:10069E0089E50E94FD1A81119CCEF70194819295F5
:1006AE009170898190FB87F98983980141E050E030
:1006BE00B50189E50E944C1881118BCED701159694
:1006CE008C918983980141E050E0B50180E60E944B
:1006DE004C1881117ECE980141E050E0B50182E6C2
:1006EE000E94FD1A811175CEF7012481822F83702D
:1006FE00982F990F990F8981837C322F330F330FE7
:10070E003073892B832B25FB222720F92B8B1C8AF8
:10071E002B893C89220F331F22708D7F822B898378
:10072E00980141E050E0B50182E60E944C1851CE8E
:10073E006115710509F411C5DB015A968D919C91D5
:10074E005B97892B09F425C55C968D919C915D97DD
:10075E00892B09F4BDC45E968D919C915F97892B70
:10076E0009F421C5E114F10409F44AC5198298016E
:10077E0041E050E0FE0131965F01BF0182E50E942B
:10078E00FD1A811126CED70114968C9181708D831E
:10079E001E828D819E81880F991F880F991F880F49
:1007AE00991F982F98708981877F692E682A698290
:1007BE00980141E050E0B50182E50E944C1881118C
:1007CE0008CEB801C7010E94CE0F811102CEA8013A
:1007DE00B7016F5F7F4FC7010E94C31C8111F9CD16
:1007EE0019821A82F7018481807C09F4F4C4803462
:1007FE0009F40EC5803809F412C5803C09F414C5FD
:10080E00980142E050E0B5018AE70E944C18E1CD14
:10081E006115710509F4A9C4DB015A968D919C915D
:10082E005B97892B09F4A9C45C968D919C915D9779
:10083E00892B09F45FC45E968D919C915F97892BED
:10084E0009F4ABC4E114F10409F4D8C41982980177
:10085E0041E050E0FE0131965F01BF0180E50E944C
:10086E00FD1A8111B6CDD70111968C911197843056
:10087E0009F451C4F701858183FBCC24C0F8D12C37
:10088E00C60182959295907F9827807F9827982F02
:10089E00907189818F7EC92EC82AC982980141E044
:1008AE0050E0B50180E50E944C18811192CDB8013F
:1008BE00C7010E94CE0F81118CCDB801C7010E94D5
:1008CE00CE0F811186CDA801B7016F5F7F4FC70193
:1008DE000E94C31C81117DCD1982980141E050E028
:1008EE00B50188E50E94FD1A811173CDD7011596C9
:1008FE008C9182FB882780F98D8B1E8A8D899E892B
:10090E00880F991F880F991F880F991F982F98701D
:10091E008981877F892B8983980141E050E0B50159
:10092E0088E50E944C18811154CD19821A829801C3
:10093E0042E050E0B50183E60E94FD1A811149CDD7
:10094E009981F7018181833009F492C4848185FBFA
:10095E00BB27B0F9BF8B188E2F89388D00243695A2
:10096E0027950794369527950794322F202D2074BE
:10097E009F7386FBEE27E0F9E98F1A8E498D5A8D0B
:10098E005695542F442757954795922B942B998320
:10099E009A81907E8F71892B8A83980142E050E074
:1009AE00B50183E60E944C1814CD6115710509F44A
:1009BE00CCC3FB01828D938D892B09F4DAC3848D10
:1009CE00958D892B09F48CC3868D978D892B09F40F
:1009DE00F0C3E114F10409F409C41982980141E04D
:1009EE0050E0CE0101965C01BC0180E50E94FD1A2B
:1009FE008111EFCCD70116968C9181708F8318865A
:100A0E008F8198850024969587950794969587955E
:100A1E000794982F802D982F907489818F7B492E63
:100A2E00482A4982980141E050E0B50180E50E94D4
:100A3E004C188111CECCB801C7010E94CE0F811186
:100A4E00C8CCA801B7016F5F7F4FC7010E94C31CBE
:100A5E008111BFCC19821A82980142E050E0B50193
:100A6E0085E60E94FD1A8111B4CCF7018481898339
:100A7E00258126FBFF27F0F9FB8F1C8E8B8D9C8D1D
:100A8E000024969587950794969587950794982FA9
:100A9E00802D80742F7B822B8A83980142E050E058
:100AAE00B50185E60E944C1894CC6115710509F4C8
:100ABE004EC3DB015A968D919C915B97892B09F45D
:100ACE0062C35C968D919C915D97892B09F402C34C
:100ADE005E968D919C915F97892B09F45CC3E1140E
:100AEE00F10409F489C31982980141E050E0FE0136
:100AFE0031965F01BF0180E50E94FD1A811169CC1C
:100B0E00D70115969C9193FB992790F9898190FBBB
:100B1E0087F98983980141E050E0B50180E50E9494
:100B2E004C18811156CCB801C7010E94CE0F81110D
:100B3E0050CCA801B7016F5F7F4FC7010E94C31C45
:100B4E00811147CC19821A82980142E050E0B5011A
:100B5E0087E60E94FD1A81113CCC8981982F907CEA
:100B6E00F7012481822F8F73892B89833581832FFF
:100B7E00880F880F880F982F90738A81887C229512
:100B8E002695269523703170330F330F232B892B27
:100B9E00822B8A83980142E050E0B50187E60E94DD
:100BAE004C1817CC6115710509F4DDC2FB01828D5D
:100BBE00938D892B09F4DFC2848D958D892B09F4D1
:100BCE0093C2868D978D892B09F4F1C2E114F1043D
:100BDE0009F40AC31982980141E050E0CE01019652
:100BEE005C01BC0181E50E94FD1A8111F2CB898165
:100BFE00D70114962C91922F91708C7F21FBBB27DD
:100C0E00B0F9B9871A8649855A85440F551F427027
:100C1E00892B842B22FB222720F92B871C862B85E0
:100C2E003C85220F331F220F331F24708B7F822BA4
:100C3E008983980141E050E0B50181E50E944C188E
:100C4E008111C7CBB801C7010E94CE0F8111C1CB54
:100C5E00A801B7016F5F7F4FC7010E94C31C8111AE
:100C6E00B8CB1982980141E050E0B50188E50E94A9
:100C7E00FD1A8111AECBF701948195FB992790F95E
:100C8E00898190FB87F98983980141E050E0B50195
:100C9E0088E50E944C1881119CCB19821A821B8206
:100CAE00980141E050E0B5018CE50E94FD1A8111DA
:100CBE0090CBD70114968C918695869586958370E8
:100CCE00B0E48B9FC001112499819F73892B898376
:100CDE00F70186818A8385818B83980143E050E0FA
:100CEE00B5018CE50E944C1874CB6115710509F4A1
:100CFE0032C2DB015A968D919C915B97892B09F438
:100D0E0046C25C968D919C915D97892B09F4EAC140
:100D1E005E968D919C915F97892B09F442C2E114E6
:100D2E00F10409F473C21982980141E050E0FE010A
:100D3E0031965F01BF0181E50E94FD1A811149CBF9
:100D4E00D70116968C9184FB222420F8312CC101F8
:100D5E00880F991F880F991F880F991F982F9870C9
:100D6E008981877F292E282A2982980141E050E027
:100D7E00B50181E50E944C1881112BCBB801C7013A
:100D8E000E94CE0F811125CBA801B7016F5F7F4F57
:100D9E00C7010E94C31C81111CCB1982980141E02E
:100DAE0050E0B50188E50E94FD1A811112CBF701C2
:100DBE00968193FB992790F9898190FB87F9898316
:100DCE00980141E050E0B50188E50E944C18811170
:100DDE0000CB19821A821B82980141E050E0BE01BD
:100DEE006D5F7F4F8CE50E94FD1A8111F2CA8B81D7
:100DFE00D70116962C911697922F9370887F22FB0F
:100E0E00222720F92D8F1E8E2D8D3E8D220F331F02
:100E1E00220F331F2470892B822B8B8315968C9176
:100E2E0015978A8314968C918983980143E050E03C
:100E3E00B5018AE50E944C18CCCA6115710509F4FA
:100E4E0088C1DB015A968D919C915B97892B09F491
:100E5E009CC15C968D919C915D97892B09F448C13C
:100E6E005E968D919C915F97892B09F4A4C1E11434
:100E7E00F10409F4BDC11982980141E050E0FE0170
:100E8E0031965F01BF0182E50E94FD1A8111A1CA50
:100E9E00D70114968C9180FF03C09981916099833C
:100EAE0081FF03C099819260998382FF03C089817B
:100EBE0084608983980141E050E0B50182E50E948B
:100ECE004C18811186CAB801C7010E94CE0F81113C
:100EDE0080CAA801B7016F5F7F4FC7010E94C31C74
:100EEE00811177CA1982980141E050E0B50189E578
:100EFE000E94FD1A81116DCAF701958192FB992707
:100F0E0090F9898190FB87F98983980141E050E03F
:100F1E00B50189E50E944C1881115BCA1C821982A9
:100F2E001A82980141E050E0BE016C5F7F4F8FE561
:100F3E000E94FD1A81114DCAD70114968C911497F7
:100F4E0086958695869515969C9191709295990F9A
:100F5E00907E892BB4E08B9FC00111249C819370ED
:100F6E00892B8C83980141E050E0BE016C5F7F4F6E
:100F7E008FE50E944C1881112CCA980141E050E077
:100F8E00BE016C5F7F4F82E60E94FD1A811121CA5D
:100F9E008C81982F9E7FF701858186958170892B94
:100FAE008C838A8386818983980142E050E0B50163
:100FBE0081E60E944C180DCA6115710509F4D1C065
:100FCE00DB015A968D919C915B97892B09F4D9C0C0
:100FDE005C968D919C915D97892B09F487C05E96E6
:100FEE008D919C915F97892B09F4D9C0E114F1047E
:100FFE0009F40AC11982980141E050E0BE016F5F09
:10100E007F4F81E50E94FD1A8111E3C989818061BC
:10101E008983980141E050E0BE016F5F7F4F81E50B
:10102E000E944C188111D5C9B801C7010E94CE0F7C
:10103E008111CFC9B7016F5F7F4FA801C7010E9411
:10104E005D1EC7C96115710509F4E7C0FB01868DE8
:10105E00978D892B09F4C6C019829B0141E050E09F
:10106E00BE016F5F7F4F81E50E94FD1A8111B1C9EC
:10107E00D70117968C9180FB882480F8912CC4019F
:10108E00880F991F82959295907F9827807F982739
:10109E00982F907289818F7D892E882A8982980156
:1010AE0041E050E0BE016F5F7F4F81E50E944C181A
:1010BE0081118FC9B801C7010E94CE0F811189C954
:1010CE00B7016F5F7F4FA801C7010E945D1E81C9E6
:1010DE008FEF7FC98FEF7DC98FEF7BC98FEF79C9F6
:1010EE008FEF77C98FEF75C98FEF73C98FEF71C906
:1010FE008FEF6FC98FEF6DC98981887F89838FEFDD
:10110E00D80113968C93A7CA887F89838FEFD80155
:10111E0013968C9311CA15968C9183FB882780F9B0
:10112E00898B1A8A89899A89880F991F8295929537
:10113E00907F9827807F9827982F907289818F7D36
:10114E00892B8983ABCB8FEF44C98FEF42C98FEFC9
:10115E0040C98FEF3EC98FEF3CC98FEF3AC98FEF71
:10116E0038C98FEF36C98FEF34C98FEF32C98FEF81
:10117E0030C98FEF2EC98FEF2CC98FEF2AC98FEF91
:10118E0028C98FEF26C98FEF24C98FEF22C98FEFA1
:10119E0020C98FEF1EC98FEF1CC98FEF1AC98FEFB1
:1011AE0018C98FEF16C98FEF14C98FEF12C98FEFC1
:1011BE0010C98FEF0EC98FEF0CC98FEF0AC98D7F43
:1011CE008983980141E050E0B50182E60E944C18F7
:1011DE008111FFC8CDC985E1898383E08A8310CB55
:1011EE008FEFF7C88FEFF5C88FEFF3C88FEFF1C809
:1011FE008FEFEFC88FEFEDC88FEFEBC88FEFE9C819
:10120E008FEFE7C88FEFE5C88FEFE3C88FEFE1C828
:10121E008DE28983F5CA8FEFDCC88FEFDAC88DE1D6
:10122E00898387E08A83ECCA980142E050E0B501D9
:10123E008AE70E94FD1A8111E3CAD70114962C91F8
:10124E001497822F880F880F982F98718981807E2E
:10125E002695269526952770892B822B89838A8140
:10126E00982F987F15968C918770892B8A83C8CA80
:10127E008481382F331F3327331F25812370220F8C
:08128E00232B987F922B63CB08
:10129600AAE9B0E0E1E5F9E00C94FF256C017A01DA
:1012A600C756DF4F68837983C959D040A12CB12C2A
:1012B60066246A94762C90E8492E512C25E2222E3B
:1012C600C756DF4F68817981C959D040FB018081BB
:1012D600882309F471C3CF57DF4F18821982C1588A
:1012E600D040CD57DF4F68827982C358D040CB5764
:1012F600DF4F18821982C558D04081E090E08C0FEC
:101306009D1FC957DF4F88839983C758D040C75759
:10131600DF4F48825982C958D040FB0100E010E0F7
:101326008191811116C001151105C1F0A801C601F0
:101336000E94E225C756DF4F88819981C959D0405E
:10134600800F911FC756DF4F88839983C959D040B4
:1013560005C0853241F30F5F1F4FE2CFC756DF4FFF
:10136600E881F981C959D0408081853209F012C3DC
:101376004F019FEF891A990AC756DF4F88829982D3
:10138600C959D040C756DF4F88819981C959D04085
:10139600DC012C912B3241F4CF57DF4F2881398164
:1013A600C158D04024600BC02C32BCF02D3249F518
:1013B600CF57DF4F28813981C158D0402160CF57A0
:1013C600DF4F28833983C158D0400196C756DF4F77
:1013D60088839983C959D040D5CF203241F4CF575D
:1013E600DF4F28813981C158D0402860E8CF2332A9
:1013F60091F4CF57DF4F28813981C158D040206101
:10140600DECF203341F4CF57DF4F28813981C158D1
:10141600D0402260D4CF2A3289F50196C756DF4FD5
:1014260088839983C959D040D701ED91FC911197D2
:10143600CF0102968D939C9380819181CB57DF4F8C
:1014460088839983C558D04097FF35C0CF57DF4F63
:1014560028813981C158D040B1E02B27CF57DF4FC3
:1014660028833983C158D040919581959109CB57EE
:10147600DF4F88839983C558D0401DC00E94132131
:10148600CB57DF4F88839983C558D040C756DF4F67
:10149600E881F981C959D0408081082E000C990B4A
:1014A600C0970A9740F43196C756DF4FE883F98311
:1014B600C959D040EBCFCF57DF4F88819981C158AA
:1014C600D04080FF07C08D7FCF57DF4F8883998339
:1014D600C158D040C756DF4FE881F981C959D0407D
:1014E60080818E3209F046C0CD57DF4F18821982AF
:1014F600C358D040CF010196C756DF4F88839983E2
:10150600C959D04021812A32C1F43296C756DF4FDD
:10151600E883F983C959D040D701ED91FC91119721
:10152600CF0102968D939C9380819181CD57DF4F99
:1015360088839983C358D0401DC00E941321CD577C
:10154600DF4F88839983C358D040C756DF4FE88161
:10155600F981C959D0408081082E000C990BC0979B
:101566000A9740F43196C756DF4FE883F983C95985
:10157600D040EBCFCE0187569F4F0E940A25382ECA
:10158600C756DF4FE881F981C959D0408081082EBE
:10159600000C990B0E9457288936910509F456C00C
:1015A600B4F48336910509F46BC144F48532910590
:1015B60009F4A2C18136910529F1B4C18436910599
:1015C60009F444C0883691050CF436C1ABC18037A6
:1015D600910509F4C4C04CF48E36910509F420C176
:1015E6008F36910509F47AC09DC18537910509F4B6
:1015F60051C08837910509F495C08337910509F0E4
:1016060091C15DC1632D70E0A701CE0185579F4F43
:101616000E942A25892B09F4B0C1C756DF4FE881FD
:10162600F981C959D040CF010196C756DF4F88834B
:101636009983C959D0402081AE0145575F4FBE01FD
:101646006F577F4FC6010E94A62894C1632D70E094
:10165600970141E050E0CE0185579F4F0E94D51576
:10166600892B09F48AC1C756DF4F88819981C959E8
:10167600D0400196C756DF4F88839983C959D04019
:10168600AE0145575F4FBE016F577F4FC6010E949F
:10169600161570C1632D70E0970140E050E0CE0151
:1016A60085579F4F0E94D515892B09F466C1C756E9
:1016B600DF4F88819981C959D0400196C756DF4FBF
:1016C60088839983C959D040AE0145575F4FBE0103
:1016D6006F577F4FC6010E946C1C4CC1632D70E092
:1016E600970140E050E0CE0185579F4F0E94D515E7
:1016F600892B09F442C1C756DF4F88819981C959A0
:10170600D0400196C756DF4F88839983C959D04088
:10171600AE0145575F4FBE016F577F4FC6010E940E
:10172600941A28C1632D70E0970140E050E0CE0185
:1017360085579F4F0E94D515892B09F41EC1C756A0
:10174600DF4FE881F981C959D040CF010196C756CC
:10175600DF4F88839983C959D040208157C09701AC
:1017660040E050E060EF70E0CE0185579F4F0E9449
:10177600D515892B09F401C1C756DF4F8881998198
:10178600C959D0400196C756DF4F88839983C959F6
:10179600D04086E0E7ECF8E4DE01AD56BF4F01909D
:1017A6000D928A95E1F7C557DF4F2881CB58D04077
:1017B600C457DF4F3881CC58D040C357DF4F4881DC
:1017C600CD58D040C257DF4F5881CE58D040C15770
:1017D600DF4F6881CF58D040C057DF4F7881C0595E
:1017E600D040CF56DF4F8881C159D040CE56DF4F0B
:1017F6009881C259D040A0E00E94C12731F420E070
:1018060030E0AE014D565F4FAFC028E7AE014557F9
:101816005F4FBE016F577F4FC6010E948E0EAAC052
:10182600632D70E09701A501400F511FCE0185572A
:101836009F4F0E94281AA1C0632D70E0A701CE0118
:1018460085579F4F0E942A25892B09F496C0C756B3
:10185600DF4FE881F981C959D040CF010196C756BB
:10186600DF4F88839983C959D0402081AE014557FF
:101876005F4FBE016F577F4FC6010E94A6287AC0F0
:10188600B0E83B127AC0C756DF4F88819981C959A3
:10189600D0400196C756DF4F88839983C959D040F7
:1018A600D701ED91FC911197CF0102968D939C93F0
:1018B6008081C557DF4F8883CB58D04050C0B0E8F1
:1018C6003B125BC0C756DF4F88819981C959D0400A
:1018D6000196C756DF4F88839983C959D040D701EF
:1018E600ED91FC911197CF0102968D939C934081C7
:1018F600518120E030E038C0B0E83B123EC0C75608
:10190600DF4F88819981C959D0400196C756DF4F6C
:1019160088839983C959D040C557DF4F2882CB5851
:10192600D0401DC0C557DF4F2882CB58D040C75680
:10193600DF4F88829982C959D040CF57DF4F18822E
:101946001982C158D040CB57DF4F18821982C5582B
:10195600D040CD57DF4F68827982C358D04021E00E
:1019660030E0AE0145575F4FBE016F577F4FC6014E
:101976000E942822800F911F0EC0C756DF4F888114
:101986009981C959D0400196C756DF4F88839983FC
:10199600C959D040C8018501080F191F0A151B0532
:1019A6004CF48FE490E080930040909301408FEFD9
:1019B6009FEF03C0580184CCC501C656DF4FE2E154
:0419C6000C946026F7
:1019CA00CF93DF93CDB7DEB72797CDBFDEBF0E9497
:1019DA00A3248EE09EE10E949D288AE090E00E9466
:1019EA0024282CE030E040E862E070E480EB98E4E0
:1019FA000E946925882341F01092ED481092EE4822
:101A0A0080E480934504FFCF21E030E040E862E8BB
:101A1A0077E488EB98E40E9469258111EDCF8091E3
:101A2A00250880688093250882E098E40E94E924CA
:101A3A00892B89F080912548909126489F938F930E
:101A4A008CE692E89F938F930E9430260F900F9016
:101A5A000F900F90D1CF82E098E40E94901F892BBB
:101A6A0089F080912548909126489F938F938CE81E
:101A7A0092E89F938F930E9430260F900F900F90B9
:101A8A000F90BACF85EB92E89F938F938CEB92E8F5
:101A9A009F938F930E9430261F9284E68F938FEC38
:101AAA0092E89F938F930E9430261F9280E18F9332
:101ABA008FEE92E89F938F930E94302687E08F9350
:101ACA0080ED8F9380E293E89F938F930E94302654
:101ADA008FE498E289839A838AE495E28B839C83D4
:101AEA001E82CE0101960E943F2860E071E082E0EA
:101AFA0096E40E947C1383EF91E20E948E28109252
:101B0A00ED481092EE4880E48093450480934604A1
:101B1A00CDBFDEBF80E090E0DC011C012D01809189
:101B2A00254890912648892BD1F50E944728882379
:101B3A0009F472C08091F448882309F441C08FE601
:101B4A0093E80E941B281092ED481092EE48F0E4A8
:101B5A00F0934504F093460468E873E180E090E06E
:101B6A000E94F91E86EC98E20E948E2880EB98E487
:101B7A000E94A2281092F44883EF91E20E948E28D4
:101B8A0084EF91E08093ED489093EE4890E490932F
:101B9A0045048091254890912648892B31F28091FD
:101BAA002548909126489F938F938BE493E89F93BF
:101BBA008F930E9430260F900F900F900F901CCF9A
:101BCA0080EB98E40E947B28883008F082C00E944B
:101BDA004728882309F4A3CF88EB98E40E947B283E
:101BEA008A3008F49CCF0E94582488EB98E40E941B
:101BFA007B28682F88EB98E40E9471270E94472867
:101C0A0081118DCF1092ED481092EE48E0E4E093F6
:101C1A004504E093460483CF88EB98E40E947B282E
:101C2A00873058F00E94312488EB98E40E947B2880
:101C3A00682F88EB98E40E9471270E94472888231E
:101C4A00A1F0E4EFF1E0E093ED48F093EE4886EC82
:101C5A0098E20E948E2880EB98E40E94A2281092B3
:101C6A00F44883EF91E20E948E280E94CC2651010B
:101C7A006201E12CF12C00E010E00E940928243FC7
:101C8A00314041055105610571058105910509F04C
:101C9A0008F49DCF0E94CC2669017A01E2E0F6E4BD
:101CAA0001900020E9F73197E250F64479F082E09A
:101CBA00682E86E4782E8F010E5F194BF30181910D
:101CCA003F010E945F2860167106C1F716012701BD
:101CDA007ECFBE01695F7F4F80EB98E40E940524A6
:101CEA008C018F81883008F472CF40E650E0B80149
:101CFA0080E00E943317005A1F4F8F8188508F83CC
:101D0A0068E080EB98E40E9471278F81883068F739
:021D1A005ECF9A
:101D1C00A4E1B0E0E4E9FEE00C94FF258F83988702
:101D2C0069837A834B8B5C8B122FDB011296ED91BE
:101D3C00FC91139714962D913C9115972D833E830E
:101D4C00CD90DC90119716962D903C901797F7FD3F
:101D5C0003C0E894C1F802C0E1E0F0E0C601807174
:101D6C00992789879A87C4FE1FC0AB89BC892C919F
:101D7C0011963C91119712964C91129713965C9177
:101D8C00139714966C91149715967C91159716963B
:101D9C008C91169717969C91A0E00E94C12721F078
:101DAC008D819E81029702C08D819E819601287043
:101DBC0033272B873C87C3FC0197AB89BC894C909C
:101DCC0011965C90119712966C90129713967C90CA
:101DDC00139714968C90149715969C9015971696AD
:101DEC00AC9016971796BC90A981BA811896ED9075
:101DFC00FC901997B1E0EB1AF108D101AE0DBF1DA3
:101E0C001C928B839C839F01281B390B2D873E874B
:101E1C00C601827099278F87988B812F012E000C19
:101E2C00990BDC01A154B109A98BBA8B32E0E316F2
:101E3C00F10434F489859A85892B09F04CC073C060
:101E4C009201A301B401C501A0E00E94C12781F158
:101E5C00B1E0EB1AF108C2018F7099278A30910515
:101E6C0014F4C09602C0895A9F4FE989FA897A976F
:101E7C0048F49C012062215631092A31310510F4B5
:101E8C000E943628F101EE0DFF1D80832B813C81D1
:101E9C00215031092B833C839201A301B401C5016C
:101EAC0004E00E94A92529013A014B015C01BECF37
:101EBC008D859E85AB81BC818A0F9B1F18161906D8
:101ECC003CF21A161B060CF0B5CFEF85F889EF2BF8
:101EDC0009F0BECFAFCFAB89BC892C9111963C9148
:101EEC00119712964C91129713965C911397149626
:101EFC006C91149715967C91159716968C91169754
:101F0C0017969C91A0E00E94C12769F0F101EE0D9B
:101F1C00FF1D31971083B2E0EB1AF108F101EE0DC1
:101F2C00FF1D80E38083EB85FC85EF2B41F0F1E016
:101F3C00EF1AF108F101EE0DFF1D80E28083A981FB
:101F4C00BA8118964D915C911997415051094E19CF
:101F5C005F09B1016E0D7F1D86012D813E818F8140
:101F6C0098850E946B1D9C01EF81F8858081918181
:101F7C0090FF09C0A981BA8112968D919C911397FB
:101F8C00821793070CF4C9016496E2E10C94602665
:101F9C002F923F924F925F926F927F928F929F926D
:101FAC00AF92BF92CF92DF92EF92FF920F931F935B
:101FBC00CF93DF93CDB7DEB72597CDBFDEBF4C01F6
:101FCC007B0119829B0141E050E0BE016F5F7F4FA6
:101FDC0083E50E94FD1A811182C0F4018081813059
:101FEC0009F493C0F4012281998120FB97F921FB1C
:101FFC00002700F910E00024169507950794169514
:10200C0007950794102F002D802F8074092F0F79BE
:10201C0022FBAA24A0F8B12CA501440F551F429510
:10202C005295507F5427407F5427942F9072082B41
:10203C00092B23FBCC24C0F8D12CC6018295929598
:10204C00907F9827807F982780710F7EC82EC02A9A
:10205C00C982970141E050E0BE016F5F7F4F83E57D
:10206C000E944C1881113BC01982970141E050E04D
:10207C00BE016F5F7F4F84E50E94FD1A81112FC056
:10208C00F4018081813009F471C0F401928194FBD8
:10209C00662460F8712C9301220F331F2295329520
:1020AC00307F3227207F3227207289818F7D822BCF
:1020BC00929596959770F40123812170622E660C8F
:1020CC00660C660C692A807F682A6982970141E058
:1020DC0050E0BE016F5F7F4F84E50E944C1825963F
:1020EC00CDBFDEBFDF91CF911F910F91FF90EF908D
:1020FC00DF90CF90BF90AF909F908F907F906F901C
:10210C005F904F903F902F900895928190FB4424C4
:10211C0040F8512C9201220F331F220F331F220F34
:10212C00331F322F38708981837F91FB222420F852
:10213C00312CA101440F551F440F551F242F24701F
:10214C00482E432A822F842992FBFF27F0F9FA8329
:10215C001B822A813B81220F331F22708C7F93FBC1
:10216C00992790F9822B892B898373CF928194FBC9
:10217C00FF27F0F9FC831D822C813D81229532953D
:10218C00307F3227207F3227207189818F7E822BEE
:02219C008FCFE3
:10219E008F929F92AF92BF92CF92DF92EF92FF9269
:1021AE000F931F93CF93DF93CDB7DEB72F97CDBF8E
:1021BE00DEBF982F937082FD60C0D12C21153105A2
:1021CE0009F4D9C08A017B01923009F459C09330C9
:1021DE00A1F0913009F47AC08BEF2F96CDBFDEBF00
:1021EE00DF91CF911F910F91FF90EF90DF90CF90E5
:1021FE00BF90AF909F908F900895452B09F4BBC070
:10220E00672B09F4B8C0BE016F5F7F4F8FE0FB01F3
:10221E0011928A95E9F74D2D50E0445F5F4F8CE0A7
:10222E000E94FD1A8111A9C029813A81F8012083EB
:10223E0031832B813C81228333832D813E81248304
:10224E0035832F813885F7012083318329853A859F
:10225E00228333832B853C8524833583F3E0DF167D
:10226E0009F46BC0F7011682178210861186F801E9
:10227E001682178210861186B0CFB3E0DB2E9ECF6A
:10228E00452B09F478C0BE016F5F7F4F8FE0FB01D5
:10229E0011928A95E9F7D11022C046E050E08CE009
:1022AE000E94FD1A811169C029813A81F8012083AB
:1022BE0031832B813C81228333832D813E81248384
:1022CE003583168217821086118687CF61157105A8
:1022DE0009F451C0A9018D2D0E945D1B7ECF4D2D9D
:1022EE0050E0445F5F4F8CE00E94FD1A811145C0A3
:1022FE0029813A81F801208331832B813C8122830D
:10230E0033832D813E81248335834F8550E060E0F9
:10231E0070E0BA01552744279D85492BCE84D12CD8
:10232E00DC2CCC24E12CF12C4C295D296E297F2943
:10233E00468357836087718750CF4F8550E060E0AA
:10234E0070E0BA01552744279D85492B8E84912C28
:10235E00982C8824A12CB12C482959296A297B292B
:10236E00F7014683578360877187F8014683578349
:0E237E006087718732CF8FEF30CF8EEF2ECF7A
:10238C000F931F93CF93DF9300D0CDB7DEB7009799
:10239C0009F4D2C0FC01268D378D232B09F4CCC057
:1023AC008C0119821A829C0142E050E0BE016F5FE1
:1023BC007F4F80E40E94FD1A8111B7C0F80185811E
:1023CC00803108F0B1C0F8019185891729F0998105
:1023DC00907F8F70892B8983F8018781833008F077
:1023EC00A3C0F8019385891719F089818F788983A7
:1023FC00F80186818D3008F097C0F8019285891715
:10240C0029F09A81907F8F70892B8A83980141E003
:10241C0050E0BE016F5F7F4F80E40E944C18811129
:10242C0084C0F8018581818787818387980141E089
:10243C0050E0BE016E5F7F4F81E40E944C18811109
:10244C0074C0F8018681828719821A82980142E051
:10245C0050E0BE016F5F7F4F82E40E94FD1A811134
:10246C0064C0F80185858E3008F05EC0F801918952
:10247C00891729F09981907F8F70892B8983F801B6
:10248C008785833008F050C0F0E18F9FC001112484
:10249C00807399819F7C892B8983F801868585308F
:1024AC0008F042C09289891729F09A81987F877029
:1024BC00892B8A83980141E050E0BE016F5F7F4F0A
:1024CC0082E40E944C18811130C0F8018585818B03
:1024DC008785838B980141E050E0BE016E5F7F4F92
:1024EC0083E40E944C18811120C0F8018685828BF0
:1024FC00C8010E944A14811118C01982980141E048
:10250C0050E0BE016F5F7F4F82E00E94FD1A9981FF
:10251C0096959F709130B1F0923091F0933071F0AC
:10252C00973019F487EF01C08CEF0F900F90DF916B
:10253C00CF911F910F9108958FEFF7CF88EFF5CFC3
:08254C0089EFF3CF8AEFF1CF14
:102554000F931F93CF93DF930E94BC2140E054E07C
:1025640087EDFA01808320E234E0F901108280E4EF
:1025740094E069E4FC016083C0E6D4E01882A0E83A
:10258400B4E01C9200EA14E0F801108261E0FA0160
:102594006483F9011482FC0164831C8214961C92E6
:1025A4001497F8011482FA01108A118A128A138A84
:1025B400148A158A168A178AF901108A118A128ACE
:1025C400138A148A158A168A178AFC01108A68E00D
:1025D400618B128A138A148A158A168A7BE0778B98
:1025E400188A198A1A8A1B8A1C8A74E07D8B72E005
:1025F4007E8B1F8A50961C92509751961C9251972D
:1026040052961C92529753961C92539754961C922E
:10261400549755961C92559756961C9256975796D2
:102624001C925797F801108A618B728B138A148A53
:10263400658B668B178AFA011386168615861486AF
:10264400F9011386168615861486FC0113861686F0
:10265400158614861B861E861D861C861B961C9258
:102664001B971E961C921E971D961C921D971C96D6
:102674001C92F8011386168615861486E0EEF5E0A2
:102684001186118210821482168217821086758335
:102694001282138212868CEB98E28093E148909325
:1026A400E2488DEB98E28093DF489093E0488EEB0C
:1026B40098E28093DD489093DE488FEB98E2809314
:1026C400DB489093DC4880EC98E28093D94890935F
:1026D400DA4881EC98E28093D7489093D8488BEB02
:1026E40098E28093D5489093D648DF91CF911F917B
:0426F4000F910895A5
:1026F800DF92EF92FF920F931F93CF93DF937C01AA
:102708008B011F9288E08F931F9284E68F931F920C
:1027180082E0D82EDF928CEA91E89F938F931F93E3
:102728006F93FF92EF920E94B826EC011F921F92BE
:1027380087EF91E89F938F93C8018C1B9D0B9F9304
:102748008F93C7018C0F9D1F9F938F930E94B8266C
:10275800C80FD91F1F9281E08F938CE092E89F9356
:102768008F93C8018C1B9D0B9F938F93C7018C0F70
:102778009D1F9F938F930E94B826C80FD91F1F9241
:10278800DF9281E292E89F938F93C8018C1B9D0B87
:102798009F938F93C7018C0F9D1F9F938F930E94C8
:1027A800B826C80FD91F2DB73EB72C5D3F4F2DBF98
:1027B8003EBF1F9283E08F9386E392E89F938F93A7
:1027C800C8018C1B9D0B9F938F93C7018C0F9D1F76
:1027D8009F938F930E94B826C80FD91F1F9284E039
:1027E8008F9387E492E89F938F93C8018C1B9D0B6E
:1027F8009F938F93C7018C0F9D1F9F938F930E9468
:10280800B826C80FD91F1F9285E08F9388E592E8F4
:102818009F938F93C8018C1B9D0B9F938F93C70128
:102828008C0F9D1F9F938F930E94B8268C0F9D1F1E
:10283800EC012197F701EC0FFD1F2DB73EB7285E7D
:102848003F4F2DBF3EBF20812C3221F0F701E80F0A
:10285800F91FEC0188E692E89F938F93B8016C1BEF
:102868007D0B7F936F93FF93EF930E94B8260F9091
:102878000F900F900F900F900F90CE01DF91CF9196
:0C2888001F910F91FF90EF90DF900895DA
:10289400FF920F931F93CF93DF9300D0CDB7DEB792
:1028A400009709F4BEC0DC015E962D913C915F97C0
:1028B400232B09F4B6C01A8214962C91149730EF86
:1028C400320F333008F060C08C01FC01808528177A
:1028D400B1F119829D0141E050E0BE016E5F7F4F6E
:1028E40080E40E94FD1AF82E811120C0D8011496AC
:1028F4008C91823109F47BC08A8187FD48C098019C
:1029040041E050E0B8016C5F7F4F8EE70E944C18A5
:10291400F82EF8018085803109F454C0D80114964A
:102924008C91149718968C93FF2049F08F2D0F905B
:102934000F90DF91CF911F910F91FF900895F801AF
:1029440084859CEE980F923010F08731E9F4D80119
:1029540050969C918917B1F0980141E050E0B8017C
:10296400645F7F4F8EE70E944C18F82EF80180892F
:10297400843189F18731D1F0F8018485D8015096EA
:102984008C93D4CFF12CD2CF8CEFF82ECFCF8F777E
:102994008A83980141E050E0BE016E5F7F4F80E47E
:1029A4000E944C18F82EF110C1CFA9CF848585312F
:1029B40029F7068CF78DE02D6AE070E080E090E066
:1029C4000995DACF068CF78DE02D65E070E080E0A4
:1029D40090E00995A3CF068CF78DE02D61E570E0BA
:1029E40080E090E00995D8011C968C91C7CF8A812C
:1029F40080688A83980141E050E0BE016E5F7F4F9A
:102A040080E40E944C18F82E811190CF980142E086
:102A140050E0BE016F5F7F4F88E50E944C18F82E8E
:082A2400C2CFFF24FA9482CF17
:102A2C00ADE0B0E0ECE1F5E10C94FF2589879A87E5
:102A3C006B837C83FA01DB011296CD90DC901397AB
:102A4C0014968D919C9115978D839E83ED90FC909F
:102A5C001197E982FA8216960D90BC91A02DAF8346
:102A6C00B887208031804280538064807580868056
:102A7C0097808101B42DF52DE62D7B868C869D8665
:102A8C009101A201B301C401A0E00E94C1274CF442
:102A9C000E9436278901B42FF52FE62F7B878C8770
:102AAC009D87D7FC04C0E894E1F8E982FA82910191
:102ABC00A201B301C401A0E0ED80FE800E94C127F9
:102ACC001CF0898182FF04C081E0E81AF10805C07E
:102ADC0083FF03C091E0E91AF108CE0101965C0175
:102AEC008AE0C82ED12C2B2F3F2F4E2F5B856C8567
:102AFC007D858B819C810E948E16FC019101A20127
:102B0C00B301C401A0E00E94C1271CF0898182FF9F
:102B1C0012C031970F8118850E0F1F1F9101A20152
:102B2C00B301C401A0E00E94C12714F08BE201C0E4
:102B3C008DE2D80108C083FF07C03197AF81B885FB
:102B4C00AE0FBF1F80E28C9309811A81AB81BC81CF
:102B5C0018964D915C911997415051094E1B5F0B82
:102B6C006F8178856E0F7F1F2D813E8189859A85B7
:102B7C000E946B1D9C01E985FA858081918190FFF3
:102B8C0009C0AB81BC8112968D919C9113978217D1
:0E2B9C0093070CF4C9012D96E2E10C9460261B
:102BAA000F931F93CF93DF93FC01D9016838710506
:102BBA0031F194F461387105B1F12CF46038710582
:102BCA0009F478C09FC06238710509F459C06438A5
:102BDA00710509F46FC096C0603A710509F448C0DE
:102BEA002CF46039710509F44BC08CC0603C710546
:102BFA0009F476C0603F710509F472C083C0CD91B3
:102C0A00DC911197CE0102968D939C93452B39F056
:102C1A009881892F880F880B908381835BC0888174
:102C2A008083118268C0CD91DC911197CE01049600
:102C3A008D939C93452B99F088819981AA81BB81B8
:102C4A00AC01BD01770F440B542FBA0180839183E5
:102C5A00A283B383448345834683478328C008817C
:102C6A0019812A813B81008311832283338345C0E2
:102C7A00CD91DC911197CE0102968D939C9323C03E
:102C8A00CD91DC911197CE0108968D939C93788112
:102C9A0069815A814B813C812D819E818F8170830C
:102CAA00618352834383348325839683878381E0B8
:102CBA0090E02AC0CD91DC911197CE0102968D93B6
:102CCA009C93452BA1F099812881892F880F880B25
:102CDA002083918382838383848385838683E6CF5B
:102CEA00CD91DC911197CE0102968D939C93088128
:102CFA00198100831183128213821482158216822B
:102D0A001782D5CF80E090E0DF91CF911F910F918C
:022D1A0008951A
:102D1C00A2E1B0E0E4E9F6E10C94FF25FC010A8B9A
:102D2C001B832C83732E642E552E462E7D83CC86CE
:102D3C00D886AE82BF82868197818A879B87D50190
:102D4C004D915C91228133818085918501971C0185
:102D5C0037FF02C021E030E0EA85FB85E80FF91F60
:102D6C0010824701E1E0F0E0E983FA83C9018E1992
:102D7C009F098D879E87DA01A270BB27AF87B88B1E
:102D8C00B885BB0FBB0BB98B1214130474F0A9815B
:102D9C00BA81AB2B09F05CC0AE81BF818D919C9147
:102DAC0011978F7E8D939C9353C02A893B814C81C4
:102DBC00572D662D752D842D9D81A0E00E94C12775
:102DCC00B1F1E1E02E1A3108FC85F987AF2EB884F9
:102DDC00C988DC2CEC2CFC2C0C2D1C2D2A893B815D
:102DEC004C81572D662D752D842D9D810E948D272C
:102DFC00C90129839A83EA85FB85E20DF31D805D69
:102E0C00808381E0881A91082A893B814C81572D57
:102E1C00662D752D842D9D810E948F272A8B3B83D7
:102E2C004C83752E662E572E482E9D83ADCF8D85E7
:102E3C009E85880D991D181619061CF21814190474
:102E4C000CF0A5CFEF85F889EF2B09F0BACF9FCF07
:0A2E5C00C1016296E2E10C946026C9
:102E66008F929F92AF92BF92CF92DF92EF92FF9294
:102E76000F931F93CF93DF93CDB7DEB72A97CDBFBE
:102E8600DEBFE090EB48F090EC48D70114969C9199
:102E9600911110C02A96CDBFDEBFDF91CF911F9151
:102EA6000F91FF90EF90DF90CF90BF90AF909F90E3
:102EB6008F900895FE0131966F0199E0DF011D9212
:102EC6009A95E9F7DA011696843008F445C020E0B1
:102ED60030E0E0E090E0FFEFF983AA83BB838D83C7
:102EE6009E83EF833887298789278E27982F9327F4
:102EF600892F8227DB019C914230510548F0FB0166
:102F06003196A40FB51F21919227EA17FB07D9F72F
:102F16008A015B0198279A87D7011296ED91FC9159
:102F2600139769E070E0C6010995E091EB48F091CE
:102F3600EC480280F381E02DB801C5010995E091C6
:102F4600EB48F091EC480280F381E02D61E070E0FF
:102F5600CE010A9609959ECFE82FF0E0EE0FFF1FEF
:102F6600EE0FFF1FEB56F74B80809180A280B38057
:102F76002FEF821A920AA20AB20A80829182A28254
:0C2F8600B382982DE92D3A2D2B2DA5CFFC
:102F92000F931F93CF93DF930F92CDB7DEB7FC0150
:102FA200892B09F451C0828D938D892B09F44CC071
:102FB200848D958D892B09F447C081E0268D378D4C
:102FC200232BD9F58F0181959281913009F447C065
:102FD20012A281113DC0F8011082980141E050E037
:102FE200B80180E00E94FD1AF8019081913D09F438
:102FF20046C0980141E050E0B80180E00E94FD1A0D
:10300200F8019081913DD9F1980141E050E0B80179
:1030120080E00E94FD1A811134C0F8018081813D57
:1030220081F58FEFF8018383C8010E94C6180F90C3
:10303200DF91CF911F910F91089580E08F018195CB
:103042009281913029F60BC08281813009F112A25E
:103052008FEF0F90DF91CF911F910F91089592A35F
:103062008111F6CF9F0141E050E0BE016F5F7F4FBB
:103072008FE70E94FD1A882309F4ADCFD8CF8823A9
:1030820081F28DEF0F90DF91CF911F910F910895F3
:0630920082A38FEFDECFE8
:10309800BF92CF92DF92EF92FF920F931F93CF933D
:1030A800DF93D82F6B017A0189012115310509F4C5
:1030B80066C0D9015C96ED91FC915D97309709F453
:1030C8005EC0452B09F455C012968C91813009F4E5
:1030D8004EC0D80118968C9118978131A9F1509655
:1030E8008C91853189F1CD2F40E050E005C0D801A1
:1030F8005C96ED91FC915D974C0D5D1D21E030E0F3
:103108006C2FD80111968C910995B82ECF5FD801F4
:103118005E96ED91FC915F9761E070E080E090E051
:1031280009954C2F4D1B50E04E155F0500F3B1106B
:1031380023C08B2DDF91CF911F910F91FF90EF90BE
:10314800DF90CF90BF9008959701A6016D2FD80109
:1031580011968C910995B82ED8015E96ED91FC9147
:103168005F9761E070E080E090E00995E0CFDF775D
:10317800B0CF84EFB82EDDCF9EEFB92EDACFBB24C7
:04318800BA94D7CF4F
:10318C00FF920F931F93CF93DF930F92CDB7DEB7C0
:10319C0026EB2983009709F46AC0DC015E962D9119
:1031AC003C915F97232B09F462C08C019C0141E098
:1031BC0050E0BE016F5F7F4F8EE70E944C18F82ED7
:1031CC00D8015E96ED91FC915F9761E070E080E034
:1031DC0090E00995F11035C0F80182818130C9F178
:1031EC0092E0D80117969C93179788E015968C93CC
:1031FC00159720E114962C93149723E016962C9394
:10320C0016971F969C931F971D968C931D9784E180
:10321C001C968C931C971E961C921E9714968D913F
:10322C009D910D90BC91A02DF80180879187A2876C
:10323C00B38784859585A685B785808B918BA28B6A
:10324C00B38B8F2D0F90DF91CF911F910F91FF902A
:10325C000895980141E050E0BE016F5F7F4F8FE70A
:10326C000E94FD1A882309F4BBCFF82EEACFFF2465
:04327C00FA94E7CF0A
:10328000CF92DF92EF92FF921F93CF93DF93EC01E7
:103290006B01988129818D81921B9823E880298177
:1032A000E21AE8228A813FEF380F2323622F70E071
:1032B000DB01AE0DB11DE82FF0E0EA17FB0714F4B7
:1032C000E82EE21AEB81FC816E9F90016F9F300D1A
:1032D0007E9F300D11246E817F81620F731F142F2A
:1032E000941708F4192FE116E0F01E9FA0011F9F0C
:1032F000500D1124C6010E94E327298188819D81F8
:10330000821B8923181708F4812F820F9823998331
:10331000812FDF91CF911F91FF90EF90DF90CF90A1
:103320000895F12CEE9EA001EF9E500DFE9E500DD3
:103330001124C6010E94E3276B817C81E69EC001B7
:10334000E79E900DF69E900D1124212F30E02E194E
:103350003F09269FA001279F500D369F500D112435
:0E3360006E817F818C0D9D1D0E94E327C6CFDC
:10336E0080916E488E7F80936E4880916A489091CE
:10337E006B488130910509F1209104092B7F209330
:10338E000409019780936A4890936B48E0916848CE
:10339E00F0916948809108098083809168489091E6
:1033AE006948019680936848909369488091040912
:1033BE0082608093040984E00895809104098460FA
:1033CE008093040910926A4810926B48E091684805
:1033DE00F0916948809108098083809168489091A6
:1033EE0069480196809368489093694880916E4829
:1033FE00886080936E48E0914B48F0914C488091E4
:10340E0057489091584809958250823038F48091EF
:10341E00040984608093040988E00895809104096A
:10342E008460809304098091040983608093040969
:10343E0080916E488D7F80936E4810926D4880E02B
:02344E000895DF
:10345000CF93DF93DC01F90164387105D9F164F48D
:103460006138710521F16238710509F440C0603896
:10347000710509F054C02EC060397105C1F184F4A2
:103480006838710509F04BC0C081D181CE01029628
:1034900080839183E881F981ED93FC9340833CC064
:1034A000603A7105B9F0603C7105A1F038C0C08187
:1034B000D181CE01029680839183E881F981ED93D9
:1034C000FC93052E000C660B770B408351836283BF
:1034D000738322C0C081D181CE0102968083918303
:1034E000E881F981ED93FC934083518315C0C0813D
:1034F000D181CE01029680839183E881F981ED9399
:10350000FC9340835183852F880F880B82838383AC
:10351000848385838683878381E090E002C080E096
:0835200090E0DF91CF910895C6
:10352800A2E0B0E0EAE9FAE10C94FF251C014B01A6
:10353800FA01DB0112962D913C91139714964D9048
:103548005C9015978D919C91119789839A83169613
:103558006D907C90179737FD03C08D7F89839A8380
:10356800008111812281338144815581668177816F
:10357800FE0131965F0188E0C82ED12C7201C4018A
:103588000E948E16298124FF06C00197F301E80FD7
:10359800F91F20E32083298123FF06C00197F30147
:1035A800E80FF91F20E2208309811A81D4011896B7
:1035B8004D915C91199741505109481B590BB30122
:1035C800680F791F9201C1010E946B1D9C01F101D6
:1035D8008081918190FF08C0D40112968D919C91B1
:1035E8001397821793070CF4C9012296E2E10C9411
:0235F80060264B
:1035FA00AF92BF92CF92DF92EF92FF920F931F93F7
:10360A00CF93DF93CDB7DEB7B62EA72E6A01D901C5
:10361A00EDB6FEB692969C9192979A01290F311DAA
:10362A004DB75EB7421B530B4DBF5EBF0DB71EB7FA
:10363A000F5F1F4F1097D1F15A96ED91FC915B974E
:10364A003097A1F1C114D10479F112969C91129785
:10365A00913001F1A801682F11968C910995811179
:10366A0021C0F801AB2DBA2DA8014C0D5D1D819129
:10367A008D93E417F507D9F780E0EDBEFEBEDF9122
:10368A00CF911F910F91FF90EF90DF90CF90BF9055
:10369A00AF900895682F6068A80111968C910995DA
:1036AA008823F9F28EEFE9CF84EFE7CF8FEFE5CFEA
:1036BA00CF92DF92EF92FF920F931F93CF93DF93F4
:1036CA00CDB7DEB72997CDBFDEBFF82E8B019A01A1
:1036DA00BE016F5F7F4F89E0FB0111928A95E9F77E
:1036EA008F2D90E0AC014A5F5F4F82E10E94FD1A84
:1036FA0081113AC029813A81F801208331832B81D3
:10370A003C81228333832D813E8124833583F3E0F8
:10371A00FF1689F0F80116821782108611862996FB
:10372A00CDBFDEBFDF91CF911F910F91FF90EF9038
:10373A00DF90CF900895498550E060E070E0BA01CB
:10374A00552744279F81492BC884D12CDC2CCC24B3
:10375A00E12CF12C4C295D296E297F29F801468339
:0C376A00578360877187DBCF8EEFD9CFCB
:103776008091050984FD21C080916E488E7F8093DB
:103786006E48E0916848F0916948CF0101968093B0
:1037960068489093694880818093080980916A48B7
:1037A60090916B48019780936A4890936B48892B58
:1037B60011F083E0089585E00895E0915148F09175
:1037C600524880915D4890915E480995823071F02B
:1037D6008330C9F480916E48816080936E488091F1
:1037E6006748880F8093070983E0089580916E48A3
:1037F600816080936E4880916748880F81608093CE
:10380600070984E008958091040983608093040980
:1038160080916E488D7F80936E4810926D4880E04F
:02382600089503
:103828001F920F920FB60F9211240BB60F922F937F
:103838003F934F935F936F937F938F939F93AF9330
:10384800BF93EF93FF935B993DC05E992EC05F993C
:1038580033C0589924C05A991CC0599B05C0E0919F
:10386800D548F091D64809958FEF8BB9FF91EF9124
:10387800BF91AF919F918F917F916F915F914F9180
:103888003F912F910F900BBE0F900FBE0F901F907E
:103898001895E091D748F091D8480995DECFE09186
:1038A800D948F091DA480995D6CFE091DF48F091F0
:1038B800E04809955F9BCDCFE091DB48F091DC486B
:1038C8000995C7CFE091E148F091E2480995BDCF4D
:1038D800A2E0B0E0E2E7FCE10C94FF253C014B01DB
:1038E800FA01DB0112962D913C91139714964D9095
:1038F8005C9015978D919C91119789839A83169660
:103908002D903C90179737FD03C08D7F89839A834C
:1039180000811181228133814481558166817781BB
:10392800FE0131965F018AE0C82ED12C7201C401D4
:103938000E948E1609811A81D40118964D915C91C6
:10394800199741505109481B590BB101680F791F4C
:103958009201C3010E946B1D9C01F301808191813A
:1039680090FF08C0D40112968D919C9113978217ED
:0E39780093070CF4C9012296E2E10C9460263C
:10398600CF92DF92EF92FF920F931F93CF93DF9325
:1039960000D00F92CDB7DEB77C016B018A01198288
:1039A6001A821B829A0143E050E0BE016F5F7F4F8F
:1039B60085E50E94FD1A811126C0D601EC91F0E042
:1039C600E057FC473081232F2095998192238B81E4
:1039D6008223F7012081213051F050F0223009F185
:1039E6002330E9F4932B9983832B8B8303C0932B8A
:1039F60099838B83980143E050E0BE016F5F7F4F50
:103A060085E50E944C182396CDBFDEBFDF91CF918E
:103A16001F910F91FF90EF90DF90CF9008958CEF5C
:0A3A2600F2CF832B8B839983E5CF49
:103A300090916E4892FD4DC080936748987F8EE0CC
:103A400080936C4824EF31E02093654830936648BA
:103A50009460986090936E4883EB98E280934B4813
:103A600090934C48109257481092584880934D4874
:103A700090934E481092594810925A4880934F485C
:103A80009093504810925B4810925C488093514844
:103A90009093524810925D4810925E4881EB98E2F4
:103AA000809353489093544810925F481092604816
:103AB00080910409886080930409809105098160E0
:103AC0008093050980910509806C8093050980E049
:063AD000089581E0089555
:103AD600A0E1B0E0E1E7FDE10C9401265C013B01C9
:103AE6006A017901280181E04822552400FD14C0AD
:103AF600421753078CF487010C191D094801A801C8
:103B06000131110510F040E150E060E270E0CE01B5
:103B160001960E942D280AC0A601B301C5010E9484
:103B2600E225CE14DF043CF3C60120C000311105A6
:103B360058F040E150E0BE016F5F7F4FC5010E9423
:103B4600E22500511109F2CFA4014F705527BE019D
:103B56006F5F7F4FC5010E94E2254114510429F48D
:103B6600A601B301C5010E94E225C7016096E0E106
:043B76000C94622623
:103B7A0088249924F401E401B0E49F93AA279A15B2
:103B8A008B049C04ED05FE05CF05D007A10798F428
:103B9A00AD2FDC2FCF2FFE2FE92D982C892E982FB1
:103BAA00872F762F652F542F432F322F2227B85075
:103BBA0031F7BF9127C01B2EBF91BB27220F331F9E
:103BCA00441F551F661F771F881F991F881C991C41
:103BDA00EE1FFF1FCC1FDD1FAA1FBB1F8A149B04E9
:103BEA00EC05FD05CE05DF05A007B10748F08A18E8
:103BFA009B08EC09FD09CE09DF09A00BB10B216076
:103C0A001A94E1F62EF49401AF01BE01CD01000C25
:023C1A0008950B
:103C1C008091D1489091D248A091D348B091D4488A
:103C2C000196A11DB11D8093D1489093D248A093C9
:103C3C00D348B093D4488091ED489091EE48892BAD
:103C4C0069F14091ED485091EE488091CD489091AA
:103C5C00CE48A091CF48B091D04860E070E04817B2
:103C6C0059076A077B07D0F00196A11DB11D8093FF
:103C7C00CD489093CE48A093CF48B093D048409174
:103C8C00ED485091EE4860E070E084179507A60768
:103C9C00B70709F0089580E4809347041092CD484B
:0E3CAC001092CE481092CF481092D048089542
:103CBA00CF92DF92EF92FF920F931F93CF93DF93EE
:103CCA000F92CDB7DEB77C016B018A0119829A0186
:103CDA0041E050E0BE016F5F7F4F86E50E94FD1A0A
:103CEA00811125C0D601EC91F0E0E057FC47208114
:103CFA00322F3295307F822F809599819823832F96
:103D0A0080958923F70190819130E9F030F0923063
:103D1A0019F09330B1F4232B822B8983980141E067
:103D2A0050E0BE016F5F7F4F86E50E944C180F90EE
:103D3A00DF91CF911F910F91FF90EF90DF90CF907D
:0C3D4A0008958CEFF4CF832B8983E8CF21
:103D56008091050984FF19C0E0915148F0915248BD
:103D660080915D4890915E480995823081F183305B
:103D760001F580916E48816080936E488091674816
:103D8600880F8093070983E0089580916E488860C4
:103D960080936E48E0914B48F0914C48809157488B
:103DA600909158480995833021F38430E9F08230A8
:103DB60071F08091040983608093040980916E48B4
:103DC6008D7F80936E4810926D4880E008958091B3
:103DD6006E48816080936E4880916748880F816045
:0C3DE6008093070984E008950C94BB1B37
:103DF2002F923F924F925F926F927F928F929F92F9
:103E0200AF92BF92CF92DF92EF92FF920F931F93E6
:103E1200CF93DF9300D000D0CDB7DEB72B013C01AA
:103E22000E94CC262C833B8349835A8312012301AF
:103E3200612C712C43010E94CC26AC80BB80C980CE
:103E4200DA80E12CF12C00E010E00E9409285101F7
:103E52006201730184010E94122868F32496CDBF87
:103E6200DEBFDF91CF911F910F91FF90EF90DF9016
:103E7200CF90BF90AF909F908F907F906F905F9008
:083E82004F903F902F9008952E
:103E8A001F920F920FB60F9211240BB60F920F9337
:103E9A001F932F933F934F935F936F937F938F93C8
:103EAA009F93AF93BF93EF93FF93CF93DF930F92B9
:103EBA00CDB7DEB7BE016F5F7F4F88EB98E40E94F3
:103ECA007B238C010E948228882319F08981811121
:103EDA0018C00F90DF91CF91FF91EF91BF91AF91F1
:103EEA009F918F917F916F915F914F913F912F9108
:103EFA001F910F910F900BBE0F900FBE0F901F9046
:103F0A00189580912008F801808361E088EB98E495
:063F1A000E94F126DECF3B
:103F20000F931F93CF93DF93CDB7DEB72897CDBF05
:103F3000DEBFFC0123A134A1232B51F083A194A166
:103F40002896CDBFDEBFDF91CF911F910F910895CD
:103F50008C0198E095838CE0868382E0878321E161
:103F6000248395871686878785E18487CF010E9401
:103F7000C611082E000C990BF80183A394A3892B7A
:103F8000E9F681E089838AE08A838DE08B838C81E6
:103F90008E7F8C83B801CE0101960E94CF01082E3E
:103FA000000C990BF80183A394A3892B39F6F8012F
:023FB000C5CF7B
:103FB2000F931F93CF93DF93DB012D913C911197C8
:103FC20030FF25C016964D915C91179714962D914E
:103FD2003C9115974217530778F41296ED91FC9194
:103FE2001397808312962D913C9113972F5F3F4F29
:103FF20012962D933C93139716962D913C911797F9
:104002002F5F3F4F16962D933C93179715C01C9622
:10401200ED91FC911D97309719F48FEF9FEF0CC033
:104022008B01EC010995892BC1F7F80186819781F3
:10403200019686839783CE01DF91CF911F910F91D5
:024042000895DF
:104044008091050988608093050982E080936D481A
:10405400E0914D48F0914E488091594890915A48CA
:104064000995823009F1833061F480916E48816052
:1040740080936E4880916748880F8093070983E096
:10408400089580910409886080930409809105094A
:1040940081608093050980916E488D7F80936E487E
:1040A40010926D488EE0089580916E4881608093EF
:1040B4006E4880916748880F81608093070984E087
:0240C40008955D
:1040C60080916E488E7F80936E4882E080936D4823
:1040D600E0914F48F091504880915B4890915C4840
:1040E60009958230E1F0833061F480916E488160F9
:1040F60080936E4880916748880F8093070983E014
:1041060008958091040983608093040980916E4824
:104116008D7F80936E4810926D4880E0089580915F
:104126006E48816080936E4880916748880F8160F1
:084136008093070984E008955D
:10413E000F931F93CF93DF93CDB7DEB76497CDBFA9
:10414E00DEBF8B019C01AE014F5F5F4FBE01655F0D
:10415E007F4F83E00E94CF10082E000C990B009722
:10416E00C9F42B853C85F801208331832D853E854E
:10417E00228333832F8538892483358329813A819D
:10418E00268337832B813C81208731872D813E8189
:10419E00228733876496CDBFDEBFDF91CF911F910B
:0441AE000F910895D0
:1041B200A0E1B0E0EFEDF0E20C940B26FB01BA01B6
:1041C200AE014F5F5F4F7A0140E1D7011D924A95E0
:1041D200E9F742E051E049835A838B839C83F7FFDE
:1041E20009C08FE490E080930040909301408FEFEC
:1041F2009FEF14C0A9018C013197ED83FE83C701A3
:104202000E9448264F8158852D813E8142175307CF
:1042120008F49A01F801E20FF31F10826096E6E0BB
:044222000C946C2666
:10422600AC01FA0190814F5F5F4F9032D1F3292F95
:10423600092E000C330B295031092530310588F33E
:104246009B3209F540E050E0319602C040E050E074
:1042560080E090E06AE02191022E000C330B20539F
:1042660031092A30310548F4689FD001699FB00DA5
:104276001124CD01821B930BEECF452B49F491956A
:104286008195910908959D3209F741E050E0DCCF10
:02429600089589
:104298001F93CF93DF93CDB7DEB72597CDBFDEBF92
:1042A800182F6D834B835C8329833A83812F0E9467
:1042B800181D8130D9F3BE016F5F7F4F86E497E206
:1042C8000E94782660E070E087EB98E20E948E26D4
:1042D80061E070E0CE0105960E94252780E00E94EB
:1042E800C5250E947E248130E1F3811107C02596FF
:1042F800CDBFDEBFDF91CF911F9108958EEFF7CF2D
:104308000F931F93CF9389010F5F1F4F013811053A
:1043180068F5C82F60930247232B59F0DA01E3E0D0
:10432800F7E498012E5F384B9D919193E217F307BC
:10433800D9F78C2F0E94181D8130D9F360E070E006
:1043480087EB98E20E948E26B80182E097E40E94EB
:10435800252780E00E94C5250E947E248130E1F354
:10436800811104C0CF911F910F9108958EEFFACF5C
:10437800E0E9F4E0808188608193E83984E0F80717
:10438800C9F7E0EBF4E0808188608193E83B84E042
:10439800F807C9F7E0E1F4E0808188608193E831AB
:1043A80084E0F807C9F7E0E3F4E08081886081934E
:1043B800E83384E0F807C9F7E0E5F4E08081886035
:1043C8008193E83584E0F807C9F7E0E7F4E08081F5
:0E43D80088608193E83784E0F807C9F70895FC
:1043E600CF93DF930F92CDB7DEB78091254890919A
:1043F6002648892B21F48091F448882321F00F90D8
:10440600DF91CF910895BE016F5F7F4F80EB98E4F7
:104416000E947B23BC019981911107C081E08093A2
:10442600F4480F90DF91CF91089582E098E40E94BE
:104436009F208093254890932648892B01F761E0B9
:0A44460080EB98E40E94F126DACF23
:10445000A7E0B0E0EEE2F2E20C9405265C017A01FE
:10446000C90127E0E0ECF8E4DE01119601900D921D
:104470002A95E1F7FB01C280D3808480958000817A
:104480001181452B21F49E012F5F3F4F7901009749
:1044900019F4C7010E947F27D7FC04C0C816D906AB
:1044A00008F4C6019401AC01B701C5010E946B1D5F
:0844B0002796ECE00C9466264F
:1044B8001F920F920FB60F9211240BB60F922F93E3
:1044C8003F934F935F936F937F938F939F93AF9394
:1044D800BF93EF93FF93E091E948F091EA48309752
:1044E80009F0099580E180930B0AFF91EF91BF9144
:1044F800AF919F918F917F916F915F914F913F9174
:104508002F910F900BBE0F900FBE0F901F90189514
:104518001F920F920FB60F9211240BB60F922F9382
:104528003F934F935F936F937F938F939F93AF9333
:10453800BF93EF93FF93E091E748F091E8483097F5
:1045480009F0099580E280930B0AFF91EF91BF91E2
:10455800AF919F918F917F916F915F914F913F9113
:104568002F910F900BBE0F900FBE0F901F901895B4
:104578001F920F920FB60F9211240BB60F922F9322
:104588003F934F935F936F937F938F939F93AF93D3
:10459800BF93EF93FF93E091E548F091E648309799
:1045A80009F0099580E480930B0AFF91EF91BF9180
:1045B800AF919F918F917F916F915F914F913F91B3
:1045C8002F910F900BBE0F900FBE0F901F90189554
:1045D8001F920F920FB60F9211240BB60F922F93C2
:1045E8003F934F935F936F937F938F939F93AF9373
:1045F800BF93EF93FF93E091E348F091E44830973D
:1046080009F0099581E080930B0AFF91EF91BF9122
:10461800AF919F918F917F916F915F914F913F9152
:104628002F910F900BBE0F900FBE0F901F901895F3
:1046380080910509806C8093050980916E4880FF00
:1046480004C08091050984FD1BC08091050983FF82
:1046580003C080E180936C488091050982FF14C0F3
:1046680081E180936C48E1E1F0E0EE0FFF1FE95D26
:10467800F74B0190F081E02D099580936C480895DF
:104688008FE080936C48E1CFE0916C48F0E0EDCF8B
:104698001F920F920FB60F9211240BB60F922F9301
:1046A8003F934F935F936F937F938F939F93AF93B2
:1046B800BF93EF93FF937E9B05C0E091DD48F09197
:1046C800DE4809958FEF8FB9FF91EF91BF91AF91B8
:1046D8009F918F917F916F915F914F913F912F9112
:0E46E8000F900BBE0F900FBE0F901F901895F5
:1046F600CF93DF93FC01218180819281382F321B79
:1047060025812323492F421B2FEF290F8223282F90
:1047160030E0E901C40FD11DA92FB0E0AC17BD07E9
:1047260094F0DB014C9343815481249FC001259F63
:10473600900D349F900D112426813781820F931F8F
:0E474600DF91CF910895981BDB019C93ECCF7F
:104754000F931F93CF93DF938C010F5F1F4FFC01C7
:104764008081FB0124853585232B11F0EB0109C0E1
:104774008FEF9FEF17C00995892BD1F7F80181912D
:104784008F01EC85FD85BE018111F5CF8AE0099585
:1047940021E030E0892B11F420E030E088279927CC
:0E47A400821B930BDF91CF911F910F9108950F
:1047B20040E068ED88E790E00E94982840E068EDCC
:1047C2008CE790E00E94982842E068ED81E690E054
:1047D2000E94982840E068ED80E690E00E949828C8
:1047E20040E068ED83E690E00E9498284CE068ED96
:1047F20088E690E00E94982840E068ED82E690E02A
:084802000E94982880E008954F
:10480A00CF93DF93FC0190818181981B25819223AC
:10481A0022813FEF320F8323482F50E0EA01C90F6C
:10482A00D11DA22FB0E0AC17BD0794F0DB019C9319
:10483A0023813481429FC001439F900D529F900D66
:10484A00112426813781820F931FDF91CF9108951A
:08485A00281BDB012C93ECCFBD
:104862008BE0E5EAF8E4DF011D928A95E9F7E09131
:10487200EB48F091EC480190F081E02D67E070E0A8
:1048820085EA98E40995079709F0089548E050E011
:104892006DE773E885EA98E40E948825892BA9F7D9
:0E48A200E091EB48F091EC4881E085830895A9
:1048B0008BE0E5EAF8E4DF011D928A95E9F7E091E3
:1048C000EB48F091EC480190F081E02D6AE070E057
:1048D00085EA98E409950A9709F008954BE050E0BD
:1048E00065E873E885EA98E40E948825892BA9F792
:0C48F000E091EB48F091EC48158208952F
:1048FC008091050982FF08C080916E488D7F80935E
:10490C006E4882E080936D4880916E4881FD13C0A3
:10491C008B7F80936E488FEF809367488091050959
:10492C00806C80930509809103098F738093030930
:0A493C0080916D48089581E0089510
:104946000E94AA1240E068ED80E890E00E94982854
:10495600E0E8F0E01186108640E068ED80E091E046
:104966000E9498280E94D92340E068ED80E590E0F7
:104976000E9498280E9463270E94CD270E94C72480
:084986000E949B270C941826E7
:10498E00E0E0FAE081E090E080A791A782A793A7EC
:10499E0084A795A710A211A21182128213821482EB
:1049AE00158216821782168680E6818781E08287BD
:1049BE00138687EE93E086A397A3178685E0808300
:0449CE0080E00895E8
:1049D200CF93DF93EC011BA21CA288E689831A8283
:1049E2008CE491E28A8F9B8F84E891E28C8F9D8F79
:1049F20089EF9EE18E8F9F8FCE010E94C917082EEC
:104A0200000C990B8BA39CA38BA19CA1DF91CF914E
:024A1200089505
:104A1400CF93DF93EC0190E0E92FF0E0EE0FFF1F5E
:104A2400E159F74B8081811102C081810EC0A881B8
:104A3400B9812C91821305C091811196A883B98301
:104A440001C09F5F9B3040F3892FDF91CF91089580
:104A5400FA0160387105CCF0623871051CF06338D6
:104A6400710599F4A081B1819D012C5F3F4F208392
:104A740031834D915D916D917C91FC014083518313
:104A84006283738381E090E0089580E090E008956C
:104A9400EF92FF920F931F93CF93DF9361157105EC
:104AA40099F07B01EC018C01060F171F89910E947C
:104AB4005F28C017D107D1F7C701DF91CF911F91AC
:0E4AC4000F91FF90EF90089580E090E0F6CF04
:104AD200E42FF0E0DF011197EA23FB23EF2BA9F487
:104AE200413898F46115710581F058E0FC0111928A
:104AF2005A95E9F7FC0142832383348366837783E3
:0E4B0200440F4150458380E0089581E00895FE
:104B1000CF93DF9341155105A9F0DC01FB01EF01B3
:104B20008D91882351F09191992339F041305105AD
:104B300021F041505109891791F390E02881821B9F
:0E4B4000910902C080E090E0DF91CF910895CE
:104B4E0097FB10F8169400080F93083098F0085051
:104B5E00232F342F452F562F672F782F892F902DE7
:104B6E00F4CF0594979587957795679557954795C3
:0C4B7E00379527950A95AAF70F91089526
:104B8A0090916E4891FD17C0926090936E48811182
:104B9A0009C082E080936C480E941C230E94A426CC
:104BAA0080E0089581E080936C480E941C230E9453
:0A4BBA00A42680E0089581E008952C
:104BC400A0E0B0E0E8EEF5E20C9409266C01EB01FC
:104BD4008A017B01E40EF51ECE15DF0541F08991B3
:104BE400B601082E000C990B0E94D91FF5CFC801FD
:0A4BF400CDB7DEB7E8E00C946A26A6
:104BFE002F923F924F925F926F927F928F929F92DF
:104C0E00AF92BF92CF92DF92EF92FF920F931F93CC
:104C1E00CF93DF93CDB7DEB7CA1BDB0BCDBFDEBFA5
:024C2E000994E7
:104C3000E0E2F8E08BE890E080879187158280ECD5
:104C4000868383E087831386148616861586E09113
:104C5000EF48F091F04885E898E4808391830895C7
:104C6000A0E0B0E0E6E3F6E20C940F26AE014B5F65
:104C70005F4FFA0161917191AF01E091EF48F091BE
:104C8000F048808191810E944826E2E00C947026D1
:104C9000A2E0B0E0EEE4F6E20C940D268C0149832C
:104CA0005A83AE014F5F5F4F0E944B09F80120818C
:104CB00024FF02C08FEF9FEF2296E4E00C946E2653
:104CC0002A88398848885F846E847D848C849B849C
:104CD000AA84B984C884DF80EE80FD800C811B81AA
:104CE000AA81B981CE0FD11DCDBFDEBFED010895E0
:104CF000009749F080934B4890934C4860935748F5
:104D000070935848089583EB98E280934B489093B2
:0C4D10004C4810925748109258480895E3
:104D1C00009749F080934F489093504860935B48BC
:104D2C0070935C48089583EB98E280934F4890937E
:0C4D3C00504810925B4810925C480895AB
:104D480080916E4881FD05C00EC08091050986FDE1
:104D580004C08091050987FFF8CF0E941C23809129
:084D68006E4881FDF6CF0895AD
:104D7000A0E0B0E0EEEBF6E20C940F269E01255F7A
:104D80003F4F49855A856F8178858D819E810E942C
:084D9000D920E2E00C9470262A
:104D9800CF93DF938091D1489091D248A091D34886
:104DA800B091D4489C01AD0160E070E080E090E0F3
:064DB800DF91CF91089588
:104DBE00E0E0F9E084818860848385818160858369
:104DCE00EEE6F8E480818D7F808382E080936D48EB
:044DDE008EE00895C6
:104DE200FC01308181812581932F981B892F822399
:104DF2009281981B892F691708F4862F380F232375
:044E0200208308956C
:104E0600E0E0F9E084818860848385818160858320
:104E1600EEE6F8E480818D7F808310926D488EE007
:024E26000895ED
:104E2800E0E0F9E084818460848384818360848302
:104E3800EEE6F8E480818D7F808310926D4880E0F3
:024E48000895CB
:104E4A009C0190916E4893FF0BC020936848309361
:104E5A00694860936A4870936B48977F90936E484D
:024E6A000895A9
:104E6C0060957095809590953095409550952195CD
:104E7C003F4F4F4F5F4F6F4F7F4F8F4F9F4F089557
:104E8C00FC0160817181828193810E94252760E001
:0E4E9C0070E085EB98E20E94782682E008958F
:104EAA00E0E0F9E0848183608483EEE6F8E48081BF
:0C4EBA008D7F808310926D4880E0089589
:104EC600E0E0F9E0108212828FE0868381E083833E
:0C4ED600858317821482108680E0089506
:104EE200FC01318190812581931B892F82236817D0
:0C4EF20008F4862F380F23232183089535
:104EFE00FC01AF014F5F5F4F2081222311F0FA01B9
:0C4F0E00F8CF9F01281B390BC901089542
:104F1A00689401C0E8948F929F92CF93DF930E9486
:0C4F2A00BD1DDF91CF919F908F900895E6
:104F360040E068ED80E191E00E949828E0E1F1E030
:0A4F460012821382789480E008952F
:104F5000EEE6F8E480818160808380916748880F65
:0A4F600081608093070984E0089542
:104F6A00EEE6F8E480818160808380916748880F4B
:084F7A008093070983E008950C
:104F82000024A7FD00942A1730054005500560054E
:084F92007005800590050895EB
:104F9A00E0E4F9E081E28083118212821092F34800
:064FAA00138280E008956F
:104FB000EC010E94C8280E94C728CE010E94C9287F
:064FC000CE010E94B92899
:104FC600FB01DC01480F591FA417B50719F0219101
:064FD6002D93FACF0895AF
:104FDC009091240895FFFCCF8093220880E090E00C
:024FEC00089526
:104FEE00EEE6F8E480818D7F808310926D4880E03C
:024FFE00089514
:10500000EE0FFF1F0024001C0BBE0790F691E02D51
:02501000099401
:105012002A193B094C095D096E097F09800B910B26
:025022000895EF
:105024002A153B054C055D056E057F058007910734
:025034000895DD
:10503600E091EF48F091F048608171810E94AA23C7
:025046000895CB
:10504800E091EF48F091F048608171810E94D91F8A
:025058000895B9
:10505A00FC01480F591FE417F50711F06193FBCFC4
:02506A000895A7
:10506C009C01215631092A31310510F48F7599278D
:02507C00089595
:10507E008093EB489093EC4821E0FC012483089543
:10508E00E091EB48F091EC4884818111858108957F
:10509E00462FBC0188EB98E40E94401990E00895D9
:1050AE009C01215431092A31310508F4806208959A
:0E50BE009091240895FFFCCF8093220808955E
:0E50CC00E0E0F9E084818B7F848384E0089526
:0E50DA00E0E0F9E084818B7F848383E0089519
:0E50E800E0E0F9E084818460848388E008952C
:0E50F600FC0190818181981B8581892308959A
:0C51040080912408881F8827881F0895C8
:0C5110008F9381E080938A008F911895A6
:0A511C008093DD489093DE4808956B
:0A5126008F938FEF87BB8F911895D0
:0A5130001BBEFC0164BF408308951C
:0A513A008093E3489093E448089541
:08514400FC01118210820895A4
:06514C0080E090E00895F0
:045152000C940000B9
:045156000C94A827E6
:04515A000C94A827E2
:04515E000C94B527D1
:0451620085E0089547
:0451660081E0089547
:04516A0081E0089543
:04516E0083E008953D
:045172000E94D400C3
:0251760008959A
:02517800089598
:02517A00089596
:02517C00089594
:02517E00089592
:02518000089590
:0251820008958E
:0251840008958C
:0251860008958A
:02518800089588
:02518A00089586
:02518C00089584
:02518E00089582
:02519000089580
:0251920008957E
:10519400F727A827B527BB1BB719AB1EAD28AF2827
:1051A400AB28552766286D28142774280327632005
:0451B4002220DF26B0
:1051B80068076C094C836A9074A07AC0008068887C
:0651C80000846C820081EE
:1051CE00030000000000000000000000EE270000B9
:0751DE00286E756C6C2900BE
:0651E500286E696C290030
:0251EB00C228D8
:0251ED00C328D5
:0251EF00C528D1
:0251F100C428D0
:0251F300F14881
:02000004008278
:090000000000000000C000000037
:00000001FF
