:020000040800F2
:100000000010002055180008511800085118000869
:10001000511800085118000851180008511800081C
:10002000511800085118000851180008511800080C
:1000300051180008511800085118000851180008FC
:1000400051180008511800085118000851180008EC
:1000500051180008511800085118000851180008DC
:10006000511800085118000851180008DD06000852
:10007000E906000851180008511800085118000836
:1000800051180008511800085118000851180008AC
:10009000511800085118000851180008511800089C
:1000A000511800085118000851180008511800088C
:1000B000511800085118000851180008511800087C
:1000C000511800085118000851180008511800086C
:1000D000511800085118000851180008511800085C
:1000E000511800085118000851180008511800084C
:1000F000511800085118000851180008511800083C
:10010000511800085118000851180008511800082B
:10011000511800085118000851180008511800081B
:10012000511800085118000851180008511800080B
:1001300051180008511800085118000851180008FB
:10014000511800085118000851180008D14D000836
:1001500051180008511800085118000851180008DB
:1001600051180008511800085118000851180008CB
:1001700010B5054C237833B9044B13B1044800E0A3
:1001800000BF0123237010BD0012002000000000FA
:10019000909A000808B5034B1BB10349034800E0DF
:1001A00000BF08BD0000000004120020909A000863
:1001B000A3F5803A704700BF174B002B08BF134BC5
:1001C0009D46FFF7F5FF00218B460F461348144A62
:1001D000121A05F011FD0E4B002B00D098470D4B65
:1001E000002B00D098470020002104000D000D488E
:1001F000002802D00C4800E000BF05F0D9FC200028
:10020000290000F067F905F0ADFC00BF0000080010
:10021000000000000000000000100020001200207C
:100220007C140020000000000000000008B500F071
:1002300019F800F0DBF8BDE8084000F087B80000CE
:1002400008B500F023F800F09DF8054B1B781BB9AA
:10025000BDE8084000F0E2B8BDE8084000F01AB977
:100260001C120020002310B5074C194620680222FA
:10027000806806F04DF9002320680222BDE8104096
:100280001946406806F044B92410002010B505F066
:100290007DFC41B2002944DD224A0D29137801D0AA
:1002A0000A2921D10020204C1070E054742938D143
:1002B000002310781C4913700B541C4806F0ECF90D
:1002C0001949C0B900F0B6F8012000F0B7F8184895
:1002D00004F070FB0120174B187000F061F8BDE8C6
:1002E0001040002000F00AB94E2B9FBF0E4CE05486
:1002F00001331370DAE7104806F0CEF90A490028F6
:10030000E0D00E4806F0C8F9044650B900F096F85F
:10031000084B1C7000F06AF82046BDE8104000F061
:100320003FB810BD6D1200201D120020169000086D
:10033000081300201C1200200C90000813900008E5
:100340000122014B1A7070478C1200201FB54FF428
:10035000FA7003A904F0E2FB40B90123064ACDE993
:10036000000303990346054804F08BFB044805B0DD
:100370005DF804EB01F04BBB410300087012002054
:100380003491000810B5044C237823B1034801F0E0
:1003900044FB0023237010BD8C1200204C910008F8
:1003A00010B9034801F033BB014801F033BB00BF73
:1003B000349100080122014B1A7070470010002090
:1003C0000A2307B502210093074805A3D3E90023B8
:1003D00006F086F803B05DF804FB00BFAFF30080C1
:1003E00000000040339359401E9000081FB54FF4A1
:1003F0007A7003A904F092FB034630B9CDE90000FE
:10040000044A0399044804F03CFB05B05DF804EB92
:10041000FFF7D6BFB50300080813002010B5044C41
:1004200023781BB1FFF7CCFF0023237010BD00BF62
:1004300000100020202000F069B9000010B504462B
:1004400000F076FF54B178B900F044FF00B1FEE748
:100450009FED060ABDE8104000F070BF012803D1EF
:10046000BDE8104000F05CBF10BD00BF9A99CC42BF
:1004700038B505460C4601F02BF848B101F006F8F6
:10048000284600F0D5FF204600F098FF002038BD38
:100490000320FCE738B50D4C0D4D217801EB4101EF
:1004A00005EB810001460630FFF7E2FF28B923780B
:1004B0000133DBB20A2B01D0237038BD29462070EE
:1004C0007822BDE8384000F034B800BF06130020A1
:1004D0008E12002008B504F098FCFFF7A7FE04F088
:1004E000A1FCFFF7ADFEFAE703289EBF0022024BF6
:1004F00043F82020704700BF24130020FFF7F4BF0B
:10050000024603289FBF044951F82030581C41F887
:10051000220088BF0020704724130020012310B55B
:100520000278994201DC104610BDC45C0133624080
:10053000F7E72DE9F04385B01FFA82F816460D461D
:100540008146FFF7DDFFFF2300278DF8043008F117
:100550000604030A8DF809008DF80A30A4B2030CD2
:10056000000E8DF805408DF80C000621240A0DF1CF
:1005700007008DF80B308DF806408DF803708DF86C
:1005800007708DF80890FFF7C9FF414604468DF8C3
:1005900003002846FFF7C2FF60408DF8030001A961
:1005A0000922384603F00CFE32462946384603F04D
:1005B00007FE012238460DF1030103F001FE05B0EC
:1005C000BDE8F083704708B50521802002F0E6FA07
:1005D00005214FF4806002F0E1FA09214FF4C06078
:1005E00002F0DCFA09214FF4F06002F0D7FA092199
:1005F0003E2002F0D3FA09212D2002F0CFFA092182
:10060000512002F0CBFA002008BD08B503F0A2FD8E
:1006100000F0ADF803F018FD03F03EFD03F044FDDB
:1006200003F07EFDFFF7CFFF03F024FDBDE8084097
:1006300000F092B800F05AB808B500F065F804F080
:100640007FF9BDE8084000F047B870477047704731
:10065000704770477047000030B51A4C9BB007AD2B
:100660000FCC0FC594E80F0085E80F004FF461230D
:100670002822002110A8099305F0BEFA124B03AD01
:100680000F9301238DF841305623ADF842300523F6
:10069000139306231034159394E80F0085E80F0098
:1006A0000A4B294600930A480FAB07AA03F0F6FD50
:1006B000044618B16921074801F076FA20461BB0BC
:1006C00030BD00BF049100080000014B341300202E
:1006D000A8130020D5900008FFF7BEBF014B186893
:1006E00003F0D6BEA8130020FFF7F8BF08B50448F2
:1006F00001F08AF9BDE80840024801F085B900BF61
:10070000349100084C9100080F207047082808B564
:1007100004D00FDC022809DC002809DD01230422B3
:100720000921022003F072FB002008BD0428F5D047
:100730009F2106E02028F1D0402807D01028F7D1CB
:100740008821044801F030FA0E20EEE7012304224C
:100750000821E6E76491000808B501213A2001F07C
:100760009DFDFFF72FFFBDE8084000F0DBBF012132
:100770003A2001F093BD00008022014B1A647047BB
:1007800000D003408022014B1A64704700E0034010
:100790000020704770B514460D4640F080010A48AD
:1007A000FFF7F0FF02F02FFF074E2544AC4203D1C4
:1007B000FFF7E2FF002070BD0021304602F023FF6A
:1007C00004F8010BF2E700BF00000A4038B50C4600
:1007D000074D00F07F012846FFF7D4FF02F013FF1A
:1007E0002146284602F00FFFFFF7C6FF002038BD64
:1007F00000000A4008B580216B20FFF7E7FF642066
:1008000004F070F9002008BD73B50C4616460121AE
:100810000DF107020546FFF7BDFF48B99DF8073007
:10082000284623EA060121438DF80710FFF7CEFF83
:1008300002B070BD70B5264C8EB0264601AD0FCE0D
:1008400014340FC50FCC06AD0FC594E80F0085E832
:100850000F00204B0121039306AB05934FF48073E7
:100860005720ADF81C3001F019FD01213A2001F0AC
:1008700015FD002304220321022003F0C7FA022100
:1008800000230846012203F0C1FA002304220121BB
:10089000022003F0BBFA012304220721002003F009
:1008A000B5FA0D4801A903F055F90C4B0C4A00208C
:1008B000C3F8CC244FF00212C3F8C424A2F580324E
:1008C000C3F8C8241C22C3F8B4240EB070BD00BF06
:1008D00020920008A05A320000000A4000C00340E5
:1008E0000200030007B5FFF7A5FFFFF783FF012113
:1008F00075200DF10702FFF74DFF9DF80730982B8B
:1009000012D111216A20FFF761FF01216B20FFF74F
:100910005DFF1E2004F0E6F8C0213720FFF756FFE8
:10092000002003B05DF804FB1020FAE713B510EEC9
:10093000100A04F01DFC02460B4600201A4904F080
:1009400099FD0022194B04F0B3FA04F02BFF9FED40
:10095000187A07EE900AF4EEC77AF1EE10FA1FDC6F
:10096000F5EEC07AF1EE10FA01D5DFED127AFCEE69
:10097000E77ACDED017A9DF8044019202146FFF772
:1009800025FF601C04F0E2FB02460B4600200649EE
:1009900004F070FD04F006FF00EE100A02B010BD76
:1009A000F0EE477AE3E700BF00408F400000F03FE1
:1009B00000007F430000000010B5C0F3C1010446F1
:1009C00003221B20FFF720FF07221A2004EA02015E
:1009D000FFF71AFF002010BD01460F221D20FFF770
:1009E00013BF000013B5044601211C200DF10702BE
:1009F000FFF7D0FE9DF8073003F0180010288DF89F
:100A0000070019D009D868B1082810D00C484FF455
:100A1000AB7101F0C9F8012007E01828F6D14FF0BA
:100A2000685306E04FF06252226002B010BD4FF0F2
:100A3000645300202360F8E74FF06653F9E700BFE6
:100A4000C19100081FB5044601A8FFF7CBFF06219E
:100A500002AA3B20FFF79EFEBDF80830DDED016ADB
:100A6000DBBA07EE103AB8EEC77A27EE267ABDF861
:100A70000A3084ED007ADBBA07EE103ABDF80C308C
:100A8000B8EEC77ADBBA07EE903AF8EEE77A27EECF
:100A9000267A67EEA67A002084ED017AC4ED027A08
:100AA00004B010BD13B5044601211B200DF107024F
:100AB000FFF770FE9DF8073003F0180010288DF83E
:100AC000070016D009D860B108280ED00A4840F2B5
:100AD0007B1101F069F8012005E01828F6D1074BD9
:100AE00004E0074A226002B010BD064B00202360DC
:100AF000F9E7054BFAE700BFC191000800007A3D15
:100B00000000FA3B00007A3C0000FA3C1FB50446A6
:100B1000062102AA4320FFF73DFE01A8FFF7C2FF0E
:100B2000BDF80830DDED016ADBBA07EE103AB8EE29
:100B3000C77A27EE267ABDF80A3084ED007ADBBA50
:100B400007EE103ABDF80C30B8EEC77ADBBA07EE04
:100B5000903AF8EEE77A27EE267A67EEA67A00203A
:100B600084ED017AC4ED027A04B010BD13B50446D9
:100B70000DF1070201211C20FFF70CFE9DF8071064
:100B80001C2021F0180121438DF80710FFF71EFEED
:100B9000002002B010BD13B504460DF1070201217B
:100BA0001B20FFF7F7FD9DF807101B2021F018010F
:100BB00021438DF80710FFF709FE002002B010BD99
:100BC000002A14BF00230823002810B514BF0024F6
:100BD000382409B944F00704194608226B20FFF7AE
:100BE00013FE3F2221466C20FFF70EFE002010BDB1
:100BF00000290CBF0021E02108B508B141F0010136
:100C0000E1223820FFF700FE002008BD13B504469E
:100C1000042101AA3A20FFF7BDFD0020019B2360BB
:100C200002B010BD07B501210DF107023A20FFF710
:100C3000B1FD9DF8070000F0010003B05DF804FB72
:100C400001212DE9F043002285B080460846FFF7D8
:100C5000B7FF9FED760AFFF769FE0520FFF7ACFEB0
:100C60000020FFF798FF6846FFF71CFF322003F0D3
:100C700039FF40211A20FFF7A9FD44216A20FFF720
:100C8000A5FD78212320FFF7A1FD052003F02AFF11
:100C90000221722001AAFFF77DFDBDF804305BBA86
:100CA0009BB2B3F5FC7FF0D34FF000090C277822FC
:100CB00000212320FFF7A8FD0221722001AAFFF7DF
:100CC00069FDBDF804404D4664BAA4B2B4FBF7F721
:100CD0004E464C461FFA89F3BB42C0F08A8096FB11
:100CE000F7F607EE906A9DED007AF8EEE77A95FB4D
:100CF000F7F567EE877AC8ED007A07EE905AF8EEBE
:100D0000E77A94FBF7F467EE877AC8ED017A07EE8D
:100D1000904AF8EEE77A67EE877A01AAC8ED027A80
:100D200002211320FFF736FD9DF904309DF8058060
:100D300001AA0221152048EA0328FFF72BFD9DF99F
:100D400004309DF8057001AA0221172047EA032705
:100D5000FFF720FD002E9DF904209DF80530B8BF57
:100D60000336002DB8BF0335002CB8BF033443EA67
:100D70000223A7EBA505A3EBA404A8EBA6062B1260
:100D8000C6F307218DF80630132023128DF80830A2
:100D90008DF804108DF805608DF807508DF8094026
:100DA000FFF714FD9DF805101420FFF70FFD9DF8C7
:100DB00006101520FFF70AFD9DF807101620FFF713
:100DC00005FD9DF808101720FFF700FD9DF809109C
:100DD0001820FFF7FBFC402200216A20FFF714FDDA
:100DE000002211461046FFF7EBFE002005B0BDE8DB
:100DF000F08301AA0C217420FFF7CCFC9DF90A2096
:100E00009DF80B3009F1010943EA02231E449DF9C4
:100E10000C209DF80D3043EA02231D449DF90E205D
:100E20009DF80F3043EA02231C4453E700007A4444
:100E300008B5024601217520FFF7ACFC002008BD73
:100E400000234FF07E52436002608360C360026102
:100E500043618361C3610262704791ED027AF1EEF2
:100E6000477A10B592B0CDED017A8DED037AD1EDD0
:100E7000017A91ED007A00230446CDED027AF1EE7D
:100E8000476AF1EE677A6A46014609A8009304931F
:100E90000893CDED056ACDED067A8DED077A00F069
:100EA0007FFB204609AB04F12402D0ED007A93EDDC
:100EB000007A77EE877A93ED017AC0ED007AD0ED73
:100EC000017A77EE877A93ED027AC0ED017AD0ED60
:100ED000027A77EE877A0C3040ED017A904203F186
:100EE0000C03E2D112B010BD30B52DED028B00F134
:100EF0000C058DB02946044600F0C8FBFEEE007AD2
:100F000020EE270A294603A88DED010A00F07DFB9B
:100F10009DED010A214606A800F077FB03A92246B1
:100F2000084600F098FB06A92A46084600F093FB05
:100F300006AA03A909A800F0B9FB03A9084600F016
:100F4000A5FBB0EE088AF6EE008A38EE400A20468D
:100F500020EE280A03A900F058FB06A9084600F075
:100F600095FB38EE400A284620EE280A06A900F034
:100F70004CFB09A9084600F089FB38EE400A09A994
:100F800020EE280A04F1180000F03FFB0DB0BDEC84
:100F9000028B30BD38B5D0ED080A90ED070A044643
:100FA0000D4607F06DFD85ED000A94ED060A07F089
:100FB00033FDB1EE400A85ED010AD4ED000A94ED4F
:100FC000030A07F05DFD85ED020A38BD002300220B
:100FD00043628362C362036343638363C2630364E4
:100FE000C36503664366036043608360C360036157
:100FF00043618361C361036243648364C3640365C3
:1010000043658366C3660367704700000000000005
:10101000B7EE007AC7EE007A10B580ED140AC0ED85
:10102000157A044610EE100A04F0A2F802460B46A8
:1010300005A1D1E9000104F01DFA04F0B3FBA0659D
:1010400010BD00BFAFF30080399D52A246DF913F33
:1010500080ED140A704791ED007AD0ED0C7A77EEAE
:10106000877AC0ED0C7AD0ED0D7A91ED017A77EEAA
:10107000877AC0ED0D7AD0ED0E7A91ED027A77EE97
:10108000877AC36BC0ED0E7A0133C363704710B526
:10109000044686B090ED160A684600F0B6FA04F1F0
:1010A0005C02694603A800F0D6FA03A92046FFF7C0
:1010B000D4FE2046FFF718FF204604F16801FFF731
:1010C00069FF06B010BD00002DE9F0432DED048B43
:1010D000884600F15C05044690ED098AD0ED0A8A45
:1010E00090ED0B9A85B02846174610EE106A00F076
:1010F00087FAB8F1000F53D0606A04F039F846A3BC
:10110000D3E900238046894604F010FB002847D02D
:1011100043A3D3E900234046494604F0FDFA0028E2
:101120003ED0A06A04F024F83BA3D3E90023804614
:10113000894604F0FBFA98B339A3D3E9002340466B
:10114000494604F0E9FA58B3B5EEC09AF1EE10FA48
:10115000B1EE488AB1EE680A04F1680825DB07F0B1
:101160005BFC8DED010AB0EE480A07F055FCB1EECC
:10117000400A2846424601A98DED020A039600F076
:1011800077FA284600F02FFA0FB900236366D4EDF2
:10119000147AB6EE000A284680EE270A00F048FAD4
:1011A00005B0BDEC048BBDE8F08307F035FC10EE14
:1011B000100A03F0DDFF02460B461BA1D1E9000136
:1011C00003F076FE04F0EEFAB0EE480A019007F064
:1011D00023FCB1EE400A30468DED020A03F0C8FF51
:1011E00011A3D3E9002303F065FE04F0DBFA0390BA
:1011F00001A800F0F8F94246284601A900F038FAA3
:10120000284600F0F0F9D4ED187AF1EE677AC4EDD3
:10121000187AB9E7AFF30080C139234A7B83EFBF67
:10122000C139234A7B83EF3F182D4454FB210940E9
:1012300010B50446243000F0E3F904F1300000F06A
:10124000DFF9002304F14400E36300F0D9F904F16D
:10125000680000F0D5F904F15C0000F0D1F92046F7
:10126000BDE81040FFF7ECBD37B5044600F060F86C
:101270000128054629D104F124010846019100F016
:101280000BF920460199FFF7E6FE04F144010846F8
:10129000019100F00FF9D4ED117AF1EE677AC4ED07
:1012A000117AD4ED127AF1EE677A20460199C4EDF5
:1012B000127AFFF7ECFE9FED060A0022294620462F
:1012C00003B0BDE83040FFF7FFBE03B030BD00BF44
:1012D000000000007FB502260F4D10482E70FFF76A
:1012E00075FEFFF7FFFA044680B90DF10300FFF722
:1012F0009FFD044650B9032301A82B70FFF7A0FC03
:10130000044618B92E70204604B070BDFFF740FAAD
:1013100000232B70F7E700BFC8130020CC13002078
:101320000022024B1A70FFF733BA00BFC813002027
:10133000014B1878704700BFC81300200121022319
:1013400030B51B4D85B0002208462B708DED010A8B
:10135000FFF736FC9DED010AFFF7E8FA154C08206F
:1013600084ED000AFFF738FB0320FFF725FB002080
:10137000FFF7FCFB0020FFF70EFC322003F0B2FB6E
:1013800000210120FFF734FC03A8FFF73FFC94ED98
:10139000000A0948FFF75CFE94ED000A0648FFF7D3
:1013A00037FE0548FFF744FF01232B7005B030BD21
:1013B000C813002040140020CC1300201A4AD36B1D
:1013C0006BB392ED0C6A9FED197A07EE903A26EE18
:1013D000076AF8EE677AC6EE276A92ED0D6AFDEEAF
:1013E000E66A26EE076A16EE903AC6EE276AFDEE2A
:1013F000E66A038016EE903AD2ED0E6A66EE876AD0
:1014000086EEA77ABDEEC77A438017EE103A838046
:1014100000231363536393630023D36370470380F4
:1014200043808380704700BFCC13002000007A44C3
:1014300038B5154D0446A86E03F09AFE10A3D3E903
:10144000002303F0EDFE04F085F92080E86E03F040
:101450008FFE0BA3D3E9002303F0E2FE04F07AF938
:101460006080286F03F084FE05A3D3E9002303F016
:10147000D7FE04F06FF9A08038BD00BFAFF3008045
:101480008AEF9DF49361B640CC1300200148FFF72A
:10149000EBBE00BFCC130020054A1278012A04D00D
:1014A00000220260426082607047FFF7CBBA00BF43
:1014B000C8130020054A1278012A04D000220260D5
:1014C000426082607047FFF721BB00BFC813002055
:1014D00008B5094B1B78012B01D0002008BDFFF790
:1014E000A1FB064A1368013313600028F5D0044AB3
:1014F000136801331360F1E7C8130020C013002004
:10150000C4130020000000002DE9F0471EA7D7E912
:1015100000670FF27C09D9E900898246DAF80000F9
:1015200003F026FE32463B4604460D4604F0FEF824
:1015300098B90FF26409D9E9008915A7D7E90067BE
:10154000DAF8000003F014FE42464B4604460D460E
:1015500004F0D8F860B9BDE8F08742464B46204613
:10156000294603F0A5FC04F01DF9CAF80000D5E7F0
:1015700032463B462046294603F09CFC04F012F913
:10158000CAF80000DCE700BF182D4454FB210940D5
:10159000182D4454FB211940182D4454FB2109C037
:1015A00070B501F1240502F10C0613460446F3EC74
:1015B000017A91ED006AD1ED016A93ED027A67EE4E
:1015C000867A46EE877AD1ED026A93ED057A46EE89
:1015D000877AB342E4EC017AE9D10C318D4200F113
:1015E0000C00E2D170BD10B50446FFF78DFF201D41
:1015F000FFF78AFF04F10800BDE81040FFF784BF41
:1016000000230360436083607047D1ED007A67EE8A
:10161000807AC0ED007AD1ED017A67EE807AC0ED74
:10162000017AD1ED027A27EE800A80ED020A704736
:10163000D0ED007A67EE807AC0ED007AD0ED017AC5
:1016400067EE807AC0ED017AD0ED027A27EE800A4B
:1016500080ED020A704701F10C03F1EC017AB2EC63
:10166000017A77EE877A9942E0EC017AF5D17047FA
:1016700001F10C03F1EC017AB2EC017A77EEC77A52
:101680009942E0EC017AF5D1704700009FED060A1F
:1016900000F10C03B0EC017AF1EC017A984207EE0C
:1016A000270AF7D1704700BF0000000092ED016AE1
:1016B000D1ED027AD1ED016A92ED027A67EE867A77
:1016C00056EE877AC0ED007A92ED026AD1ED007A8B
:1016D000D1ED026A92ED007A67EE867A56EE877A4D
:1016E000C0ED017AD1ED017A92ED006AD1ED006A88
:1016F00092ED017A67EE867A56EE877AC0ED027A2D
:10170000704700000122024BC3F8A020704700BFC1
:1017100000D003400122024BC3F8A020704700BF55
:1017200000E0034070B5454C8EB0264601AD0FCEAB
:101730000FC5336814342B6006AD0FCC0FC594E889
:101740000F0085E80F0001213A2000F0A7FD0121DC
:10175000572000F0A3FD4FF48073394DADF81C30D5
:10176000384B2846039301A906AB059302F0F2F922
:10177000012304220321022002F048FB022100235E
:101780000846012202F042FB0123042219460220EE
:1017900002F03CFB042200210123022002F036FB70
:1017A000294C2A4B4FF44870C4F8C8344FF0021348
:1017B000C4F8C43403F58033C4F8CC341C23C4F813
:1017C000B43403F03BFB1420FFF7A4FF03F036FB17
:1017D0002320FFF797FF03F031FBB9212846FFF7DD
:1017E00099FF01F010FFFFF78DFF002303211A4638
:1017F000022002F00BFB002302211A46084602F0E9
:1018000005FB012300221946022002F0FFFA002204
:1018100001231146022002F0F9FA284601F088FE61
:1018200000215720C4F8C814C4F8C414C4F8CC1458
:10183000C4F8B41400F032FD0EB070BD549200082C
:1018400000000A40E070720000C003400200010086
:10185000FEE7000008B500F013F8064B064A0749FA
:101860008B4201D3FEF7A8FC52F8040B43F8040B9B
:10187000F6E700BF00100020989A00080012002030
:10188000044B054A9A60D3F8882042F47002C3F8EA
:101890008820704700ED00E000000008014B186848
:1018A000704700BF0C100020014B1860704700BF4C
:1018B0000C100020084B1B6F03F00703022B04D011
:1018C000032B05D0012B05D0FEE7044B18687047A9
:1018D000034BFBE703487047008000400C100020DA
:1018E00010100020002D310108B5FFF7E3FF054B74
:1018F0001B6FC3F303330133B0FBF3F0024B1860EB
:1019000008BD00BF0080004008100020004870475C
:1019100000B4C404014B1868704700BF10100020C9
:10192000054B1860054B1B6F03F00703032B01D118
:10193000FFF7DABF704700BF1010002000800040A2
:101940000020704700487047002D31014FF094434C
:101950009868C0F304400C2822D8DFE800F0092181
:1019600021212121071719211B1D1F000F48704736
:101970009B6803F04073B3F1807F13D0B3F1007F15
:1019800012D00B4A002B08BF104670470948704719
:101990000948704709487047094870470948704727
:1019A000002070470848704708487047405DC600EF
:1019B00000093D000024F400C0EA210180BA8C0136
:1019C0000048E801005A620280841E0040420F0075
:1019D0004FF4004070474FF47A707047014B18681D
:1019E000704700BF1410002005490A681318054805
:1019F00083428CBF4FF0FF320B601046704700BF30
:101A00001810002000000420D0E900031847836864
:101A100000681847C36800681847036900681847DA
:101A200038B50D460446B0B1012816D0022816D0AC
:101A3000032803D13F23EB40DB0704D44FF47F712D
:101A4000084800F0B1F8302001214443064B01FA68
:101A500005F51D5138BDFF23EDE70F23EBE740F2FD
:101A6000FF33E8E78892000840E0034038B50D46B0
:101A70000446B0B1012816D0022816D0032803D19D
:101A80003F23EB40DB0704D440F22B41084800F031
:101A90008BF8302001214443064B01FA05F51D5116
:101AA00038BDFF23EDE70F23EBE740F2FF33E8E714
:101AB0008892000840D0034010B5044601213A2026
:101AC00000F0ECFBA3782078B3FA83F3042261786A
:101AD0005B0902F09BF9002010BD034659789B7802
:101AE00000780BB9FFF79CBFFFF7C0BF03465978DA
:101AF0009B7800780BB9FFF7B9BFFFF791BF0000E3
:101B000038B504784578ACB1012C15D0022C15D02D
:101B1000032C03D13F23EB40DB0704D440F24641C2
:101B2000084800F041F8302301225C43064BAA40EC
:101B30001A5138BDFF23EEE70F23ECE740F2FF33E5
:101B4000E9E700BF8892000840F0034070B50478D0
:101B500005464678F4B1012C1ED0022C1ED0032C71
:101B600003D13F22F240D30704D440F216410D487E
:101B700000F01AF830235C4303F18043103403F57E
:101B80007033E358F34003F00100AB780BB980F0F9
:101B9000010070BDFF22E5E70F22E3E740F2FF32CC
:101BA000E0E700BF88920008FEE74FF04023D3F83B
:101BB0008420D206FBD4D3F88400C0F38110704790
:101BC00008B5344B984250D028D8334B984246D071
:101BD00018D8324B98423FD00BD800283ED0304B1B
:101BE000984239D02F4841F2B701FFF7DDFF0020BE
:101BF00034E02D4B98422FD02C4B9842F2D12C4BF5
:101C0000586E2BE02B4B98422CD003F5371303F57D
:101C1000D8639842E6D1264B986F1FE0264B984236
:101C20002FD00CD8254B984223D0254B984224D056
:101C3000244B9842D6D11E4BD3F884000EE0224BA1
:101C4000984222D003F5740303F510539842C9D18A
:101C5000174BD3F8980001E0154B986D08BD144B55
:101C6000186FFBE7124B586FF8E7114BD3F8800061
:101C7000F4E70F4BD3F88800F0E70D4BD3F88C0056
:101C8000ECE70B4BD3F89000E8E7094BD3F894004E
:101C9000E4E700BF80BA8C01405DC60080841E006E
:101CA00040420F00D792000800093D00C0CF6A00F3
:101CB0000080E00F0024F400007E560380D543022C
:101CC000006CDC020048E8010090D00338B50F4BEF
:101CD0000546D3F880300C4603F00303012B09D0EE
:101CE000022B0FD00A4840F64571FFF75DFF002335
:101CF000184602E0FFF7DEFD0E2305B1286004B1AF
:101D0000237038BDFFF722FE0723F6E7008000406E
:101D1000D792000838B5194B0546D3F820310C4648
:101D200003F00703013B052B20D8DFE803F0030B8A
:101D3000130F171BFFF7B2FD052305B1286004B18F
:101D4000237038BDFFF7E6FD0323F6E7FFF7FEFD3E
:101D50000723F2E7FFF7F6FD0223EEE7FFF79EFD0C
:101D60000623EAE7FFF7D6FD0423E6E7044840F63A
:101D7000BE71FFF719FF00231846DEE70080004020
:101D8000D792000838B5154B0546D3F828310C46D4
:101D900003F00703013B032B17D8DFE803F0020E23
:101DA000120AFFF77BFD052305B1286004B12370FB
:101DB00038BDFFF7CBFD0723F6E7FFF7ABFD0323A5
:101DC000F2E7FFF7BFFD0223EEE705484FF45D6140
:101DD000FFF7EAFE00231846E6E700BF0080004058
:101DE000D7920008F7B50024154B0194D3F8805121
:101DF000074605F00305022D0E4614D0032D0DD025
:101E0000012D15D1214601A8FFF784FF10230FB142
:101E1000019A3A6006B1337003B0F0BDFFF796FD4A
:101E200007230190F3E7FFF78DFD2B460190EEE7C6
:101E300041F2E2010348FFF7B7FE2346E7E700BFA0
:101E400000800040D7920008002337B50193184B5B
:101E50000546D3F820320C4603F00703013B032B61
:101E60001ED8DFE803F0020E1318002101A8FFF7C7
:101E700089FF12230DB1019A2A6004B1237003B0C7
:101E800030BDFFF763FD07230190F3E7FFF7A0FDE7
:101E90000A230190EEE7FFF7A1FD09230190E9E78E
:101EA00040F69E510348FFF77FFE0023E2E700BFA4
:101EB00000800040D792000838B5124B0546D3F891
:101EC00040310C4603F00303022B0BD0032B0DD043
:101ED000012B0FD1FFF77CFD0A2305B1286004B167
:101EE000237038BDFFF77AFD0923F6E7FFF773FD8E
:101EF0000C23F2E7044840F6EC71FFF755FE00238F
:101F00001846EAE700800040D7920008002337B562
:101F10000193184B0546D3F860320C4603F00703D3
:101F2000013B032B1FD8DFE803F0020E1914002138
:101F300001A8FFF7EFFE10230DB1019A2A6004B14A
:101F4000237003B030BD002101A8FFF7B5FF1123B6
:101F5000F2E7FFF7FBFC07230190EDE7FFF7F2FC48
:101F600002230190E8E740F633610348FFF71CFEC7
:101F70000023E1E700800040D7920008002337B536
:101F80000193184B0546D3F894320C4603F007032F
:101F9000013B032B1FD8DFE803F0020E19140021C8
:101FA00001A8FFF7B7FE10230DB1019A2A6004B112
:101FB000237003B030BD002101A8FFF77DFF11237E
:101FC000F2E7FFF7C3FC07230190EDE7FFF7BAFC48
:101FD00002230190E8E740F666610348FFF7E4FD5D
:101FE0000023E1E700800040D792000873B5002489
:101FF0000F4B0194D3F87032064603F00303012B14
:102000000D4607D0022B11D040F691610948FFF729
:10201000CBFD04E0214601A8FFF74EFF11240EB1CD
:10202000019B336005B12C7002B070BD1524F6E73A
:1020300000800040D792000838B5154B0546D3F80C
:1020400000320C4603F00703013B032B18D8DFE8EE
:1020500003F0020A0E12FFF7BBFC0A2305B1286049
:1020600004B1237038BDFFF7B9FC0923F6E7FFF789
:10207000B2FC0C23F2E7FFF737FC0F23800AEDE7F1
:10208000044841F29811FFF78FFD00231846E5E759
:1020900000800040D792000838B5154B0546D3F8AC
:1020A00008320C4603F00703013B032B18D8DFE886
:1020B00003F0020A0E12FFF78BFC0A2305B1286019
:1020C00004B1237038BDFFF789FC0923F6E7FFF759
:1020D00082FC0C23F2E7FFF707FC0F23800AEDE7F1
:1020E000044841F2CC11FFF75FFD00231846E5E7F5
:1020F00000800040D792000838B5124B0546D3F84F
:1021000040320C4603F00303022B0BD0032B0DD0FF
:10211000012B0FD1FFF75CFC0A2305B1286004B145
:10212000237038BDFFF75AFC0923F6E7FFF753FC8D
:102130000C23F2E7044841F25B11FFF735FD002361
:102140001846EAE700800040D792000838B5124BE5
:102150000546D3F860310C4603F00303022B0BD085
:10216000032B0DD0012B0FD1FFF732FC0A2305B151
:10217000286004B1237038BDFFF730FC0923F6E76F
:10218000FFF729FC0C23F2E7044841F21A01FFF79C
:102190000BFD00231846EAE700800040D7920008B4
:1021A00070B5054614460E4601F070F8296881EABC
:1021B000040202EA06044C402C60BDE8704001F0C5
:1021C00069B80000B0F5207F10B52ED009D8B0F561
:1021D000007F24D003D868B1B0F5C07F0AD00024B6
:1021E0001BE0B0F5607FFAD1124BD3F88040C4F306
:1021F000011412E00F4B1C6F230B13F00E0FC4F3EE
:1022000003340AD0032C08D0072C06D00F2C04D09E
:102210004FF419710848FFF7C7FC601C10BD054B4F
:10222000D3F89040C4F30464F7E7024B1C6FC4F387
:102230008024F2E700800040D79200084FF48032FB
:102240000F4B70B59A66064600200D46FFF7BAFFA1
:1022500041F671320B4B7043DC690B49DA635A6803
:10226000884204F4803422F4401203D9012D18BFAF
:1022700042F480125A600CB10022DA6370BD00BFD4
:102280000090004000000340005A620208B5FFF7CA
:102290003DFBBDE808400021FFF7D0BF70B5440901
:1022A00005460E460ED140F205310F48FFF77CFC83
:1022B00005F01F05AEB104F58053012000FA05F5C5
:1022C0001D6070BD012C08D0022C08D040F20F31E7
:1022D0000548FFF769FC0024EAE7044CE8E7044CF2
:1022E000E6E704F50053E8E7D79200086480004071
:1022F00068800040002130B5802885B00446CDE9D3
:10230000011100F094802AD8002800F09680A0F1F6
:102310002004A3B23D2B35D83D2C33D8DFE804F0A0
:102320008D998D99A8A8A8A8A899B23FC9633F998B
:10233000999932323232323232329999996BD39939
:1023400032323232323232323232323232A88D8D41
:102350008DCE3F3FD87A50AD323232323282B0F534
:10236000B06F00F08F8030D8B0F5207F71D00FD8DB
:10237000B0F5C07F61D0B0F5007F61D0B0F5807F4F
:1023800000F0858040F25A415448FFF70DFC51E0BF
:10239000B0F5607F67D00DD8B0F5407FF2D1FFF780
:1023A000A3FA04464FF42070FFF70CFFB4FBF0F0E3
:1023B00040083EE0B0F5806F5AD0B0F5A06FE1D193
:1023C000002101A8FFF740FD34E0B0F5106F75D093
:1023D00016D8B0F5E06F76D00AD8B0F5C06F68D0E7
:1023E000B0F5D06FCED1002101A8FFF725FE21E086
:1023F000B0F5F06FC6D1002101A8FFF7A7FE19E0E4
:10240000B0F5406F39D00AD8B0F5206F60D0B0F584
:10241000286FB7D1002101A8FFF7E8FD0AE0B0F569
:10242000486FAFD1002101A8FFF7A8FD02E0FFF738
:1024300041FA0190019805B030BDFFF755FAF8E771
:10244000FFF738FA05462046FFF7BCFEB5FBF0F073
:10245000EFE7FFF749FA04464FF42070FFF7B2FEAA
:10246000B4FBF0F0E5E702A8FFF730FC029DEAE7D5
:10247000002101A8FFF74EFCDCE7002101A8FFF7CF
:1024800081FCD7E7002101A8FFF7ACFCD2E74FF0B1
:10249000E02303911B695B0705D5FFF725FA03903D
:1024A000039B0193C6E70DF1030103A8FFF704FDA9
:1024B000F6E7002101A8FFF7FFFCBBE7002101A818
:1024C000FFF7EAFDB6E7002101A8FFF715FEB1E727
:1024D000002101A8FFF71AFDACE700BFD792000862
:1024E00008B58020FFF706FF034B98429EBF4FF4CC
:1024F0008032024B1A6708BD005A620200A00040F9
:10250000002307B5B0F5807F8DF8023000F0CB8056
:1025100064D85D2855D84C2806D82D2846D82328BD
:102520002AD840F23651AAE04D381028F9D801A334
:1025300053F820F09B2600082325000823250008D7
:10254000232500084326000823250008232500082A
:102550003127000863260008032600082527000805
:10256000232500082325000823250008232500082B
:10257000232500083D27000824380928D1D801A3C5
:1025800053F820F09B2600089B2600089B26000895
:102590009B2600089B2600082325000887260008A4
:1025A0002325000821260008DB2600083D2800F02E
:1025B0008E803E28B5D100200DF10201FFF79CFD71
:1025C00066E08028ADD1604B1B6F03F00703013B31
:1025D000032B52D8DFE803F04F4B949CB0F5F06F1B
:1025E00075D023D8B0F5B06F4DD010D8B0F5607F5E
:1025F00000F0928095D3B0F5806F4ED0B0F5A06F0B
:102600008FD100200DF10201FFF71EFC40E0B0F574
:10261000D06F62D0B0F5E06FCDD0B0F5C06F80D193
:1026200000200DF10201FFF747FC31E0B0F5206F0B
:102630007ED00CD8B0F5086F55D0B0F5106F7FF490
:1026400070AF00200DF10201FFF726FD20E0B0F58C
:10265000406F67D0B0F5486F70D0B0F5286F7FF449
:1026600060AF00200DF10201FFF7C0FC10E0052370
:102670008DF802300CE00223FAE740F28C41334837
:10268000FFF792FA04E000200DF10201FFF7AAFB28
:102690009DF8020003B05DF804FB00200DF102017B
:1026A000FFF738FBF4E701934FF0E0231B695B076A
:1026B00007D5FFF719F90D238DF803309DF8033086
:1026C000D6E70DF1030101A8FFF7F6FBF6E70020BE
:1026D0000DF10201FFF73AFDDAE700200DF10201EA
:1026E000FFF7AAFCD4E7184BD3F8003103F003033B
:1026F000022B07D0032B09D0012B0BD1FFF70AF9CE
:102700000323B5E7FFF76AF90923B1E7FFF718F9E3
:102710000823ADE70123ABE718460DF10201FFF7EF
:10272000D5FAB5E700200DF10201FFF72BFBAFE76B
:1027300000200DF10201FFF7E9FBA9E700200DF1F0
:102740000201FFF71BFCA3E700800040D7920008BE
:1027500038B5037804460F2B04D940F6212175487B
:10276000FFF722FA63780F2B04D940F62421714831
:10277000FFF71AFAA3780F2B04D940F627216D48EA
:10278000FFF712FAE3780F2B04D940F62A216948A3
:10279000FFF70AFA23790F2B04D940F62D2165485B
:1027A000FFF702FA63793F2B04D94FF423616148A4
:1027B000FFF7FAF9A3793F2B04D940F633215D489E
:1027C000FFF7F2F9E379032B04D940F63621594893
:1027D000FFF7EAF9237A032B04D940F6392155484B
:1027E000FFF7E2F9637B032B04D940F63C21514803
:1027F000FFF7DAF98020FFF783FE03287BD04FF440
:1028000080124D4B4D495A6645F60E034FF0A062BB
:10281000C1F880304A4B9A624FF4803203F58053FE
:102820009A628A6D12F48032FBD1637820781B059E
:1028300043EA0063A079434D0343E07843EA004351
:10284000207943EA0033607943EA80130B618B6996
:10285000E07A03F000430343E07943EA8063207A9F
:1028600043EA0063607A43EA0043A07A43EA002324
:102870008B61607B0B6A002818BF0822217B23F044
:102880000F0343EA000343EA81032C4942EA0302AF
:102890000A6231D1A37C8A6AA07BDB002A4043EA2A
:1028A00040131343E27B43EA021343F480338B6209
:1028B000254B8A6D33EA0202FBD14FF0807220482B
:1028C00082620B69A57823F4700343EA05530B6118
:1028D0004FF000438361237C0BB91C4B9A62637CED
:1028E0001BB94FF48032194B9A62E37C1BB1134B36
:1028F000174AC3F8802038BD022809D100234FF4BD
:1029000008520B6113488B614FF47F41FFF748FC7D
:102910000A49237C8A6AA07B1B062A4043EA4013AB
:102920001343A27C43EAC203627C43EA02438B6204
:10293000DBE700BFD7920008009000400040004A4B
:102940000050004AC7FFFEFE030001000060004A7D
:10295000F1A7FFFF3440004A014B93F90000704794
:102960001C10002010B583780446072B04D940F6CC
:102970009F312A48FFF718F9E378032B04D940F672
:10298000A1312648FFF710F92378032B04D940F62C
:10299000A3312248FFF708F994F90130002B04DA3B
:1029A00040F6A5311D48FFF7FFF84FF400011C4A1F
:1029B000637851664FF4D151022002F5B83251626A
:1029C00018494F2B48604FF0010028BF4F2301F5F5
:1029D000805148601169C903FCD4217843EA01237E
:1029E0005361E378A1781B0143EA012361790B432A
:1029F000217943EA41039360E379A1791B0143EA1A
:102A00004113617A0B43217A43EA41035360A37A6D
:102A100013B16FF4D153536210BD00BFD7920008B9
:102A20000090004000100240014B1880704700BF2A
:102A30001E1000200029CCBF01210021FFF7FEBBA2
:102A4000B0F5207F38B577D00ED8B0F5007F61D0D3
:102A500003D890B3B0F5C07F2FD04FF43A71BDE8E2
:102A600038403D48FFF7A0B8B0F5607FF5D13B4A4C
:102A70004C1ED2F8FC5015F080751EBFD2F8FC3009
:102A800023F08073C2F8FC30032C04D940F2CB2130
:102A90003148FFF789F8324BD3F8801021F030012C
:102AA00041EA0411C3F8801035B12C4AD2F8FC3049
:102AB00043F08073C2F8FC3038BD102901F1FF34B7
:102AC00004D8284B23FA01F1CB0704D440F2A32108
:102AD0002148FFF769F8FFF7D9FB00F047F84FF4FA
:102AE0008031214B1E4A1967136F23F4704343EA68
:102AF00004331367FEF7F8FE0446FFF756F8C0F1FB
:102B000002012046FFF796FF00F036F8BDE8384096
:102B1000FFF7E6BC4C1E1F2C04D94FF437710E484A
:102B2000FFF742F80E4BD3F8901021F0F85141EA2C
:102B30000461C3F89010BFE74C1E012C04D940F289
:102B4000E2210548FFF730F8054B196F21F4806149
:102B500041EA84211967AFE7D792000800ED00E051
:102B600000800040160101000090004002214FF457
:102B70002070FFF765BF000008B54FF4C070FFF785
:102B8000B9FBBDE80840044988428CBF02210121FD
:102B90004FF42070FFF754BF80F0FA02B0F5807F49
:102BA000F8B50C4600F065816DD85D285FD84C28DB
:102BB00006D82D2846D823282AD840F6250192E1A8
:102BC0004D381028F9D801A353F820F0472E0008FB
:102BD000BB2B0008BB2B0008BB2B0008272D0008CF
:102BE000BB2B0008BB2B0008DB300008592D000868
:102BF000B32C00088F300008BB2B0008BB2B00084B
:102C0000BB2B0008BB2B0008BB2B00081B310008A6
:102C100024380928D1D801A353F820F0472E000802
:102C2000472E0008472E0008472E0008472E0008B0
:102C3000BB2B0008152E0008BB2B0008ED2C00084C
:102C4000532F00083D2800F06E813E28B5D1093C85
:102C5000E4B2032C00F23A82A54B195DA54AD2F8E2
:102C6000403223F003030B43C2F84032B4E0802823
:102C7000A3D18B1E062B00F2C280DFE803F0BDAEAD
:102C8000C0C8C0C08200B0F5F06F00F04C813DD8E4
:102C9000B0F5B06F00F0BE801DD8B0F5607F00F0D9
:102CA000AE818AD3B0F5806F00F0CD80B0F5A06F13
:102CB00083D1073C0B2C00F2E181DFE814F0D10155
:102CC000DF01DD01DB01DB01DF01DF01DF01DF010E
:102CD000DF01DF01E601B0F5D06F00F03A81B0F519
:102CE000E06FB4D0B0F5C06F7FF467AF093CE4B2D9
:102CF000032C00F21181804B195D7E4AD2F84031DD
:102D000023F003030B43C2F8403165E0B0F5206FB8
:102D100000F0E38114D8B0F5086F00F05181B0F5F0
:102D2000106F7FF44AAF093C062C00F24081DFE8C7
:102D300014F03001450145013A013E013E013C01DC
:102D4000B0F5406F00F0A381B0F5486F00F0E58169
:102D5000B0F5286F7FF431AF112C00F0FE81152CF7
:102D600000F0FD8140F2F3716448FEF71DFF002280
:102D70006049D1F8703223F003031343C1F8703275
:102D80002AE0002504264FF480370121022000F0BC
:102D90009FFAFFF77BFAFFF7E9FE594B554A1F6789
:102DA000136F23F0070333431367FEF79DFD0646B9
:102DB000FEF7FBFEC0F102013046FFF73BFE0121AA
:102DC000002000F0DDFAFFF7D7FEFFF789FB1DB901
:102DD000032C01D14B4B9F62F8BD4FF48012484B3E
:102DE00003265A664FF48032474B9D6A03F58053A1
:102DF000C5F300659A62C6E700250126C3E70025F2
:102E000040F277513D48FEF7CFFE2E46BBE7002546
:102E10000226B8E7072C12D0102C12D0022C05D0B5
:102E200040F2BC513548FEF7BFFE0024314AD2F8CB
:102E3000803123F003031C43C2F88041CCE7032414
:102E4000F4E70124F2E7023CE4B2052C0AD82F4B48
:102E5000195D284AD2F8203123F007030B43C2F84A
:102E60002031B9E740F2F3512448FEF79DFE0021DE
:102E7000EFE7A1F10904082C33D8DFE804F00505D9
:102E800032051C32323205004FF48032194B204992
:102E9000586E03F580535A664B6A43F001034B6248
:102EA000C1035CBF1B4B5A664FF0E022136923F04D
:102EB0000403136190E74FF480320E4B1449586EAF
:102EC00003F580535A664B6A23F001034B62C30338
:102ED0005CBF104B5A664FF0E022136943F00403C5
:102EE000E7E740F21B61BDE8F8400448FEF75CBE2E
:102EF0002B930008008000402B930008D792000815
:102F0000009000400060004A0040004A25930008FD
:102F100000C0074000A0004040F237619148FEF732
:102F200043FE0021E9E6093CE4B2032C0AD88E4BAB
:102F3000195D8E4AD2F8603123F003030B43C2F8C7
:102F4000603149E740F252618648FEF72DFE0021CC
:102F5000EFE7093C062C13D8DFE804F00419190E3A
:102F60001212100002228149D1F8003223F0070327
:102F70001343C1F800322FE70322F4E70422F2E7FB
:102F800040F297617748FEF70FFE0022EBE701223F
:102F9000E9E702227549D1F8083223F00703134309
:102FA000C1F8083218E70322F4E70422F2E740F2FE
:102FB000B7616C48FEF7F8FD0022EBE70122E9E774
:102FC0004C1E082C12D8DFE804F01611181111114C
:102FD000110F050002226549D1F8003123F00303E7
:102FE0001343C1F80031F7E60322F4E740F2D3615E
:102FF0005C48FEF7D9FD0022EDE70122EBE75C4AD1
:10300000D2F8FC5015F080751EBFD2F8FC3023F0CA
:103010008073C2F8FC3007291CD00E291CD0062969
:103020001CD040F2FC614F48FEF7BEFD00224F4924
:10303000D1F8803023F003031343C1F88030002D12
:103040003FF4CAAE4A4AD2F8FC3043F08073C2F86B
:10305000FC30C1E60222EAE70122E8E70322E6E7C4
:1030600002224249D1F8203223F007031343C1F86A
:103070002032B1E60322F4E70422F2E740F2347191
:103080003848FEF791FD0022EBE70122E9E7023C18
:10309000052C12D8DFE804F00D0F111811030422DB
:1030A0003249D1F8283123F007031343C1F82831FE
:1030B00092E60322F4E70222F2E740F25671294831
:1030C000FEF772FD0022EBE70122E9E740F28F7183
:1030D0002448FEF769FD0021C0E5102C17D012D856
:1030E000022C16D0072C16D040F2C5711D48FEF7F1
:1030F0005BFD00221D49D1F8603223F00703134322
:10310000C1F8603268E6112CEED10222F2E701220A
:10311000F0E70322EEE70422ECE7102C17D012D8D8
:10312000022C16D0072C16D040F2DD710D48FEF7A8
:103130003BFD00220D49D1F8943223F007031343DD
:10314000C1F8943248E6112CEED10222F2E70122B6
:10315000F0E70322EEE70422ECE7012208E6022270
:1031600006E600BFD79200082B93000800800040BD
:1031700000ED00E02DE9F0410546FEF721FD431E7C
:103180000333044604D940F685013A48FEF70CFDA6
:103190004FF4C022384B5A6603F598335A68012A17
:1031A00004D136494A605A689207FCD48020FFF760
:1031B000A7F9052807D1FFF769F8FFF7D7FC4FF407
:1031C00080322D4B1A672E4B24F040749D4244D020
:1031D0002C4B9D4244D0FEF761FB8542064603D945
:1031E0000121284600F0CCF8274FFB6813F0060FAA
:1031F000FBD1D7F80880BC60BB6804F4F81403F472
:10320000F8139C422FD0354640F6CD011948FEF701
:10321000CBFCC7F808808020FFF772F9052814D18D
:10322000FEF762FB8542044604D240F6DE011148F7
:10323000FEF7BAFCFEF7B9FCC0F102012046FFF729
:10324000F9FBFFF799FCFFF74BF9B5420FD8BDE842
:10325000F0410121002000F093B844F00074BAE777
:1032600044F08074B7E72846FEF71EFBD3E7BDE8BD
:10327000F08100BFD79200080090004000E00140BC
:1032800040420F0080841E0000000140EFF31080D8
:1032900072B6704700B962B67047EFF31180302301
:1032A00083F31188704780F311887047024A536B8B
:1032B0000342FCD1704700BF004009404FF040225C
:1032C000D36E017923F030030B43D3667047704708
:1032D0002DE9F0414FF040230446D3F88420D00676
:1032E000FBD4D3F88430C3F381139C423FD0FEF764
:1032F000E1FA012C05460BD11E4B984204D940F24D
:10330000F9611D48FEF750FC01212846FFF792FBAA
:10331000FFF7BCFF4FF00072184B07465A66204675
:10332000FFF7D5FF4FF480634FF04026621E9340B5
:10333000DFF844803367736E9A0103D4D6F8843083
:103340009B060AD53846FFF7A5FF022C0FD1284669
:10335000BDE8F0410021FFF76DBBD6F88430990637
:10336000E9D540F207714046FEF71EFCE3E7BDE8F1
:10337000F08100BF005A62022F93000800600040F5
:1033800007B518B90191FEF795FA0199064B1B781C
:1033900043B1064B984205D8012003B05DF804EB19
:1033A000FFF796BF0220F8E744140020005A62029B
:1033B0004FF00042144B10B55A664AF6CD3313490C
:1033C0004C6C0B6404F0010478B90120FFF76EFF28
:1033D0004B68DB0704D50E4B58600B6BD807FCD548
:1033E00014B10A4B0B4A1A6410BD0B6B1A07FCD4BC
:1033F0002022074B9A620122A3F580535A60034AA8
:10340000936A9B06FCD5EBE7009000400040094022
:10341000006009403254FFFF4FF0004238B5174BAF
:1034200001465A664AF6CD334FF04022144C656C83
:10343000236443780B205B0043F00103D363FFF761
:1034400035FF63688A7823F4F87343EA02136360F4
:10345000CA784B7943EA0223A3600A798B7943EA5D
:10346000022323610878FFF7A3FFEB0748BF054B52
:103470004FF0010048BF236438BD00BF00900040FA
:10348000004009403254FFFF0F2870B5044604D9AC
:1034900040F6F9411248FEF787FB4FF00042114B0E
:1034A00011495D6E03F580535A664AF6CD334E6C72
:1034B00080200B64FFF7FAFE0B6A23F00F030F2C3A
:1034C00094BF234343F00F030B62F30744BF074B42
:1034D0000B64002DA2BF4FF00042054B5A6670BD31
:1034E0002F93000800800040004009403254FFFF45
:1034F00000A00040436D0B42FCD1704708B5436803
:10350000DA0714D58368DB0702D50369D90707D525
:103510000A2350218363FFF7EDFF836C9A07FCD1E8
:10352000012200F500535A6043689B07FCD408BD94
:1035300010B5FFF7E3FF042300F5805100F50052BA
:103540000B6113610B6113610B6113610B611361FB
:10355000202341F2020103610023C36083604161C3
:103560004FF4A0218361836541620549C361036211
:103570008362C36243630365D164036310BD00BF0C
:10358000FF3F0D0338B5174B044698420D4607D050
:10359000154B984204D040F25D111448FEF704FB2D
:1035A00025B92046BDE83840FFF7A8BF012204F541
:1035B00080535A6040F6FF71204605F00F02FFF776
:1035C00099FFA2637821FFF795FF05F001036A07D1
:1035D00048BF43F00203A26C02F003029A42FAD100
:1035E00038BD00BF0000014B00000A407D93000879
:1035F000836C1B06FCD5C06BC0B27047836C5B0646
:10360000FCD541647047836C5A06FCD54164836CD9
:103610001B06FCD5C06B80B2704700002DE9F0415D
:1036200005460C46174622B940F202216D48FEF7C6
:10363000BBFA6D4B9D4200F0C9806C4B9D4200F07F
:10364000CA8040F205216748FEF7AEFA44B96548E2
:103650004FF45571FEF7A8FA2046FEF74BFE0446DC
:10366000AB68D80744D5BC4204D240F20F215D4874
:10367000FEF79AFA6B6803F00108B4FBF7F35C1EDF
:10368000FF2C04D940F217215648FEF78DFAB8F105
:10369000000F2BD028212846FFF72CFFAB6C990791
:1036A0001ED1AB6CDA071DD4AE6C16F002061BD12E
:1036B0004FF409714B48FEF777FA2846FFF71EFFD3
:1036C0002B6923F07F4343EA04632B61B8F1000FB9
:1036D00000F0868031462846BDE8F041FFF752BF32
:1036E0000526EAE70926E8E70626E6E74646E7E78D
:1036F0006B68012B04D040F237213A48FEF754FAA8
:10370000AB6DA968DB0701F0E00148BF7F004029ED
:1037100046D009D8B9B1202938D040F27921BDE886
:10372000F0413048FEF740BA602945D08029F4D1F5
:1037300007EB4703A34204D940F273212948FEF75F
:1037400033FA012308E0B7EB141F04D940F25F21DC
:103750002448FEF729FA10237B436401B4FBF3F3FA
:10376000234E203BB6EBC30F4FEAC30404D24FF401
:1037700021711C48FEF718FA284634400121FFF752
:10378000B9FE2C63BDE8F041FFF7B4BEB7EBD40F30
:1037900004D94FF419711348FEF706FA0823DBE742
:1037A0000626B4FBF6F3BB4204D240F269210D4871
:1037B000FEF7FAF93346CFE7B7EB940F04D940F29E
:1037C0006E210848FEF7F0F90423C5E7002C7FF4CA
:1037D00047AF562041E7002C7FF442AF57203CE72B
:1037E000BDE8F0817D9300080000014B00000A4015
:1037F000F8FF7F00F8B51E46436804460D4617469D
:103800001BB140F6FF71FFF775FE2046FFF790FEF3
:10381000E9896B7B62690B43298A22F44C520B4382
:1038200022F00F0213436361A2682B7E297B22F0F2
:10383000804222F0E202194311436A691143AA68E7
:10384000A1601AB9A26842F00042A260E8690028AB
:1038500062D0A268017A42EA8152A260A268817AAB
:1038600042EA4142A2608288A16802F4C0420A434F
:10387000A260A268417842EA8102A260A268417B0C
:1038800042EAC102A260A268817B42EA0112A26000
:10389000A268817842EA8122A260C27981795202CB
:1038A00042EA8122E260027802F0FD01012908BFAC
:1038B000E168A2F1020204BF41F00401E160012AC3
:1038C0005A495B4A79D88C4275D05A498C420CBF10
:1038D00001214FF0FF3102EB411241F294414FF0D0
:1038E000020C42F801C0427A04F580518A621AB192
:1038F000E26842F40062E260C27A6AB1E2684B496F
:1039000042F40042E260027B8C424B4902F00F021B
:1039100008BF4A67C1F8802047B197F8202004F516
:10392000805C002A58D00122CCF820207EB304F518
:10393000805013B14FF40043836596F821203B4B30
:10394000102A3E4958D89C4254D03A4B9C420CBF56
:1039500001234FF0FF330127CF54768C3349B6F55E
:10396000006F374B56D88C4252D032498C420CBF34
:1039700001214FF0FF3101275F54A36D324323F43F
:10398000F95323F01E031343A36501238365052127
:103990002046FFF7F7FDAA681AB120466968FFF7CD
:1039A0003DFE20462978FFF7EDFDA36CDB4313F4C1
:1039B000405FFAD1F8BD00218DE78C420AD01D4945
:1039C0008C420CBF01214FF0FF3102EB411242F259
:1039D000944184E70021F8E797F82210E06997F80E
:1039E00021200A4320F009010A4342F00102CCF8E9
:1039F0001C209BE70023AEE79C4207D00D4B9C4266
:103A00000CBF01234FF0FF330227A5E70023FBE79C
:103A10000021B0E78C4207D006498C420CBF01213F
:103A20004FF0FF310227A7E70021FBE70000014B21
:103A300000C0034000000A400090034047140020EB
:103A400045140020134B70B5984205460C4606D02D
:103A5000114B984203D070211048FEF7A5F81CB90D
:103A600072210E48FEF7A0F8237B802B03D176212C
:103A70000A48FEF799F8637B032B03D9792107489D
:103A8000FEF792F8002321462846BDE870401A460A
:103A9000FFF7B0BE0000014B00000A407D93000814
:103AA0002A4B70B5984205460C463BD08A212848DF
:103AB000FEF77AF8002C36D09D212548FEF774F8E1
:103AC000637B032B03D9A1212148FEF76DF8237BEB
:103AD000802B03D0A3211E48FEF766F86369B3F17B
:103AE000804F03D0A5211A48FEF75EF8238A23F4FD
:103AF00000539BB2B3F5805F03D0A7211448FEF7B3
:103B000053F8A368013BB3F5165F03D3A92110480E
:103B1000FEF74AF8002321462846BDE870401A46C1
:103B2000FFF768BE31B98C210948FEF73DF8074B15
:103B30009D42C1D15620FEF7E3FC0C28C0D0A0F175
:103B40000903DBB2012BBBD9B6E700BF0000014B74
:103B50007D930008774B70B5984204460D4606D019
:103B6000754B984203D0D6217448FEF71DF81DB955
:103B7000D8217248FEF718F86A7BAB687AB1704AB0
:103B8000934203D9DA216D48FEF70EF82B69D3B1C1
:103B9000DB7BC3B1DD216948FEF706F813E0694A13
:103BA000934203D9E0216548FDF7FEFF2B6953B12D
:103BB0001A7F42B1A968644A5B7F914240F2A080BB
:103BC000042B00F2A08063682E6923B140F6FF71D8
:103BD0002046FFF78FFC2046FFF7AAFC22696B7B8B
:103BE000A97B22F087020B43134343F08003236138
:103BF00016B32A692369117823F0F8030B43117F68
:103C000043EAC113117943EA4113517A43EA01139C
:103C1000D17B43EA81132361E168D2E9053021F0C9
:103C2000F04121F4702103430B43117B527B43EAA3
:103C3000812343EAC233E360A368EA7B23F00303F2
:103C4000134343F00103A3602EB32A69A16853888C
:103C500003F4C0430B43A3605179A36843EA812373
:103C6000A3609379D079616A1B01000203F07003AD
:103C700000F4E06021F4772121F4EE6103430B436B
:103C8000117A527F090301F4E04112040B4302F45C
:103C900070221343636263692A7B23F00F0313438B
:103CA0006361B6B12B695A89A2615A7B3AB1214A44
:103CB00094422AD19A7B254902F00F024A67DA7BA7
:103CC0003AB11C4A94422AD11B7C204A03F00F03CC
:103CD0001367D5E901122046FFF7A0FC0521204615
:103CE000FFF750FC00212046FFF704FC2B78A3636C
:103CF000FFF700FCA36CDB4313F4405FFAD170BD07
:103D0000042B3FF660AFE82145E70B4A944201BF20
:103D10009A7B0E4902F00F02C1F88020CFE7064AD5
:103D2000944201BF1B7CA2F5CE2203F00F03D367A0
:103D3000CFE700BF0000014B00000A407D93000860
:103D4000002D3101809698003F4B4C0000900340BD
:103D500038B50D460446B0B1012816D0022816D059
:103D6000032803D13F23EB40DB0704D440F22B416F
:103D70000848FDF719FF302001214443064B01FAA2
:103D800005F51D5138BDFF23EDE70F23EBE740F2AA
:103D9000FF33E8E78892000840D0034038B50D466D
:103DA0000446B0B1012816D0022816D0032803D14A
:103DB0003F23EB40DB0704D44FF47F710848FDF745
:103DC000F3FE302001214443064B01FA05F51D5155
:103DD00038BDFF23EDE70F23EBE740F2FF33E8E7C1
:103DE0008892000840E0034070B5054614460E4630
:103DF000FFF74CFA296881EA040202EA06044C4003
:103E00002C60BDE87040FFF745BA00002DE9F04195
:103E10000D4617469846044698B3012833D0022829
:103E200033D0032803D13F23EB40DB0704D44FF406
:103E3000B0711C48FDF7B8FE37B129462046B8F1ED
:103E4000000F25D0FFF784FF30260F216643072D92
:103E500088BFA5F10803144895BFAB009B0004364A
:103E60000C3607FA03F299403044FFF7BDFFB7B9AB
:103E700029462046B8F1000F0DD0BDE8F041FFF70C
:103E800067BFFF23D0E70F23CEE740F2FF33CBE736
:103E9000FFF784FFD8E7BDE8F041FFF77FBFBDE83B
:103EA000F08100BFCE93000830C00340054B9A68F4
:103EB0009107FCD45A689207F9D4DA69002AF6D13E
:103EC000704700BF00800A4008B5FFF7EFFF0122EE
:103ED000024B03F580514A601A6108BD00800A4018
:103EE000074B5A68012A0AD15A68D20702D5DA6903
:103EF000002AF9D102221A610122024B5A6070474E
:103F000000800A4000A00A4010B5064CFFF7CEFF23
:103F10006368012B03D1FFF7E3FFFFF7C7FF0378C7
:103F2000E36010BD00800A4018B171211048FDF710
:103F30003BBE4A680B7812B1127843EAC2034A7852
:103F4000002A14BF0222002213438A6812B1127899
:103F500043EA82138A78002A14BF04220022134302
:103F6000CA6812B1127843EA4223024A9364704746
:103F70001D94000800800A4020B14FF4827103486C
:103F8000FDF712BE024B5964704700BF1D94000834
:103F900000900A4020B14FF4A0710348FDF704BE21
:103FA000024B5964704700BF1D94000800A00A40EE
:103FB00020B14FF4BE710348FDF7F6BD024B196402
:103FC000704700BF1D94000800A00A4008B530B13A
:103FD000044840F2B711FDF7E7FD002008BD024B91
:103FE000186CFBE71D94000800800A4008B548B132
:103FF000084840F26621FDF7D7FD002008BD064BBA
:10400000D86CFBE70029FAD00129F7D1024B186DD3
:10401000F4E700BF1D94000800800A4050B14FF43F
:1040200041710748FDF7C0BD064BDA647047054B88
:104030001A6570470029F7D00129F8D0704700BFF2
:104040001D94000800800A4007B5094B18689A883B
:104050009B7900906846ADF804208DF80630FFF794
:10406000DBF90C20FFF710FA002003B05DF804FB29
:104070007B9400084FF0402213B50024536F68462C
:1040800043F00103536700948DF80440FFF716F9DD
:10409000204602B010BD000008B50248FFF76AF8DC
:1040A000002008BD00B4C40470B586B001AA15464E
:1040B000174B03F11006144618685968083303C4F7
:1040C000B3422246F7D11868124B2060D3F84C2136
:1040D000120314D4D3F85041E4B28DF80E40FEF729
:1040E0003BFC204480F308008DF80D000A48FDF7E2
:1040F00017FC2846FEF72CFB002006B070BD074BCE
:104100001C884FF6FF739C4208BF8C24E5E700BF74
:10411000829400080080E00FC01753020001E00FF6
:104120001FB50B4A01AB1068516803C31189927A1D
:1041300019809A703F2301A88DF80530FEF712FC14
:104140006420FEF771FC002005B05DF804FB00BFA1
:10415000969400086FF00402502110B50A480B4CE9
:1041600012F0800FD3B21BBF03F00F03043BA31860
:104170001B1802F101020CBF83F8001319764C2AB8
:10418000EED1002010BD00BF00ED00E000E100E036
:1041900010B50446FFF77AF8024B1C60FFF77AF877
:1041A000002010BD4C14002010B5FFF76FF8034B32
:1041B0001C68FFF76FF8204610BD00BF4C140020AC
:1041C00007B530B9CDE90012FFF7EEFFDDE90012C7
:1041D00030B1436823B1006803B05DF804EB1847C1
:1041E000232003B05DF804FB30B51C4685B058B9F8
:1041F000CDE90012FFF7D8FFDDE9001204B903ACE6
:1042000020B9232005B030BD03B903AC8568002D6B
:10421000F7D023460068A847F4E70422C36A03F5F1
:1042200080531A65704710B50446C26A936C5906EC
:10423000FCD50023616B1A4694F83200FFF7E6FDC7
:104240000023E16B1A4694F83800FFF7DFFD94F87D
:104250005030DA0706D50023616C1A4694F8400006
:10426000FFF7D4FD94F850309B0706D50023E16C8E
:104270001A4694F84800FFF7C9FDE06A0021FFF7ED
:1042800081F9208E0021FEF709F8002010BD08B545
:10429000C06AFFF7B3F9002008BD00002DE9F04126
:1042A0008AB01C4606AB06468846184617460021CB
:1042B0001022109D01F0A0FC227903460AB18DF86E
:1042C0001820FB6163793046002B14BF01230223C1
:1042D000CDE903336A4B424602936A4B2946019368
:1042E00000230093684B00F0BFF90646002840F019
:1042F0009880E38801212B86A3693A20EB63237D14
:1043000085F8383023696B63237B85F83230236A64
:104310006B64237F85F84030A36AEB6494F8243003
:1043200085F848302368EB62FDF7B8FF01230422CB
:104330002169207BFFF76AFD01230222A169207D0C
:10434000FFF764FD3E7085F850600121E088FDF7BD
:10435000A5FF63793BBB01213620FDF79FFF0A21B2
:10436000E088FEF71BFC39462068FFF799FB102117
:10437000A268464B276903EB4210C0F89414217BD6
:10438000253241EA0741C0F8AC14217DA06903EB56
:10439000421341EA004159602379032B6DD8DFE8CD
:1043A00003F0351A446405214FF44060FEF7F6FB34
:1043B000E388562B04D112214FF4A060FEF7EEFBE8
:1043C00039462068FFF73EFB95F8503043F0040370
:1043D00085F85030CBE795F8503043F0010385F86D
:1043E0005030002500230222216A207FFFF70EFDB6
:1043F000216A227FA36842EA014241F29C415B01AB
:1044000003F1804303F570335A50A5B904232068A3
:10441000052100F50052D36400F580521365FFF7C3
:10442000B1F830460AB0BDE8F08195F8503043F05D
:10443000020385F8503000230422A16A94F8240076
:10444000FFF7E4FC41F294420221A3685B0103F10F
:10445000804303F57033995094F82420A16A03F542
:10446000A55342EA01421A60D0E795F8503043F074
:10447000030385F850300125B4E72326D1E700BFB8
:10448000274200081B4200088F42000800C003407A
:10449000C26A10B5136DD26C044613405B070ED58B
:1044A00000F038F960B1E06AFFF7A2F80146204653
:1044B00000F040F90422E36A03F50053DA6410BD0A
:1044C0000422E36A03F500531A65F8E700207047F9
:1044D000FEE74FF4005300204B6070470120704707
:1044E000012070474FF0FF3070470020704707B53C
:1044F000002001AB0190FFF777FE0198002808BF6C
:104500004FF0FF3003B05DF804FB000010B5002051
:104510001446FFF755FE18B1BF210248FDF744FBD2
:10452000204610BDA194000880F82410704790F830
:104530002400704770B504460568FFF735FE8442D5
:1045400002D10020FFF724FE95F92830002B11DB63
:10455000012203F01F015B099B0003F160438A40C5
:1045600003F56143C3F88021C3F88020BFF34F8F68
:10457000BFF36F8F00232846C4E90033C4E9043336
:10458000A360EB68BDE87040184790F8243070B520
:1045900005460C468E18E3B9A6420AD095F8263097
:1045A000002BF9D028462B6814F8011B98470028E7
:1045B000F2D070BD95F826305BB123780A2B03D179
:1045C0000D2128462B68984728462B6814F8011BB4
:1045D0009847A642EED1ECE72DE9F7434FF00009EA
:1045E000044690461E46C3F800904F1E336843456C
:1045F00005D2FEF752FEA269C2B9FEF754FE94F846
:1046000027305BB91123012220460DF107018DF8F7
:104610000730FFF7BAFF012384F827303368002BF7
:104620000CBF1B20002003B0BDE8F083E1692269C4
:104630008A5C07F8012F2569226A0135954208BF77
:104640004D46A2692561013AA261FEF72CFEA368DE
:1046500020469847336801333360C7E708B5FFF752
:1046600094FF002008BD0000F8B51F4653680546BA
:104670000C461646002B3ED09368002B3DD02C22D2
:104680000021204601F0B8FA73681D4AE361B3685F
:104690002362337B84F82430B37B276084F8253091
:1046A00040F20113E384069B6360079BA360089BB1
:1046B000E36096F9003084F828306A60114A002BD4
:1046C000AA60114A2C602A61104A6A61104AEA60A5
:1046D0000CDB012203F01F015B099B0003F1604327
:1046E0008A4003F56143C3F880211A602846FFF72A
:1046F0004FFD0020F8BD2220FCE72120FAE700BF93
:104700005D460008D9450008294500082F450008E6
:104710003545000810B50446FEF7BFFDA269236ABF
:104720009A4203D2FEF7BFFD012010BDFEF7BBFD8C
:104730000020FAE773B504460D46FEF7AEFD94F887
:10474000253006466BB1132D07D1002384F826309F
:1047500002B0BDE87040FEF7A6BD112D01D10123C6
:10476000F4E7A269236A9A4204D34FF4B271134862
:10477000FDF71AFA6369E2693046D554A2696369A4
:104780000132A261226A01339342636104BF0023B4
:104790006361FEF788FDA269236A9A420BD1132355
:1047A000012220460DF107018DF80730FFF7EDFEDD
:1047B000002384F8273002B070BD00BF0E950008BA
:1047C00000230B707047000030B50F4C4161236827
:1047D000ABB92060836011E0891A9A681D46416177
:1047E0002AB113465A698A42F6D955B11A46134678
:1047F000A860836013B15A69511A596130BD002510
:10480000F0E72060F5E700BF6814002010B500F065
:1048100079FA0A4C0A4B19682368C31A01B10BB91B
:10482000206010BD4A699A423ABF9B1A0022D21AF0
:104830004A6128BF00238968F0E700BF54140020B4
:104840006814002038B5134D2B685B6993B1124A88
:10485000022014681C4400F061FA204600F068FA57
:1048600000230E492A680B70D088800709D50123E0
:104870000B7038BD022000F051FA022000F0A0FABF
:10488000EEE79268002AF4D050690344012BEBD97B
:10489000EFE700BF68140020541400205C140020CF
:1048A00070B516469DF81420C0E903360271049ACB
:1048B000BDF8183002600022C380826004460D46B5
:1048C00000F020FA3044A0613DB9E368656113B19E
:1048D00020462168984796B13546FEF7D7FC064634
:1048E000FFF794FF29462046FFF76EFF054B1B6834
:1048F000A34201D1FFF7A6FF3046FEF7CBFC002014
:1049000070BD00BF6814002000220C490B687BB109
:1049100083420AD183687AB1936083681BB15A6974
:1049200041690A445A61002070471A469B68EEE7C5
:104930000028EFD0022070470B60EEE768140020DB
:1049400070B5FEF7AAFC144E05463478FCB9134B3B
:104950001C60134B1C60134B1C8000F0A1F901205C
:1049600000F0DCF900F04EFA0F4B0246186020B957
:104970002846FEF798FC232070BD234640F2E7311D
:104980000A4800F05FFF0A4B186001233370284685
:10499000FEF789FC0020EFE7501400206814002087
:1049A000541400205E1400206414002018FCFFFF43
:1049B000581400202DE9F0410546F8B1FEF766FCD9
:1049C0000F4F0646FFF722FF2846D7F80080FFF773
:1049D0009BFF044628B13046FEF75CFC2046BDE84C
:1049E000F081A8453B6803D123B1FFF72BFFF2E725
:1049F000002BF0D1022000F0CDF9ECE72224EDE706
:104A00006814002038B50C46054698B191B10023D2
:104A10000B70FEF742FC0121074B1B680BB122789B
:104A20001AB1FEF740FC002038BDAB4214BF9B68B2
:104A30002170F3E72220F7E768140020F0B51F4645
:104A4000002387B00D46164604468DF81730A0B1F6
:104A50000DF11701FFF7D6FF9DF817207AB9BDF8C1
:104A60003430294602939DF830302046CDE900735A
:104A70003346FFF715FF07B0F0BD2220FBE7032008
:104A8000F9E7F0B51F46002387B00D4616460446E9
:104A90008DF81730A8B10DF11701FFF7B3FF9DF89E
:104AA000173083B9BDF834302A4602939DF8303070
:104AB0002946CDE9007320463346FFF7F1FE07B0E3
:104AC000F0BD2220FBE70220F9E70000044B1B6841
:104AD00058434FF47A7300F2E730B0FBF3F07047BD
:104AE00064140020012300B58BB08DF80B30FFF764
:104AF000EDFF00230146CDE90033074A0DF10B031A
:104B000003A8FFF79BFF18B99DF80B30002BFBD1D2
:104B10000BB05DF804FB00BFC14700080C4B70B53B
:104B20001B680D46834211D340F2E73100248C46C6
:104B30002146084B4FF47A721E680023E0FB06C141
:104B4000604600F07FFE2860204670BD2120FCE713
:104B50005814002064140020C2072DE9F84F0446C1
:104B60000BD5464A138801339BB21380FFF74EFEE4
:104B7000434B1B680BB1FFF765FEA3077CD5FEF71F
:104B80008CFB4FF0000A05465646FFF73FFED04625
:104B90003B4FDFF8F4903C680CB163698BB10022A5
:104BA000384B012E1A7003D1BAF1020F08BF1E70E4
:104BB000002C51D0FFF746FE2846BDE8F84FFEF71F
:104BC00072BB23461A792179914288BF1C469B68A3
:104BD00013B15A69002AF5D02846FEF764FBD4F8D1
:104BE00010A0BAF1000F3BD000F08CF8A269851A32
:104BF000EB17AA4578EB030333DA23691344012248
:104C0000A3612369D3B1CAB9EB17BAEB050563EB0E
:104C10004303002B04DA40F202414846FCF7C4FF8C
:104C2000FEF73BFB824629462046FFF7CDFDA369F0
:104C3000226950461344A361FEF735FBE368B4F8DC
:104C400006A0013613B1204621689847FEF725FBE0
:104C50000546FFF7DBFD9EE7022000F09BF8ABE77F
:104C60005546FEF71AFB83462046FFF74DFE584691
:104C7000FEF719FB0022C4E7BDE8F88F5E140020A0
:104C8000681400206014002071950008034B5A68D6
:104C9000D20702D5DA69002AF9D1704700800A40AC
:104CA00010B50121002486B03E20ADF80810CDE9F2
:104CB00003448DF804408DF80A400594FDF7EEFAA0
:104CC00001A8FFF721F9204602A98DF80840FFF757
:104CD0002BF920460F21FFF75DF90F212046FFF742
:104CE00067F9FFF7F1F8FFF7D1FF0822034B9C614A
:104CF000034BC3F888219A6006B010BD00800A40BB
:104D000000E100E008B5FFF7C1FF014B986908BD5D
:104D100000800A4000210846FFF768B900F0010151
:104D2000830748BF41F002010020FFF725B90000CA
:104D300070B5FFF7ABFF154B04469D69FFF7EAFF1F
:104D400006460020FFF742F9830704D4731B032BA8
:104D500001D8AE420FD10021631B022B98BFEC1C7F
:104D60000846B4F1FF3F2CBF2246621EFFF756F9FA
:104D70000220FFF7D3FF064A137833B103498B6C47
:104D800043F001038B640023137070BD00800A4060
:104D900020100020830700F0010109D50122064BF5
:104DA00041F002011A70054A936C23F001039364E9
:104DB0000020FFF7EFB800BF2010002000800A405D
:104DC000830742BF0222014B1A64704700900A40D9
:104DD00038B5FEF762FA04460020FFF7F7F88307BC
:104DE00000F0010548BF45F0020500F00301002076
:104DF000FFF7DEF82846FFF7AFFE2046BDE8384053
:104E0000FEF751BA3E20FDF775BA08B5FBF7FDFB7A
:104E1000FBF710FCFBF710FCFBF717FCBDE80840A4
:104E2000FBF714BC08B5FBF712FCFBF711FCFBF712
:104E300010FCBDE80840FBF70DBC000010B50446AF
:104E4000FCF752FD4FF47A729042B0FBF2F105D2BA
:104E50003621BDE810400C48FCF7A6BE0B4BB3FB57
:104E6000F1F30B49884201D93C21F2E702FB04F03F
:104E7000B0FBF3F0022806D9BDE810400323B0FBD5
:104E8000F3F000F00DB810BDD395000840420F00BC
:104E9000E7CD9A3B00000000000000000000000089
:104EA000013800D0FCE7704781F0004102E000BF0C
:104EB00083F0004330B54FEA41044FEA430594EADA
:104EC000050F08BF90EA020F1FBF54EA000C55EA15
:104ED000020C7FEA645C7FEA655C00F0E2804FEAE6
:104EE0005454D4EB5555B8BF6D420CDD2C4480EAC8
:104EF000020281EA030382EA000083EA010180EAF8
:104F0000020281EA0303362D88BF30BD11F0004F45
:104F10004FEA01314FF4801C4CEA113102D040427B
:104F200061EB410113F0004F4FEA03334CEA1333B6
:104F300002D0524263EB430394EA050F00F0A780CE
:104F4000A4F10104D5F1200E0DDB02FA0EFC22FAC9
:104F500005F2801841F1000103FA0EF2801843FABD
:104F600005F359410EE0A5F120050EF1200E012AAE
:104F700003FA0EFC28BF4CF0020C43FA05F3C018EC
:104F800051EBE37101F0004507D54FF0000EDCF165
:104F9000000C7EEB00006EEB0101B1F5801F1BD30E
:104FA000B1F5001F0CD349085FEA30004FEA3C0C12
:104FB00004F101044FEA445212F5800F80F09A8008
:104FC000BCF1004F08BF5FEA500C50F1000041EB0C
:104FD000045141EA050130BD5FEA4C0C404141EB10
:104FE0000101013C28BFB1F5801FE9D291F0000F0B
:104FF00004BF01460020B1FA81F308BF2033A3F1BA
:105000000B03B3F120020CDA0C3208DD02F1140CB0
:10501000C2F10C0201FA0CF021FA02F10CE002F1EB
:105020001402D8BFC2F1200C01FA02F120FA0CFCE4
:10503000DCBF41EA0C019040E41AA2BF01EB04512D
:10504000294330BD6FEA04041F3C1CDA0C340EDC2B
:1050500004F11404C4F1200220FA04F001FA02F36E
:1050600040EA030021FA04F345EA030130BDC4F12C
:105070000C04C4F1200220FA02F001FA04F340EA21
:105080000300294630BD21FA04F0294630BD94F0D2
:10509000000F83F4801306BF81F480110134013DB9
:1050A0004EE77FEA645C18BF7FEA655C29D094EA2A
:1050B000050F08BF90EA020F05D054EA000C04BFA8
:1050C0001946104630BD91EA030F1EBF0021002093
:1050D00030BD5FEA545C05D14000494128BF41F032
:1050E000004130BD14F580043CBF01F5801130BD96
:1050F00001F0004545F0FE4141F470014FF0000021
:1051000030BD7FEA645C1ABF194610467FEA655CD1
:105110001CBF0B46024650EA013406BF52EA033573
:1051200091EA030F41F4002130BD00BF90F0000F61
:1051300004BF0021704730B54FF4806404F132049D
:105140004FF000054FF0000150E700BF90F0000F56
:1051500004BF0021704730B54FF4806404F132047D
:1051600010F0004548BF40424FF000013EE700BF4D
:1051700042004FEAE2014FEA31014FEA02701FBFDD
:1051800012F07F4393F07F4F81F06051704732F00F
:105190007F4208BF704793F07F4F04BF41F4002166
:1051A000704730B54FF4607401F0004521F00041C4
:1051B0001CE700BF50EA010208BF704730B54FF04E
:1051C00000050AE050EA010208BF704730B511F04F
:1051D000004502D5404261EB41014FF4806404F187
:1051E00032045FEA915C3FF4D8AE4FF003025FEA0D
:1051F000DC0C18BF03325FEADC0C18BF033202EB91
:10520000DC02C2F1200300FA03FC20FA02F001FAEA
:1052100003FE40EA0E0021FA02F11444BDE600BF8D
:1052200070B54FF0FF0C4CF4E06C1CEA11541DBF3C
:105230001CEA135594EA0C0F95EA0C0F00F0DEF807
:105240002C4481EA030621EA4C5123EA4C5350EAEC
:10525000013518BF52EA033541F4801143F480133D
:1052600038D0A0FB02CE4FF00005E1FB02E506F0CE
:105270000042E0FB03E54FF00006E1FB03569CF023
:10528000000F18BF4EF0010EA4F1FF04B6F5007F29
:1052900064F5407404D25FEA4E0E6D4146EB06069B
:1052A00042EAC62141EA55514FEAC52040EA5E5024
:1052B0004FEACE2EB4F1FD0C88BFBCF5E06F1ED8CE
:1052C000BEF1004F08BF5FEA500E50F1000041EB05
:1052D000045170BD06F0004646EA010140EA0200B2
:1052E00081EA0301B4EB5C04C2BFD4EB0C0541EAD4
:1052F000045170BD41F480114FF0000E013C00F3E9
:10530000AB8014F1360FDEBF002001F0004170BD0C
:10531000C4F10004203C35DA0C341BDC04F1140425
:10532000C4F1200500FA05F320FA04F001FA05F2B1
:1053300040EA020001F0004221F0004110EBD3707E
:1053400021FA04F642EB06015EEA430E08BF20EAAA
:10535000D37070BDC4F10C04C4F1200500FA04F34D
:1053600020FA05F001FA04F240EA020001F00041DF
:1053700010EBD37041F100015EEA430E08BF20EA52
:10538000D37070BDC4F1200500FA05F24EEA020E9A
:1053900020FA04F301FA05F243EA020321FA04F0C9
:1053A00001F0004121FA04F220EA020000EBD37080
:1053B0005EEA430E08BF20EAD37070BD94F0000F80
:1053C0000FD101F00046400041EB010111F4801FB4
:1053D00008BF013CF7D041EA060195F0000F18BF65
:1053E000704703F00046520043EB030313F4801FA1
:1053F00008BF013DF7D043EA0603704794EA0C0F5B
:105400000CEA135518BF95EA0C0F0CD050EA410670
:1054100018BF52EA4306D1D181EA030101F00041ED
:105420004FF0000070BD50EA410606BF1046194615
:1054300052EA430619D094EA0C0F02D150EA013621
:1054400013D195EA0C0F05D152EA03361CBF104662
:1054500019460AD181EA030101F0004141F0FE4101
:1054600041F470014FF0000070BD41F0FE4141F485
:10547000780170BD70B54FF0FF0C4CF4E06C1CEA85
:1054800011541DBF1CEA135594EA0C0F95EA0C0F3A
:1054900000F0A7F8A4EB050481EA030E52EA0335F5
:1054A0004FEA013100F088804FEA03334FF0805516
:1054B00045EA131343EA12634FEA022245EA111543
:1054C00045EA10654FEA00260EF000419D4208BFF4
:1054D000964244F1FD0404F5407402D25B084FEAA1
:1054E0003202B61A65EB03055B084FEA32024FF44D
:1054F00080104FF4002CB6EB020E75EB030E22BFAA
:10550000B61A754640EA0C005B084FEA3202B6EB69
:10551000020E75EB030E22BFB61A754640EA5C0018
:105520005B084FEA3202B6EB020E75EB030E22BFA8
:10553000B61A754640EA9C005B084FEA3202B6EBA9
:10554000020E75EB030E22BFB61A754640EADC0068
:1055500055EA060E18D04FEA051545EA16754FEACA
:1055600006164FEAC30343EA52734FEAC2025FEAE8
:105570001C1CC0D111F4801F0BD141EA00014FF077
:1055800000004FF0004CB6E711F4801F04BF014348
:105590000020B4F1FD0C88BFBCF5E06F3FF6AFAE64
:1055A000B5EB030C04BFB6EB020C5FEA500C50F1F4
:1055B000000041EB045170BD0EF0004E4EEA113177
:1055C00014EB5C04C2BFD4EB0C0541EA045170BD7E
:1055D00041F480114FF0000E013C90E645EA060EC2
:1055E0008DE60CEA135594EA0C0F08BF95EA0C0FF0
:1055F0003FF43BAF94EA0C0F0AD150EA01347FF438
:1056000034AF95EA0C0F7FF425AF104619462CE70E
:1056100095EA0C0F06D152EA03353FF4FDAE104671
:10562000194622E750EA410618BF52EA43067FF4C2
:10563000C5AE50EA41047FF40DAF52EA43057FF452
:10564000EBAE12E74FF0FF3C06E000BF4FF0010C5D
:1056500002E000BF4FF0010C4DF804CD4FEA410CC1
:105660007FEA6C5C4FEA430C18BF7FEA6C5C1BD08E
:1056700001B050EA410C0CBF52EA430C91EA030F0F
:1056800002BF90EA020F0020704710F1000F91EA6C
:10569000030F58BF994208BF90422CBFD8176FEA3A
:1056A000E37040F0010070474FEA410C7FEA6C5C08
:1056B00002D150EA013C07D14FEA430C7FEA6C5C0F
:1056C000D6D152EA033CD3D05DF8040B704700BF3B
:1056D0008446104662468C461946634600E000BF89
:1056E00001B5FFF7B7FF002848BF10F1000F01BD5B
:1056F0004DF808EDFFF7F4FF0CBF012000205DF826
:1057000008FB00BF4DF808EDFFF7EAFF34BF0120AA
:1057100000205DF808FB00BF4DF808EDFFF7E0FF43
:1057200094BF012000205DF808FB00BF4DF808ED94
:10573000FFF7CEFF94BF012000205DF808FB00BFFB
:105740004DF808EDFFF7C4FF34BF012000205DF8DD
:1057500008FB00BF4FEA410212F5001215D211D525
:105760006FF47873B3EB625212D94FEAC12343F05E
:10577000004343EA505311F0004F23FA02F018BFE0
:10578000404270474FF00000704750EA013005D1A9
:1057900011F0004008BF6FF0004070474FF000006C
:1057A000704700BF4FEA4102B2F1E04324BFB3F5B6
:1057B000001CDCF1FE5C0DD901F0004C4FEAC00288
:1057C0004CEA5070B2F1004F40EB830008BF20F06C
:1057D0000100704711F0804F21D113F13872BCBF26
:1057E00001F00040704741F480114FEA5252C2F17B
:1057F0001802C2F1200C10FA0CF320FA02F018BFC4
:1058000040F001004FEAC1234FEAD32303FA0CFC16
:1058100040EA0C0023FA02F34FEA4303CCE77FEAA5
:10582000625307D150EA01331EBF4FF0FE4040F4EF
:105830004000704701F0004040F0FE4040F400009E
:10584000704700BF53B94AB9002908BF00281CBFE0
:105850004FF0FF314FF0FF3000F082B9ADF1080C8E
:105860006DE904CE00F006F8DDF804E0DDE902237E
:1058700004B070472DE9F04F099D04460F46002BF8
:1058800048D18A42944661D9B2FA82F343B1C3F156
:1058900020019F4002FA03FC9C4020FA01F10F43D3
:1058A0004FEA1C411FFA8CFE220CB7FBF1F601FBFC
:1058B000167706FB0EF042EA0742904208D91CEB2D
:1058C000020206F1FF3702D2904200F237813E46D3
:1058D000121AA4B2B2FBF1F001FB102200FB0EFE83
:1058E00044EA0244A64508D91CEB040400F1FF3247
:1058F00002D2A64500F21C81104640EA0640A4EB05
:105900000E0400261DB1DC400023C5E900433146EA
:10591000BDE8F08F8B4209D9002D00F0FD800026F4
:10592000C5E9000130463146BDE8F08FB3FA83F691
:10593000002E4BD18B42C0F0F280824240F2EF80C9
:105940003046002DE3D0C5E90047E0E702B9FFDEAD
:10595000B2FA82F3002B40F09D80891A4FEA124E72
:1059600097B20126200CB1FBFEF20EFB121140EAA9
:10597000014107FB02F088420FD91CEB010102F143
:10598000FF382CBF4FF001094FF00009884203D9BE
:10599000B9F1000F00F0CF804246091AA4B2B1FB62
:1059A000FEF00EFB101100FB07F744EA0144A7428A
:1059B00008D91CEB040400F1FF3102D2A74200F227
:1059C000B4800846E41B40EA02409BE7C6F120078A
:1059D000B34001FA06F422FA07FCF940B2404CEA5F
:1059E000030C20FA07F34FEA1C491C431FFA8CFEF4
:1059F00000FA06F3200CB1FBF9F809FB181140EA94
:105A0000014108FB0EF088420FD91CEB010108F19F
:105A1000FF3A2CBF4FF0010B4FF0000B884203D927
:105A2000BBF1000F00F08D80D046091AA4B2B1FB83
:105A3000F9F009FB101100FB0EFE44EA01418E450E
:105A400007D91CEB010100F1FF3401D28E457FD84C
:105A5000204640EA0840A1EB0E01A0FB0298414518
:105A60004C46C64602D306D14B4504D20138B9EBA9
:105A7000020468EB0C0E002D70D01A1B61EB0E01B6
:105A800022FA06F301FA07F7F14000261F43C5E9A1
:105A900000713CE702FA03FCC3F1200001FA03F2B3
:105AA00021FA00F64FEA1C4E24FA00F11FFA8CF797
:105AB0009C401143B6FBFEF00A0C0EFB106642EA56
:105AC000064200FB07F696420ED91CEB020200F1DB
:105AD000FF382CBF4FF001094FF00009964202D960
