:020000040000fa
:080000000001040000000000f3
:020000040000fa
:04000800e20400000e
:020000040000fa
:04000c0024050000c7
:020000040000fa
:040010006405000083
:020000040000fa
:0400140002050000e1
:020000040000fa
:04001800440500009b
:020000040000fa
:04001c002e060000ac
:020000040000fa
:040020002e060000a8
:020000040000fa
:040024002e060000a4
:020000040000fa
:040028002e060000a0
:020000040000fa
:04002c002e0600009c
:020000040000fa
:040030002e06000098
:020000040000fa
:04003400be05000005
:020000040000fa
:040038002e06000090
:020000040000fa
:04003c002e0600008c
:020000040000fa
:040040002e06000088
:020000040000fa
:040044002e06000084
:020000040000fa
:040048002e06000080
:020000040000fa
:04004c002e0600007c
:020000040000fa
:040050002e06000078
:020000040000fa
:04005400f4050000af
:020000040000fa
:040058002e06000070
:020000040000fa
:04005c002e0600006c
:020000040000fa
:040060002e06000068
:020000040000fa
:040064002e06000064
:020000040000fa
:040068002e06000060
:020000040000fa
:04006c005c02000032
:020000040000fa
:040070002e06000058
:020000040000fa
:0400740084050000ff
:020000040000fa
:040078002e06000050
:020000040000fa
:04007c002e0600004c
:020000040000fa
:040080002e06000048
:020000040000fa
:040084002e06000044
:020000040000fa
:040088002e06000040
:020000040000fa
:04008c002e0600003c
:020000040000fa
:040090002e06000038
:020000040000fa
:040094002e06000034
:020000040000fa
:040098002e06000030
:020000040000fa
:04009c002e0600002c
:020000040000fa
:0400a0002e06000028
:020000040000fa
:0400a4002e06000024
:020000040000fa
:0400a8002e06000020
:020000040000fa
:0400ac002e0600001c
:020000040000fa
:0400b0002e06000018
:020000040000fa
:0400b4002e06000014
:020000040000fa
:0400b8002e06000010
:020000040000fa
:0400bc002e0600000c
:020000040000fa
:0400c0002e06000008
:020000040000fa
:0400c4002e06000004
:020000040000fa
:0400c8002e06000000
:020000040000fa
:0400cc002e060000fc
:020000040000fa
:0400d0002e060000f8
:020000040000fa
:0400d4002e060000f4
:020000040000fa
:0400d8002e060000f0
:020000040000fa
:0400dc002e060000ec
:020000040000fa
:0400e0002e060000e8
:020000040000fa
:0400e4002e060000e4
:020000040000fa
:0400e8002e060000e0
:020000040000fa
:0400ec002e060000dc
:020000040000fa
:0400f0002e060000d8
:020000040000fa
:0400f4002e060000d4
:020000040000fa
:0400f8002e060000d0
:020000040000fa
:0400fc002e060000cc
:020000040000fa
:040100002e060000c7
:020000040000fa
:040104002e060000c3
:020000040000fa
:040108002e060000bf
:020000040000fa
:04010c002e060000bb
:020000040000fa
:040110002e060000b7
:020000040000fa
:040114002e060000b3
:020000040000fa
:040118002e060000af
:020000040000fa
:04011c002e060000ab
:020000040000fa
:040120002e060000a7
:020000040000fa
:040124002e060000a3
:020000040000fa
:040128002e0600009f
:020000040000fa
:04012c002e0600009b
:020000040000fa
:040130002e06000097
:020000040000fa
:040134002e06000093
:020000040000fa
:040138002e0600008f
:020000040000fa
:04013c002e0600008b
:020000040000fa
:040140002e06000087
:020000040000fa
:040144002e06000083
:020000040000fa
:040148002e0600007f
:020000040000fa
:04014c002e0600007b
:020000040000fa
:040150002e06000077
:020000040000fa
:040154002e06000073
:020000040000fa
:040158002e0600006f
:020000040000fa
:04015c002e0600006b
:020000040000fa
:040160002e06000067
:020000040000fa
:040164002e06000063
:020000040000fa
:040168002e0600005f
:020000040000fa
:04016c002e0600005b
:020000040000fa
:040170002e06000057
:020000040000fa
:040174002e06000053
:020000040000fa
:040178002e0600004f
:020000040000fa
:04017c002e0600004b
:020000040000fa
:040180002e06000047
:020000040000fa
:040184002e06000043
:020000040000fa
:040188002e0600003f
:020000040000fa
:04018c002e0600003b
:020000040000fa
:040190002e06000037
:020000040000fa
:040194002e06000033
:020000040000fa
:040198002e0600002f
:020000040000fa
:04019c002e0600002b
:020000040000fa
:0401a0002e06000027
:020000040000fa
:0401a4002e06000023
:020000040000fa
:0401a8002e0600001f
:020000040000fa
:0401ac002e0600001b
:020000040000fa
:0401b0002e06000017
:020000040000fa
:0401b4002e06000013
:020000040000fa
:0401b8002e0600000f
:020000040000fa
:0401bc002e0600000b
:020000040000fa
:0401c0002e06000007
:020000040000fa
:0401c4002e06000003
:020000040000fa
:0401c8002e060000ff
:020000040000fa
:0401cc002e060000fb
:020000040000fa
:0401d0002e060000f7
:020000040000fa
:0401d4002e060000f3
:020000040000fa
:0401d8002e060000ef
:020000040000fa
:0401dc002e060000eb
:020000040000fa
:0401e0002e060000e7
:020000040000fa
:0401e4002e060000e3
:020000040000fa
:0401e8002e060000df
:020000040000fa
:0401ec002e060000db
:020000040000fa
:0401f0002e060000d7
:020000040000fa
:0401f4002e060000d3
:020000040000fa
:0401f8002e060000cf
:020000040000fa
:0401fc002e060000cb
:020000040000fa
:10020000ef1721000e7f24000e018800000000007f
:10021000000020000000e000020032000001200089
:100220002002880014000700c40207000000e0005c
:1002300003003a00c03e2c000100200002003700fd
:100240000000200001002000810f7000010032003a
:1002500014000700000020000000e000020032004f
:100260000000020000000000e0ac020000000000fe
:100270000040da000000fe004440a900204a2100ae
:100280000000e00003003200002020009001880000
:100290004440a800000006008a1f78008b1f7800e9
:1002a00000000600a1028800800478000000eb0036
:1002b0001f003700e284440054a0b4009905ba003e
:1002c000e284440054a0b4009906ba00e2844400d9
:1002d00054a0b4000006eb00476fde00fd07b2003b
:1002e000ae018800636ce10003003a00eaff0700fa
:1002f0000000eb000e003700606ce10008003a00df
:10030000004deb000a05e800020039003420ec0043
:100310000af0a0008b05e900f9ff3e000400370059
:100320006168e100010032000086eb000b0007006d
:1003300019c7ba001905ba000e04e00003003a001c
:100340000a00e000dbff3a0000000600fe07b200f2
:10035000ae0288008a047800f5ff37000cd0a300b5
:10036000e20f4d001c00390089027800354dba00bb
:100370000a05e800020039003420ec000af0a00071
:100380008b05e9000f003200254dba000a05e80090
:10039000020039003420ec000af0a0008b05e900cf
:1003a000080032000c00e0000600320015cdba0053
:1003b0000a05e800020039003420ec000af0a00031
:1003c0008b05e9008984e80054a0b4000b00e0002c
:1003d000e2ff3a00000006009902ba00055d7800cd
:1003e0008b05e900f7ff3200c82ade00055d7800c2
:1003f0008b05e900f3ff32000c00e000f1ff320052
:1004000019ddba00eeff370052ba04000000000008
:10041000c6ba040000000000f2aa040000000000b8
:100420001acb0400000000003aca040000000000db
:1004300066aa04000000000050aa040000000000aa
:100440001eaa04000000000066ab040000000000cb
:100450004aaa040000000000c0c20400000000001e
:1004600022c204000000000066c204000000000078
:10047000d2c304000000000078c3040000000000a4
:1004800028a7040000000000caa704000000000024
:1004900010a70400000000001ca7040000000000da
:1004a000d81a040000000000ae160400000000008e
:1004b00024120400000000003600f800809fbe00f7
:1004c000829fbe00849fbe00869fbe000000fa008f
:1004d0008a20a900f124800000082000008060002c
:1004e0000000e000090032009ee4a9000828ef00a7
:1004f0007040800064004000100078008000eb0035
:10050000010878000e28ef002701370040408000e6
:100510008000eb00b200200003002000820f50009a
:10052000838f580014013e00006001000b0037006b
:100530004700370087003700b00037000b01370055
:10054000de003700f100370008013700f300370004
:1005500009013700420037006000370000802000aa
:100560006400400010007800620060000000e000bd
:100570000c013a00008020000080e80010007800a4
:1005800070408800008020000080e80010007800a3
:10059000104078000ae8b700008020000080e800e2
:1005a000100078000080e8001000780060408800ab
:1005b000008020000080e80010007800e600400085
:1005c000008020000080e800010878000080200002
:1005d0000080e80090007800e0152100808f500036
:1005e00004003a0000802000811521000080e8000e
:1005f0000108780000802000e400400091007800ad
:100600000100a10064004000010878000080200083
:100610000080e80090007800008020001000780042
:10062000808f500006003a0000802000e400400067
:10063000910078000110a0006400400001087800db
:100640009a04a8002000200040408800d60037000f
:100650009a24a8002000200040408800d2003700e3
:10066000f124800000002800008060000000e0000d
:100670000a00320000802000660040001040780030
:100680008040e800008020006600400001487800bb
:1006900040002000845e0700c300370080408000d7
:1006a0008000d100f00f200000806000b02488009e
:1006b0008040800061006000004078000004e0009d
:1006c00003003200b000200040408800b600370030
:1006d0003000200040408800b3003700f124800043
:1006e00000002800008060000000e0000a003200e6
:1006f0000080200066004000104078008040e80044
:100700000080200066004000014878004000200082
:10071000655e0700a40037009a24a800804080008e
:100720004800de00e6006000000f200001007000bd
:1007300080408800804080000000a0008040880049
:1007400010c0b30012e8b70020002000404088002d
:100750009500370012c8bf00e14f50000c00320076
:100760006040800010007800804088006040800079
:100770006400400010007800a040880060408000c5
:100780000080e8001040780016e8b700010037004c
:100790001268ef0081408000f00f2000808f500031
:1007a00009003600804080004800de00e60060005e
:1007b000000f200001007000b0248800a00020007d
:1007c000404088007800370080408000b0248800d6
:1007d0008040800061006000004078000004e0007c
:1007e0000300320050002000404088006e003700b7
:1007f00030002000404088006b003700f12480006a
:1008000000002800008060000000e0000b003200c3
:100810000080200066004000104078008040e80022
:100820000080200066004000014878009fe4a90095
:10083000500020001c5e07005b00370016c8bf0098
:100840008080fb008100e900cf08de008140780055
:100850000040e90016e8b7000104e0001000320093
:100860006040800066004000604088000ac8bf0009
:100870000040e9000ae8b7000ac8bf000004e00031
:1008800003003a0020002000075e07004600370002
:100890009a24a80020002000404088004200370031
:1008a000a0408000904078008180fb00b124880047
:1008b0000000e800a04088003b003700f1248000e1
:1008c00000002800008060000000e0000b00320003
:1008d0000080200066004000104078008040e80062
:1008e00000802000660040000148780040002000a1
:1008f000ed5d07009fe4a9002b0037009a64a80073
:100900008000200040408800270037008000200041
:10091000404088009a64a80023003700a04080006f
:10092000a124800081407800014878000000e800a0
:10093000a040880016c8bf000040e90016e8b700d4
:1009400016c8bf000004e000040032009aa4a90009
:100950006000200040408800020037009aa4a800f0
:10096000c05d07009a84a8000f0037002000200017
:10097000cd5d07000c0037000080200066004000bd
:10098000104078008040e8000080200066004000b1
:100990000148780060002000c35d070000000000ef
:1009a00001003700000000000080fa004f03be0085
:1009b0004f02be004f01be004f00be003600f900de
:1009c000004006003600f800809fbe00829fbe00f7
:1009d000849fbe00869fbe000000fa008020a90010
:1009e0000000eb003c6507000080fa004f03be00ea
:1009f0004f02be004f01be004f00be003600f9009e
:100a0000004006003600f800809fbe00829fbe00b6
:100a1000849fbe00869fbe000000fa003365070079
:100a20008040a900100020002b6507000080fa001c
:100a30004f03be004f02be004f01be004f00be007c
:100a40003600f900004006003600f800809fbe0026
:100a5000829fbe00849fbe00869fbe000000fa00f9
:100a60008060a900200020001b6507000080fa00bc
:100a70004f03be004f02be004f01be004f00be003c
:100a80003600f900004006003600f800809fbe00e6
:100a9000829fbe00849fbe00869fbe000000fa00b9
:100aa0008080a900300020000b6507000080fa005c
:100ab0004f03be004f02be004f01be004f00be00fc
:100ac0003600f900004006003600f800809fbe00a6
:100ad000829fbe00849fbe00869fbe000000fa0079
:100ae0008600a90070002000fb6407000080fa0067
:100af0004f03be004f02be004f01be004f00be00bc
:100b00003600f900004006003600f800809fbe0065
:100b1000829fbe00849fbe00869fbe000000fa0038
:100b200050048000680060000000e0000c0032000b
:100b30002134800000082000008060000000e000f8
:100b400006003200104380000000e0000200320086
:100b5000104380000000010084e6a9008a60a9001b
:100b60000080fa004f03be004f02be004f01be00de
:100b70004f00be003600f900004006003600f800c5
:100b8000809fbe00829fbe00849fbe00869fbe00e5
:100b90000000fa00204380000000e0000200320064
:100ba0002043800000000100b017210010407800b1
:100bb0008040e800b017210001487800a01721000c
:100bc00011c0b300014878008860a9000080fa00d5
:100bd0004f03be004f02be004f01be004f00be00db
:100be0003600f900004006003600f800809fbe0085
:100bf000829fbe00849fbe00869fbe000200fa0056
:100c00008960a900b86107000004e0000c00320010
:100c10008e007800a08e2000985907000000e000a8
:100c2000070032009e007800f01c80000040780031
:100c30008048780011002000a08e2000ec590700a9
:100c40000080fa004f03be004f02be004f01be00fd
:100c50004f00be003600f900004006000040da00f8
:100c60000000fe00ec8747008e1f78006c8757005d
:100c700044002000041f7800000f78006c875700a4
:100c800002afbe00e1bf9f006c805700120c07004e
:100c90001e00be004f077800cf00b1000000060024
:100ca000ec8747008e1f780011002000a1bf9f0035
:100cb0006c875700002f78006c805700080c0700e5
:100cc0001e0078004f077800cf00b100000006003a
:100cd0000800fa008e81e80080097800640047006f
:100ce00001087800660047000208780066004700a7
:100cf000100f78000a0037006400470010007800e9
:100d000010407800e4004700910078000101e800fd
:100d1000e400470082087800676107001e0fe900c1
:100d20001e0078000000e000f3ff3a006600470074
:100d3000100078000080fa000000060000000500a6
:100d40001400200010043700f4ff2f000e043700b9
:100d50000001be00a20007000470a70003f0a1007c
:100d60006509b100160032000d0035006828e10069
:100d700006003500f0ff2f00f1ff27000300e00020
:100d800013003b00010028000000050000004000a7
:100d9000818048008502e900fcff3a000800370026
:100da000f88f420002003c008000eb0000000500cc
:100db0008100d1000080d3008502e800fcff3a00ea
:100dc0000300e00002003b0060001000e08018001b
:100dd000000006000001be00810007000470a700ab
:100de00003f0a10003f8a30013003a006509b10065
:100df00010003200090035006928e10002003500ca
:100e0000010028000000050000004000818048002b
:100e10008502e900fcff3a0000000600f88f42005e
:100e2000050035008100d1000080d3008502e80074
:100e3000fcff3a00000006008000eb000000050007
:100e4000881f7800030478000300e00007003d00dd
:100e500060001000e080180060011900e0811900b6
:100e600002003b0001f02d000300370007000700df
:100e700008f0a70001f0a0004f0478000000060071
:100e80004f89de0082017800edff3700889fbe00a9
:100e90008a9fbe000082700004027100048271000b
:100ea000260032000004be000200be006011b8003f
:100eb0006b092000950220000182cf000a00390052
:100ec0000541b1000082cf00070039000541b100a3
:100ed0000982cf00040039000541b1000882cf002b
:100ee000010039000541b1000542520012003200f4
:100ef0000a003b0082817100610164008100d10021
:100f00000080d3008984d3000884d3008b05e800d7
:100f10000442e800f7ff3a000700370008044400e5
:100f200089844c0000004800818048008b05e9005e
:100f30000442e900f9ff3a00030007004f05be0034
:100f40004f04be00000006008100200061805500b3
:100f50000b003d000b00200061fe2f000100e100ae
:100f60001d00340082817100610164008904d10098
:100f70000884d3000000e800faff3a007100200066
:100f8000610064000300700002006000090032008c
:100f900061044400e0844c000988a500050032008b
:100fa0008b05e8006808e10002003a008904d100de
:100fb0000884d300f20f20000258e10005003d0034
:100fc000c75ddd00f907b200898075000800780070
:100fd000000006000bf827008b00780000000500d9
:100fe000c70ade00f107b200f50fb20008003200b8
:100ff000e1cf4200020032000170a0002400050091
:10100000810f700001003200040805004400050053
:10101000810f700002003a00140005008502e9000b
:101020000000400081c04800fcff3b000170a000b0
:101030002400050007f82700078361000638e10057
:1010400004003a00f70720008783610087037100de
:1010500001003a0003f0a200889fbe008a9fbe00f4
:101060008c9fbe00470ade000480a100c71ade0084
:101070000580a100070028000785600087856100c2
:10108000f70f20000720e1009e0032000728e10052
:101090009c003200010678000400e000b400320039
:1010a000f7072000878060000170a0000500e000c5
:1010b000c0003200f7072000878161000370a000a4
:1010c000050652000f003a000b50e1000b00320001
:1010d0000308e10002003a000200e1007e00320055
:1010e0000204500083845800040031000001fd0018
:1010f0008101fd008402fd008a05fd006044b80006
:10110000210037000520e10005003d000001fd0041
:101110008101fd008402fd008a05fd0005065200e4
:101120007a60e100050035000170a1004722dd0072
:10113000848070008a807000630037006044b800cb
:10114000ef02660007ff2f00070666000500e000bb
:1011500006003400f08312008714dd000511de0064
:10116000071bdd00060171008519de007060e100db
:101170000500350009047800820478000301780036
:101180008001eb00700656000b50e10003003a00ae
:10119000020040008380480004003700600414000f
:1011a000e0841c0002005800838058000188a300de
:1011b000060032008100d1000080d3008984d30072
:1011c0000884d3000402e800270037000178a30058
:1011d00025003a000100e000030032008186cf00c4
:1011e000698656000a0037008c0020000000e000ed
:1011f00004003a0009007800880478000004eb003d
:10120000700252008086cf000d0646000c06e900f1
:101210007060e10006003500800078000900780069
:10122000880478000004eb0070065600700252003b
:101230000c00e0000c0034008c08dd00f003160008
:101240000703de00868070000c00dd00074bde0027
:10125000060070008c4cdd000743de0086847400bd
:101260000c44dd000c0252006120e100200035003a
:10127000610160000700280087816400f7ff2700f4
:1012800087836400070374000300e0000600320057
:1012900082037300040032000000e800e080480090
:1012a0000188a3000e003a00f70f20000720e1009c
:1012b0004a003d000170a1004722dd00810072005c
:1012c0008a8070000000be004f06be004f05be00c1
:1012d0004f04be00000006006000b800faff3700af
:1012e0008100d1000080d3000402e800eeff370047
:1012f0000401780089017400a10107008a80700050
:10130000f1ff3700f7010700070278000001fd0038
:101310008101fd00f3010700870278008503720058
:101320000778a300040032000001fd008101fd00e8
:1013300006020700e4ff3700850362000768a30088
:10134000080032000b50e10003003200f0ff2f00d4
:10135000f1ff2700dcff37000001fd008101fd00e7
:10136000d9ff37000468a300d7ff3200faff370027
:10137000f8ff2700888360000b003a000000e000bf
:1013800009003a0083036400828373000200320084
:101390000200be00ccff37000b50e100ceff3a0048
:1013a0000200be00c8ff3700140020008100640066
:1013b0003eff3700f8ff27008883610004003a00f1
:1013c0000200e00002003a008c007800beff370007
:1013d000150020008301640039ff370001f8270061
:1013e0000000200081007500b7ff3700889fbe0015
:1013f0008a9fbe008c9fbe001b0020000202be0020
:101400000586680006002800060666004709de001b
:10141000f20fb200820032000243e8008000320086
:10142000c729de00f30fb2007d0032000343e8005d
:101430007b003200f107b2000170a000f507b20096
:101440000570a000c708dd004903de00868070003b
:101450004700dd00c72add004923de0086827200d6
:101460004722dd0003055100040350008583580026
:101470000300310000004000818048000a05e900b7
:101480008c1f78008a9fbe000400500085805800a1
:101490000402420085824a0000004000818048002a
:1014a0000005eb000004be006033b8000406be0077
:1014b0000d48e10056003100110009004dccd80064
:1014c0000c01b8000d02b8008481410060824a001e
:1014d0008283530003045c0084845c0060055d002b
:1014e0000a00e00025003a00800578000d40e10088
:1014f00049003100880078000700780011000900d9
:101500004d88d8000c01b8000d02b800848141005c
:1015100060824a006003110083835b0004045c0066
:10152000e0845c000900e00021003a004f01be00a9
:101530000300e0002b003200e301600007067300a7
:101540008c81710001003200640070004200de00f6
:101550004e5edd000c007000c258de0001e0a0000d
:1015600083010700cf017800818071004f06be0023
:101570004f05be004f04be00000006008c834300f0
:101580000d044c00e0844c0060054d000000e900b3
:101590000a00e000d4ff32008c8343000d044c00ad
:1015a000e0844c0060054d000000e900ceff3700ec
:1015b0000c0343008d834b0060044c00e0844c001e
:1015c0000000e9000900e000d8ff32000c034300ee
:1015d0008d834b0060044c00e0844c000000e90067
:1015e000d2ff37004200de004e5edd000c007000ce
:1015f000c258de0001e0a000cf0178000300e00047
:10160000daff320060001000e0801800d7ff3700da
:10161000f0ff2f00aaff3700f0ff2f00b9ff3700bf
:101620000404be002f010700870678000004fd00b7
:101630008104fd002b010700078366000678a300e4
:10164000030032000960a7000800be002c0037002c
:101650000d78a300020032000800be002800370009
:101660000778a30026003a0001f0a10009f0a100cc
:101670000668a30003003200f1ff2700f0ff2f00ef
:10168000baff37000d68a300030032000800be0057
:101690008c807000b5ff37000768a30007003a0090
:1016a0000648a30003003200f1ff2700f0ff2f00df
:1016b000aeff37000d48a300030032006000b80001
:1016c0008c807000a9ff37000748a3000400320097
:1016d00001f82700000020008c807000a3ff370075
:1016e000760107000004fd008104fd00020578007a
:1016f000720107000802be008a01780059ff370016
:101700000160a000120220004243880097ff3700ca
:101710000100e000120032000500e000100032007d
:10172000889fbe008a9fbe008c9fbe000006eb0013
:1017300001f8a3000300320060001000e0801800f0
:101740000cf0a00005f8a3000300320060021200b4
:10175000e0821a000cf0a2008005eb0041ff370088
:101760006000b8000200050003836800070028003d
:1017700007036300470ade000480a100c71ade00e9
:101780000580a100f70f20000720e1004200320091
:101790000728e10040003200889fbe008a9fbe00fb
:1017a0008c1f7800f107b200f307b2000400e000dc
:1017b000640032000170a0000500e0006800320003
:1017c0000370a00085054200eb07b1000204b800d9
:1017d0000302b8008484440060854a00020ab8000d
:1017e000848444000a854a00030ab80004054500c1
:1017f000040033000804d0008984d2000a85d20096
:101800008b05e9006158e1003d0035000210200021
:10181000090161000308200089816100f7072000a9
:101820008783640008867300c84cde00c853dd005f
:10183000878474004855de000300e0000600320093
:1018400082037600040032008904e80060054d0040
:101850000a88a3000c003a00f70f20000758e100a7
:1018600044003d000a70a100c75ddd000a857500d7
:101870008a007300090078004f0678004f05be000b
:101880004f04be00000006000a05d1008984d30081
:101890008b05e800f0ff3700881f78000604780009
:1018a00090000700070278000001fd008101fd00a3
:1018b0008c00070087027800850372000778a30078
:1018c000050032000001fd008101fd009f000700be
:1018d0004f04780000000600850372000748a3004b
:1018e00003003200f0ff2f00f1ff2700f8ff370060
:1018f0000000200001f8270088807000f4ff370006
:10190000880178004848dd00808171004848de0089
:10191000c850dd0001007000c850de0006047800e9
:101920000b0178001600070088807000d2ff370096
:101930000500e00005003200170020003a00070013
:101940009dff370081037000f9ff3a0086007800a0
:101950004f0678004f05be004f04be000000050092
:1019600083037100f9ff3200270020002e000700da
:1019700094ff370001f8270086807000f4ff3700dd
:101980000100e00026003200610111007810e10042
:1019900023003c006022b8007010e1000400350014
:1019a00080027800010078008000eb007001510097
:1019b0000200e0000900340070031100062add0077
:1019c000822ade008603dd00878272000200de00cc
:1019d000860bdd00070070008208de008481710044
:1019e000f4ff270004826200848171000400280053
:1019f000848262006102600005f0a600000006001b
:101a000004827100070032000000e800e080480016
:101a1000000006000002be006000b800efff3700c3
:101a20006000b80000000600889fbe000004eb00c4
:101a30006138e10016003a000100e00008003a00b9
:101a4000c800de004800dd00880020000100e00042
:101a500003003a00c800de004800dd0068044400ce
:101a60008184cf00e9845400060034008908dd0039
:101a7000f08314008703de00878070000900dd001a
:101a800009044400610214004f04be000000060077
:101a90000300e00008003a00c811de004811dd0034
:101aa000880020000300e00003003a00c811de00b7
:101ab0004811dd00680444008384cf00e9845400a9
:101ac000060034008919dd00f08314008713de005e
:101ad000878171000911dd0009044400e10214004e
:101ae000e9ff37002700200001f0a70017002000c1
:101af000470bde00f60fb200040032000643e80098
:101b00000a0032004702b30000000600010378001b
:101b1000f607b2000603700002003a000703b300a4
:101b2000000006008702b3000000060001037800f1
:101b3000f607b20006037000020032000770a00032
:101b4000000006000760a000000006000478a30063
:101b5000040032000578a300030032000168a300ee
:101b600001003a000200be000160a0000000060073
:101b700081017000270032008002eb0001f8a30011
:101b80000300320060001000e08018001500200003
:101b9000f40720000202420020003400f703200076
:101ba0008703600006042000000363000208200091
:101bb000000161004700de00c909dd0000807100fe
:101bc000c708de000600e00008003200870371004d
:101bd000060032001000b0000180b0000188a300b0
:101be00002003200c108de000402e800f107b20082
:101bf000f30f20000320e10003003d004722dd0039
:101c0000810072002900370001f827000000eb0076
:101c1000260037006000b8000000060068021200cd
:101c20007f20e100020034006000b8001f00370090
:101c30006011b8007020e1000400350080017800d8
:101c4000010078008000eb00700252000400e00008
:101c500009003400f00312000719dd008419de00ca
:101c60000703dd00868171000400de00070bdd0044
:101c7000060070008408de00f7ff270083836300fe
:101c80008703710006002800030363000700320089
:101c90000700e00003003a00610160000281730068
:101ca000020032001000b0000180b0000500a60064
:101cb0000000060001f0a000000006004f0ade0050
:101cc0004709de00f107b200f20fb2000b0032004c
:101cd000f207b1000170a000c708dd00c901de00f5
:101ce000838070004700dd000400a60000000600ad
:101cf00060001000e080180000000600810f7000f6
:101d000001003a00000006008182cf000500e000db
:101d100010003e008082cf00ee8242007028e10079
:101d20000400390007003e00800078000000eb004e
:101d30000e003700708312008600de000500dd0013
:101d40000a003700708352008600dd000000eb00bf
:101d500006003700e28252008508dd007083120021
:101d60000603de00868070000500dd007507b00008
:101d70000501ea000400a600000006006000100053
:101d8000e080180000000600889fbe008a9fbe0009
:101d9000841f7800170007004f00780011003300ff
:101da000f0ff2f00838f6c0006003b0004056500e8
:101db0000a00a7000800370009f0a6001000200064
:101dc00008003700820f5400838f5c000300390045
:101dd0001000200001003e000000200009f0a700d4
:101de0000000ea004f05be004f04be000000e00006
:101df000000006000004be0079fc07000003be00de
:101e00000405be000200be0075fc0700844f75008b
:101e100000000600889fbe008a9fbe00300442007a
:101e2000b0844a0030054b0090854b006000b10043
:101e30000898be000a90be000440e10005c8e10019
:101e400006d0e10007d8e100020031006800400040
:101e50001008e8004f05be004f04be000000060059
:101e6000889fbe008a9fbe003004be002005be00d1
:101e70000418540005985c0006185d0007985d0082
:101e8000110020000440e10005c8e10006d0e10097
:101e900007d8e100010039008000eb001088100035
:101ea0004f05be004f04be0000000600f487470047
:101eb000889fbe008a9fbe008c9fbe008e1f780048
:101ec000d0b79f00e1b79f00f2b79f0083bf9f008c
:101ed0000605be000404be00cfae97000000eb0074
:101ee000c0b79f00b0b79f00a0b79f0090b79f00fa
:101ef00080b79f00000678004fb0970000014000b7
:101f00000000e00006003d003c0007000f0747000e
:101f1000450007000f004000beff07000500370026
:101f2000360007000f0747003f0007000f00400082
:101f3000cbff07004fb797000e00e0000c00350004
:101f40005fb29700efb297007fb397008fbb970007
:101f500010002000010020006011b8000002720093
:101f60008182720002037300838373001c000700e8
:101f70000c06e80001042000810f5600deff3a0045
:101f80000e00e00005003d000802be000a03be008e
:101f900000fe2f000f0040009eff07000d00e00034
:101fa00005003a000fb297009fb297002fb3970039
:101fb000bfb397000a0007005fb09700efb097002b
:101fc0007fb197008fb997004f0778004f06be008a
:101fd0004f05be004f04be004f01b10000000600d7
:101fe000010007000000060094b79f00a5b79f00fe
:101ff000b6b79f00c7b79f00000006009fb09700cc
:102000004f08de0002017000a2b79f000fb09700da
:102010004f01de00818040008100710091b79f0078
:102020000efe2f0000000600de0078004f09de00e3
:10203000000040000000710080b79f006fa897006b
:102040004f01de0081804000010f71000e0007008b
:102050004f3ade000000400004007000e0af9f0037
:10206000090007000402420085824a0006034b0073
:1020700087834b00dcff07000802be000a03be0096
:1020800000fe2f00000006001fb29700afb29700bd
:102090003fb39700cfb3970000000600881f780079
:1020a00018002000881f780080ff07008f87e90054
:1020b0004f04780000000600801feb007bff070044
:1020c0008f87e90000000600889fbe008a9fbe003f
:1020d000e00f5000e08f5800e00f5900e08f5900ea
:1020e0000c003d006044b8006055b800000054008a
:1020f00081805c0002015d0083815d00180020008a
:102100001500070008003d00180007000004eb0060
:10211000050037000004eb000f00070002003d003f
:102120001200070018002000dcff07000800e00094
:10213000060032006022b8006033b8000000520090
:1021400081805a0002015b0083815b004f05be0065
:102150004f04be0000000600e00f5200e08f5a005e
:10216000e00f5b00e08f5b00000006006044b800f9
:102170006055b8000402540085825c0006035d00cf
:1021800087835d0000000600889fbe008a9fbe0016
:102190008c1f7800e00f5000e08f5800e00f5900ce
:1021a000e08f59000d003d006044b8006055b80054
:1021b0000000540081805c0002015d0083815d00ad
:1021c0001c0020000820e10009a8e1000ab0e1009d
:1021d0000bb8e1000d003d00080037000006eb00e1
:1021e000e00f5200e08f5a00e00f5b00e08f5b00d1
:1021f00006003d006044b8006055b8000402540079
:1022000085825c0006035d0087835d00aaff0700ee
:102210000c00e000060032006022b8006033b80015
:102220000000520081805a0002015b0083815b0044
:102230004f0678004f05be004f04be0000000600a8
:102240000000fa004fb99700e88157008a020700a2
:102250000080fa0000000600af0007000701070039
:10226000b7010700df01070039013700800178005e
:1022700002003700b15978000201e9000200e000d5
:10228000fcff3a0000000600889fbe008a9fbe0047
:10229000800478000200e0005a003200014078001b
:1022a000814c780082814400f1f99f00e20f5100d7
:1022b0005400360091449800a1449800e1f99f0031
:1022c000d1f99f00e60f51004e003600b14498004e
:1022d000c1f99f00e80f51004a0036000905ea00e5
:1022e000630565000a8444000a055100c1ff2f0000
:1022f000010565000080fb008000eb00121020004b
:10230000131020006e060700008cbe000a01440076
:1023100060b99f0071b99f00e80f55003900360081
:10232000200498003104980040049800510498005b
:1023300020b99f0031b99f0040b99f0051b99f005b
:10234000f80f55002f0036006004980071049800c3
:10235000000c9800110c9800200c9800310c98008b
:10236000400c9800510c980020b19f0031b19f00a3
:1023700040b19f0051b19f0060b19f0071b19f00bb
:1023800000b99f0011b99f00640164007801410009
:1023900002044400020555006011b8000203be00ab
:1023a0000002be000403be006022b80000007200fc
:1023b0008180720002017300838173000f00370077
:1023c00008027800009abe00029abe00009abe0081
:1023d0000292be00000c9800110c9800220c98008c
:1023e000330c9800400c9800510c9800620c980037
:1023f000730c98000a02b1000802b000ff0f5500ec
:10240000efff3e00090078004f05be004f04be00fc
:1024100000000600518180009100780096040700ba
:10242000110020000000e000050035005081800010
:1024300090007800a0002000d3040700cf00de0049
:102440000100ea0000000600000006000003210071
:1024500000000600fdff0700708188006081880091
:102460000000060080007800040037003104e0001e
:1024700002003a000000510000000600010178004f
:102480000108a300f9ff3a008101780031017800ca
:10249000f4ef2f00020242000281ea000201620012
:1024a0000408280004016100f7ff3200830078006f
:1024b000010178003104e000fdff3a000000510006
:1024c000000006008001eb000200e0001000320076
:1024d0000002780001037800b44178000304e000b2
:1024e00008003200b14278000504e0000500320027
:1024f00082034000848f53000200320085cf5100d8
:10250000f4ff32008381fb001680fb0080815100c4
:102510000300780000000600ec874700889fbe009b
:102520008a9fbe008c9fbe008e1f78000006780038
:10253000010478001807900028059000980678009c
:10254000cdb79f00b80590003202be002203be0046
:102550000400be000601be004f18de006011b80086
:102560008000eb00d0b79f00e1b79f00f2b79f005b
:1025700083bf9f00800478000900e000060032005d
:102580006000b8006011b800040250008582580055
:1025900006035900878359000e00e0000200350051
:1025a0000d10a100cdb79f000900e00005003a0022
:1025b0004fb097000028a30002003a000038a300a3
:1025c000020032008a00e900010037008a0078002a
:1025d000f8815700a200200008007800860007005c
:1025e0000900e00003003a00cfb097000128a300e3
:1025f000080032000000e90000814500b1c2b300cc
:102600000900e00001003200d1c2b30001497800a6
:10261000050037000138a300030032000000e90084
:1026200001c2b30081757800480190000201e90001
:1026300000015100808045004fb297008a01780068
:102640000c007800e30107009c0090000188a300c3
:102650000400320098009000810f500001003d00fe
:10266000010078004f0778004f06be004f05be00fe
:102670004f04be00cf00b100000006000200fa00c7
:10268000889fbe008a9fbe00000578000104780084
:102690000200780018019000a805900098007800ca
:1026a000b1bf9f00b80490000200e00002003500b6
:1026b0000110a100b1bf9f00ea81570082002000f5
:1026c0008b0078003002be002003be0008007800b6
:1026d000490007003fb99700f00061000300320095
:1026e0000000e90001c3b300817478003fb997008e
:1026f000e8006100030032000000e90001c2b300fd
:1027000081747800480190000201e9000001510045
:10271000808044003fba97008b0178000a0078005f
:10272000ac0107009a0090000188a3000400320069
:1027300098009000810f500001003d0001007800da
:102740004f05be004f04be000080fa0000000600e6
:10275000ea874700889fbe008a9fbe008e1f7800d0
:1027600000047800030078007287570084e2260096
:1027700055c72600049fbe00c3962200030f7800b1
:102780006c875700004feb0011059000a1049000ea
:10279000910578000200e000020032000207780094
:1027a00001003700728757000000e00002003a0085
:1027b0000e0078002bff07000a00e0000300350040
:1027c0008a0f5000010036000a0078000b027800e2
:1027d00089017800000178008e00780008007800f8
:1027e0007c0107004f0778004f05be004f04be0074
:1027f000af00b10000000600f4874700889fbe00cc
:102800008a9fbe008c9fbe008e1f78000605be000a
:102810000404be0081bf9f0082b79f00f3b79f00f2
:10282000b0009000e1b79f001301780092b79f00bd
:1028300090069000400690000c06e9000d00e000b4
:1028400001003d001d002000efb197000c80410009
:102850000048eb001e0020001f0037000c06e900b6
:102860000fb09700cf80de006109b900a0b79f00cc
:10287000b1b79f00c2b79f00d3b79f000203be004d
:102880000002be000800be000a01be000afe0700ea
:1028900000077800efb097000c80400003c3b3003e
:1028a000034847008d06e9000fb897000000e900d3
:1028b00080bf9f002fb29700bfb297004fb3970021
:1028c000dfb397000800be000a01be00f3fd070059
:1028d0000205be000004be000c00e0000d00320046
:1028e000e00f5400e08f5c00e00f5d00e08f5d00c2
:1028f000daff3a000d00e000d8ff3c008fb89700e7
:102900000100e000030034001fb197000218a3008b
:10291000d2ff3a000e00e00002003a00ffb197003b
:102920001340a1000c0078004f0778004f06be004e
:102930004f05be004f04be004f01b100000006006d
:102940000200fa00889fbe008a9fbe0080047800c3
:10295000010478000200780018019000280590001a
:1029600098007800b1bf9f00b80590000200e00019
:10297000020035000110a100b1bf9f00ea8157009d
:10298000a20020008a0078003002be002003be00b2
:102990000800780098ff0700480190000201e90054
:1029a00000015100808045003fba97008a017800fd
:1029b0000900780007010700990090000188a30032
:1029c0000400320098009000810f500001003d008b
:1029d000010078004f05be004f04be000080fa00e1
:1029e00000000600fa874700889fbe008a9fbe004d
:1029f0008c9fbe008e1f7800800478000104780050
:102a000082057800180190002805900018077800ca
:102a1000b80090000200e000020035000e10a10096
:102a2000010037001200200070006700e0b79f002f
:102a3000090032003b02be002b03be00e00f520033
:102a4000e08f5a00e00f5b00e08f5b000200320075
:102a50008a86e900010037008a067800e8026700ec
:102a6000f5b79f00010032008d06e9003b02be0071
:102a70002b03be00e4af9f00f5af9f0086b79f0019
:102a800097b79f00480690000c06e9000c804000b4
:102a90000048eb00efb297007fb2970089037800ff
:102aa00081047800d8af9f00020478008bbf9f009c
:102ab0008a057800034578002a0037000c06e900f3
:102ac0006fab97006f006300e90f500002003c00fd
:102ad0000003b000010037007005b0000a03fb00de
:102ae0001604b100f90f53000c003e0000037800fb
:102af0000650a0001606b100f90f530007003e0073
:102b0000b4b79f00a5b79f00c7b79f009003070009
:102b1000cfb39700afb297003fb2970080747e00aa
:102b20000804e9008d06e9006fa89700ffa8970048
:102b30000fb197009fb19700460020008301d1009c
:102b40000281d3008180d3000080d3000603e90016
:102b5000faff3a00e0af9f00f1af9f0082b79f00fd
:102b600093b79f00e10f56000f0036006fa8970043
:102b7000ffa897000fb197009fb19700e00f50009a
:102b8000e08f5800e00f5900e08f5900cbff3a006a
:102b90000800e000c9ff3c000d00e0000200340026
:102ba0000e18a300c5ff3a0089007800f4b79f0013
:102bb000870478005fac97008a4178000b057800a5
:102bc0008fbd97000500e000100032003b02be0000
:102bd0002b03be00e4af9f00f5af9f0086b79f00b8
:102be00097b79f00e00f5200e08f5a00e00f5b00a4
:102bf000e08f5b00050032000c06e90083707e0068
:102c00000c06e90000c3b30080707e00ffb297009d
:102c10000500e000030032000c06e90000c2b3002a
:102c200080707e00480190000201e9000c01510013
:102c30008c8040000e0278008a017800090078003c
:102c400064000700990090000188a300040032008e
:102c500098009000810f500001003d0001007800b5
:102c60004f0778004f06be004f05be004f04be0060
:102c7000af01b10000000600f28747008e1f780008
:102c800002027800030178000000e0000200320038
:102c90000007780001003700728757008002eb00c0
:102ca0000100e000010032008102e900708057005d
:102cb000060009000018eb007280570000a8eb0026
:102cc0002310200093bf9f00aebf9f00b1bf9f00a5
:102cd000c5bf9f000100e00004003d00b0042000db
:102ce000e08b88000080eb0005003700004feb0010
:102cf000eebf9f00debf9f0084007800a3020700a4
:102d00004f0778002f01b10000000600889fbe0029
:102d10008a1f78008004780049009000020478003f
:102d2000800f54000100360000047800080178008c
:102d30006a8544001a0078004cfd07001a00440020
:102d4000000d7800e8844400990c14000048eb0062
:102d50004f0578004f04be00000006001000780008
:102d6000dbf73700900190000388a30001003200d8
:102d7000e6ff37000348a30001003a00f7ff070011
:102d800000000600889fbe008a1f7800800478003b
:102d90004900900002047800800f540001003600c2
:102da00000047800080178006a8544001a00780061
:102db0002efd07001a004400000d7800e88444004e
:102dc000990c14000048eb004f0578004f04be003a
:102dd00000000600f2874700889fbe008a9fbe0061
:102de0008c9fbe008e1f780080047800010578005b
:102df00002047800830578006107620002003a004f
:102e00008b0f540008003900080178008a00780010
:102e100009007800d3ff07008b0f5400020039002f
:102e2000880578001e003700088655000c017800e0
:102e3000f00f5600010036000201200001022000c0
:102e40007e80570010fd07008c06780005003700d3
:102e500002012000fe80570009007800c1ff070032
:102e6000f0865600ef8f5600f9ff3e004461de0009
:102e700000ff2f000091b90002014600fe805700bc
:102e800009007800b7ff07000e00e00004003a00d8
:102e9000080178008a00780009007800b1ff070077
:102ea0000b0078004f0778004f06be004f05be00ac
:102eb0004f04be002f01b100000006000000050015
:102ec0000000050000000500000178000040eb0054
:102ed0008080fb00818040002314210063c27800c1
:102ee0000404e00003003a003014210060c07800c0
:102ef0000000060092017800934f520004003a004f
:102f00003014210060c078000309e8000100370098
:102f10000040e800ea4f5000edff360000000600d8
:102f2000f6874700889fbe008a9fbe008c9fbe0028
:102f30008e1f7800800478000104780083057800f3
:102f4000040678000000eb00c0b79f008080eb0013
:102f5000d1b79f00e0b79f00f2b79f0000082000a4
:102f600080bf9f0098007800010078000005eb000a
:102f7000010037000a05e800304178000204e00053
:102f80000300320053c2b300834f5100f9ff3a00ef
:102f90000a00e000040032000a017800090078000d
:102fa00070ff0700180c45001807780050c2b300e6
:102fb0009e4f100033013a000e07e8000e0c780017
:102fc00010003700cfb097000100a0000b003700c1
:102fd000cfb097000110a00008003700cfb09700d5
:102fe0000120a00005003700cfb097000130a000fd
:102ff00002003700cfb097000140a000c1b79f008a
:10300000000ce8001800780090407800b2c2b300cd
:1030100082cf5000f1ff320007003c0002c2b30033
:1030200082cf5000f0ff320032c2b30082cf500096
:1030300007003a00efff3700d2c2b30082cf500042
:10304000e0ff320002c3b30082cf5000e0ff320045
:10305000a2c2b30082cf50000d003a00000ce8007d
:103060001c80e900000e780010007800e0b79f0097
:103070000000e0000f003d00cfb097000100a2006b
:10308000c1b79f000000ea00e0b79f0009003700c9
:1030900002020700e0b79f0001003700000ce800c3
:1030a000180078009000fb000103b100e98f500088
:1030b000faff36004fb097000008a300020032006c
:1030c0000010a100c0b79f0018007800e1c2b30053
:1030d00090cf100016003a008000eb00d1b79f009f
:1030e0000000e800000c7800a1c2b30090cf1000ef
:1030f00006003a00000ce8001c80e900000e780091
:1031000010007800d0b79f0009003700e3010700e6
:10311000d0b79f0001003700000ce80018007800cd
:103120009000fb000103b100e98f5000faff360068
:103130000800780064ff07008046780018007800d7
:103140001000fb00fb01070091062000810f5000da
:103150003800320012003c0041062000810f500070
:10316000340032000a003c0011062000810f50009c
:103170002000320031062000810f50009a003200fa
:1031800051022000810f5000ae003a00a700370026
:1031900071062000810f5000aa003c008200370019
:1031a00001072000810f50005c00320007003c0046
:1031b000e1062000810f500074003200f10620006b
:1031c000810f50009f003a0039003700510720005e
:1031d000810f50002700320081072000810f50002e
:1031e0004200320031072000810f500095003a0064
:1031f000850037008d80fb000c01780000fe2f0059
:103200000f004000d90107000000e0009c003200e0
:1032100018007800000ce8009041780002fe2f00b2
:103220000f014100f88057000900780024ff0700d3
:103230000e0037008d80fb008c017800120020000a
:1032400000fe2f000f004000e70107000000e00033
:103250008b003200180ce80002fe2f000f01410025
:10326000f880570009007800abfc07000005450016
:10327000840037008d80fb008c0178000001eb009a
:1032800000fe2f000f004000d70107000000e00003
:103290007b003200180ce80002fe2f000f014100f5
:1032a000f880570009007800a5fd0700efff370000
:1032b0008d80fb008c0178000001eb0000fe2f00e8
:1032c0000f004000c80107000000e0006c00320061
:1032d000180ce80002fe2f000f014100f880570093
:1032e00009007800e5fc0700e0ff37008d80fb0057
:1032f0008c0178000001eb0000fe2f000f00400061
:10330000b90107000000e0005d00320018007800fd
:10331000000ce80090417800160037008c0178001e
:103320000001eb00010f200000fe2f000f00400005
:10333000ad0107000000e00051003200180ce80069
:103340000fb097009fb097002fb19700bfb19700c3
:10335000e00f5000e08f5800e00f5900e08f590057
:1033600003003a008001eb00c21321004000370047
:1033700083c7b30002fe2f000f014100f880570001
:103380000900780097fd0700b8ff37000b014500e2
:103390008d80fb008c01780000fe2f000f004000a4
:1033a000ea010700360037008d80fb000c01780031
:1033b00000fe2f000f0040006c0107000000e0003d
:1033c0002f00320018007800000ce80090417800cf
:1033d00002fe2f000f014100f8805700090078001d
:1033e000b7fe0700a1ff370000c8b30080cf56002a
:1033f00023003a00180ce8001c80e900000e780059
:10340000104078000d00370000c8b30080cf560090
:103410001b003a00180ce8001c80e900000e780040
:103420008001eb00100178001100370001c8b300e3
:1034300081cf560012003a00180ce800e0df9f0030
:103440000800370050c2b300e0df9f000e0c780088
:103450000000eb00c0b79f00e0b79f008080eb004a
:10346000d1b79f0013002000e2fd2f000f014100a3
:10347000f880570009007800b5fc07007bff370093
:10348000180ce8000a0078004f0778004f06be00cd
:103490004f05be004f04be006f01b10000000600e2
:1034a0008200fa00889fbe008a1f7800000578001d
:1034b00082047800c13f9f000004eb001000370039
:1034c0000902780088017800a2f72f000f0141005f
:1034d00081f72f008f8040000a00780090fe0700df
:1034e00008004000880f500004003d00b004200098
:1034f000e08b88000084eb000400370000047800b3
:103500004f3897001004e000edff3a000800780003
:103510004f0578004f04be000080fa00000006004e
:10352000889fbe008a1f780000047800010578009b
:103530000000eb000800e0001a00320018009000c4
:103540000058a3000c003200ea0444006800900018
:10355000990f100008003600b80990000001eb0038
:103560008200780008007800030001000080eb0072
:103570001900e0000b003200740044000008eb006a
:103580006c0044000008eb006a0044000008eb00f7
:103590000000eb000a00e000020032001800780092
:1035a000bff507004f0578004f04be00000006007d
:1035b000889fbe008a1f78000004be000000eb0058
:1035c0000800e00029003200180090000058a30015
:1035d000120032006a054400680090009a0f100043
:1035e00008003600b80990000001eb008200780066
:1035f00008007800030001000080eb001a00e000e2
:103600001a003200740044000008eb006c00440013
:103610000008eb006a0044000008eb00780a900004
:1036200008109000800f5200060031000002520086
:1036300011002000cfa2de00612bb9001800780035
:1036400088f5070000022000080040000008eb0099
:103650007e0044000008eb000000eb000900e000e1
:1036600002003200180078008df507004f05780041
:103670004f04be0000000600889fbe008a1f78002d
:1036800080047800010578000900780075fb0700c8
:10369000000478008a0178000801780011002000f9
:1036a000090078000a000700800078000080eb0025
:1036b000888f500001003a000000eb004f057800b1
:1036c0004f04be00000006001000780080f53700af
:1036d000889fbe008a9fbe008104780002047800a3
:1036e00009c5b9000900e00001003a000004eb0040
:1036f0000a017800800078000300780097fd070039
:10370000800078008a8f5000030032001100090009
:103710008980d80000047800080078004f05be00ba
:103720004f04be00000006000200fa00000178000d
:1037300001007800e2ff9f00900090000188a30044
:1037400006003200ea0140009300780082587800b9
:103750000280fb0081097800090037001200200078
:103760008f80e9007dfd0700800078000080eb007d
:103770000100e00002003200eff897000180fb003a
:103780000080fa0000000600e7ff37000200fa00a0
:10379000881f780000047800e2bf9f006481570012
:1037a000080078003eff0700980090000148a30041
:1037b000010032000080eb004f0478000080fa0026
:1037c000000006000000fa00cfb89700688157009b
:1037d0005081800010007800ecff07000080fa00a4
:1037e00000000600dafb37000000fa00cfb89700af
:1037f000688157005081800010007800e3ff0700c7
:103800000080fa000000060043fb07009bfb070056
:10381000cffb07004afc070072fc37000000fa00eb
:10382000cfb8970068815700508180001000780061
:10383000d6ff07000080fa000000060036fb0700f4
:103840008efb07003efc070066fc0700c0fb37004c
:103850000000fa00cfb897006881570050818000bf
:1038600010007800c9ff07000080fa000000060081
:10387000b7fb370080007800100020000202200013
:10388000828f500004003200e9805000e48f500025
:10389000010036000000eb0000000600889fbe001b
:1038a0008a1f780080047800090478008804780072
:1038b000394578000a00fb00eeff07000000e00039
:1038c000f9ff3a00b0c2b300804f55000500320046
:1038d000d0c2b3008000eb00804f550005003a00d5
:1038e000020037008000eb000100370011002000cb
:1038f0000804e8000000eb00030037006a02b9008a
:10390000020052000003b0003801fb0003fd2f004d
:1039100082814100e98f5100f8ff36000100e0008c
:1039200001003a000000ea004f0578004f04be0095
:1039300000000600f1fb2f0080804000f98f50004e
:1039400001003e000050a00000000600f9ff370013
:10395000f1f92f0080804000f98f500001003e00f7
:10396000f005b20000000600f9ff3700881f78005c
:103970000004780000082000808f500017003500f8
:1039800010082000808f50000b0034003008200009
:10399000808f500011003a0092007800688050003b
:1039a000000978003002be002003be00049cbe0067
:1039b0000694be000700370092027800648052002f
:1039c000000978001000be009e000700009cbe00a9
:1039d0000294be0010002000010037000000eb0040
:1039e0004f0478000000060084082000848f5000f7
:1039f0001d0032000d003c0014082000848f500090
:103a00002700320002003c000408200004003700b8
:103a100024082000848f50002a003200440820002f
:103a2000848f500048003a003b003700040a200011
:103a3000848f50002c00320004003c000409200058
:103a4000848f500040003a002d003700020c200007
:103a5000828f50001e003200020f2000828f500023
:103a600039003a00300037009380e9000200e0009e
:103a700005003200810978001102fb00cfa2de00b0
:103a8000612bb9002d0037008109780011427800c0
:103a90000482fb008002eb006033b800270037008f
:103aa00013027800e40052000200e0000a00320035
:103ab000810978001102be004fabde00860378005a
:103ac0001e00370093027800e88052000e00370095
:103ad00093027800e4805200810978001102be0050
:103ae0006033b800150037009380e9008109780041
:103af00011027800cfa2de00612bb9000f00370061
:103b000013037800e8005300810978003102be00f9
:103b10002103be00090037009380e9000200e000a5
:103b200002003200f1ff37009380e900810978003c
:103b3000110278008002eb006033b8000498be00e8
:103b40000690be001000050000000500440820009b
:103b5000848f5000270032000a003c001408200027
:103b6000848f50001c00320024082000848f5000f5
:103b70002600320004082000848f50002c003a00f8
:103b80001c00370004092000848f50001f00320001
:103b900004003c0084082000848f500024003a0078
:103ba00007003700040a2000848f50001100320003
:103bb000040c2000848f50001d003a0006003700de
:103bc0009380e9008109780091007800010878006d
:103bd00082487800150037009380e9008109780059
:103be0009100780001087800cf91de008288be0045
:103bf0000e0037009380e900810978009100780079
:103c00000108780082087800080037009380e900f6
:103c10008109780091007800010878006112b900ec
:103c2000612bb9008498be008690be00100005008c
:103c3000000005000000060006fa0700fdff07006f
:103c4000fcff370081037800e5f407000001be00a7
:103c50006000b8000478a30013003a006220e1007d
:103c600015003e000d0039008301d1000281d30010
:103c70008180d3008301d1000281d3008180d300f1
:103c80008301d1000281d3008180d3000538b000c8
:103c9000c42add00f300b2008381720007f0a700a0
:103ca00003f0a0000000060083ff270002002000b0
:103cb0006110b900f9ff370003ff2700f7ff370055
:103cc000020ab900001bb9000200b80081004200de
:103cd000810043000000060000c0da00000006007a
:083ce00000c0da00000006003c
:020000040000fa
:103ce800010000000500000012000000fcff0000b9
:103cf8000e00000011000000feff00000b00000095
:103d0800130000000100000009000000100000007e
:103d1800fcff00000a000000130000000000000083
:103d28000c00000014000000000000000500000066
:103d380011000000040000000e0000001100000047
:103d4800feff00000b00000017000000020000004a
:103d58000700000011000000feff00000e00000038
:103d68001800000003000000060000001800000012
:103d7800040000000c000000160000000000000015
:103d88000500000010000000040000000c00000006
:103d980011000000030000000900000011000000ed
:103da800020000000700000012000000fcff0000f5
:103db8000b00000012000000feff000007000000da
:103dc80012000000ffff00000600000017000000be
:103dd800020000000d00000014000000fdff0000bc
:103de8000b000000140000000300000006000000a3
:103df8001400000003000000050000001600000089
:103e08000300000005000000100000000200000090
:103e18000800000011000000030000000900000075
:103e280013000000030000000a0000001200000058
:103e3800feff00000500000016000000040000005e
:103e48000700000010000000fcff00000c0000004c
:103e580010000000fcff00000b000000170000002d
:103e6800fcff00000600000018000000ffff000033
:103e78000b00000011000000030000000d0000000e
:103e88000f00000003000000070000001100000000
:103e9800fdff00000a0000001600000001000000fd
:103ea8000e00000014000000fdff000008000000e4
:103eb80017000000feff00000c00000013000000c7
:103ec800020000000c0000001700000000000000c5
:103ed8000d0000000f0000000200000008000000b4
:103ee80012000000fdff000006000000170000009f
:103ef800ffff00000d00000012000000020000009b
:103f0800050000001000000001000000050000008e
:103f18001000000003000000090000001500000068
:103f2800030000000700000012000000fcff000072
:103f38000a0000000f000000fbff00001000000056
:103f48002300000001000000140000002a00000007
:103f5800feff00001500000024000000ffff000025
:103f68001100000025000000fbff00000f0000000a
:103f780027000000040000001400000029000000d1
:103f8800030000001200000024000000fdff0000f4
:103f98000f0000002a000000fbff000010000000d6
:103fa80028000000030000001000000028000000a6
:103fb800fdff00001700000026000000ffff0000c2
:103fc8000f0000002c000000fdff00000f000000a3
:103fd80026000000fbff0000140000002b0000007a
:103fe800fbff0000180000002b000000fdff000090
:103ff800130000002c000000feff00001600000067
:10400800240000000400000012000000230000004b
:10401800fcff00001000000029000000feff000067
:10402800170000002a000000ffff00000f0000003a
:104038002500000004000000170000002800000010
:1040480001000000130000002c000000feff00002b
:10405800180000002b000000fdff00001800000001
:104068002900000004000000120000002b000000de
:10407800fdff0000150000002b00000004000000f8
:104088001800000028000000fcff000010000000dd
:104098002c000000ffff00001600000025000000b3
:1040a80004000000140000002b000000fbff0000cb
:1040b800180000002b000000ffff000012000000a5
:1040c8002b000000fbff000010000000270000008c
:1040d80001000000100000002c0000000400000097
:1040e8000f0000002700000002000000110000007f
:1040f8002900000003000000140000002c0000004c
:1041080002000000150000002a0000000100000065
:10411800180000002600000003000000180000003e
:104128002b000000fbff00000f000000240000002f
:10413800030000001400000023000000feff000040
:104148001700000028000000010000001700000010
:104158002c000000000000001400000023000000f4
:10416800020000001300000027000000fdff00000f
:1041780010000000270000000400000015000000e7
:1041880026000000fcff00001000000029000000cd
:1041980004000000190000003800000004000000be
:1041a8002000000037000000fbff00001d00000099
:1041b80039000000feff0000210000003a00000066
:1041c800fbff00001c0000003b000000fcff00009b
:1041d8001e0000003e000000010000001e0000005c
:1041e80039000000020000001d000000400000002f
:1041f800fcff00001f0000003c000000040000005d
:10420800210000003d000000fdff00001b00000031
:104218003d000000fcff0000220000003b00000001
:10422800fdff0000190000003f000000fbff000038
:10423800190000003c000000040000001900000004
:1042480037000000000000001a00000038000000dd
:10425800fcff00001b0000003f000000fbff000007
:104268001e00000040000000ffff000022000000c8
:104278003a000000010000001d0000003c000000a2
:1042880004000000200000003a000000ffff0000ca
:104298001f00000037000000ffff000020000000a2
:1042a8003700000002000000200000003b00000072
:1042b800fbff00001c0000003b00000003000000a2
:1042c800220000003e000000040000002200000060
:1042d8003e000000fcff00001a000000380000004b
:1042e800fdff000021000000400000000200000067
:1042f8001b0000003e000000fdff00001c00000045
:1043080040000000ffff0000190000003c00000012
:104318000100000020000000400000000200000032
:104328001c0000003f000000030000001a0000000d
:104338003800000003000000210000003a000000df
:10434800fcff00001e0000003a000000feff000015
:104358001b0000003c000000040000001a000000e0
:1043680040000000010000001a0000003e000000ac
:10437800020000001a00000039000000ffff0000e2
:104388001c000000380000000200000019000000b6
:104398003a000000000000001e0000003c00000081
:1043a800fdff00001c0000003d000000ffff0000b2
:1043b8001f0000003800000001000000200000007d
:1043c8003a000000fdff0000200000003800000057
:1043d800010000001f0000003f0000000000000076
:1043e8001e00000038000000030000001c00000050
:1043f8003900000003000000220000003e00000019
:10440800010000001e0000003d0000000100000047
:104418001e00000039000000fcff00001c00000026
:104428003f00000000000000210000003e000000e6
:10443800020000001d0000003a000000000000001b
:104448002200000037000000fcff00001e000000f2
:1044580038000000010000001c0000003e000000c1
:10446800fcff0000200000003900000004000000ec
:10447800190000003d000000000000001d000000c1
:104488003d000000fbff000020000000400000008d
:10449800030000001f0000003a00000000000000b8
:1044a8001900000037000000040000001b00000095
:1044b8003c000000000000001f0000004000000059
:1044c80004000000220000003f000000030000007c
:1044d8002000000039000000ffff00001f0000005e
:1044e800400000000000000022000000380000002a
:1044f80002000000210000003c000000fcff00005a
:10450800210000003e000000000000001f00000025
:104518003f000000fdff00001c0000003f000000fd
:10452800020000001a0000003a000000020000002b
:104538001b0000003c000000040000001e000000fa
:1045480039000000fdff00001d0000003f000000d2
:10455800000000001e0000003d000000feff0000fb
:104568001c00000040000000030000001b000000c9
:104578003d00000003000000220000004000000091
:10458800fdff00002200000040000000fdff0000c9
:104598001f00000040000000ffff00001f00000097
:1045a80038000000fcff00001f0000003a00000077
:1045b800feff0000190000003b000000feff0000a5
:1045c8002200000037000000feff00001b00000072
:1045d8003a000000fbff000019000000390000004d
:1045e800feff00001c0000003e000000fdff000070
:1045f8001c0000003e000000000000002200000037
:104608003b00000003000000210000004000000003
:10461800000000001f000000400000000000000033
:104628001e0000003d000000010000001e00000008
:104638003e000000020000001e00000039000000db
:10464800ffff0000100000002a0000000200000028
:104658001500000023000000020000001200000006
:1046680028000000010000001300000029000000dd
:10467800040000001000000025000000fcff0000fe
:10468800110000002b000000fcff000013000000d8
:1046980024000000fdff00001200000026000000ba
:1046a80003000000180000002c000000feff0000be
:1046b80010000000230000000400000014000000a7
:1046c8002800000004000000170000002700000078
:1046d800fcff00001400000026000000000000009d
:1046e8001200000025000000040000001000000077
:1046f8002700000000000000110000002c0000004e
:10470800040000001700000024000000030000005f
:104718001800000025000000fdff00001500000043
:1047280026000000ffff0000130000002600000024
:10473800fdff0000150000002a0000000000000036
:10474800130000002b000000030000001700000009
:104758002c000000ffff0000160000002a000000e7
:10476800ffff0000110000002b0000000300000004
:104778001800000023000000ffff000018000000e0
:104788002b00000003000000140000002a000000b5
:10479800ffff00001100000028000000fdff0000de
:1047a8001800000027000000ffff000018000000ac
:1047b8002900000004000000160000002500000089
:1047c800ffff0000160000002300000001000000a9
:1047d8000f0000002b000000fdff00001200000089
:1047e8002a00000004000000170000002b00000051
:1047f80001000000160000002c000000020000006c
:104808000f0000002a000000ffff00001400000055
:104818002a000000fcff0000100000002300000038
:10482800040000001100000024000000ffff000049
:104838001300000023000000030000001600000021
:1048480029000000fbff00000f000000240000000a
:1048580003000000180000002c0000000300000006
:104868001300000029000000feff000013000000f4
:1048780025000000000000001300000024000000d4
:10488800020000001000000028000000feff0000e9
:104898001300000026000000ffff00000a000000cf
:1048a80013000000fbff00000600000013000000da
:1048b800fcff0000060000000f00000003000000dd
:1048c8000800000011000000ffff00000e000000bb
:1048d80013000000fcff00000700000012000000a9
:1048e800020000000900000015000000fbff0000a6
:1048f8000800000013000000020000000c00000087
:1049080010000000fcff00000b0000001100000078
:10491800ffff000005000000140000000100000077
:104928000500000010000000030000000600000061
:1049380015000000fdff0000080000001300000043
:10494800020000000e00000010000000020000003d
:104958000500000015000000010000000e00000026
:1049680016000000fdff00000b0000001000000012
:10497800fdff00000e000000100000000200000013
:104988000d00000017000000fcff000007000000f9
:1049980015000000020000000600000014000000de
:1049a800010000000800000018000000ffff0000e0
:1049b8000600000015000000ffff000007000000cf
:1049c80011000000fcff00000d0000000f000000b7
:1049d800030000000a0000000f00000003000000b0
:1049e8000500000010000000020000000b0000009d
:1049f80013000000030000000d0000001400000078
:104a08000200000005000000140000000300000080
:104a18000700000016000000020000000b00000064
:104a280012000000010000000a000000120000004f
:104a3800fdff000007000000170000000400000050
:104a48000700000015000000040000000a00000034
:104a58001400000004000000080000001500000019
:104a6800030000000a0000000f0000000100000021
:104a78000a00000010000000fdff00000800000010
:104a880010000000000000000900000017000000ee
:104a9800fdff00000e00000010000000feff0000f7
:104aa8000b00000015000000fcff00000d000000d6
:104ab80014000000020000000800000018000000b8
:104ac800ffff00000d00000018000000fbff0000c1
:104ad80007000000100000000400000009000000aa
:104ae80012000000fdff0000050000000f0000009c
:104af800feff00000a00000017000000feff000093
:104b08000d00000012000000feff00000800000079
:104b1800130000000300000007000000110000005f
:104b2800000000000e00000014000000ffff00005d
:104b38000800000018000000040000000b0000003e
:104b480012000000000000000e000000100000002d
:104b5800fbff00000a000000150000000300000031
:104b68000b00000016000000000000000e0000000e
:104b780018000000030000000500000013000000fa
:104b8800fcff00000700000013000000fcff00000d
:104b98000900000013000000feff000007000000ed
:104ba80010000000ffff0000070000000f000000d9
:104bb80001000000050000000f00000003000000d5
:104bc8000a000000140000000200000005000000b8
:104bd80018000000010000000a0000001700000093
:104be800000000000a000000160000000400000099
:104bf8000900000014000000feff00000b00000088
:104c08001500000003000000070000001500000068
:104c1800fcff00000900000013000000ffff000077
:104c28000a0000000f00000000000000050000005e
:104c38000f000000fdff0000090000001200000046
:104c4800fbff00000800000018000000040000003e
:104c58000500000013000000fbff00000500000035
:104c680010000000010000000d0000000f0000000f
:104c7800040000000800000012000000020000000c
:104c880006000000170000000300000006000000f6
:104c980015000000ffff00000900000015000000db
:104ca800010000000800000016000000fdff0000e1
:104cb8000600000010000000fcff00000a000000d1
:104cc80013000000fdff00000c0000000f000000b2
:104cd80003000000080000001400000004000000a9
:104ce8000b00000016000000fdff00000800000097
:104cf800120000000400000006000000130000007d
:104d0800040000000700000016000000fcff00007f
:104d18000800000018000000feff00000e00000060
:104d280012000000ffff0000090000001200000050
:104d3800020000000a0000000f000000fdff000054
:104d48000a00000013000000fbff00001200000032
:104d580025000000020000001100000024000000ef
:104d6800feff00001100000024000000feff00000c
:104d780015000000260000000000000018000000d8
:104d880024000000ffff00001800000024000000bd
:104d9800fdff00001500000029000000feff0000d4
:104da8001500000027000000010000000f000000af
:104db8002c00000003000000160000002600000080
:104dc800ffff0000120000002b000000fbff0000a6
:104dd8000f00000023000000030000001200000084
:104de80026000000ffff00000f0000002300000065
:104df800010000001000000023000000feff00007a
:104e08001700000025000000ffff00000f00000051
:104e180023000000ffff0000130000002500000031
:104e2800feff00001400000023000000ffff000048
:104e38001700000028000000fcff0000140000001c
:104e48002a00000001000000110000002b000000f3
:104e5800fbff000010000000280000000100000017
:104e6800160000002b000000fcff000018000000e6
:104e780026000000040000001200000024000000ca
:104e8800010000001100000026000000fdff0000e6
:104e98001800000023000000fcff000013000000c1
:104ea80028000000ffff000017000000230000009a
:104eb800ffff0000110000002700000000000000b4
:104ec800120000002500000000000000170000008c
:104ed8002700000000000000110000002b00000067
:104ee80003000000120000002a000000ffff00007d
:104ef8001200000028000000030000001700000056
:104f08002a000000fdff0000180000002400000037
:104f1800fbff0000160000002a000000040000004b
:104f28001600000024000000feff00000f00000033
:104f380024000000feff000016000000270000000b
:104f48000400000016000000230000000400000018
:104f580016000000290000000400000011000000f5
:104f680024000000040000001100000029000000d7
:104f7800ffff00000f0000002300000004000000f5
:104f880012000000290000000100000014000000c9
:104f980023000000fdff00001800000024000000ae
:104fa800feff00001f0000003800000001000000a4
:104fb8001d0000003b000000fbff00001f00000078
:104fc8003f000000ffff00001a000000380000004a
:104fd800fcff00001e00000040000000fcff000075
:104fe8001d00000037000000fbff00001f0000004c
:104ff8003a000000fcff00001d0000003f00000018
:10500800000000001d000000400000000300000038
:105018001b0000003e000000010000001d00000011
:1050280038000000000000001d0000003e000000e5
:10503800030000001e0000003b000000fcff000011
:10504800220000003d0000000300000020000000d6
:105058003a000000feff00001f0000003a000000b8
:10506800feff0000190000003e00000000000000e4
:10507800190000003d000000fdff000019000000bd
:1050880040000000fdff0000220000003f0000007b
:10509800feff0000190000004000000000000000b2
:1050a8001900000038000000ffff00001e0000008b
:1050b8003c000000fbff00001f0000004000000053
:1050c800feff00001b0000003f000000ffff000083
:1050d800200000003a000000040000002100000049
:1050e80037000000feff0000190000003d0000002e
:1050f800fdff00001c0000003e000000fdff000056
:105108001900000040000000feff00001e00000023
:1051180038000000030000001e00000039000000f5
:10512800feff00001d0000003a0000000200000021
:105138001c0000003a000000020000001a000000f5
:1051480039000000fdff00001d0000003e000000c7
:10515800fdff0000190000003d00000000000000f5
:105168002100000039000000030000001f000000bb
:105178003b00000002000000210000003800000091
:1051880002000000190000003e00000000000000be
:105198001f0000003f000000040000002200000083
:1051a80040000000ffff00001b0000003900000065
:1051b800030000001e00000037000000010000008e
:1051c800190000003a000000fdff0000190000006f
:1051d80040000000fdff0000210000003b0000002f
:1051e80002000000210000003f0000000300000052
:1051f8001c00000038000000fbff00001a0000003f
:1052080039000000feff00001c000000370000000d
:10521800030000001c0000003a000000020000002b
:105228001d0000003d000000040000001d000000fb
:1052380038000000fdff00002100000038000000d9
:10524800030000001a0000003900000001000000ff
:10525800220000003e000000fcff000019000000d2
:105268003900000000000000210000003f0000009d
:10527800feff00001a00000040000000ffff0000d1
:105288001f0000003f000000010000002100000096
:105298003b000000fcff00001b0000003c00000079
:1052a800fdff00001b0000003d000000040000009e
:1052b8001d0000003f000000000000001900000071
:1052c80039000000ffff0000210000003700000047
:1052d800030000001d0000003c0000000200000068
:1052e8001c0000003a000000020000001c00000042
:1052f8003c000000020000001b0000003a00000013
:10530800feff000019000000380000000200000045
:105318001f0000003d000000020000001e00000009
:1053280038000000010000001a0000003e000000e4
:1053380004000000190000003e0000000100000009
:1053480022000000400000000000000021000000d2
:1053580038000000ffff00001e0000003e000000b3
:10536800fcff00001900000039000000fdff0000ec
:105378001b000000370000000400000020000000af
:1053880040000000040000001e000000370000007c
:10539800fdff00001b0000003900000001000000b4
:1053a8001c00000037000000fcff00002200000085
:1053b80040000000030000001a0000004000000048
:1053c800feff000019000000370000000100000087
:1053d800200000003f000000000000001e00000048
:1053e8003e000000feff000019000000370000002a
:1053f800fcff00002000000038000000040000004e
:10540800190000003e000000030000001f0000001b
:1054180039000000fbff0000210000003e000000f2
:10542800040000001e0000003d0000000100000014
:105438001c00000037000000040000001b000000f2
:105448003b000000feff0000220000003c000000be
:1054580002000000100000002a0000000400000004
:105468001200000029000000fdff000014000000e9
:105478002b000000feff00000f00000024000000c9
:1054880003000000160000002c000000fdff0000d3
:1054980012000000270000000000000016000000b5
:1054a8002b000000fdff0000150000002800000090
:1054b800feff0000180000002b000000fcff0000a9
:1054c800120000002b000000fdff00001300000088
:1054d80027000000feff0000130000002a00000063
:1054e800040000000f000000260000000200000079
:1054f8001700000024000000feff0000100000005c
:105508002a0000000400000013000000230000002f
:105518000400000010000000250000000300000047
:10552800110000002b000000ffff00001000000029
:105538002500000002000000150000002300000004
:10554800ffff00000f0000002a000000ffff00001e
:1055580013000000270000000400000016000000ef
:105568002b000000ffff00001600000027000000cd
:10557800ffff0000170000002c00000002000000e0
:105588001100000026000000fdff000013000000cd
:105598002a000000feff000018000000290000009b
:1055a80003000000150000002a00000004000000ad
:1055b800150000002a00000004000000110000008f
:1055c8002c000000fbff0000100000002800000075
:1055d800000000001000000027000000010000008b
:1055e8001000000023000000fbff00000f00000077
:1055f80023000000fcff000014000000250000004c
:10560800fbff00001300000027000000fbff000064
:105618001200000027000000fdff0000110000003c
:1056280024000000feff0000120000002b00000014
:10563800020000001200000023000000fbff000031
:105648001600000026000000000000001400000002
