:020000040000fa
:10000000f07f002029710000457a00009d800000eb
:1000100000000000000000000000000000000000e0
:10002000000000000000000000000000374e00004b
:100030000000000000000000374e0000374e0000b6
:10004000374e0000374e0000374e0000374e00009c
:10005000716e0000374e0000374e0000374e000032
:10006000374e0000374e000065470000374e000055
:10007000374e0000374e000049760000374e000032
:10008000374e0000374e0000617b0000374e000005
:10009000374e00000000000000000000374e000056
:1000a000374e0000374e0000374e0000374e00003c
:020000040000fa
:1000b000f8b5c046f8bc08bc9e4670470971000000
:1000c000f8b5c046f8bc08bc9e467047e170000019
:020000040000fa
:1000d000f0b5437883b005000c000d2b01d900f07a
:1000e0003ffed54a9b00d3589f46002901d100f01e
:1000f000c3fd4b6a002b01d100f07efd00236a4650
:10010000512013710b00012201a906f085fb002884
:1001100021d16b4640221b7901a993431a002b7a07
:1001200051309b07db0f9b0113436a461371230079
:10013000012206f0ebf800280dd12100280005f07f
:1001400031f9002807d1691c2200280006f09efb27
:1001500001e005f027f903b0f0bd002901d100f05e
:100160009bfdcb69002b01d100f092fd0b6a002ba7
:1001700001d100f089fd4b6a002b01d100f080fd18
:10018000002301af3b7001220b005020390006f024
:1001900043fb0028dfd107223b7893432a7992065c
:1001a00001d400f0e5fc072213433b700123e37008
:1001b000230001223900502006f0a8f80028cad1f7
:1001c0002100280005f0eef80028c4d1691c2200a7
:1001d000280006f02bf90028bdd138702300012239
:1001e0003900593006f018fb0028b4d17f212b7953
:1001f0003a78db06db0f0a40db0113433b70012238
:1002000023003900593006f081f80028a3d16b791a
:1002100001223b7039002300603006f077f8002897
:1002200099d1230001223900623006f0f5fa002846
:1002300000d090e72b793a7899070c308243090f68
:1002400011431a072430920f814312010a430221fd
:100250009b06db0f8a435b0013433b7001222300a4
:100260003900323006f052f875e7002901d100f06c
:1002700033fdcb69002b01d100f01efd0b6a002b72
:1002800001d100f015fd4b6a002b01d100f020fddb
:10029000002301af3b7001220b005020390006f013
:1002a000bbfa021e00d056e701202b79397818429c
:1002b00001d100f056fc9e07f60f81433143022620
:1002c0005807c00f4000b143014304201b07db0f58
:1002d0009b0081430b433b70e270230001223900f5
:1002e000502006f013f8002800d034e72100280041
:1002f00005f058f8002800d02de7387023000122bf
:100300003900623006f088fa002800d023e7022284
:100310003b781a4201d000f061fc691c22002800e1
:1003200006f084f8002800d015e738702300012279
:100330003900593006f070fa002800d00be77f2111
:100340002b793a785b06db0f0a40db0113433b70e5
:10035000012223003900593005f0d8ff002800d0d1
:10036000f9e66b46de1cd87038802300012231008c
:100370005f3006f051fa002800d0ece60322337813
:100380003900934333703b706b79013a7b705f3077
:10039000230005f0bbffdee6002901d100f094fc4c
:1003a000cb69002b01d100f08bfc0b6a002b01d133
:1003b00000f036fc4b6a002b01d100f02dfc00232d
:1003c00001af3b7001220b005220390006f024fae5
:1003d000002800d0bfe608212b793a78db07db0f35
:1003e0008a43db0013433b70012223003900523063
:1003f00005f08cff002800d0ade62100280004f0b5
:10040000d1ff002800d0a6e6691c2200280006f0d3
:100410000df8002800d09ee63f222b7938809343c8
:1004200000d0afe3054b3b802300022239007a2045
:1004300005f06cff8fe6c046107600001503000043
:10044000002900d1e4e3cb69002b01d100f010fcbe
:100450000b6a002b01d100f007fc4b6a002b00d186
:10046000e2e3002301af3b7001220b005020390072
:1004700006f0d2f9002800d06de66b7969781b0789
:100480003a78db0f042900d177e310211b018a435e
:1004900013433b70012223003900502005f036ff42
:1004a000002800d057e62100280004f07bff002838
:1004b00000d050e62100280004f074ff002800d08e
:1004c00049e6691c2200280005f0b0ff002800d092
:1004d00041e63870230001223900582006f09cf9cb
:1004e000002800d037e608216b793a785b07db0fec
:1004f0008a43db0013433b7001222300390058304c
:1005000005f004ff002800d025e6388023000222f1
:100510003900632006f080f9002800d01be66b78d4
:100520003978032b05d1aa8804339205520f9943d9
:10053000114340202a7981439306db0f9b010b4333
:1005400051063f30c90fc90103400b431f213b70c7
:100550007b78d2068b43d20e1a437a702300022294
:1005600039001c3805f0d2fef5e5002900d1d3e3af
:10057000cb69002b00d1cbe30b6a002b00d1c3e386
:100580004b6a002b00d1bbe300236a465020137155
:100590000b00012201a906f03ff9002800d0dae59e
:1005a0006a464026ab791279db07db0fb2439b0129
:1005b00013436a4601a9137150302300012205f04c
:1005c000a5fe002800d0c6e52100280004f0eafec0
:1005d000002800d0bfe5691c2200280005f026ff96
:1005e000002800d0b7e56b460222988001a92300bd
:1005f000653006f011f9002800d0ace56b461a7999
:1006000003239a432b790c309907890f0a430c2155
:1006100052b2194082430a430f211b090a401b01b1
:1006200013436a4613713f23527959309a436b79c9
:100630009906890e0a43310052b21940b2430a4367
:100640007f21db090a40db0113436a4601a953718c
:100650002300022205f05afe7de5002900d1d3e2f5
:10066000cb69002b00d11fe30b6a002b00d117e3ed
:100670004b6a002b00d157e300236a4650201371c8
:100680000b00012201a906f0c7f8002800d062e59e
:100690006a4611797f226b790a401b07db0fdb0169
:1006a00013436a4601a9137150302300012205f05b
:1006b0002dfe002800d04ee52100280004f072fe37
:1006c000002800d047e5691c2200280005f0aefe96
:1006d000002800d03fe56b460222988001a9230044
:1006e000673006f099f8002800d034e56b463f22c9
:1006f0001b79302193432a7967309206920e134377
:100700006a4613716b7952795b079b0f8a431b0111
:100710001343aa8829395bb2d205520f8b43134386
:100720006a4601a953712300022205f0effd12e58c
:10073000002900d100e3cb69002b00d1f8e20b6a5d
:10074000002b00d100e34b6a002b00d1f8e200231c
:1007500001af3b7001220b005120390006f05cf81c
:10076000002800d0f7e401233978023099432b792f
:10077000da07d20f1143022281431a400a430421af
:100780008a430b4013433b700122230039004f3052
:1007900005f0bcfd002800d0dde42100280004f0b5
:1007a00001fe002800d0d6e4691c2200280005f0d4
:1007b0003dfe002800d0cee438702300012239002d
:1007c000583006f029f8002800d0c4e47f212b79a6
:1007d0003a789b06db0f0a40db0113433b70012292
:1007e00023003900583005f091fd002800d0b2e414
:1007f000002301223b80bb70390023005c3006f0ef
:100800000bf8002800d0a6e43f212b793a78db06cc
:100810009b0f0a409b0113433b70ab7903227b7013
:100820006b793900bb705c30230005f06ffd92e4fa
:10083000002900d174e2cb69002b00d100e20b6ae1
:10084000002b00d1f8e14b6a002b00d1f0e100232e
:1008500001af3b7001220b005120390005f0dcff95
:10086000002800d077e40821ab793a78db06db0f6b
:100870008a43db0013433b700122230039005130cf
:1008800005f044fd002800d065e42100280004f0b4
:1008900089fd002800d05ee4691c2200280005f0d4
:1008a000c5fd002800d056e438702300012239002d
:1008b000583005f0b1ff002800d04ce47f21ab791f
:1008c0003a781b07db0f0a40db0113433b70012220
:1008d00023003900583005f019fd002800d03ae413
:1008e000002369463b80bb700122230006315c3047
:1008f00005f092ff002800d02de40322a979bb78ef
:1009000088079343800f03430420014083430b4334
:10091000bb706b7939007b702b7956303b702300ac
:1009200005f0f4fcfff717fc002900d198e1cb6932
:10093000002b00d190e10b6a002b00d188e14b6abb
:10094000002b00d180e1002301af3b7001220b009e
:100950005220390005f060ff002801d0fff7fbfbb3
:1009600001212b79194203d03a788a430a433a701d
:100970000221194203d03a788a430a433a7004228a
:100980001a4203d03b78934313433b702300012268
:100990003900522005f0bafc002801d0fff7dbfb3c
:1009a0002100280004f0fefc002801d0fff7d3fb53
:1009b000691c2200280005f039fd002801d0fff74e
:1009c000cafb3870230001223900593005f024ff9a
:1009d000002801d0fff7bffb7f216b793a785b07d6
:1009e000db0f0a40db0113433b7001222300390077
:1009f000593005f08bfc002801d0fff7acfb6b46ab
:100a0000de1cd87038802300012231005f3005f0f1
:100a100003ff002801d0fff79efb0321ab8832784b
:100a2000db059b0e0a409b00134333700122230019
:100a300031005f3005f06afc002801d0fff78bfb26
:100a4000230001223100623005f0e6fe002801d0cb
:100a5000fff781fb01223378390093436a796130d3
:100a60009207d20f134333707b70ab7902223b7035
:100a7000230005f04bfcfff76efb002900d13be1a2
:100a8000cb69002b00d133e10b6a002b00d12be1a5
:100a90004b6a002b00d123e100236a4651201371d9
:100aa0000b00012201a905f0b7fe002801d0fff7d5
:100ab00052fb6b4610221b7901a9934313436a46ec
:100ac000513013712300012205f020fc002801d0d1
:100ad000fff741fb2100280004f064fc002801d04e
:100ae000fff739fb691c2200280005f0cffefff755
:100af00032fb002900d183e04b6a002b6ad000232f
:100b00006a46512013710b00012201a905f084fef1
:100b1000002801d0fff71ffb6b4620221b7901a99b
:100b200093431a002b7a5130db07db0f5b01134331
:100b30006a4613712300012205f0e8fb002801d06a
:100b4000fff709fb2100280004f02cfc002801d04d
:100b5000fff701fb691c2200280005f097fefff754
:100b6000fafa07239943f8333970e370fff7b5fbbe
:100b70003b70ff23e370fff71bfb1c315b018a43d3
:100b8000134386e4402b00d1e2e0802b00d1e3e068
:100b9000c02b00d048e42300022239007a2005f05f
:100ba0003bfe002800d03fe42a79397853079b0f99
:100bb00018308143db000b4307219206520f8b4311
:100bc00013436a793b707b7852078b43520f134370
:100bd0007b7029e401204042fff7bdfa93433b704c
:100be000013a23003900623005f090fb002801d063
:100bf000fff7b1fafff791fb01204042fff7abfa94
:100c000001204042fff7a7fa01204042fff7a3fa74
:100c100001204042fff79ffa01204042fff79bfa74
:100c200001204042fff797fa01204042fff793fa74
:100c300001204042fff78ffa01204042fff78bfa74
:100c400001204042fff787fa01204042fff783fa74
:100c500001204042fff77ffa01204042fff77bfa74
:100c600001204042fff777fa01204042fff773fa74
:100c700001204042fff76ffa01204042fff76bfa74
:100c800001204042fff767fa01204042fff763fa74
:100c900001204042fff75ffa01204042fff75bfa74
:100ca00001204042fff757fa01204042fff753fa74
:100cb00001204042fff74ffa01204042fff74bfa74
:100cc00001204042fff747fa01204042fff743fa74
:100cd00001204042fff73ffa01204042fff73bfa74
:100ce00001204042fff737fa01204042fff733fa74
:100cf00001204042fff72ffa01204042fff72bfa74
:100d000001204042fff727fa01204042fff723fa73
:100d100001204042fff71ffa01204042fff71bfa73
:100d200001204042fff717fa01204042fff713fa73
:100d300001204042fff70ffa01204042fff70bfa73
:100d400001204042fff707fa01204042fff703fa73
:100d5000133b3b70fff768fb034b3b80fff764fbe3
:0c0d60000020fff7f8f9c0461d07000056
:020000040000fa
:100d6c00f0b516001f00446a9db00390259d0696b1
:100d7c000797002c08d1102007f09ef8039b4460c5
:100d8c00586284600460c460039b5b6a1968002924
:100d9c000bd05a68012393404a608b60039806f08d
:100dac0023fd0022039b5b6a1a60002f1cda0123cf
:100dbc002b607b005b080793079dba4b2a001893a6
:100dcc001a409a421cd1b84b249a28031360069bf4
:100ddc00000b1843b54b01d100f081fd269a002a77
:100dec0005d10933059308e000232b60e4e71a00d2
:100dfc00093205920c33269a136005981db0f0bd8c
:100e0c00069b079c109311941098119900220023b3
:100e1c0005f092fc041e0ed00123249a1360a34b00
:100e2c001a000d320592269a002ae6d01a0026994d
:100e3c000e320a60e1e71aab01931bab00930398e7
:100e4c00109a119b05f0ccf86e000490760d00d131
:100e5c007ee010981199119b954a1b031b0b1a43aa
:100e6c001100944b1694f6180022934b00f048fd99
:100e7c00924a934b02f0e2f9924a934b01f0daf862
:100e8c00040030000d0005f085fc904a904b02f0f8
:100e9c00d5f902000b002000290001f0cbf804006a
:100eac000d0005f095fd0022029000232000290082
:100ebc0005f048fc00280bd0029805f06bfc2b00c9
:100ecc00220005f039fc43425841029b1b1a029345
:100edc0001231393029b162b0fd810981199da004b
:100eec007c4b9b181a685b6805f02cfc00284bd0d7
:100efc00029b013b0293002313931a9b9e1b00231e
:100f0c0008933300013b0b9304d501239b1b0893df
:100f1c0000230b93029b002b38db029a0b9b94460d
:100f2c0063440b93002312920d93229b0124092bf3
:100f3c0000d985e0052b02dd0024043b2293229b83
:100f4c00981e032800d985e006f0d4ff296b697838
:100f5c001a9b1b9a9e18604bf218202a0fdd402317
:100f6c009b1a9d405d4b0698f318d840284305f01a
:100f7c0099fe01235a4c013e0919169374e720235c
:100f8c0006989b1a9840f2e71390b6e7089b029ad2
:100f9c009b1a089353420d9300231293c5e7002329
:100fac000f93239b002b59dc01230c930a9323935f
:100fbc00039a556a00226a60043210001430696882
:100fcc0098424fd9039805f095fc039b28605b6a07
:100fdc001b6805930a9b0e2b00d9f7e0002c00d15f
:100fec00f4e0029b002b00dc7ee01a000f21394b51
:100ffc000a40d2009b181e685f68029b02241d11d8
:10100c00eb060ad5374b0d401a6a5b6a109811999a
:10101c0001f086fb069007910134324b36e0012338
:10102c00bee70023239a0f939446029b63440c93d0
:10103c0001330a93002bbbdc0123b9e70123f1e751
:10104c0000230f942293013b00220c930a932392ca
:10105c001333ade701230f93023bf5e7239b0c936e
:10106c000a93a5e7013169605200a6e701231d42ee
:10107c0009d0e4180e9b30001a685b68390002f046
:10108c00ddf806000f000e9b6d1008330e93002d3b
:10109c00ecd10698079932003b0001f041fb069019
:1010ac0007913ce00000f07f0f270000dc7f000080
:1010bc000000f03f01fcffff0000f83f61436f634d
:1010cc00a787d23fb3c8608b288ac63ffb799f5055
:1010dc001344d33fb85a000032040000120400003d
:1010ec00000010fe487a0000029b0224002b16d050
:1010fc00109811995d420f23d54a2b40db00d31871
:10110c001a685b6802f09af8012700230690079191
:10111c00d04e2d11002d00d089e0002bbfd1139b98
:10112c00002b00d18ee0069e079f0022ca4b300098
:10113c00390005f007fb002800d183e00a9b002b47
:10114c0000d17fe00c9b002b3cdd029b3900013b66
:10115c000e930022c14b300002f070f806900791fc
:10116c000c9f0134200005f015fb069a079b02f03a
:10117c0065f80022ba4b00f05dff14901591149c99
:10118c00159d159bb74a9e18002f5fd1069807999d
:10119c000022b54b00f0b4fb2200330006900791ff
:1011ac0005f0e4fa002800d0a0e2b0481599844676
:1011bc0061440b0006980799220005f0c3fa002839
:1011cc0000d08de2109b119c069307941b9b002b67
:1011dc0000da5fe1029a0e2a00dd5be19c4bd20043
:1011ec009b185c681b6808930994239b002b00dbfd
:1011fc00cfe00a9b002b00ddcbe000d073e2089817
:10120c0009990022984b02f019f8069a079b05f0f1
:10121c00b7fa0a9d2e00002800d046e2059b059add
:10122c005f1c31231370029b0133029341e23d4258
:10123c0005d03268736802f001f83b0001346d1080
:10124c00083667e7029b0a9f0e938be77a1e804b4a
:10125c00d2009b18186859680f9b002b4bd00200ca
:10126c000b000020824901f05bfa3300220000f0f1
:10127c0047fb05000e00059b1493fb18179306986b
:10128c00079905f0a5fb040005f084fa02000b0099
:10129c000698079900f034fb149b30345f1c1c70cb
:1012ac002a0033000690079105f04cfa002864d10f
:1012bc00069a079b0020684900f022fb2a003300a5
:1012cc0005f040fa002800d0b0e0179bbb4200d1db
:1012dc0078e70022614b2800310001f0afff0022bb
:1012ec0005000e00069807995c4b01f0a7ff1497b8
:1012fc0006900791c3e72200330001f09fff059c85
:10130c0014901591e31919930698079905f060fb51
:10131c00179005f03ffa0b0002000698079900f0b1
:10132c00effa179b050030332370199b01340e0024
:10133c009c4227d114981599059b0022df194c4b20
:10134c0000f078fe02000b002800310005f00efac8
:10135c0000286bd1149a159b0020454900f0d0fa57
:10136c0002000b002800310005f0ecf9002800d138
:10137c0028e77b1e1a78302a02d00e9b029343e09a
:10138c001f00f6e70022354b01f058ff069007913d
:10139c00bae7059c0a9a2300069d079e013b9b1801
:1013ac000693089a099b2800310001f0b9f905f061
:1013bc000ffb0a9005f0eef9089a099b01f03eff2d
:1013cc000b0002003100280000f09afa0a9b671cff
:1013dc0030332370069ba3424ed102000b0000f069
:1013ec0029fe089a099b04000d0005f0bff900289e
:1013fc001ad1089a099b2000290005f09df90028b4
:10140c0002d00a9bdb070fd40499039806f0ecf981
:10141c0000233b70029b249a01331360269b002b04
:10142c0000d1eae41f60e8e4029b0e937b1e1a785d
:10143c00392a08d1059a9a421cd10e9a0599013283
:10144c000e9230220a701a7801321a7095e7c04653
:10145c00b85a0000487a00000000f03f0000244019
:10146c0000001c400000c0fc000014400000c07cc8
:10147c000000e03f1f00d9e700229f4b01f0defe89
:10148c000022002305000e003c0005f055f9002851
:10149c0087d0b9e70f9a002a00d189e0229a012a55
:1014ac006ddc169a002a66d0944a9b180d9d089cf8
:1014bc00089a0121d21808920b9a0398d3180b930f
:1014cc0006f02bfd0600002c0edd0b9b002b0bdd1c
:1014dc000b9a2300944200dd1300089ae41ad21ae6
:1014ec0008920b9ad31a0b930d9b002b1dd00f9bbc
:1014fc00002b61d0002d10dd31002a00039804f080
:10150c0019fe049a01000600039803f0f5fb07008e
:10151c000499039806f068f904970d9b5a1b04d0a4
:10152c000499039804f006fe04900121039806f038
:10153c00f4fc129b0500002b40dd1a0001000398ff
:10154c0004f0f8fd229b05000027012b3edc002750
:10155c00069bbb4236d1079b1b03bb4232d1189b67
:10156c00079a13422ed0089b0137013308930b9b2b
:10157c0001330b9326e036231a9a9b1a96e70a9ba3
:10158c005d1e0d9bab4208db5d1b0a9b002b0cda2e
:10159c00089b0a9a9c1a00238ae70d9b0d95ea1a60
:1015ac00129b00259b181293efe7089c0a9b7fe780
:1015bc000d9d089c0f9e86e70d9ab1e7229b002794
:1015cc00012bc4dd129b0120002b08d02b690333a7
:1015dc009b00eb18586806f0b9f82023181a0b9bdf
:1015ec00c0181f23184046d001331b1a042b3fddb3
:1015fc001c23181a089b24181b1808930b9b1b18e8
:10160c000b93089b002b05dd1a000499039804f03a
:10161c003dfd04900b9b002b05dd29001a0003985f
:10162c0004f034fd0500139b002b26d029000498f0
:10163c0006f0a6f8002820da029b0a22013b02934e
:10164c0004990023039805f029f80f9b0490002bb4
:10165c0000d14de1002331000a22039805f01ef859
:10166c000c9b0600002b51dc229b022b4edd0ce068
:10167c00042bc6d018001c30bce70a9b002b3fdca7
:10168c00229b022b3cdd0a9b0c930c9b002b0cd158
:10169c0029000522039805f001f8050001000498c3
:1016ac0006f06ef8002800ddb8e5239b059fdb43b0
:1016bc00029300230a932900039806f095f8002e54
:1016cc0000d1a1e60a9b002b05d0b34203d0190030
:1016dc00039806f089f83100039806f085f893e634
:1016ec003d003e00e1e700252e00dee70e9b3d00ad
:1016fc0002933e0092e5c0460000244033040000f3
:10170c000f9b002b00d1ade00a9b0c93002c05dd48
:10171c0031002200039804f0b9fc06003000002fc1
:10172c0011d07168039805f0e5f8310004003369b5
:10173c000c319a1c92000c3006f0e6fb01222100c1
:10174c00039804f0a3fc0a960600059b0893290055
:10175c00049803f0fffb0a990d900400049806f01e
:10176c000ff832000e902900039804f025fb01239a
:10177c000b93c36830340700002b04d1010004988c
:10178c0005f0feff0b903900039806f02df80123ad
:10179c00069a0b991a40089b5f1c229b0b43134320
:1017ac0009d1392c21d00e9b002b01dd0d9c31343d
:1017bc00089b1c707fe70e9b002b03db22990b43cd
:1017cc0013431cd10b9b002bf2dd049901220398cf
:1017dc0004f05cfc2900049005f0d2ff002802dc28
:1017ec00e6d1e307e4d5392ce0d13923089a1370fc
:1017fc007b1e1a78392a67d001321a705be70b9b73
:10180c00002b03dd392cf0d00134d1e7089b059a6d
:10181c001c7001239b1a089a9b180c9a9a423ed072
:10182c0000230a220499039804f038ff0a9b0490c1
:10183c00b34209d100230a220a99039804f02eff1f
:10184c000a900600089782e70a9900230a22039857
:10185c0004f024ff00230a900a223100039804f0bc
:10186c001dffeee70a9b0c93059b0a932900049835
:10187c0003f070fb0a9b30305f1c18700c9a059bb0
:10188c000400fb1a9a4208dd00230a2204990398eb
:10189c0004f004ff0a970490e8e700230a930499e4
:1018ac000122039804f0f2fb2900049005f068ff74
:1018bc0000289ddc01d1e3079ad47b1e1a78302acc
:1018cc0000d0f8e61f00f8e7059a9a4205d1029b72
:1018dc000133029331231370ede61f0088e7269a3b
:1018ec0005930833002a01d0fff785fafff785fa34
:1018fc000c9b002bb8dc229b022b00ddc5e6b3e76a
:020000040000fa
:10190c00f0b5574645464e46de46e0b50f037f0a16
:10191c00450f3d43ac465d004e00cc0f690d8a4629
:10192c001f03ca49550f83b0c0007f0ad200760d41
:10193c008046db0f2f4301928a4500d1c0e055460b
:10194c00751ba9460125ab465d466b409b469c42e8
:10195c0000d190e04d46002d00dcbbe05346002b3f
:10196c0000d1d4e08e4200d19fe280231b041f43a0
:10197c004b46382b00dd64e11f2b00dd16e2494697
:10198c0020233d005b1a11009a409d40531e9a4142
:10199c004b46a8464d46df406346e9404546db1bb7
:1019ac009c460d431543451ba8428041634641426a
:1019bc00591a0b0200d41ce149024b0a98464346c3
:1019cc00002b00d130e1404605f0e0fd0300083b60
:1019dc00202229004746d21a9f40d1409d400f43f8
:1019ec009e4200dd1ce19e1b731c1f2b00ddb2e12f
:1019fc0020222800d21a390095409140d8406a1e06
:101a0c00954101430d4339000026d9406b0709d09d
:101a1c000f232b40042b05d02b1dab42ad416d4247
:101a2c0049191d000b0200d4e6e0721c874b5605c9
:101a3c00760d9a4200d1eee0854fed080f40780705
:101a4c00284382467a02120b00211203130b0a0d53
:101a5c0012051a437f4b3605134033435b00e407f2
:101a6c005b0823435046190003b03cbc9046994692
:101a7c00a246ab46f0bd4d46002d5bdd5346002b18
:101a8c0000d19ae08e4200d109e180231b041f4350
:101a9c004b46382b00dd6ee11f2b00dca5e1390035
:101aac00203bd9404b46202b05d040234d465b1b99
:101abc009f403a430192019d6f1ebd410d435ee173
:101acc0065493d0089461543b144002d2dd09b46f8
:101adc009c422fd0494600294ad1604d711c2942a5
:101aec0000d0bde03d00614615430143aa46002edf
:101afc0000d0f8e1002900d1bee1002d00d0fde1bd
:101b0c006346c0085a0702439246d9087de03b0061
:101b1c00134300d1bbe04b46013b002b00d1bbe192
:101b2c00894500d1bbe0994622e701256b409b46d5
:101b3c009c42cfd14946002900d0b8e0711c8a469e
:101b4c00554646490d4245d161460143002e00d011
:101b5c0070e1002900d10de23b00134300d00fe2ed
:101b6c006346c0085b07184363468246d9084ce0bd
:101b7c005146891b89465c46002e00d0c4e0634662
:101b8c00034300d150e10b00013b002b00d1e8e1f5
:101b9c002e4d9946a94200d0bfe0d2087b071a43cc
:101bac009246f90853460b4300d13be280221203c4
:101bbc000a431203120b254e46e73b00134300d198
:101bcc007ae14b46013b002b00d121e1894566d0df
:101bdc0099465de71d4b9a4500d1dee182188242a1
:101bec0089415646674449427918cd075208154336
:101bfc0049086b0700d00be74b07ed081d43aa46bd
:101c0c00b146c908114b9945ccd04b460a035e0529
:101c1c00120b760d18e71600002300229a4613e7e4
:101c2c000b49f61a3940f1e6280005f0affc030029
:101c3c0018331f2b00dccbe6083885402f0000251d
:101c4c00cee63a4315006a1e9541ace6ff0700004c
:101c5c00ffff7fffffff0f8001f8fffffe07000073
:101c6c006146851acb1ba842894149428846190016
:101c7c004346c91a0b0088461b0200d529e10b000c
:101c8c002b439a4600d09ae600210024bde7634618
:101c9c00c0085b07184363468246d908b2e763461f
:101cac00c0085b07184363468246d9087ae7534657
:101cbc009b1b9946002e00d189e0d84b9a4500d148
:101ccc00e4e0802361461b0419438c464b46382bb9
:101cdc0000dd25e11f2b00dd6ae1494620234e463d
:101cec005b1a6546010098409d40f140431e9841a7
:101cfc000d4305436046f0403f18ad1895428941ad
:101d0c004942c91956463fe0c44b9a4500d1bde043
:101d1c00802361461b0419438c464b46382b00dd4f
:101d2c00d1e01f2b00dd01e1494620234e465b1a12
:101d3c006546010098409d40f140431e98410d437b
:101d4c0005436046f0403f1a551baa42894149425f
:101d5c00791a56462de63a001f3ef2401600202b0b
:101d6c0003d04022d31a9f403d436b1e9d4100215e
:101d7c00354300263de73a4315006a1e95412d1860
:101d8c0085428041414261440b0200d431e7a34bb0
:101d9c0001369e4200d13fe70122a14f6b0839402a
:101dac0015401d43cb071d4349082fe63900203b46
:101dbc00d9404b46202b05d040234d465b1b9f4002
:101dcc003a430192019d6f1ebd410d43ebe5634605
:101ddc00034329d04b46013b002b00d116e18f4d1c
:101dec00a94500d1d9e6994670e7494620233d0024
:101dfc005b1a9d4011009a40a8464d46531e9a41cd
:101e0c004b46e9404546df400d431543bc44b6e71d
:101e1c0085188542894167444942791801260b028d
:101e2c0000d4e6e60226b7e7d2087b071a439246af
:101e3c00f908e7e6002929d063463e005d07c00893
:101e4c00d90816432843002e00d188e080252d03a5
:101e5c00294207d0fe082e4204d15c463100d2083c
:101e6c0078071043ca00410f1143c0004a07c0084d
:101e7c0010438246c90895e6002d00d104e7780787
:101e8c00d20810438246f9085c46bee67807d208b1
:101e9c0010438246f90885e6851a6346a8428041bc
:101eac00df1b4042391a012683e56346c0085a07f6
:101ebc0002439246d90875e66346c0085a070243a6
:101ecc009246d9089ee6634603431d00681e854171
:101edc003ae7151a6346aa429241ff1a5242bb1abc
:101eec0098465c466be5002932d1002d72d07907fb
:101efc00d2080a439246f9085c4653e66346851ab3
:101f0c00d91ba8429b415b42c91a0b024ad5151a30
:101f1c006346aa429241ff1a5242b91a5c4675e5d1
:101f2c00634603431d00681e8541e6e66646203b7a
:101f3c00de404b46202b06d0494640235b1a6146b7
:101f4c009940084380464546691e8d413543fbe662
:101f5c006346c0085e07d908002d3fd13043824646
:101f6c0020e6151a6346aa429241ff1a5242b91a48
:101f7c0001261ee5d2087b071a439246f90844e66f
:101f8c008518854289416744494279180b0200d46f
:101f9c002fe6234b012619402be600235646002240
:101fac009a4651e52b000b439a4600d16ce620e68d
:101fbc006646203bde404b46202b06d0494640234c
:101fcc005b1a61469940084380464546691e8d411f
:101fdc00354392e6802100240903e7e5064380207f
:101fec000003014208d0fd08054205d1d2087f0745
:101ffc003a4316005c462900ca00710f1143f600e3
:10200c004a07f60832439246c908cbe58518954233
:10201c00924167445142791800e7c046ff0700001f
:10202c00ffff7fff0023024e9a461a000ce5c046c4
:10203c00ff070000f8b54746ce460e034d00760a62
:10204c00cc0f410f31438946190380b5490a570f0c
:10205c005e000f436d0dc000760ddb0fb846d2004d
:10206c009c4200d1a3e0af1b002f00dc83e0002ecc
:10207c0000d1c1e0c94b9d4200d188e1802341468b
:10208c001b0419438846382f00dd5de11f2f00dd4e
:10209c0007e2202311004646db1b9e40f9409a4084
:1020ac000e434146531e9a41f9404b465b1a9946e2
:1020bc003243871ab84280414b464142591a0b02af
:1020cc0000d4d7e049024e0a002e00d12fe1300097
:1020dc0005f05cfa0300083b20223900d21a9e401e
:1020ec00d1409f400e439d4200dd1ce15d1b6b1ceb
:1020fc001f2b00ddaae12021c91a3d0030008f40c2
:10210c008840dd40791e8f4131002843d94000259d
:10211c0007437b0709d00f233b40042b05d03b1d05
:10212c00bb42bf417f42c9191f000b0200d4a4e07f
:10213c006a1c9a4b55056d0d9a4200d1aae0984a3b
:10214c00ff080a405007384384465202120b002104
:10215c001203130b0a0d12051a43924b2d05134053
:10216c002b435b00e4075b082343604619000cbc5f
:10217c0090469946f8bd002f4cd18b4e691c3142cc
:10218c0000d0e7e04646494616430143b446002dcd
:10219c0000d00ee2002900d1cfe1002e00d010e2d9
:1021ac004b46c0085f070743bc46d9086de0ab1b24
:1021bc00002b00dc9ee0002e3ed078498d4200d1f1
:1021cc00e5e080213e0009040e43b046382b00ddcb
:1021dc004be11f2b00dc81e1190046462039ce4033
:1021ec00202b04d04021cb1a414699400a431700ba
:1021fc007a1e974137433de14346134300d1bde07e
:10220c007b1e002b00d1b2e164498f4200d1a7e1c3
:10221c001f0038e7771b002d00d0efe04946014343
:10222c0000d177e1791e002900d119e25b4ca7425d
:10223c0000d14be20f00eae03900114300d1a0e1dc
:10224c00591e002900d158e1544eb34200d187e108
:10225c000b00bbe7514b9e4200d132e28218824206
:10226c00804149463500414440420918cf07520885
:10227c00174349087b0700d04de74807ff08074381
:10228c00bc46c908454b9d4229d00a036d05120b6b
:10229c006d0d5ce71500002300229c4657e74b466a
:1022ac005f07d9084346c00813433843002b00d1bd
:1022bc00f6e180231b03194208d04546ed081d4268
:1022cc0004d143462900d20858071043ca00430fd3
:1022dc001a43c0005707c0080743bc46d1086346e1
:1022ec000b4300d112e2802212030a431203120b99
:1022fc002a4d2ce7002b59d12b4b6e1c1e42a9d119
:10230c004b460343002d00d00de1002b00d1b2e170
:10231c003b00134300d0b5e14b46c0085f07384380
:10232c008446d908b1e71e49ed1a3140f1e6380070
:10233c0005f02cf9030018331f2b00dccce63e0013
:10234c00083886400027cee6434613431a00571e32
:10235c00ba41aee649464646871a8e1bb8428941b9
:10236c004942761a310200d519e13b0033439c46b1
:10237c0000d0a9e600210025002486e74b46c008c2
:10238c005b0718434b468446d9083d007ae74b4619
:10239c00c0085f070743bc46d908a0e7ff07000049
:1023ac00ffff7fffffff0f80fe070000731b002d58
:1023bc0000d185e0d8498e4200d173e180214d4691
:1023cc0009040d43a946382b00dd0ee11f2b00dd5f
:1023dc0084e12021c91a05004f4688408f40411ed8
:1023ec0088414946dd40d9402f4307438844bf18f4
:1023fc009742924151424144350040e0c6498e42d9
:10240c0000d1a5e080214c4609040c43a146382f8d
:10241c0000ddbee01f2f00ddede020210500c91b13
:10242c004c4688408c40fd40411e884149462c4317
:10243c002043f9404446611a8846171aba42924121
:10244c0041465242891a1c00350038e630001f3dc7
:10245c00e840202b03d04021cb1a9e4037437b1ef3
:10246c009f4100210743002504e7434613431f0007
:10247c007a1e97413f1887428041414249440b02e2
:10248c0000d4f7e6a44b01359d4200d103e7a34ae3
:10249c007b080a4001210f401f43d3071f435108fb
:1024ac0037e63b004646203bde40202f04d040233d
:1024bc004146db1b99400a43571eba413243f8e5ab
:1024cc004946014300d1f4e0591e002900d115e121
:1024dc00914dab4200d1e5e00b0074e72021c91a05
:1024ec00160047468a408f40511e8a414146de40c5
:1024fc00d940374317438944bce78718494687427c
:10250c009b4141445b42c91801250b0200d4b1e642
:10251c000225bce74146d208480702439446c90845
:10252c001c003d00aee6002b00d0b8e63b00d20804
:10253c007f071743bc46d908d1e6002e00d18ce0aa
:10254c004146d2084f073a439446c9081c009ce602
:10255c004146d2084f073a439446c9081c00bee6d0
:10256c004b46c0085f0738438446d908b7e6871a3c
:10257c004b464246b8428041991a4042091a0125fd
:10258c009de54a46c008570738438446d1081d00cc
:10259c0078e6494601430800471eb8414de7171a33
:1025ac0041464846ba42b641091a76428e1b1c0077
:1025bc008ae500292ed1002ecad1802100240903de
:1025cc0091e649464646871a8e1bb84289414942d4
:1025dc00711a0e023cd5171a41464846ba4292412e
:1025ec00091a5242891a1c0093e54b4603431f00fb
:1025fc00781e8741fbe639004c462039cc40202f11
:10260c0004d040214d46c91b8d402843411e8841b2
:10261c00204312e74946c0084d072843c908002e3d
:10262c003ed080252d03294208d04646f7082f427c
:10263c0004d11c003900d20870071043ca00430fa4
:10264c001a43c000c008570738438446d10846e6f1
:10265c003b000b439c4600d00ce60021002414e602
:10266c00171a41464846ba429241091a5242891aef
:10267c001c00012523e53b00d2087f071743bc460d
:10268c00d90802e68718494687429b4141445b4280
:10269c00c9180b0200d4ede5204b01251940e9e5e2
:1026ac0084461ce63b00d2087f073a439446d9087f
:1026bc0015e63900d2087f073a439446c9081d0035
:1026cc00e0e50023350000229c4640e54146d20857
:1026dc004f071743bc46c9081c0000e619004d46bd
:1026ec002039cd40202b04d04021cb1a49469940ab
:1026fc0008430700781e87412f4378e68718494620
:10270c0097429b4141445b42c918fde60023024db0
:10271c009c461a001be5c046ff070000ffff7fff29
:10272c00f0b557464e464546de46e0b581460500b7
:10273c000c03480085b092461f00240b400dce0fb1
:10274c00002800d1ade0864b984200d1c8e06b0f59
:10275c00e4001c4380231b0423439846814bed006b
:10276c009b4600239946834400933c037b005046d0
:10277c00240b5b0dff0f002b00d177e0784a9342be
:10278c0018d07849420f8c46e400144359468022f5
:10279c0063441204cb1a14439b46c200002033003e
:1027ac007b409a464b460f2b00d9ede06e499b00bf
:1027bc00cb589f466d4b52469c462243e344002a1d
:1027cc0000d0aee04946022319438946002402207a
:1027dc00e5e73e00a04615000090009b022b00d1bf
:1027ec000be2032b00d19de1012b1fd0b246604fb1
:1027fc005f44002f00dcdae16b0700d00ee2ed083d
:10280c004346db0106d542465a4b80271a40904678
:10281c00ff005f44584b9f4224dc43465b071d433b
:10282c0043467f055c02240b7b0d03e0b24600237c
:10283c000024002500212403270b0c0d24053c4308
:10284c001f054e4b28001c40534627437f00db07d7
:10285c007f081f43390005b03cbc90469946a24600
:10286c00ab46f0bd3e4b00240025e3e75246224325
:10287c0050d0002c00d18ae1200004f087fe020029
:10288c000b3a1d2301009b1a52460839da408c4042
:10289c00144352468a403a4b58449b46834400208a
:1028ac007de74b46234398462cd0002c00d15ee1ab
:1028bc00200004f06bfe02000b3a1d239b1a4a46c3
:1028cc000100da4008398c4013004d4623439846ea
:1028dc008d402c4b1b1a9b4600239946009344e7d2
:1028ec004b462343984606d108239946063b0025c0
:1028fc008346009339e70c239946093ba04683464f
:10290c00009332e70423994600239b4601330025ac
:10291c0000932ae7494601231943894600240120e4
:10292c003de74a4603231a4391460320524636e7b5
:10293c00002380249a4624030025094b7ae7802340
:10294c0041461b03194200d1ece01c4200d0e9e0e7
:10295c001c432403240bba461500014b6ae7c046fe
:10296c00ff07000001fcffffa074000001f8ffff4f
:10297c00ff030000fffffffefe070000ffff0f80bc
:10298c00f30300000dfcffff444500d2d6e000d15c
:10299c00d1e001235b429c462e0040460025e344d7
:1029ac00130e24021c431302994623041b0c210c06
:1029bc000093019102f0e0fb009a0b044243310cae
:1029cc00070019438a4207d90919013f8c4203d8e1
:1029dc008a4201d9871e0919881a019902f0ccfb89
:1029ec0009048c4631046646009a090c42430300e4
:1029fc0031438a4204d90919013b8c4200d807e1c2
:102a0c003f041f43891a4b464a461e0c1204380ccd
:102a1c000296160c3200039646433b04b846370028
:102a2c00029e1b0c5a4373437043db19160cf618a9
:102a3c00b74203d980235b029c466044330c1204da
:102a4c003604120c1818b618814200d280e07cd0e3
:102a5c00ae1b091ab54280419b4f4042081a5f4495
:102a6c00844200d1fde0019902f086fb009a0b0430
:102a7c004243310c050019438a4207d90919013d1b
:102a8c008c4203d88a4201d9851e0919881a0199ea
:102a9c0002f072fb09048c4631046646009a090c5c
:102aac004243030031438a4207d90919013b8c4246
:102abc0003d88a4201d9831e0919039e2d041d4394
:102acc003300891a2a04120c53430093029b280cde
:102adc0046435a435843009b92191b0c9c46624434
:102aec00964203d980235b029c466044009b160ce3
:102afc001b0412041b0c3018d218814206d302d0ce
:102b0c0001231d4375e6002a00d172e661186b1e85
:102b1c00a14200d290e0814200d2a8e000d1cfe0e7
:102b2c001d00ede78024434624031c432403240b9f
:102b3c00b246664b7ee6aa4200d92ae74346de0738
:102b4c0058086b081e43ed072ae7b54200d37fe710
:102b5c0043464d445a1e4d459b415b421b19c918b7
:102b6c008c424fd2884271d86ed0904670e748465e
:102b7c0004f00cfd03001a00153220301c2a00dc76
:102b8c009be64a46083b9a4000259046a1e604f095
:102b9c00fdfc03001a00153220301c2a00dc70e604
:102bac005446083b00229c4075e601256d420121ec
:102bbc00c91b382900dd3ae61f2962dc2a0043468e
:102bcc004348ca4058448340854013436a1e95418c
:102bdc0044462b43cc405a0709d00f221a40042af2
:102bec0005d01a1d9a429b415b42e4181300220245
:102bfc005fd50123002400251ce6b246334b00248c
:102c0c00002517e68c42b0d1a945abd990461fe7f9
:102c1c008a4200d8f4e6831e0919f1e60f232b40f3
:102c2c00042b00d1ebe505235b42ab429b41043501
:102c3c005b42ed089844e3e51d00814200d05fe75c
:102c4c00914500d05ce7d4e5ae428ed902234d44c9
:102c5c005b429c464d459b415b421b19e044c918a5
:102c6c00f6e6002fa1dd012300259844c8e54b466c
:102c7c005e004e459b415b421c19023d0919b14651
:102c8c00dbe71f2243465242d71bfb40202904d0ce
:102c9c00444610485844844025436a1e95412b43b2
:102cac00072500241d4007d00f2200241a40042ab7
:102cbc0097d165076402240bdb081d430023b9e59b
:102ccc009145d4d31d00bbe7ff030000ff070000b4
:082cdc001e0400003e0400008c
:020000040000fa
:102ce400f0b595b00c00079208931a9d069005f074
:102cf400b3f9036818000d9305f076f9237e0e905e
:102d04000a93236807220c930c992b68c9054bd5a9
:102d14009b1893431a0008322a601a685b68a264fd
:102d2400e364a36c01221e00e76c0b937d006d0825
:102d34005242ae4b3000290004f0bcfc002835d1cf
:102d44000122aa4b52423000290003f009fd002859
:102d54002cd1002200230b98390003f0f7fc002843
:102d640003d023002d2243331a70a14b09930a9bed
:102d7400472b02d9099b04330993032300270c9a98
:102d8400236101339a4322600b97089b12aa009394
:102d94002100079b069802f0b7fd431c00d018e100
:102da4000120404215b0f0bd0733b2e70b9a3b0057
:102db4000b98390004f07efc002808d08c4b1a00d4
:102dc400083209920a9a472ad7d90c33d4e7202229
:102dd4000a9d636895435a1c00d083e007336360ff
:102de40080230c9adb0013430022236066680f9251
:102df400974205da802109067b181f002d230f93c3
:102e04000322462d05d02b00453b59424b41013a44
:102e1400f61812ab049311ab039310ab0293009218
:102e240001960b9a3b000698fdf79eff0990472deb
:102e340060d10c9bdb075dd4129b099a9f1a109bef
:102e4400472d00d084e0da1c03db62689a4200db81
:102e5400aee00a9a023ad2b20a9222000a99503299
:102e64005d1e0b92117010952b22002d02da0125a4
:102e74000232ed1a230051331a70092d00dc82e06e
:102e840027260aabf618731e0a2128000c9301f0ba
:102e940079fb731e3031197028000a2101f08cfa75
:102ea400632d68dc23002722023e30300aa93070eb
:102eb400523352181900964260d30b9bcb1a0b93d2
:102ec400fb182361012f02dc2268d20701d50133ec
:102ed40023610f9b002b00d157e723002d2243339e
:102ee4001a7052e7472d00d07ae7002b00d077e71d
:102ef400013374e7099b9b190c93462d13d1099b4d
:102f04001b78302b0ad1002200230b98390003f0e0
:102f140017fc002802d101239e1b1096109a0c9bcb
:102f2400944663440c93002200230b98390003f069
:102f340007fc002801d00c9b1293129b302203e063
:102f4400591c12911a70129b0c999942f8d873e784
:102f54000a9a652a81d90a9a662a2bd16268002bbb
:102f64001add2361002a02d12168c9071cd5013268
:102f7400d218226118e00c9e050084e731780136ee
:102f84001970013396e73022230021005233ad1823
:102f94001a7054315d7090e7002a03d10121206832
:102fa400084200d0911c2161a36500230b9390e794
:102fb40067220a92bb4205db22682361d207f3d55c
:102fc4005a1cd6e70122002b01dc9218d21ad2191e
:102fd400cfe7226853050dd42369099a0799069807
:102fe400089da847431c2ed1dae6c046ffffef7fb9
:102ff400487200000a9b652b00d8cfe0a06ce16cfe
:103004000022002303f09cfb002833d08c4a0123c8
:10301400103207990698089da847431c00d1bfe6c3
:10302400109bbb4202db2368db070cd5089d0e9b7b
:103034000d9a07990698a8470025431c00d1afe6ce
:103044007b1eab420adc23689b0700d5f6e0129b8b
:10305400e068984200dba5e61800a3e622000123fd
:103064001a3207990698089eb047431c00d197e688
:103074000135e5e7109b002b2bdc714a012310324c
:1030840007990698089da847431c00d188e6109b21
:103094003b4302d12368db07d5d5089d0e9b0d9acf
:1030a40007990698a8470025431c00d178e6109b91
:1030b4005b42ab4201dc3b008fe7220001231a3262
:1030c40007990698089eb047431c00d168e601356d
:1030d400ede7a66dbe4200dd3e00002e08dd3300a4
:1030e400099a07990698089da847431c00d157e6fa
:1030f40000230a93f343db170b930ce02200012314
:103104001a3207990698089da847431c00d147e640
:103114000a9b01330a930b9ba56d0a9a3340eb1a61
:103124009342ebdc109bbb4219db2368db0716d40c
:10313400109bfe1a9d4200db7e1b002e09dd099bbd
:1031440007995a1906983300089da847431c00d1d3
:1031540026e600230993f343db170a9315e00e9b3d
:103164000d9a07990698089eb047431ce0d117e6cc
:10317400220001231a3207990698089da847431c88
:1031840000d10de6099b01330993109b0a9afb1a9f
:1031940032409b1a099a9342eadc54e7012f02dc7d
:1031a40001231a4237d00123099a07990698089dea
:1031b400a847431c00d1f3e50e9b0d9a0799069886
:1031c400089da847431c00d1eae5a06ce16c0022ed
:1031d40000237e1e03f0b4fa00281ad13300099aa2
:1031e400013207990698089da847431c0dd1d7e5dd
:1031f400220001231a3207990698089fb847431cf6
:1032040000d1cde50135ae42f2dc22000b9b5032f9
:10321400e4e60025f7e7099ae3e7220001231932df
:1032240007990698089eb047431c00d1b8e50135bc
:10323400e368129a9b1aab42efdc08e70025f7e734
:0432440048720000cc
:020000040000fa
:10324800f0b557464e464546de46e0b50c03060047
:10325800480087b092469846240b400dcf0f0028af
:1032680000d178e07b4b984200d190e0730fe400e6
:103278001c438023784a1b041c4394460300634480
:103288000093002399469b46f500434642461e0399
:10329800d20f5b005046360b5b0d904600d180e0a4
:1032a8006c4a93421dd06c49420f8c460099634486
:1032b800f6008c46164380229c441204634616434b
:1032c800c200002000930099434601318c464946cc
:1032d8007b4001930f2900d9c6e0604b89005958fb
:1032e8008f465c4952468c46009b324363440093a8
:1032f800002a00d08de0494602231943894600265a
:103308000220e0e7434601933400150083465b46fc
:10331800022b64d0032b00d1f1e1012b00d05ee138
:1033280000220026002500213603340b0e0d360539
:1033380026434b4c120534401443019b6400db07c1
:1033480064081c432800210007b03cbc90469946fd
:10335800a246ab46f0bd2500354352d0002c00d123
:1033680076e1200004f014f902000b3a1d23010055
:103378009b1a3200350008398c40da408d401443de
:10338800384b1b1a0093002399469b467de735006e
:1033980025432fd108239946063b002400909b46dd
:1033a80073e7524632431ed0002e00d142e130006e
:1033b80004f0eef802000b3a1d2301009b1a524656
:1033c8000839da408e40164352468a40009b254908
:1033d800181a03008c4663440093002073e71d4ac3
:1033e800002600259fe74946012319438946002600
:1033f800012068e70c239946093b350000909b465d
:1034080043e70423994600230093013300249b4695
:103418003be74a4603231a4391460320524652e7a4
:10342800019774e700238026019336030025094a93
:1034380079e780231b031c4200d1f3e01e4200d031
:10344800f0e01e43434636031500360b0193014a4c
:1034580069e7c046ff07000001fcffffe0740000b9
:10346800ffff0f800dfcffff2f0c2d042d0c2b00f0
:10347800110c1204120c53439846130028007b4386
:10348800994648434844834640460b00000c824610
:1034980058467b4350440293814506d99a46802377
:1034a8005b029946ca4453460293030c9b46434623
:1034b8001b0400041b0c9846030043440493330c7c
:1034c80099462b003604360c7343984633007b43e9
:1034d8009a464b465d435f4343465544180c401992
:1034e800824503d980235b029a465744050ceb19a1
:1034f800059343461d042d0c00044019250c240493
:10350800240c270057436a4390462a003b0c9a46ee
:103518004a436143414451448344884503d9802345
:103528005b02984642443f040b0c3f0c0904c9193e
:10353800270098464b4677435c436e435d433b0cfc
:103548009946a4194c4442440395a64204d98023c1
:103558005b02984645440395029b3f045b441e006a
:103568008342804123049846059b3f0c4744984674
:1035780076188e428941474440423d18a846494240
:1035880093468a46c344da449f42bf4180458041fe
:10359800039b934592418a45894198465346404248
:1035a8007f420743240c524249420a433c19a4185b
:1035b800da0d049b75021d43681e85415346444439
:1035c8006402f60d144335435a021543e30173d5db
:1035d80001216a080d401543e207154364084b4a68
:1035e8006244002a43dd6b0709d00f2129400429d2
:1035f80005d0291da942ad416d4264190d00e301b2
:1036080004d5434a14408022d200624441498a4288
:1036180000dde4e66107ed08640252050d43260b60
:10362800520d80e68026360326433603360b019773
:10363800394a78e603f0acff03001a00153220304f
:103648001c2a00dcb8e65646083b00229e40bde630
:10365800300003f09dff03001a00153220301c2aa9
:1036680000dc83e63400083b00259c4088e6012105
:10367800891a382900dd53e61f2920dc2748220053
:1036880060442e0085408240ce40681e854132430a
:103698002a43cc40530709d00f211140042905d0f3
:1036a800111d914292415242a4180a0023021fd5cb
:1036b80001220026002536e6009b9c468fe71f2046
:1036c8004042821a2000d040202903d0144a624484
:1036d800944025436a1e95412a0007250243154058
:1036e8000026002d07d00f21002411400429d7d12e
:1036f80065076402260bd2081543002213e68026cc
:10370800360326433603360b034a0ce6ff03000054
:10371800fffffffefe070000ff0700001e04000079
:043728003e0400005b
:020000040000fa
:10372c00f0b5de46574645464e46e0b500208bb018
:10373c0003f0e8fb0021b84804f060fc04f064fbe3
:10374c00b64d280004f06cfb0a2004f08bf9b44f42
:10375c008022b449380004f021fa002800d057e147
:10376c00b14c00e0238d04f003fc0028fad10421b5
:10377c00ad4aae4e937d30000b43937504f066f862
:10378c00002800d08ee0300003f00cfc81460028ad
:10379c0000d038e1a64c210020001c31243004f06c
:1037ac0009f82000c8213830490004f003f85823e8
:1037bc009b4604339a46043398462000a244a04406
:1037cc00a344503b52464146009364305b4603f0a1
:1037dc00f1fffa239748db00524641460093243010
:1037ec005b4603f0e7ff944b07a80793934b4360aa
:1037fc004b46437204f0c4fb80219148490002f00f
:10380c0095fb4a468f490c2004f0aafa4a468e4b87
:10381c0080211a60802080229a468c4b1201490329
:10382c0080049a6199619861000998615a614b46cc
:10383c00904605930491f46a002c00d0a9e004f0a2
:10384c0013fb00284cd0824beb5c002b6cd1280076
:10385c0004f0befa072800d9bde004f005fb0028ef
:10386c00e9d0380004f0d6fb0928e4d903f02cfd8c
:10387c00380004f0cffb0100380004f051fa04f0da
:10388c00f3fa0028d7d15346424618606f4b9a6121
:10389c00049a9a61802292049a6112099a614246b2
:1038ac005a61c8e76b48f16a503003f083ff664bee
:1038bc009a46524600231360802280210120634bdc
:1038cc0012019a6152029a61890352019a619961bb
:1038dc005a610bb03cbc90469946a246ab46f0bd33
:1038ec00380004f097fb06286bd804f0bdfa0028ca
:1038fc0055d104f089fb059b029300230393029b93
:10390c00039cc01aa141002903d1fa235b00984201
:10391c00a3d904f079fb0590494804f061fb010040
:10392c00474803f057fd98e74b4804f0cffa53464d
:10393c001c6043468022454c9204a361049b914633
:10394c00a361a2611209a2619346424662614a4692
:10395c004248626104f0d4f9002241490c2004f081
:10396c00fff9280004f008f9002236490c2004f075
:10397c00f7f9fa2352465b0013604246049ba2619e
:10398c00a3614b46a3615b46a361f46a002c00d192
:10399c0055e72848f16a5c3003f00cff89e7fa23fd
:1039ac0052465b0013602e4900220c2004f0d8f91b
:1039bc00280004f0e1f8002222490c2004f0d0f990
:1039cc0097e703f027fd380004f024fb01003800d2
:1039dc0004f0a6f989e706a9280004f019f80400f8
:1039ec00072800d839e706990020602201f050fd25
:1039fc00069b083c603308212800069303f02afd3f
:103a0c00072cf0d829e71348f16a703003f0d2fe86
:103a1c000d4b9a464de7c046197300000400002078
:103a2c00780b0020c0090020001c0042a00a0020d6
:103a3c00903e0000103f00009d7e0000b17e000013
:103a4c008007002049700000bc0b0020004400419e
:103a5c000c060000103e0000903f00008813000090
:043a6c00a180000035
:020000040000fa
:103a70005c0b00201c00000000000000400900203a
:103a8000800000000000000080080020c00000004e
:103a900000000000d00a00202c0000000000000000
:103aa000a80b002008000000000000009c0b002074
:103ab0000b00000000000000b00b0020040000001c
:103ac000000000008c0b002010000000000000002f
:103ad000c0090020800000000000000080070020d6
:103ae0000001000000000000b40b002004000000f2
:103af00000000000a00a00203000000000000000cc
:103b0000040000201006000000000000b80b002098
:103b10000400000000000000bc0b002004000000b6
:103b200000000000780b00201400000000000000de
:103b3000c00b00200400000000000000fc0a002070
:103b400020000000000000001c0b002020000000ee
:103b5000000000003c0b00202000000000000000de
:103b6000c40b00200400000001000000400a0020f7
:103b7000400a00206000000001000000000000007a
:103b80001c0b00203c0b0020fc0a00200000000061
:103b90000000000000000000000000000000000025
:103ba0000000000000000000000000000000000015
:103bb0000000000000000000000000000000000005
:103bc00000000000000000000000000000000000f5
:103bd00000000000000000000000000014060020ab
:103be0006c01000001000000430000000000000024
:103bf00000000000000000000000000000000000c5
:103c00000000000000000000430000000000000071
:103c100000000000000000000000000000000000a4
:103c20000000000000000000430000000000000051
:103c30000000000000000000000000000000000084
:103c40000000000000000000430000000000000031
:103c50000000000000000000000000000000000064
:103c60000000000000000000430000000000000011
:103c70000000000000000000000000000000000044
:103c800000000000000000004300000000000000f1
:103c90000000000000000000000000000000000024
:103ca00000000000000000004300000000000000d1
:103cb0000000000000000000000000000000000004
:103cc0000000000000000000457e0000157c0000a0
:103cd00000000000a0520000598000005880000041
:103ce0005880000058800000588000005880000074
:103cf0005880000058800000588000005880000064
:103d0000ffffffffffffffffffffffffffff0000c1
:103d10000100415343494900000000000000000039
:103d20000000000000000000000000000000000093
:103d3000000041534349490000000000000000001a
:103d40000000000000000000000000000000000073
:103d500000000000c80b002004000000000000006c
:103d6000cc0b002004000000000000000000002038
:103d70000400000000000000d00b00200400000040
:103d800000000000000000000000000022222222ab
:020000040000fa
:103d90007b2276657273696f6e223a25642c2273da
:103da000616d706c655f72617465223a25642c22c6
:103db00073616d706c65735f7065725f7061636b6a
:103dc0006574223a25642c22636f6c756d6e5f6c8e
:103dd0006f636174696f6e223a7b000022416363f6
:103de000656c65726f6d6574657258223a25642c36
:103df0000000000022416363656c65726f6d65743d
:103e0000657259223a25642c000000002241636348
:103e1000656c65726f6d657465725a223a25642c03
:103e200000000000224779726f73636f706558223b
:103e30003a25642c00000000224779726f73636f8b
:103e4000706559223a25642c0000000022477972df
:103e50006f73636f70655a223a2564007d7d0a0096
:103e60004552524f523a2073656e736f7220696edd
:103e7000697420726573756c74203d2025640a0096
:103e80004552524f523a2073656e736f7220636fc2
:103e90006e66696775726174696f6e20726573759d
:103ea0006c74203d2025640a00000000626d6931b9
:103eb0003630000073656e736f7220747970652000
:103ec00069732025730a000073656e736f72207327
:103ed000616d706c6520726174652073657420611a
:103ee00074202564487a0a007a00000079000000f6
:103ef00078000000616363656c65726f6d65746561
:103f00007220617865732025732573257320656e93
:103f100061626c656420776974682072616e6765a0
:103f200020736574206174202b2f2d256447730a3c
:103f3000000000006779726f6d65746572206178aa
:103f400065732025732573257320656e61626c652a
:103f50006420776974682072616e67652073657488
:103f60002061742025644450530a00004552524f8a
:103f7000523a20476f742061206261642073656e3d
:103f8000736f72207374617475733a2025640a002c
:103f90000a0a0a4f76657272756e210a0a00c046d7
:020000040000fa
:103fa000f0b58bb006920a00433207930590049255
:103fb0000a7e0c00109b6e2a00d1b0e020d8632a44
:103fc00036d008d8002a00d1b6e0582a52d02600b0
:103fd0004236327033e0642a01d0692af7d1196879
:103fe00020680a1d05062cd50d681a60002d03da1d
:103ff0002d23049a6d4213706c4b0a27039353e0f0
:10400000732a00d19ce008d86f2a20d0702aded114
:10401000202209680a43226003e0752a17d0782a13
:10402000d5d12200782145321170604a113224e046
:1040300026001a684236111d196013683370012377
:104040008ce00d681a604106d0d52db2cee7196814
:104050002568081d18602e0601d50d6803e06d0661
:10406000fbd50d68adb2514b0a2703936f2a17d1c8
:10407000082715e045310a704c4a03921a682168f6
:1040800020ca1a60080644d5cb0702d5202319435d
:1040900021601027002d03d1202322689a4322603b
:1040a0002300002243331a706368a360002b03dbf4
:1040b0000422216891432160002d02d1049e002b2f
:1040c0000ad0049e3900280001f05cf8039b013ef1
:1040d0005b5c3370af4220d9082f09d12368db071e
:1040e00006d563682269934202dc3023013e3370b7
:1040f000049b9b1b2361079b09aa00932100069b3d
:10410000059801f003fc431c2dd1012040420bb067
:10411000f0bd4806b8d5adb2b6e70500d2e71a68db
:104120000d68101d4969186013682e0601d51960c5
:1041300002e06d06fbd519800023049e2361dae7b7
:104140001a68111d1960166800216268300003f0ba
:1041500085fe002801d0801b606063682361002316
:10416000049a1370c7e72369320006990598079de2
:10417000a847431cc9d023689b0715d4099be06856
:104180009842c4da1800c2e72200012319320699c6
:104190000598079eb047431cb7d00135e368099adc
:1041a0009b1aab42f0dce9e70025f7e7c87c00008a
:020000040000fa
:1041b000f0b59fb006000f0002921d00002804d049
:1041c0008369002b01d102f0a7fc764b9f4260d19e
:1041d0007768bb891b0766d53b69002b63d000233a
:1041e00006ac6361203363761033a3760595029d98
:1041f0002b78002b01d0252b5fd1029beb1a039368
:104200000cd0029a3900300002f0b2ff431c00d1fa
:10421000c2e06269039b9446634463612b78002b80
:1042200000d1b9e001226b1c5321029300235242ba
:10423000626002aa52182360e360a3601370a36552
:10424000029b05221978584803f008fe029b5d1c6a
:10425000002834d12268d30604d5202302a9533084
:1042600009180b70130704d553202b2302a9091832
:104270000b70029b1b782a2b2ad00021e368029d39
:104280002a78681c303a8446092a64d9002925d145
:104290002be0464b9f4201d1b7689ae7444b9f42bf
:1042a00097d1f76895e73900300001f06df90028e3
:1042b00095d0012040421fb0f0bd013598e73a4b40
:1042c0002268c01a01238340134323600295b7e795
:1042d000059b191d1b680591002b01dbe36004e0c1
:1042e0005b42e3600223134323602b782e2b0ad119
:1042f0006b782a2b38d1059b02351a1d1b68059255
:10430000002b2edb6360297803222a4803f0a6fde8
:10431000002807d0274b2268c01a4023834013434c
:1043200001352360204829786b1c06220a3002934d
:10433000217603f093fd05aa00921f4b3a0021005d
:10434000002825d03000fef7cdfc431c24d0636943
:10435000181860614be70a214b4365469b180939e1
:104360008ee701235b42cde700231a00013563602d
:104370002978681c30398446092903d9002bc2d01a
:104380006260c0e70a235a4365465218093befe7cb
:104390003000fff705fed8e7bb895b0600d588e74c
:1043a000606988e71c0b00205b7f00003c0b00204d
:0c43b000fc0a0020617f00007171000019
:020000040000fa
:1043bc0003460b437fd4002243088b4274d303097a
:1043cc008b425fd3030a8b4244d3030b8b4228d31b
:1043dc00030c8b420dd3ff22090212ba030c8b4241
:1043ec0002d31212090265d0030b8b4219d300e0e1
:1043fc00090ac30b8b4201d3cb03c01a5241830b66
:10440c008b4201d38b03c01a5241430b8b4201d315
:10441c004b03c01a5241030b8b4201d30b03c01a3e
:10442c005241c30a8b4201d3cb02c01a5241830ab8
:10443c008b4201d38b02c01a5241430a8b4201d3e7
:10444c004b02c01a5241030a8b4201d30b02c01a11
:10445c005241cdd2c3098b4201d3cb01c01a524178
:10446c0083098b4201d38b01c01a524143098b4201
:10447c0001d34b01c01a524103098b4201d30b01ea
:10448c00c01a5241c3088b4201d3cb00c01a52410f
:10449c0083088b4201d38b00c01a524143088b42d4
:1044ac0001d34b00c01a5241411a00d2014652416d
:1044bc00104670475de0ca0f00d04942031000d38c
:1044cc004042534000229c4603098b422dd3030ae1
:1044dc008b4212d3fc22890112ba030a8b420cd3f1
:1044ec00890192118b4208d3890192118b4204d31a
:1044fc0089013ad0921100e08909c3098b4201d39a
:10450c00cb01c01a524183098b4201d38b01c01ad3
:10451c00524143098b4201d34b01c01a524103094a
:10452c008b4201d30b01c01a5241c3088b4201d3f9
:10453c00cb00c01a524183088b4201d38b00c01aa6
:10454c005241d9d243088b4201d34b00c01a52417d
:10455c00411a00d20146634652415b10104601d30a
:10456c004042002b00d54942704763465b1000d394
:10457c00404201b5002003f08ffd02bd0029f8d0a8
:04458c0016e7704777
:020000040000fa
:10459000f0b59fb002901d008b890f0016001b061e
:1045a00011d50b69002b0ed1402101f0adfb386015
:1045b0003861002805d10c23029a013813601fb01e
:1045c000f0bd40237b61002306ac6361203363763a
:1045d0001033a376059535002b78002b01d0252bc1
:1045e00046d1ab1b03930cd032003900029801f086
:1045f00029fb431c00d1a8e06269039b94466344f5
:1046000063612b78002b00d19fe00122532100230e
:104610005242626002aa52186e1c2360e360a360db
:104620001370a365317805224c4803f017fc751c04
:1046300000281fd12268d30604d5202302a95330b5
:1046400009180b70130704d553202b2302a909184e
:104650000b7033782a2b16d0350000210a20e3682e
:104660002a786e1c303a092a50d9002911d117e056
:104670000135b1e7394b2268c01a01238340134347
:1046800023602e00cee7059b191d1b680591002baa
:1046900001dbe36004e05b42e36002231343236039
:1046a0002b782e2b0ad16b782a2b37d1059b02351c
:1046b0001a1d1b680592002b2ddb6360274b2978a0
:1046c0009e1d0322300003f0c9fb002806d04023c2
:1046d000801b834022680135134323601f482978db
:1046e00006220a30217603f0b9fb05aa00926e1c5f
:1046f0001b4b3a002100002823d00298fef7f2fa63
:10470000431c22d063691818606164e743430121a8
:104710009b183500a4e701235b42cee700230a2063
:104720001a000135636029786e1c3039092903d9d4
:10473000002bc3d06260c1e7424301235218350009
:10474000f1e70298fff72cfcdae7bb895b0601d49e
:10475000606934e70120404231e7c0464a7f0000eb
:04476000455c0000b4
:020000040000fa
:1047640010b5604b9a7d002a11d05a8b0221920712
:104774000ed52023ff205c4ad0540133d15420218c
:10478400535c5bb2013325d0535c062b10d010bdb3
:1047940001205a8b1042ecd104215a8b1140524a09
:1047a40029d02023ff21d15401210133d154e6e73c
:1047b400002353542121302053544a4983330b7628
:1047c4004b8b0340102bfbd1536a002bdfd0906a34
:1047d4009847dce700235354c02342499b024868ae
:1047e40003434b60cb69002bfcd183330b76536ab4
:1047f400002becd1cbe72024145d64b2032c27d02a
:10480400042c1ad0022cbad114699088002c2cd014
:104814009161d161832119765968344c21405960e2
:10482400d9690029fcd104242031545440002d4975
:104834005862cb69002bfcd1a1e791691469a142ac
:104844002ad0481c90619068405c2821585496e70f
:104854005169d069013988422cd0431cd361282383
:104864002049cb5cd1680b5489e783219461d461de
:10487400197659681d4c21405960d9690029fcd129
:1048840003242031545440001f3908431549586209
:10489400cb69002bfcd172e75169002916d09188ad
:1048a400490008435862d9690029fcd12023033107
:1048b400d15464e7e0215c68c90221435960d96995
:1048c4000029fcd120230631d154c6e7c021586801
:1048d400890201435960d9690029fcd1202306319a
:1048e400d1544ce7000c0042d00a0020fffffbff2c
:020000040000fa
:1048f40030b5040083b0002800d1aae0436a002b3d
:1049040000d1a6e0002301ad2b8002220300290080
:10491400402001f07fff00282cd162790f2a00d9b2
:1049240094e0637a934205d00f212b780a408b439d
:1049340013432b70e379022b00d987e0e27a9a4281
:1049440003d070222b7893432b70a2790c2a00d9c0
:104954007ce0a37a934205d00f216b780a408b4305
:1049640013436b70230001222900402001f0ccfc8a
:10497400002801d003b030bd694663790122637217
:10498400e3790531e3724130230001f0bdfc021ede
:10499400f0d1a3792880a372023223002900422097
:1049a40001f038ff0028e5d1627b0d2a4ed8637ce4
:1049b400934205d00f212b780a408b4313432b706d
:1049c400e27b022a42d830212b7812018b43134315
:1049d400a27b2b70042a39d8a37c934205d06b7830
:1049e40029398b430a4013436b70230001222900a9
:1049f400422001f089fc0028bcd16946637b012276
:104a04006374e37b0531e3744330230001f07cfce1
:104a14000028afd1a37b2000a37400f00bfa002878
:104a2400a8d12870230001222900023001f0f2feef
:104a34002b78db061b0f012b14d0022b0fd0032b7a
:104a44000ad0072b96d10920404293e70420404224
:104a540090e7012040428de7082040428ae7072082
:0c4a6400404287e70620404284e7c0463d
:020000040000fa
:104a7000f0b51e004f4b85b01d6804000f0000927a
:104a8000002d05d0ab69002b02d1280002f044f8bc
:104a9000494b9c424fd16c68009b022b05d0012be7
:104aa00000d983e0002e00da80e02100280002f027
:104ab00089f9616b002908d023004433994202d060
:104ac000280001f08ffb002363630023a361636070
:104ad000a3891b0603d52169280001f083fba38964
:104ae000364a1340a381009b022b59d003ab02aa84
:104af0002100280002f034faa3890343a381002e89
:104b000023d1029e300003f0ddf9071e43d1029b42
:104b10000193b34239d1012040420223a2891343b9
:104b2000a3810023a3602300473323602361012373
:104b3000636105b0f0bd224b9c4201d1ac68abe78c
:104b4000204b9c42a8d1ec68a6e7002fdad0ab69d5
:104b5000002b02d1280001f0dfff009b012b03d1c5
:104b6000a389009a1a43a2810820a389276027619c
:104b70006661184018d0012018400023984211d0d7
:104b80007642a360a6611800d3e7019803f09af972
:104b9000019e071ebfd08023a2891343a381d6e7bd
:104ba0000020bae7a660c4e7a060c2e70120404247
:104bb000bfe7c046c40b00201c0b00205cf3ffffc6
:084bc0003c0b0020fc0a002060
:020000040000fa
:104bc80070b5150002220e0003214407e40f013cd2
:104bd800944384b001400334002b00d188e00229bb
:104be80007d0032928d001291ed00520404204b04f
:104bf80070bd002d7cd0002269460092019202927d
:104c08008a818a73002c49d106220c2001f000fe0b
:104c1800002870d1009b2b606b465a791b791202d1
:104c28001343ab80a860e2e7002e61d01a00310080
:104c3800200002f0eff8dae7002d59d0002e57d007
:104c4800002269460092019202928a818a732200a8
:104c58000c3292b20c2001f0dbfd00284bd1009bf6
:104c68002b606b465a791b7912021343ab806b4653
:104c7800da799b791202134333806b465a7a1b7a8e
:104c88001202134373806b46da7a9b7a120213433b
:104c9800b380032c1fd0b060a860a8e722000c32b4
:104ca80092b269460c2001f0b3fd002823d1009b85
:104cb8002b606b465a791b7912021343ab806b4603
:104cc8006a469b7b127b1b0413436a46527b120283
:104cd8001343ab608be76b466a469b7b127b1b04d6
:104ce80013436a46527b12021343b360ab607ee7fc
:0c4cf800012040427be70220404278e7a8
:020000040000fa
:104d0400f0b50b69150012698bb00c00934201daff
:104d14002c000d0027692e696168bb190393a368f1
:104d2400ba19934200da013101f0e8fd03001433ab
:104d34000193019abb1994469b009c4413000022e2
:104d4400059063451fd323002a001433bf00143297
:104d54000693b600db190793931902920893089bf4
:104d6400029a9a4211d3039b002b06dd04235b4273
:104d74009c4463461b68002b57d0059b039a18007c
:104d84001a610bb0f0bd04c3dbe7029b1b689bb246
:104d94000493002b1cd00026019d069f01cf049a8a
:104da40083b25343099502cd000c8ab29b18049a2e
:104db4009b195043090c4118180c09180e0c9bb28e
:104dc4000904099a0b431360079bbb42e6d82e6083
:104dd400029b1b681b0c049320d025000027019b19
:104de40001981b68143506002a689bb291b2049a94
:104df400514304c8120c8918cf1939040b4333608a
:104e040008cd049a1b0c534371683f0c89b25b189c
:104e1400079adb191f0caa42e5d80360029b0433ee
:104e24000293019b0433019399e7039b013b039392
:024e340099e7fc
:020000040000fa
:024e3600fee795
:020000040000fa
:104e380070b5040082b0002800d189e0436a002bd5
:104e480000d185e06b4600229a7103791900103968
:104e5800022900d96ce0017a99420dd1237b1a000e
:104e6800143a012a01d9172b62d1227c00259a42d3
:104e780029d1280002b070bd6b466946da71de1d83
:104e8800012203000631402001f0c2fc051ef0d1ca
:104e98006b4622799b79122a2bd05ab2002a4adb18
:104ea8002300211d01227e2001f02cfa237a06001e
:104eb8000500102b02d10520636a984723792372d5
:104ec800002ed6d1cae72100230001220c317e2012
:104ed80001f018fa237c0500142b04d0227b172b31
:104ee8001ed02274c5e75120636a9847227b22743a
:104ef800bfe7923a134369466a46063193714020e8
:104f08002300012201f0fef9051eb2d1230002227e
:104f18003100582001f0f6f90500002dc0d0a8e7af
:104f2800152aded10a20636a9847227b2274a0e7fb
:104f380004256d429de77f22694613406a46063183
:104f4800937140202300012201f0dcf90500e4e719
:084f580001256d428de7c04602
:020000040000fa
:104f6000f0b506000d69336987b002910020ab42ad
:104f70006bdb0f00013dac0014373b19039333008a
:104f800014331c19019323680493039b04981b6832
:104f9000009301331900059300f06ef8049b059a05
:104fa0000090934228d300239c460198049308cf95
:104fb000009a99b251431b0c534361440a0c9b184d
:104fc0001a0c0593036894469ab2049b89b2d218ce
:104fd0000368521a190c6b469b8acb1a11145b1882
:104fe000191492b21b041a43039b049104c0bb42e0
:104ff000ddd22368002b2ed00299300002f0c6fbd0
:10500000002821db30000024009b0299013300932b
:1050100014301431026808c992b214199ab2a21a53
:1050200004681b0c240ce31a14141b191c1492b2f0
:105030001b04134308c0039b8b42ebd2019aab00c5
:10504000d3181a68002a10d0009807b0f0bd236862
:10505000002b04d1013d019b043ca342f7d33561f1
:10506000cae71a68002a04d1013d019a043b9a421a
:06507000f7d33561e8e70b
:020000040000fa
:02507600704781
:020000040000fa
:10507800002243088b4274d303098b425fd3030a8f
:105088008b4244d3030b8b4228d3030c8b420dd3a2
:10509800ff22090212ba030c8b4202d31212090230
:1050a80065d0030b8b4219d300e0090ac30b8b426e
:1050b80001d3cb03c01a5241830b8b4201d38b031c
:1050c800c01a5241430b8b4201d34b03c01a5241c1
:1050d800030b8b4201d30b03c01a5241c30a8b4204
:1050e80001d3cb02c01a5241830a8b4201d38b02ef
:1050f800c01a5241430a8b4201d34b02c01a524193
:10510800030a8b4201d30b02c01a5241cdd2c30904
:105118008b4201d3cb01c01a524183098b4201d380
:105128008b01c01a524143098b4201d34b01c01a6b
:10513800524103098b4201d30b01c01a5241c308e3
:105148008b4201d3cb00c01a524183088b4201d352
:105158008b00c01a524143088b4201d34b00c01a3e
:105168005241411a00d20146524110467047ffe7aa
:1051780001b5002002f092ff02bdc0460029f7d019
:0451880076e770470f
:020000040000fa
:10518c00f7b58a8905000c0013075dd44b68002b1a
:10519c0004dc0b6c002b01dc0020febde76a002f49
:1051ac00fad000232e682b6080235b011a4034d088
:1051bc00606da3895b0706d56368c01a636b002b0f
:1051cc0001d0236cc01a0200216a00232800e76a70
:1051dc00b847a189431c06d12b681d2b31d82c4a0a
:1051ec00da40d3072dd50023636023692360cb04f9
:1051fc0005d5431c02d12b68002b00d16065616b77
:10520c002e600029c8d023004433994202d02800d4
:10521c0000f0e2ff00206063bfe70123216a280051
:10522c00b847431cc5d12b68002bc2d01d2b01d015
:10523c00162b01d12e60afe74023a2891343a38123
:10524c00abe740230b43fae70f69002fa4d00b68a0
:10525c000f60db1b01930023920700d14b69a36005
:10526c00019b002b00dc97e7019b3a00216a280088
:10527c00a66ab047002806dc40230120a2894042e0
:10528c001343a38189e7019b3f181b1a0193e7e79e
:04529c0001004020ad
:020000040000fa
:1052a00000202020202020202020282828282820f6
:1052b00020202020202020202020202020202020ee
:1052c0002088101010101010101010101010101056
:1052d0001004040404040404040404101010101046
:1052e0001010414141414141010101010101010110
:1052f0000101010101010101010101011010101062
:1053000010104242424242420202020202020202e1
:105310000202020202020202020202021010101035
:10532000200000000000000000000000000000005d
:10533000000000000000000000000000000000006d
:10534000000000000000000000000000000000005d
:10535000000000000000000000000000000000004d
:10536000000000000000000000000000000000003d
:10537000000000000000000000000000000000002d
:10538000000000000000000000000000000000001d
:10539000000000000000000000000000000000000d
:0153a000000c
:020000040000fa
:1053a400f0b5ce46474680b583b06b46dc1d00237e
:1053b40006000d00237001220b005320210001f090
:1053c40029fa00284cd1b1782078ca078b074f07f7
:1053d4000907ff0fc90fbc46cfb2b9463778d20fc1
:1053e400db0fb846012f40d07f21084099014023ac
:1053f400d2011043984363465a0120230143994341
:105404000a434b4610211b018a4313432370012294
:105414002b002100532000f077ff002820d12070ba
:105424002b0001222100542001f0f4f9002817d1a7
:10543400b2783178d2062378d20f012926d02021e0
:1054440052018b4313430f2172888b43d205120ff1
:105454001343237001222b002100542000f054ff39
:1054640003b00cbc90469946f0bd0737b843d20050
:10547400024304209b0082431a436346023882435a
:105484005b001343424693430b43bfe70f311201c2
:085494008b431343d7e7c04628
:020000040000fa
:10549c00f0b557464e46de464546e0b5344e87b02d
:1054ac0033680c009c461b7a1700002b06d107b002
:1054bc003cbc90469946a246ab46f0bd0023911ddc
:1054cc0003938bb203ad019303284ad8830098460b
:1054dc004146284a9b5801338b50dab292461a0a3d
:1054ec00d2b2904651461a0c1b0e009343464140d3
:1054fc005940d2b2009b514059408946ff21019b33
:10550c002970190aa9705146697141466b70009b4c
:10551c0028712b72184b3804ea71a9712278000c8f
:10552c001f4205d00123e15c01334a408342fadb80
:10553c0002a988460323434498464b465a404346a7
:10554c001a70634609215b68280098473368390054
:10555c005b6820009847336801215b684046984798
:10556c00a5e7002381460093002298469a46c5e79a
:0c557c00b00b00208c0b0020feff000094
:020000040000fa
:10558800364b70b51d6806000c00002d05d0ab69c0
:10559800002b02d1280001f0bbfa314b9c420fd1fd
:1055a8006c680c23e25e93b219072dd4d90611d486
:1055b80009230120336037331343a381404270bd70
:1055c800284b9c4201d1ac68ebe7274b9c42e8d1c1
:1055d800ec68e6e75b0713d5616b002908d0230068
:1055e8004433994202d0300000f0f8fd0023636391
:1055f8002422a3899343a381002363602369236042
:105608000823a2891343a3812369002b0bd1a0216e
:105618008022a389890092000b40934203d0210085
:10562800300000f025fe0123a289134011d0002389
:10563800a36063695b42a361002023698342bed1f2
:105648000c23e25e1306bad540231343a381013825
:10565800b5e7920700d46369a360ede7c40b0020a7
:0c5668001c0b00203c0b0020fc0a002062
:020000040000fa
:10567400f0b54e4645465746de461c03e0b5240bbe
:10568400324e0f034d00a1465c0084463f0b6d0d66
:10569400c90f9046640ddb0fb5422ad0b44219d02d
:1056a400002d2bd13843834646424641002c02d17b
:1056b4004846024328d0002e16d1994229d002230d
:1056c40001390b40013b18003cbc90469946a24668
:1056d400ab46f0bd4e4632432fd1002dedd13843b9
:1056e40046424641002ee8d0002becd101235b4218
:1056f400e9e73e00064320d1ac42ebd0002cdcd1dc
:1057040048460243d9d1dae75a460023002adad0c0
:10571400d5e7a5420adce7db4f45d0d810d00023fb
:105724004f45d0d20029e1d00b00cce75842434189
:10573400584202230340013bc5e702235b42c2e710
:10574400c445bcd80023c445bdd2ebe7ff07000025
:020000040000fa
:1057540070b505000e00002804d08369002b01d128
:1057640001f0d8f9ab69ac68002b02d1280001f034
:10577400d1f92a4b9c421bd16c680c23e25e802336
:105784009b011a4205d11343a381226e244b13407b
:105794002366a3891b0702d52369002b1fd121008f
:1057a4002800fff7effe002819d00120404270bd09
:1057b4001c4b9c4201d1ac68dfe71b4b9c42dcd103
:1057c400ec68dae70136a360002b04daa2699a4296
:1057d40016dc0a2914d023685a1c22601970a368a5
:1057e4003178013b0029edd1a360002b0fda2200b0
:1057f4000a31280000f0f6f8431cd6d00a20d6e778
:105804002200280000f0eef8431ce8d1cde70a207e
:1058140023685a1c22601870c9e7c0461c0b00207c
:0c582400ffdfffff3c0b0020fc0a00200f
:020000040000fa
:10583000f0b54e4645465746de461c03e0b5240b00
:10584000314e0f034d00a1465c0084463f0b6d0da9
:10585000c90f9046640ddb0fb54211d0b44214d08d
:10586000002d30d13843834646424641002c14d1a6
:105870004846024311d15a460023002a17d010e0af
:105880003e00064312d1ac421dd14e4632430dd1eb
:10589000002d04d1384346424641002e0ed1994294
:1058a00017d0022301390b40013b00e0022318000e
:1058b0003cbc90469946a246ab46f0bd002bf6d1c3
:1058c00001235b42f3e7002ce9d148460243e6d1cd
:1058d000e7e7a54206dd5842434158420223034010
:1058e000013be4e7a542e9db4f45dad806d00023c7
:1058f0004f45dcd20029e3d00b00d8e7c445d0d80f
:0c5900000023c445d3d2f5e7ff070000e8
:020000040000fa
:10590c00f7b5150001938a680b6900900c0093425f
:10591c0000da130022002b6043321278002a01d0e7
:10592c0001332b6023689b0602d52b6802332b6056
:10593c00062723681f4027d0230043331b785a1ea9
:10594c0093412268920630d4220001994332009888
:10595c00089eb047431c25d0062320682a68e168be
:10596c0003400025042b03d18d1aeb43db171d409c
:10597c00a3682269934201dd9b1aed180027bd42f2
:10598c0020d1002010e00137e3682a689b1abb4243
:10599c00d2dd22000123193201990098089eb047ec
:1059ac00431cf0d101204042febd3020e1184331b0
:1059bc00087021005a1c45310978a2184332023371
:1059cc001170c1e7220001231a3201990098089e38
:0a59dc00b047431ce6d00137d1e7c5
:020000040000fa
